:020000040000FA
:060000000A128A11122809
:10000800FE00030EF2000408F3000A08F40083124D
:1000180003137F08F5000A168A1169280A128A1143
:100028001528F801F901FA01FB01FC01FD01831310
:10003800C8308400E4300A168A15AF200A128A11E3
:10004800831790308400EB300A168A15AF200A1205
:100058008A111030840044300A168A15AF208301B3
:100068000A128A154428A4002408031DEA2A1F1628
:100078009F1624088312E500E50DE50D1F086506A7
:10008800C33965069F000030A3000030A20000308D
:10009800A1000130A0000A168A157A240A128A11D2
:1000A80000308316AA000030A9000030A8000030F4
:1000B800A7000130A5000030A60024080A168A15FA
:1000C80030260A128A113108BA003008B9002F0800
:1000D800B8002E08B70083162A088312BE008316BC
:1000E80029088312BD00831628088312BC008316D2
:1000F80027088312BB000A128A15DE220A128A1107
:100108003A088316AA00831239088316A9008312B5
:1001180038088316A800831237088316A7000A1622
:100128008A158B210A128A11013A0319A92801306C
:100138008316A5070318A60A0030A6070030260272
:100148000F3003192502031C61280030831626028C
:100158000A3003192502031C08000F30250626045F
:10016800031DC0282508FF3E8312A0008316260819
:100178000318013EFF3EC52825088312A0008316F8
:1001880026088312A100A201A30100300A128A11D5
:1001980051270A128A112308B1002208B000210849
:1001A800AF002008AE0083162A088312B500831614
:1001B80029088312B400831628088312B300831613
:1001C80027088312B2000A128A153D210A128A11E1
:1001D80031088316AA00831230088316A9008312F7
:1001E8002F088316A80083122E088316A7002A0852
:1001F8008312A300831629088312A20083162808F5
:100208008312A100831627088312A0004430A70098
:100218001930A600C030A5000030A4000A168A15BF
:100228006D270A128A110318C929C330BA00E330AE
:10023800B9000030B8000030B70083162A088312CE
:10024800BE00831629088312BD008316280883126E
:10025800BC00831627088312BB000A128A15DE2207
:100268000A128A113A088316A300831239088316E2
:10027800A200831238088316A10083123708831658
:10028800A00023088312CE00831622088312CD0013
:10029800831621088312CC00831620088312CB0012
:1002A8004430D2007F30D100C030D0000030CF00C1
:1002B8000A168A15DF210A128A114E088316CF0002
:1002C80083124D088316CE0083124C088316CD0086
:1002D80083124B088316CC003F308312CE00FA30CD
:1002E800CD003E30CC009030CB0083164F088312EF
:1002F800D20083164E088312D10083164D0883124C
:10030800D00083164C088312CF000A128A150B25D9
:100318000A128A114E088316CF0083124D088316DD
:10032800CE0083124C088316CD0083124B08831627
:10033800CC002A088312BE00831629088312BD0048
:10034800831628088312BC00831627088312BB0073
:10035800C330BA00E330B9000030B8000030B7004D
:100368000A128A15DE220A128A113A08D2003908BE
:10037800D1003808D0003708CF004030CE00A63072
:10038800CD006630CC006630782AC430BA001A3006
:10039800B9000030B8000030B70083162A0883126D
:1003A800BE00831629088312BD008316280883120D
:1003B800BC00831627088312BB000A128A15DE22A6
:1003C8000A128A113A088316A30083123908831681
:1003D800A200831238088316A100831237088316F7
:1003E800A00023088312CE00831622088312CD00B2
:1003F800831621088312CC00831620088312CB00B1
:100408004430D2007F30D100C030D0000030CF005F
:100418000A168A15DF210A128A114E088316CF00A0
:1004280083124D088316CE0083124C088316CD0024
:1004380083124B088316CC003F308312CE00543011
:10044800CD003530CC000D30CB0083164F08831219
:10045800D20083164E088312D10083164D088312EA
:10046800D00083164C088312CF000A128A150B2578
:100478000A128A114E088316CF0083124D0883167C
:10048800CE0083124C088316CD0083124B088316C6
:10049800CC002A088312BE00831629088312BD00E7
:1004A800831628088312BC00831627088312BB0012
:1004B800C430BA001A30B9000030B8000030B700B4
:1004C8000A128A15DE220A128A113A08D20039085D
:1004D800D1003808D0003708CF004030CE001530A2
:1004E800CD00C230CC008F30CB000A128A150B2504
:1004F8000A128A114E088316A30083124D08831628
:10050800A20083124C088316A10083124B0883169D
:10051800A00023088312CE00831622088312CD0080
:10052800831621088312CC00831620088312CB007F
:1005380083164F088312D20083164E088312D10007
:1005480083164D088312D00083164C088312CF00FF
:100558000A168A15DF210A128A114E088316CF005F
:1005680083124D088316CE0083124C088316CD00E3
:1005780083124B088316CC0044308312A300FA3050
:10058800A2000030A1000030A00083164F0883129B
:10059800A70083164E088312A60083164D088312FF
:1005A800A50083164C088312A4000A168A156D2725
:1005B8000A128A110318080044308316CF00FA3053
:1005C800CE000030CD000030CC0008001F129F1272
:1005D80024088312E500E50DE50D1F086506C339FB
:1005E80065069F000030A3000030A2000030A10083
:1005F8000130A0000A168A157A240A128A110030DE
:100608008316AA000030A9000030A8000030A70017
:100618000130A5000030A60024080A168A153026E5
:100628000A128A113108BA003008B9002F08B80038
:100638002E08B70083162A088312BE0083162908DD
:100648008312BD00831628088312BC00831627086E
:100658008312BB000A128A15DE220A128A113A088E
:100668008316AA00831239088316A9008312380852
:100678008316A800831237088316A7000A168A155E
:100688008B210A128A11013A0319582B013083165B
:10069800A5070318A60A0030A607003026020F3067
:1006A80003192502031C102B0030831626020A307A
:1006B80003192502031C08000F3025062604031D14
:1006C8006F2B2508FF3E8312A00083162608031807
:1006D800013EFF3E742B25088312A00083162608CE
:1006E8008312A100A201A30100300A128A11512726
:1006F8000A128A112308B1002208B0002108AF00AD
:100708002008AE0083162A088312B500831629082C
:100718008312B400831628088312B30083162708AF
:100728008312B2000A128A153D210A128A11310871
:100738008316AA00831230088316A90083122F0893
:100748008316A80083122E088316A7003F30831251
:10075800CE000E30CD00EC30CC007D30CB008316BF
:100768002A088312D200831629088312D10083161F
:1007780028088312D000831627088312CF000A1294
:100788008A150B250A128A114E088316CB0083128C
:100798004D088316CA0083124C088316C9008312B9
:1007A8004B088316C8004B088312A30083164A0817
:1007B8008312A200831649088312A10083164808F1
:1007C8008312A0004130A7007030A6000030A500B9
:1007D8000030A4000A168A156D270A128A11031818
:1007E800080000308316CB000030CA000030C90072
:1007F8000030C800080090300A168A15DB250A1256
:100808008A11831603171708FF007F080313C20015
:1008180003171808FF007F080313C10003171908FE
:10082800FF007F080313C00003171A08FF007F08A2
:100838000313BF00FF2E4130FF007F088312A00082
:10084800CA300A168A15C1210A128A110B300A16F3
:100858008A15D2220A128A11CA308312A1000130E5
:10086800A2000A168A15DC23080003171608031DC0
:10087800462C03134B08BD004A08BC004908BB00BE
:1008880048084E2C03134F08BD004E08BC004D0805
:10089800BB004C08BA0041308312CE002030CD0096
:1008A8000030CC000030CB0083163D088312D20004
:1008B80083163C088312D10083163B088312D000AC
:1008C80083163A088312CF000A128A150B250A12DA
:1008D8008A114E088316BD0083124D088316BC008A
:1008E80083124C088316BB0083124B088316BA0088
:1008F8008B1302300A168A15D2220A128A113D0871
:100908008312E80083163C088312E70083163B082D
:100918008312E60083163A088312E5000A168A1540
:1009280086260A128A1166088316A10083126508B2
:100938008316A0000A168A152A218B1708000317A8
:100948001608FF007F080313C20003171708FF00EB
:100958007F080313C10003171808FF007F0803135B
:10096800C00003171908FF007F080313BF004208DF
:10097800AC004108AB004008AA003F08A9000A16CD
:100988008A15F126F801F9018316D801D901080062
:1009980002300A168A15D2220A128A110130A000E2
:1009A8000030A1000A168A152A2108000317170823
:1009B800FF007F0883120313A0008316031716088D
:1009C8000A168A15E9240A128A1103300A168A15AA
:1009D800D2220A128A110A168A15C02008000317A3
:1009E80016080A168A153E220A128A11FF007F0885
:1009F80083160313BE0001300A168A15D2220A1282
:100A08008A113E080A168A15DE2008000317160800
:100A1800FF007F080313B600031718080313B0007C
:100A2800B101031717080313B200B3013208B3006A
:100A3800B20130083204B40031083304B500350877
:100A48008312A600831634088312A500831636087D
:100A58000A168A15AA230A128A11E92C03171608FE
:100A68000A168A15FA220A128A1124088316B9006E
:100A7800831223088316B80002300A168A15D22278
:100A88000A128A113908A1003808A0000A168A1526
:100A98002A2108009730FF007F088312A5008316DB
:100AA800031716080A168A154E230A128A11E92C0A
:100AB800CA30FF007F088312A300831603171608A5
:100AC8000A168A15FD210A128A1121302B2C420898
:100AD8008312BA00831641088312B90083164008AE
:100AE8008312B80083163F088312B70083160317D2
:100AF8001B08FF007F0883120313BB00831603172C
:100B080016080A168A1514210A128A11E92C4208B5
:100B18008312BA00831641088312B900831640086D
:100B28008312B80083163F088312B7008316031791
:100B380016080A168A1559210A128A11FF007F0819
:100B48008316BE0001300A168A15D2220A128A11AB
:100B58003E080A168A15DE2008004208A30041084C
:100B6800A2004008A1003F08A00003171C080313B7
:100B7800B000B10103171B080313B200B301320818
:100B8800B300B20130083204A40031083304A500D0
:100B9800031716080A168A1583220A128A11E92CE5
:100BA80042088312BA00831641088312B9008316DB
:100BB80040088312B80083163F088312B7008316D3
:100BC800031716080A168A15AA220A128A11380863
:100BD8008316B900831237083E2D03171B08FF0040
:100BE8007F080313B70037080A168A15D2220A129B
:100BF8008A1142088312AC00831641088312AB00A5
:100C0800831640088312AA0083163F088312A9009E
:100C180083163708FF007F088312AD00CA30FF0033
:100C28007F08AE008316031716080A168A112025B6
:100C3800080042088312AD00831641088312AC00F5
:100C4800831640088312AB0083163F088312AA005C
:100C5800831603171B08FF007F0883120313AE00D7
:100C68009C30AF000130B0008316031716080A162F
:100C78008A114A220A128A11E92C42088312AD000D
:100C8800831641088312AC00831640088312AB0018
:100C980083163F088312AA009B30FF007F08AE002E
:100CA8008316031716080A168A1157210A128A1181
:100CB800E92C42088312AC00831641088312AB006A
:100CC800831640088312AA0083163F088312A900DE
:100CD800CA30FF007F08AD008316031716080A16EE
:100CE8008A11B4230A128A11CA300A168A15722187
:100CF8000A128A112008013E0A168A15D2220A12FF
:100D08008A11CA308312A1000130A2000A168A157E
:100D1800DC230800031717080313B000B1013008DB
:100D2800A9003108AA00031716080A168A159D2576
:100D38000A128A11E92C031716080313B000B1012F
:100D48003008A6003108A7000A168A15FF200A12E3
:100D58008A11E92C031716080313B000B1013008F3
:100D6800B100B0010317170803133007A6000030BD
:100D7800031801303107A7000A168A1524230A121E
:100D88008A11E92C031716080313B000B1013008C3
:100D9800B100B0010317170803133007AA00003089
:100DA800031801303107AB009830FF007F08AC0012
:100DB8000A168A1541210A128A11E92C0317160806
:100DC800031DF12E1708031DED2E831203130710C0
:100DD800E92C831203130714E92C1603031DE92CCD
:100DE8001708031DFB2E831203138710E92C8312A7
:100DF80003138714E92C031714080313B000B10177
:100E08003108003A0319092F502F3008023A031904
:100E1800A32C013A0319CC2C0B3A0319DA2C013A0A
:100E28000319F32C033A03190A2D013A0319322D39
:100E3800073A03194E2D013A03195C2D1C3A031980
:100E48006B2D033A03198B2D013A0319B12D073A7B
:100E58000319D42D013A0319412E033A03195D2EC3
:100E6800013A03191D2E0F3A0319F12D013A0319FE
:100E78008E2E033A0319392C383A0319C62E063A2E
:100E88000319AE2E013A03199F2E153A0319E22EC3
:100E9800713A03191F2C502F0800A8002808031DB9
:100EA800A31F662F2009AA002109AB002209AC0064
:100EB8002309AD00AA0A0319AB0A0319AC0A0319DE
:100EC800AD0A6E2F2308AD002208AC002108AB0044
:100ED8002008AA002308220421042004031D7D2FD2
:100EE8000030A3000030A2000030A1000030A000B4
:100EF80008009630FF007F08A900FE302D05031971
:100F0800AE2F0130FF007F08A90701300310AD0C98
:100F1800AC0CAB0CAA0CFF3E031D8A2F812F0130AD
:100F2800FF007F08A9070130AA0700300318013025
:100F3800AB07003003180130AC070030031801304C
:100F4800AD0701300310AD0CAC0CAB0CAA0CFF3E86
:100F5800031DA62FFF302D050319C22F932F023032
:100F68002902031CC42F0130A9020130A400031078
:100F7800AA0DAB0DAC0DAD0DA40BBB2FAC1FB32F41
:100F88002918CE2FFF30AA05FF30AB057F30AC05FE
:100F9800FF30AD050310A90C2908A400A501A6017E
:100FA800A70118300310A40DA50DA60DA70DFF3E2F
:100FB800031DD62F2408AA042508AB042608AC0470
:100FC8002708AD042808031DA31FEB2FAD172D0814
:100FD800A3002C08A2002B08A1002A08A0000800E2
:100FE8000A168A151D220A128A11003A03190800E6
:060FF800831691140800AD
:10100000A530A0005A30A1000A168A152A210A121A
:101010008A152608033E0A168A15DE200A128A154A
:1010200082300A168A15DE200A128A152308A100CA
:101030002208A0000A168A152A210A128A15A90177
:101040002608290203183B2829082407A700250899
:101050000318013EA800270884008317281C831367
:1010600000080A168A15DE200A128A150130FF00D0
:101070007F08A907202801308312A0000030A100BA
:101080000A168A15A4210800023083160313C5002E
:101090000430C400B930C300C30B4C28C40B4C2827
:1010A000C50B4C285328831603130F168F160F17E2
:1010B00083128501860187018901EF30831685003F
:1010C0000F308600F0308700FF30890011300317A1
:1010D00088008901031381130F309500831286174E
:1010E000061786160030A3000030A2000330A100CE
:1010F000E830A0000A168A15B1240A128A15831650
:10110000811281150114811401158B120B128B179A
:101110000B17831210169016901083160C140130C2
:101120008312900064000A168A15D3200A128A15C9
:101130000030B1000130B0008630AF00A030AE000A
:101140000A168A1579230A128A1500308312A30021
:101150000130A200C230A1000030A0000A168A159A
:1011600061250A128A1510300A168A15FA220A1207
:101170008A1524088316C700831223088316C60025
:10118000460A031DD028470A031DD02800308312C9
:10119000A500A60010300A168A15AA230A128A157D
:1011A000013083160313C6070318C70A0030C707A8
:1011B00047088312A600831646088312A500103044
:1011C0000A168A15AA230A128A15F801F90183164C
:1011D0000313DA01DB01DC01DD01FD01FC018312F7
:1011E000071087100511851106090F39FF007F08C8
:1011F0008316E000E101E10A6211E3170130FF000C
:101200007F08E107023061060319E10161080A1253
:101210008A1137200A128A158316631CFD2883124F
:101220000317100883160313D7008312031711083E
:1012300083160313D600BB305606AA30031957068F
:10124000031DFD28831203171308FF007F08831670
:101250000313DF005F086006031D5F0A031DFD28FE
:101260001430DA000030DB000A128A11FF230A1260
:101270008A15831603136310FD2835088039FF0093
:101280007F08BF003508B6003607FF007F08C6009C
:10129000B41B4614460803195B29460A031D582946
:1012A0000030B5000030B4000030B3000030B200B0
:1012B000B417B50163290030B5000030B400003028
:1012C000B3000030B20031088039FF007F08BF064C
:1012D0003108B6003607FF007F08C700B01B47146F
:1012E000470803198129470A031D7E290030B100F0
:1012F0000030B0000030AF000030AE00B017B101D8
:1013000089290030B1000030B0000030AF0000305B
:10131000AE00310830042F042E04031DA82900302C
:10132000B5000030B4000030B3000030B2008030AF
:10133000B4047F30B5043F08FF007F08B5043508CA
:10134000B1003408B0003308AF003208AE00080026
:101350004608031DB4290030B1000030B000003051
:10136000AF000030AE0008004608B600B7013708ED
:10137000B90047083602B800031CB90338087F3E9D
:10138000C00039080318013E003EC1003508BE0008
:101390003408BD003308BC003208BB000030B50083
:1013A0000030B4000030B3000030B2000030C5009F
:1013B0000030C4000030C3000030C200C7011A3042
:1013C00047020318272A47080319032A0130B600E9
:1013D0000310BB0DBC0DBD0DBE0DB60BE8290130D1
:1013E000B6000310B20DB30DB40DB50DB60BF12957
:1013F000C51B32140130B6000310C20DC30DC40D5D
:10140000C50DB60BFC2931083E02031D112A300818
:101410003D02031D112A2F083C02031D112A2E082C
:101420003B02031C222A45172E08BB022F08031C6F
:101430002F0FBC023008031C300FBD023108031C03
:10144000310FBE020130FF007F08C707DF293E08C9
:101450003D043C043B04031D4214B41B4A2A0130E2
:10146000B6000310B20DB30DB40DB50DB60B312A95
:10147000C51B32140130B6000310C20DC30DC40DDC
:10148000C50DB60B3C2AFF30C0070318C10AFF3058
:10149000C1072D2AC701C51F632AFF304205B600C8
:1014A000FF304305B700FF304405B8007F304505E5
:1014B000B900390838043704360403193218612A90
:1014C000632AC701C70A47080319952A0130B207E2
:1014D000003003180130B307003003180130B4079F
:1014E000003003180130B507351C952A3208B600C4
:1014F0003308B7003408B8003508B9000130BA0025
:10150000390DB90CB80CB70CB60CBA0B802A3908D7
:10151000B5003808B4003708B3003608B20001300F
:10152000C0070318C10A0030C1074108803AFF0014
:1015300080307F02031D9E2AFF304002031CAE2A2A
:10154000FF3083120313C0000030C1000030B5002B
:101550000030B4000030B3000030B2008312031337
:101560004108803AFF0080307F02031DB92A013014
:1015700040020318C82A83120313C001C1010030BE
:10158000B5000030B4000030B3000030B200BF013D
:10159000831203134008FF007F08C600461CD22AAE
:1015A000B417D62A7F30FF007F08B4054608B6007E
:1015B0000310360CFF007F08B5009B293A088039DC
:1015C000FF007F08C7003A08BF003F07FF007F0801
:1015D000C900B91B491449080319FC2A490A031D0B
:1015E000F92A0030BA000030B9000030B8000030ED
:1015F000B700B917BA01042B0030BA000030B900A7
:101600000030B8000030B7003E088039FF007F0886
:10161000C80048084706031D47173E08BF003F079C
:10162000FF007F08C800BD1B481448080319262B7B
:10163000480A031D232B0030BE000030BD000030DF
:10164000BC000030BB00BD17BE012E2B0030BE0019
:101650000030BD000030BC000030BB00490848022B
:101660000318742B471F382B8030FF007F08C706F4
:101670004908FF007F08CA004808FF007F08C9002A
:101680004A08FF007F08C8003708FF007F08CA002B
:101690003B08FF007F08B7004A08FF007F08BB0037
:1016A0003808FF007F08CA003C08FF007F08B80028
:1016B0004A08FF007F08BC003908FF007F08CA0005
:1016C0003D08FF007F08B9004A08FF007F08BD0001
:1016D0003A08FF007F08CA003E08FF007F08BA00F2
:1016E0004A08FF007F08BE00CA014808BF00C001C9
:1016F0004008C20049083F02C100031CC20342085F
:10170000803AFF0080307F02031D882B1A3041028F
:10171000031CC12B831203133A083904380437041D
:101720000319942B0130952B0030FF007F08CA006D
:101730000030BA000030B9000030B8000030B70007
:101740004808FF007F08C900C72B4A1CB02B4A0875
:10175000BF0003103F0C0138FF007F08CA00B22B06
:101760000310CA0C3718CA170130BF003A0DBA0C63
:10177000B90CB80CB70CBF0BB62B0130FF007F08BB
:10178000C9078312031348084902031CA52B471BF2
:10179000082C4908031DD52B0030BA000030B900D1
:1017A0000030B8000030B70008003B08B7073C081D
:1017B00003110318013E031DB8073D080311031868
:1017C000013E031DB9073E0803110318013E031D26
:1017D000BA073A1CAA2C4A1CF62B4A08BF00031071
:1017E0003F0C0138FF007F08CA00F82B0310CA0C19
:1017F0003718CA170130BF003A0DBA0CB90CB80C33
:10180000B70CBF0BFC2B0130FF007F08C907AA2CC7
:101810003A08803AFF003E08803A7F02031D1A2CE6
:101820003D083902031D1A2C3C083802031D1A2CEE
:101830003B0837020318722CFF30BF00FF30C00096
:10184000FF30C100FF30C2003B08C3003C08C400A9
:101850003D08C5003E08C6003708C3023808031C0F
:10186000380F332C342CC4023908031C390F392C9F
:101870003A2CC5023A08031C3A0F3F2C402CC602F2
:101880004308BF0744080318440F472C482CC007DF
:1018900045080318450F4D2C4E2CC1074608031868
:1018A000460AC2074208BA004108B9004008B80019
:1018B0003F08B7008030FF007F08C706CA09CA0A80
:1018C0004A08031D802C0130B7070030031801308F
:1018D000B807003003180130B90700300318013091
:1018E000BA07802C3B08B7023C08031C3C0FB80227
:1018F0003D08031C3D0FB9023E08031C3E0FBA020F
:101900003A08390438043704031DA82C4A08031D7B
:10191000A82C0030BA000030B9000030B800003008
:10192000B70008000130BF000310B70DB80DB90DA6
:10193000BA0DBF0B942CCA1B37144A1CA12C0314DC
:10194000A22C0310CA0D49080319A82C0130C902A2
:10195000B91F922CC801CA1FB52C4A087F39031938
:101960003718B32CB52CC801C80A48080319E82C4D
:101970000130B707003003180130B80700300318F2
:101980000130B907003003180130BA073A1CE82CBF
:101990003708BF003808C0003908C1003A08C20043
:1019A0000130C300420DC20CC10CC00CBF0CC30BF4
:1019B000D22C4208BA004108B9004008B8003F08DC
:1019C000B700490A0319E82C0130FF007F08C90756
:1019D000490A031D4908031DF82C0030BA000030E5
:1019E000B9000030B8000030B70049080319C7013A
:1019F000491CFC2CB917002D7F30FF007F08B9056A
:101A00004908BF0003103F0CFF007F08BA00C71F42
:101A10000800BA1708004E088039FF007F08D80078
:101A20004E08D3005307FF007F08DE00CD1B5E1475
:101A30005E080319282D5E0A031D262D0030CE00F6
:101A40000030CD000030CC000030CB00CD17302D61
:101A50000030CE000030CD000030CC000030CB0094
:101A600052088039FF007F08D8065208D300530778
:101A7000FF007F08D900D11B5914590803194D2DB7
:101A8000590A031D4B2D0030D2000030D100003028
:101A9000D0000030CF00D117552D0030D2000030DB
:101AA000D1000030D0000030CF005908031D5E087F
:101AB000031D632D0030CE000030CD000030CC007F
:101AC0000030CB0008004B08FF007F08A000510841
:101AD0000A168A1560220A128A152108E4002008D5
:101AE000E3006308D300D401D501D6015608DD0018
:101AF0005508DC005408DB005308DA006408D30002
:101B0000D401D501D6015608E2005508E100540879
:101B1000E0005308DF004C08FF007F08A0005008D9
:101B20000A168A1560220A128A152108E400200884
:101B3000E3006308D300D401D501D6015308DA07C6
:101B4000540803110318013E031DDB075508031158
:101B50000318013E031DDC07560803110318013E5C
:101B6000031DDD076408D300D401D501D601530855
:101B7000DF07540803110318013E031DE007550851
:101B800003110318013E031DE10756080311031852
:101B9000013E031DE2074D08FF007F08A0004F082B
:101BA0000A168A1560220A128A152108E400200804
:101BB000E3006308D300D401D501D6015308DA0746
:101BC000540803110318013E031DDB0755080311D8
:101BD0000318013E031DDC07560803110318013EDC
:101BE000031DDD076408D300D401D501D6015308D5
:101BF000DF07540803110318013E031DE0075508D1
:101C000003110318013E031DE107560803110318D1
:101C1000013E031DE2070830D3000310DA0DDB0D8F
:101C2000DC0DDD0DD30B0D2E4C08FF007F08A0004E
:101C30004F080A168A1560220A128A152108E40044
:101C40002008E3006308D3006408D400D501D6015E
:101C50005308DA07540803110318013E031DDB077C
:101C6000550803110318013E031DDC075608031134
:101C70000318013E031DDD074B08FF007F08A0008D
:101C800050080A168A1560220A128A152108E400F3
:101C90002008E3006308D3006408D400D501D6010E
:101CA0005308DA07540803110318013E031DDB072C
:101CB000550803110318013E031DDC0756080311E4
:101CC0000318013E031DDD070830D3000310DA0DB1
:101CD000DB0DDC0DDD0DD30B662E4B08FF007F08FE
:101CE000A0004F080A168A1560220A128A152108D8
:101CF000E4002008E3006308D3006408D400D501A1
:101D0000D6015308DA07540803110318013E031DD6
:101D1000DB07550803110318013E031DDC075608B5
:101D200003110318013E031DDD074C08FF007F0867
:101D3000A00051080A168A1560220A128A15210885
:101D4000E4002008E3006308D3006408D400D50150
:101D5000D6015308DF07540803110318013E031D81
:101D6000E007550803110318013E031DE10756085B
:101D700003110318013E031DE2074D08FF007F0811
:101D8000A00050080A168A1560220A128A15210836
:101D9000E4002008E3006308D3006408D400D50100
:101DA000D6015308DF07540803110318013E031D31
:101DB000E007550803110318013E031DE10756080B
:101DC00003110318013E031DE2074D08FF007F08C1
:101DD000A00051080A168A1560220A128A152108E5
:101DE000E4002008E3006308D3006408D400D501B0
:101DF000D60108300310D30DD40DD50DD60DFF3EFE
:101E0000031DFA2E5308DF07540803110318013E7F
:101E1000031DE007550803110318013E031DE107E8
:101E2000560803110318013E031DE2075D08D300A5
:101E3000D401D501D6015308DF0754080311031854
:101E4000013E031DE007550803110318013E031D61
:101E5000E107560803110318013E031DE20708308D
:101E6000D3000310DA0DDB0DDC0DDD0DD30B312FAC
:101E70005E085907D300D401D40D5308823EE30015
:101E800054080318013EFF3EE400E11B622F0130BD
:101E9000D3000310DF0DE00DE10DE20DD30B492F50
:101EA000DD1B5F140130D3000310DA0DDB0DDC0DF8
:101EB000DD0DD30B542FFF30E3070318E40AFF3086
:101EC000E407452FD901DD1F7B2FFF305A05D300D2
:101ED000FF305B05D400FF305C05D5007F305D0529
:101EE000D600560855045404530403195F18792F7B
:101EF0007B2FD901D90A59080319AD2F0130DF070B
:101F0000003003180130E007003003180130E1070A
:101F1000003003180130E207621CAD2F5F08D300C8
:101F20006008D4006108D5006208D6000130D700EF
:101F3000560DD60CD50CD40CD30CD70B982F5608B5
:101F4000E2005508E1005408E0005308DF000130CA
:101F5000E3070318E40A0030E4076408803AFF004E
:101F600080307F02031DB62FFF306302031CC32F96
:101F70007F3083120313E2008030E1000030E00084
:101F80000030DF00F32F831203136408803AFF0050
:101F900080307F02031DCE2F013063020318DC2F37
:101FA000003083120313E2000030E1000030E00053
:101FB0000030DF00D801F32F831203136308FF0002
:101FC0007F08DE00FF30DF05FF30E0057F30E105F0
:101FD0000030E2055E18E1175E08D3000310530CD1
:101FE000FF007F08E2005808FF007F08E204620853
:101FF000CE006108CD006008CC005F08CB0008006F
:102000000A168A151D220A168A11003A03190800B9
:102010002308930008000030AC000030AB00003013
:10202000AA000030A9002308220421042004031977
:102030006028AD01AD0AA31B2B280130A8000310B6
:10204000A00DA10DA20DA30DA80B1F280130FF00AC
:102050007F08AD071B280130A8000310A90DAA0DA9
:10206000AB0DAC0DA80B2D2823082702031D422819
:1020700022082602031D422821082502031D4228AA
:1020800020082402031C53282008A4022108031C52
:10209000210FA5022208031C220FA6022308031CFD
:1020A000230FA702291401300310A30CA20CA10CCA
:1020B000A00CFF3E031D54280130AD02031D2B2848
:1020C0002C08A3002B08A2002A08A1002908A000C0
:1020D00008008B188B100C1CE428B1308F00F330F3
:1020E0008E000C108316E31F7728E31364000A3078
:1020F000F8070318F90A0030F90703307902E830CD
:1021000003197802031C8628F801F90101307902CD
:10211000F4300319780203189128831203138617E9
:10212000942883120313861383165A085B04031939
:10213000A2280A30DA020030031CDB03DB02831220
:102140000617A4288312061383165C085D0403197E
:10215000B2280A30DC020030031CDD03DD028312EA
:102160008616B428831286120A308316D207031803
:10217000D30A0030D3070A30D8070318D90A003031
:10218000D907E8305806033003195906031DE4281F
:10219000D801D9010130FF007F08FD073C307D06E2
:1021A000031DE428FD010130FF007F08FA073C30E1
:1021B0007A06031DE428FA010130FF007F08FC07BE
:1021C00018307C060319FC0183128C1E4B298316E0
:1021D00063141E30F6000030F700D401D501103032
:1021E000FF007F08DE007608770403192629831292
:1021F00003138C1E1F291A08FF0083165E08840033
:102200007F08831780005508803AFF0080307F02E6
:10221000031D0C293330540203181A290130831688
:102220000313D4070318D50A0030D5070130FF0087
:102230007F08DE071E30F6000030F700F32801307B
:10224000F6020030031CF703F702F328831603138A
:102250005E088400831780018312981C4B29181292
:1022600018161A08F000F1017008F6007108F7005E
:102270001A08F000F1017008F6007108F7001A085A
:10228000F000F1017008F6007108F70003179001E3
:1022900083160313E31475088312FF0074088A0081
:1022A00073088400720E8300FE0E7E0E09008312F6
:1022B0000313B1002D08031D080002302C02031D7A
:1022C000692900302B02031D692900302A02031DF1
:1022D0006929031808002D08031D7C2901302C02F0
:1022E000031D7A2900302B02031D7A2900302A02AF
:1022F000031D7A29031C81290830FF007F08B200E2
:102300008229B2013108FF007F08B3000310B30D2A
:10231000A030FF007F08B3043208FF007F08B30439
:102320000A168A15EE200A168A1183123308AF00A6
:10233000B0012F08A3003008A4000A168A1100205B
:102340000A168A112B08AF00B0012F08A30030082D
:10235000A4000A168A1100200A168A112A08AF0062
:10236000B0012F08A3003008A4000A168A1100202B
:102370000A168A112E088400831700080319302AD0
:102380006400831203132D08031D080002302C0281
:10239000031DD22900302B02031DD22900302A024E
:1023A000031DD229031808002A08013E7F39031DA6
:1023B0000E2A2E08840083170008AF00B0012F08F2
:1023C000A3003008A4000A168A1100200A168A11F8
:1023D0000A168A15B7200A168A1100308312A30044
:1023E0000030A2000030A1000530A0000A168A15B6
:1023F000B1240A168A110130AA07003003180130EF
:10240000AB07003003180130AC070030031801306F
:10241000AD070130FF007F08AE076B292E0884004E
:1024200083170008AF00B0012F08A3003008A400F4
:102430000A168A1100200A168A110130FF007F084F
:10244000AE070130AA07003003180130AB07003097
:1024500003180130AC07003003180130AD07BA296A
:102460000030A300A4000A168A1100200A168A115F
:102470000A168A15B7200A168A1100308312A300A3
:102480000030A2000030A1000530A0000A168A1515
:10249000B124080083120313B40014308316DC0047
:1024A0000030DD0083122D08031D080002302C02CD
:1024B000031D622A00302B02031D622A00302A020B
:1024C000031D622A031808002D08031D752A013018
:1024D0002C02031D732A00302B02031D732A0030C7
:1024E0002A02031D732A031C7A2A0830FF007F0882
:1024F000B5007B2AB5013408FF007F08B600031041
:10250000B60DA030FF007F08B6043508FF007F0835
:10251000B6040A168A15EE200A168A1183123608A6
:10252000B100B2013108A3003208A4000A168A11D2
:1025300000200A168A112B08B100B2013108A3004D
:102540003208A4000A168A1100200A168A112A08E5
:10255000B100B2013108A3003208A4000A168A11A2
:1025600000200A168A11B3012E08FF3EB100FF3089
:1025700003180030B2003208803A803C031DC22AA2
:102580003108330203188F2B6400831203132D08C4
:10259000031D080002302C02031DD62A00302B0236
:1025A000031DD62A00302A02031DD62A031808006C
:1025B0002A08013E7F39031D652B2F0884008317ED
:1025C000301C83130008B100B2013108A3003208A7
:1025D000A4000A168A1100200A168A110A168A1502
:1025E000B7200A168A1100308312A3000030A2001F
:1025F0000030A1000530A0000A168A15B1240A1681
:102600008A110130AA07003003180130AB070030EF
:1026100003180130AC07003003180130AD0701305A
:10262000AF070318B00A0030B0072D08031D262B92
:1026300001302C02031D242B00302B02031D242B00
:1026400000302A02031D242B031C2B2B0830FF0013
:102650007F08B5002C2BB5013408FF007F08B600B9
:102660000310B60DA030FF007F08B6043508FF0048
:102670007F08B6040A168A15EE200A168A118312FC
:102680003608B100B2013108A3003208A4000A16CE
:102690008A1100200A168A112B08B100B2013108F4
:1026A000A3003208A4000A168A1100200A168A1113
:1026B0002A08B100B2013108A3003208A4000A16AA
:1026C0008A1100200A168A118A2B2F08840083178A
:1026D000301C83130008B100B2013108A300320896
:1026E000A4000A168A1100200A168A110130AF07C9
:1026F0000318B00A0030B0070130AA0700300318F1
:102700000130AB07003003180130AC07003003186C
:102710000130AD070130FF007F08B307B42A8312F0
:1027200003132F0884008317301C83130008B100A3
:10273000B2013108A3003208A4000A168A11002051
:102740000A168A110A168A15B7200A168A1100304D
:102750008312A3000030A2000030A1000530A000C9
:102760000A168A15B124080083120313B100B201BE
:102770002C08031D080002302B02031DC72B00305C
:102780002A02031DC72B00302902031DC72B031883
:1027900008002C08031DDA2B01302B02031DD82B57
:1027A00000302A02031DD82B00302902031DD82B2C
:1027B000031CDF2B0830FF007F08B200E02BB201C2
:1027C0003108FF007F08B3000310B30DA030FF00F5
:1027D0007F08B30433143208FF007F08B3040A16DD
:1027E0008A15EE200A168A1183123308FE39AE00CC
:1027F000AF012E08A3002F08A4000A168A1100209A
:102800000A168A112A08AE00AF012E08A3002F086D
:10281000A4000A168A1100200A168A112908AE009F
:10282000AF012E08A3002F08A4000A168A11002069
:102830000A168A110A128A11F4270A168A118312BB
:102840003308AE00AF012E08A3002F08A4000A161B
:102850008A1100200A168A11B0012C08031D092DC7
:1028600002302B02031D3C2C00302A02031D3C2C9D
:1028700000302902031D3C2C0318092D2908013EB4
:102880007F39031DD92C0030A300A4000A168A1535
:102890000F240A168A112308FF002D0884007F08E0
:1028A000831780000A168A15B7200A168A110D3080
:1028B00083120313AF00FB30AE00AE0B5D2CAF0BE9
:1028C0005D2C013083120313A90700300318013077
:1028D000AA07003003180130AB070030031801309D
:1028E000AC070130FF007F08AD072C08031D862CC4
:1028F00001302B02031D842C00302A02031D842C7E
:1029000000302902031D842C031C8B2C0830FF008F
:102910007F08B2008C2CB2013108FF007F08B300A1
:102920000310B30DA030FF007F08B3043314320846
:10293000FF007F08B3040A168A15EE200A168A11D2
:1029400083123308FE39AE00AF012E08A3002F0812
:10295000A4000A168A1100200A168A112A08AE005D
:10296000AF012E08A3002F08A4000A168A11002028
:102970000A168A112908AE00AF012E08A3002F08FD
:10298000A4000A168A1100200A168A110A128A1156
:10299000F4270A168A1183123308AE00AF012E08FD
:1029A000A3002F08A4000A168A1100200A168A1113
:1029B000002D0130A3000030A4000A168A150F2450
:1029C0000A168A112308FF002D0884007F08831748
:1029D00080002D08840000080319092D0130FF0034
:1029E0007F08AD070130A907003003180130AA079E
:1029F000003003180130AB07003003180130AC077A
:102A00000130B007FF303007AE0040302E02031C0B
:102A10002D2C0030A300A4000A168A150F240A16D4
:102A20008A110A168A15B7200A168A11B93083123C
:102A30000313AE001B2D1C2DAE0B1A2D1F2D0800ED
:102A400083120313B300B40114308316DC0000308A
:102A5000DD0083122C08031D080002302B02031D29
:102A6000392D00302A02031D392D00302902031DA3
:102A7000392D031808002C08031D4C2D01302B02A2
:102A8000031D4A2D00302A02031D4A2D0030290261
:102A9000031D4A2D031C512D0830FF007F08B40090
:102AA000522DB4013308FF007F08B5000310B50DA7
:102AB000A030FF007F08B50435143408FF007F08FC
:102AC000B5040A168A15EE200A168A1183123508F3
:102AD000FE39AF00B0012F08A3003008A4000A1689
:102AE0008A1100200A168A112A08AF00B0012F08A7
:102AF000A3003008A4000A168A1100200A168A11C1
:102B00002908AF00B0012F08A3003008A4000A165E
:102B10008A1100200A168A110A128A11F4270A164D
:102B20008A1183123508AF00B0012F08A3003008C6
:102B3000A4000A168A1100200A168A11B2012D0873
:102B400032020318792E6400831203132C08031D2C
:102B5000792E02302B02031DB52D00302A02031DF1
:102B6000B52D00302902031DB52D0318792E290833
:102B7000013E7F39031D4D2E0030A300A4000A162C
:102B80008A150F240A168A112308FF002E088400D4
:102B90007F08831780000A168A15B7200A168A1143
:102BA00083122E088400831700080A168A15DE2077
:102BB0000A168A1101308312A90700300318013068
:102BC000AA07003003180130AB07003003180130AA
:102BD000AC072C08031DFA2D01302B02031DF82D24
:102BE00000302A02031DF82D00302902031DF82DA4
:102BF000031CFF2D0830FF007F08B400002EB40135
:102C00003308FF007F08B5000310B50DA030FF00AA
:102C10007F08B50435143408FF007F08B5040A1690
:102C20008A15EE200A168A1183123508FE39AF0084
:102C3000B0012F08A3003008A4000A168A11002052
:102C40000A168A112A08AF00B0012F08A300300825
:102C5000A4000A168A1100200A168A112908AF005A
:102C6000B0012F08A3003008A4000A168A11002022
:102C70000A168A110A128A11F4270A168A11831277
:102C80003508AF00B0012F08A3003008A4000A16D1
:102C90008A1100200A168A11742E0130A300003018
:102CA000A4000A168A150F240A168A112308FF00A9
:102CB0002E0884007F08831780002E0884000008F7
:102CC0000A168A15DE200A168A1101308312A90716
:102CD000003003180130AA07003003180130AB0799
:102CE000003003180130AC070130FF007F08B20745
:102CF0009F2D0030A300A4000A168A150F240A167F
:102D00008A110A168A15B7200A168A11B930831259
:102D10000313AF008B2E8C2EAF0B8A2E8F2E080044
:102D2000B400B50114308316DC000030DD008312DE
:102D30002D08031D080002302C02031DA72E0030B1
:102D40002B02031DA72E00302A02031DA72E0318F5
:102D500008002D08031DBA2E01302C02031DB82EC9
:102D600000302B02031DB82E00302A02031DB82E9E
:102D7000031CBF2E0830FF007F08B500C02EB50130
:102D80003408FF007F08B6000310B60DA030FF0026
:102D90007F08B60436143508FF007F08B6040A160B
:102DA0008A15EE200A168A1183123608FE39B00001
:102DB000B1013008A3003108A4000A168A110020CE
:102DC0000A168A112B08B000B1013008A30031089F
:102DD000A4000A168A1100200A168A112A08B000D7
:102DE000B1013008A3003108A4000A168A1100209E
:102DF0000A168A110A128A11F4270A168A118312F6
:102E00003608B000B1013008A3003108A4000A164A
:102E10008A1100200A168A11B3012E083302031802
:102E2000E92F6400831203132D08031DE92F0230DC
:102E30002C02031D232F00302B02031D232F0030F3
:102E40002A02031D232F0318E92F2A08013E7F3988
:102E5000031DC22F0030A300A4000A168A150F24F8
:102E60000A168A112308FF002F0884007F088313A5
:102E700080000A168A15B7200A168A1100308312BC
:102E8000A3000030A2000030A1000530A0000A1607
:102E90008A15B1240A168A110130AA0700300318D6
:102EA0000130AB07003003180130AC0700300318C5
:102EB0000130AD070130FF007F08AF072D08031D6B
:102EC0006F2F01302C02031D6D2F00302B02031DCC
:102ED0006D2F00302A02031D6D2F031C742F083044
:102EE000FF007F08B500752FB5013408FF007F088B
:102EF000B6000310B60DA030FF007F08B6043614EC
:102F00003508FF007F08B6040A168A15EE200A1657
:102F10008A1183123608FE39B000B1013008A300CF
:102F20003108A4000A168A1100200A168A112B08FB
:102F3000B000B1013008A3003108A4000A168A11BC
:102F400000200A168A112A08B000B1013008A30037
:102F50003108A4000A168A1100200A168A110A12E2
:102F60008A11F4270A168A1183123608B000B101BB
:102F70003008A3003108A4000A168A1100200A169E
:102F80008A11E42F0130A3000030A4000A168A152C
:102F90000F240A168A112308FF002F0884007F08D7
:102FA000831380000130FF007F08AF070130AA07BC
:102FB000003003180130AB07003003180130AC07B4
:102FC000003003180130AD070130FF007F08B30760
:102FD0000D2F0030A300A4000A168A150F240A162C
:102FE0008A110A168A15B7200A168A11B930831277
:102FF0000313B000FB2FFC2FB00BFA2FFF2F08009C
:10300000FF1B0A2883137F1883170008840A0319FB
:10301000FF0A080018308A000408840A8207003476
:1030200066346634A634BF341434AE342B34C13421
:10303000003440341C344634663486349634433489
:103040000034C0347F34443400340034003400345D
:10305000C434FF347F343F348034EF34FF34BE3423
:103060009034E134A9343E34EC3482347634BE34C6
:103070008234AD342B343E340E343C34C334BD344E
:103080008734D13413343D3441347834D334BB34B1
:103090000034603478344534003440341C344634D1
:1030A000763431342E3430342E34323430340034EB
:0630B0004F344B340034E4
:10315E0064008001840A0406031900340406B028B2
:10316E000A168A151D22003A8316031D11158B1798
:10317E00080049308312A1008030A2000A168A1579
:10318E00DC2308009F149F18CA281E08A10083166E
:10319E001E088312A0000800C030831203139F0480
:1031AE00803083169F009F1783121F14080083120E
:1031BE000313A00014308316DA000030DB00981CD5
:1031CE00E6288312200899008316981608008B13A0
:1031DE0014308316DC000030DD000A168A151D221D
:1031EE000A168A15003A03190800831611140800EE
:1031FE000330FF007F08A8002708FF007F08A90002
:10320E002608FF007F08AA000330FF007F08A200F7
:10321E00A8300A168A154424080083120313BC0032
:10322E003A08AD003908AC003808AB003708AA00E0
:10323E00AE01AE0A3B30AF000030B0003C080A16BB
:10324E008A114A220800A030FF007F088312EF0087
:10325E006F0A8400831300080A168A15DE200A16E8
:10326E008A1583126F088400831300080A168A15C4
:10327E00DE2008002B08A3002A08A2002C08A400B8
:10328E000130A5002C080A168A1572210A168A1515
:10329E002008013EFF007F088316A6000A128A1539
:1032AE000020080083120313BB003A08AD00390852
:1032BE00AC003808AB003708AA00AE01AE0A3C30AD
:1032CE00FF007F08AF003B080A168A119026831272
:1032DE0003133C08080083120313A4002408FF0004
:1032EE007F08A3002308840083170008031984298C
:1032FE000130FF007F08A307792924082302A000CC
:10330E00A101A01BA1030800631C9F2983120317B0
:10331E00130883160313600603199A2983120317E1
:10332E00130A031D9F2983120313A001A00AA229C9
:10333E0083120313A00120080800A401A50121088F
:10334E002502031DAC2920082402031808000330AF
:10335E0083120313A3009730A200A20BB429A30B70
:10336E00B429013083120313A4070318A50A0030F1
:10337E00A507A629A1002108FF007F08A2002008AA
:10338E0084000A168A150A200A168A15FF002208DA
:10339E0084007F088317800000080319080001309D
:1033AE00FF007F08A2070130FF007F08A007C62993
:1033BE008030CE065208BA005108B9005008B80045
:1033CE004F08B7004E08BE004D08BD004C08BC00AB
:1033DE004B08BB000A128A15DE223A08CE003908C5
:1033EE00CD003808CC003708CB0008008312031339
:1033FE00A40024080A168A153E220A168A15FF0012
:10340E007F080313A5000130FF007F08A4072508DD
:10341E00FF00230884007F08831780000130FF001F
:10342E007F08A307250803190800002AC830FF00EB
:10343E007F088312A2002F2A0130A20203308312CA
:10344E000313A1009730A000A00B2B2AA10B2B2A4F
:10345E00831603131419372A11081F3903193B2A2F
:10346E0083122208031D232A8312220808008312C6
:10347E000313A20014308316DC000030DD000317A6
:10348E008C18462A83120313220803178D00831605
:10349E008C130C144E3083120313A100EA30A000DB
:1034AE00A00B572AA10B572A0000831203170C08F2
:1034BE000800A800A401A5012008A200A30122086B
:1034CE00A6002308A700281C722A2608A4070318A2
:1034DE00A50A2708A50701300310A60DA70DFF3E6C
:1034EE00031D732A0310A80C2808031D6A2A250839
:1034FE00A1002408A00008000313A6002508FF0061
:10350E007F08A7002408FF007F08A8002308831265
:10351E00AD00831622088312AC0083162108831295
:10352E00AB00831620088312AA000230FF007F082A
:10353E00AE00A730AF000030B000831626080A1682
:10354E008A114A22080083120313BD003A08AD0007
:10355E003908AC003808AB003708AA000230FF006B
:10356E007F08AE003E30FF007F08AF003D080A1610
:10357E008A119026831203133E08BB00BC013B0840
:10358E00BC00BB013F083B07B700003003180130F9
:10359E003C07B800080083120313A100AA300A16D4
:1035AE008A15DE200A168A15BB300A168A15DE2009
:1035BE000A168A1560080A168A15DE200A168A155A
:1035CE0000300A168A15DE200A168A15031714080B
:1035DE000A168A15DE200A168A15831221080A1683
:1035EE008A15DE20080083120313A6002830FF0080
:1035FE007F08A700AA0126080A168A153E220A1677
:10360E008A15FF000313270884007F0883138000A8
:10361E000130FF007F08A6070130FF007F08A707D3
:10362E000130FF007F08AA0702302A02031C022B7A
:10363E002908A4002808A30008000A308312A0005D
:10364E000030A100831627088312A30083162608D4
:10365E008312A2000A168A1525250A168A15210834
:10366E008316A700831220088316A6000230FF00DF
:10367E007F08A8002608FF007F08A9000230FF007F
:10368E007F08A200A8300A168A1544240800831267
:10369E000313A600250884008317000803196E2B58
:1036AE00250884000008FF007F08A00026080A16DF
:1036BE008A15E9240A168A150130FF007F08831245
:1036CE000313A6070130FF007F08A507512B25081D
:1036DE0084000008FF007F08A00026080A168A153D
:1036EE00E9240800283094008316910183122E08D5
:1036FE00B2002F08B3003008B4003108B500023014
:10370E000310B20DB30DB40DB50DFF3E031D872B87
:10371E003508A3003408A2003308A1003208A00027
:10372E000030A7007A30A6001230A5000030A400A9
:10373E000A168A110B202008FF3E8316930094016F
:10374E008715071608008312AB002530FF007F088F
:10375E00AA00AC012A08840083130008FF007F082A
:10376E00A0002B080A168A15E9240A168A150130BC
:10377E00FF007F0883120313AA070130FF007F08A2
:10378E00AB070130FF007F08AC0702302C02031C90
:10379E00B12B4E3083120313A800EA30A700A70BFB
:1037AE00D62BA80BD62B000008002108A300220858
:1037BE00A4002408FF00230884000A168A1500209E
:1037CE000A168A15003A0319022C2408FF00230852
:1037DE0084000A168A1500200A168A150A168A15FA
:1037EE00DE200A168A1501308312A3070318A40AD5
:1037FE000030A407E02B2408FF00230884000A16DB
:10380E008A1500200A168A150A168A15DE20080067
:10381E000A168A151D220A168A15003A8316031DEA
:10382E0091150A168A151D220A168A15003A0319D1
:10383E00272C1308A500A6012508A7002608A80016
:10384E000A168A151D220A168A15003A0319412CEA
:10385E0023082404031D372C8316031391163A2CC8
:10386E00831603139112111683122808A400270839
:10387E00A3000800A301A4010800A400A530A00025
:10388E005A30A1000A168A152A210A168A1522080C
:10389E00013E0A168A15DE200A168A1580300A168F
:1038AE008A15DE200A168A15A5012208250203189C
:1038BE00712C25082407A300230884008313000815
:1038CE000A168A15DE200A168A150130FF007F08B7
:1038DE00A5075C2C01308312A0000030A1000A164F
:1038EE008A15A42108000030A9000030A80000307D
:1038FE00A7000030A6002908803AFF002308803A6E
:10390E007F02031D942C22082802031D942C2108EB
:10391E002702031D942C20082602031808000330EA
:10392E0083120313A5009730A400A40B9C2CA50BA7
:10393E009C2C013083120313A607003003180130AC
:10394E00A707003003180130A80700300318013014
:10395E00A907822C0030A9000030A8000030A70073
:10396E000030A6002908803AFF002308803A7F0223
:10397E00031DCB2C22082802031DCB2C2108270265
:10398E00031DCB2C20082602031808006400033008
:10399E0083120313A5009730A400A40BD42CA50BFF
:1039AE00D42C013083120313A60700300318013004
:1039BE00A707003003180130A807003003180130A4
:1039CE00A907B92C83120313A30014308316DC004D
:1039DE000030DD0003178C18F12C8B1FFB2C83128B
:1039EE000313A401A40AFE2C83120313A4012308BB
:1039FE0003178D000313200803178C0083168C13F6
:103A0E000C158B1355308D00AA308D008C1483123B
:103A1E0003132403031D152D8B17162D8B138316DD
:103A2E0003170C114E3083120313A200EA30A100CB
:103A3E00A10B1F2DA20B1F2D00000800A401A50134
:103A4E002008210403195C2DA601A60AA11B3B2DFB
:103A5E0001300310A00DA10DFF3E031D302D0130CE
:103A6E00FF007F08A6072D2D01300310A40DA50D14
:103A7E00FF3E031D3C2D21082302031D482D200867
:103A8E002202031C512D2008A2022108031CA303AD
:103A9E00A302241401300310A10CA00CFF3E031D41
:103AAE00522D0130A602031D3B2D2508A10024082E
:103ABE00A00008004B302106200422042304031D1D
:103ACE00722D9817181683161815181218130C3015
:103ADE0099000B178B2DC2302106031D8C2D22034E
:103AEE0020042304031D8C2D103083169900031718
:103AFE0087150313181583129817831618121813A7
:103B0E00831218160B1783168C1683160717871732
:103B1E00831218121816A5011A080130FF007F082B
:103B2E00A5070F30250203180800932D0313AB00D1
:103B3E000030AF000030AE000030AD000030AC0001
:103B4E002F08A3002E08A2002D08A1002C08A0000B
:103B5E002A08A5002908A4002B080A168A15832214
:103B6E000A168A156400023083160313AC07003060
:103B7E0003180130AD07003003180130AE070030D6
:103B8E0003180130AF072F08031D08002E08031D70
:103B9E00080004302D02031DD82D00302C02031D09
:103BAE00D82D03180800A72D8312A3002308840024
:103BBE000317110883178000840A1008800012086A
:103BCE00FF0003132308023E84007F0880000317C2
:103BDE001308FF0003132308033E84007F088000B0
:103BEE0003171408FF0003132308043E84007F0804
:103BFE00800003171508FF0003132308053E8400F9
:103C0E007F088000A101A2012308053E840022083E
:103C1E00803AA00080302002031D172E00082102DA
:103C2E0003180800831203132108163E840083171D
:103C3E000008FF0021082307A0002008063E84008C
:103C4E007F0880000130A1070318A20A0030A207E6
:103C5E000B2E8312B3003308B200B20DB20D1F0843
:103C6E003206C33932069F000030A3000030A20096
:103C7E000030A1000130A0000A168A157A240A1617
:103C8E008A15B401B501B601B60A0A168A15C920FD
:103C9E000A168A152008B4070318B50A2108B507B5
:103CAE000130FF007F08B60733303602031C4C2E5E
:103CBE003608FF3EA000FF3003180030A100350883
:103CCE00A3003408A2000A168A1525250A168A159D
:103CDE002108B5002008B4003408A0003508A10062
:103CEE00A201A30100300A128A1151272308B10044
:103CFE002208B0002108AF002008AE000800031013
:103D0E00670D680DFF007F08EE006E08031D982EEC
:103D1E000030E8000030E7000030E6000030E5003B
:103D2E0008006508E9006608EA006708EB00680805
:103D3E00EC001F300310EC0CEB0CEA0CE90CFF3E10
:103D4E00031DA12E6908FF007F08ED00E717FF3065
:103D5E00E505FF30E605FF30E7050030E805963053
:103D6E00EE02EE1FCF2E6E08803A973E031C8F2E6A
:103D7E0001300310E80CE70CE60CE50CFF3E031DCA
:103D8E00C02E0130FF007F08EE070319E22EBF2E72
:103D9E0020306E0203188F2E6E080319E22E0130AA
:103DAE00E9000310E50DE60DE70DE80DE90BD82E41
:103DBE000130EE02D32E6D0803190800E509E6095D
:103DCE00E709E809E50A0319E60A0319E70A0319E0
:103DDE00E80A08002C08A3002B08A2002A08A1005C
:103DEE002908A0004B088312D20083164A088312BA
:103DFE00D100831649088312D00083164808831217
:103E0E00CF004130CE002030CD000030CC0000304D
:103E1E00CB000A128A150B250A168A154E08E800E1
:103E2E004D08E7004C08E6004B08E5000A168A1517
:103E3E0086260A168A1566088316A500831265085B
:103E4E008316A40000300A168A1583220A168A15D4
:103E5E0083162C08A3002B08A2002A08A10029080B
:103E6E00A0004F088312D20083164E088312D10091
:103E7E0083164D088312D00083164C088312CF0090
:103E8E004130CE002030CD000030CC000030CB00D1
:103E9E000A128A150B250A168A154E08E8004D08D7
:103EAE00E7004C08E6004B08E5000A168A15862640
:103EBE000A168A1566088316A500831265088316EE
:103ECE00A40001300A168A1583220800003020054E
:103EDE00A80000302105A90080302205AA007F30FD
:103EEE002305AB002B082A0429042804031D872F61
:103EFE000030A3000030A2000030A1000030A0006E
:103F0E0000302405A80000302505A90080302605C4
:103F1E00AA007F302705AB002B082A0429042804A9
:103F2E00031DA12F0030A7000030A6000030A50011
:103F3E000030A400A31FC72F0030A8000030A90036
:103F4E000030AA008030AB002008A8022108031C14
:103F5E00210FB22FB32FA9022208031C220FB82F54
:103F6E00B92FAA022308031C230FBE2FBF2FAB02AB
:103F7E002B08A3002A08A2002908A1002808A000E7
:103F8E00A71FED2F0030A8000030A9000030AA00B6
:103F9E008030AB002408A8022508031C250FD82F5B
:103FAE00D92FA9022608031C260FDE2FDF2FAA0207
:103FBE002708031C270FE42FE52FAB022B08A700C1
:103FCE002A08A6002908A5002808A4008030A30608
:103FDE008030A70627082302031D080026082202A8
:103FEE00031D080025082102031D080024082002D5
:023FFE000800B9
:04400E008C2FFF3FB5
:00000001FF
