:020000040000FA
:060000000A128A11122809
:10000800FE00030EF2000408F3000A08F40083124D
:1000180003137F08F5000A168A11492B0A128A1160
:100028001528F801F901FA01FB01FC01FD01831310
:10003800A0308400DD300A168A1574220A128A114B
:10004800831790308400CA300A168A1574220A125F
:100058008A111030840044300A168A1574228301EC
:100068000A128A11CC2E90300A168A15AB270A126A
:100078008A1183160317170883120313DF005F081A
:100088008316EB000317180883120313DF005F08B9
:100098008316EA000317190883120313DF005F08A9
:1000A8008316E90003171A0883120313DF005F0899
:1000B8008316E800842B0B300A128A1501200A12D5
:1000C8008A1141308312A1008030A2000A168A15D5
:1000D80063250800831603171608031D7C280313DD
:1000E8002308E6002208E5002108E4002008842807
:1000F80003132708E6002608E5002508E40024087D
:10010800E30041308312AC002030AB000030AA007D
:100118000030A900831666088312B00083166508AC
:100128008312AF00831664088312AE008316630837
:100138008312AD000A128A11D7230A128A112C08D9
:100148008316E60083122B088316E50083122A081B
:100158008316E400831229088316E3008B13023008
:100168000A128A1501200A128A1166088312C6002B
:10017800831665088312C500831664088312C400B9
:10018800831663088312C3000A168A1131210A12E2
:100198008A114408CF004308CE000A168A150523A1
:1001A8008B17080083160317160883120313DF0042
:1001B8005F088316EB000317170883120313DF0089
:1001C8005F088316EA000317180883120313DF0079
:1001D8005F088316E9000317190883120313DF0069
:1001E8005F088316E8006B088312DB0083166A0831
:1001F8008312DA00831669088312D9008316680807
:100208008312D8000A168A119C21F801F901831675
:10021800B001B101080002300A128A1501200A1241
:100228008A1101308312CE000030CF000A168A15D9
:100238000523080083160317170883120313DF002A
:100248005F08A0008316031716080A168A15722677
:100258000A128A1103300A128A1501200A128A1119
:100268000A168A15852208008316031716080A1627
:100278008A151C240A128A110313DF005F088316EB
:10028800E70001300A128A1501200A128A1167084C
:100298000A168A15B922080083160317160883124E
:1002A8000313DF005F088316DF00031718088312A3
:1002B8000313DF00E00183160317170883120313E3
:1002C800E100E2016108E200E1015F0861048316D0
:1002D800DD008312600862048316DE005E08831264
:1002E800A60083165D088312A50083165F080A1608
:1002F8008A1531250A128A112E2983160317160822
:100308000A168A15AB240A128A1124088316E200F9
:10031800831223088316E10002300A128A1501208D
:100328000A128A1162088312CF00831661088312A9
:10033800CE000A168A15052308009730DF005F08EB
:10034800A5008316031716080A168A15D5240A125B
:100358008A112E29BC30DF005F08A300831603171B
:1003680016080A168A15FC230A128A1121300A1265
:100378008A1501200A128A11BC308312A1000030AC
:10038800A2000A168A156325080083166B088312D3
:10039800BA0083166A088312B900831669088312A3
:1003A800B800831668088312B700831603171B0862
:1003B80083120313DF005F08BB00831603171608B8
:1003C8000A168A15EF220A128A112E2983166B083B
:1003D8008312BA0083166A088312B9008316690863
:1003E8008312B800831668088312B70083160317B0
:1003F80016080A168A151B230A128A11DF005F08DD
:100408008316E70001300A128A1501200A128A11A0
:1004180067080A168A15B922080083166B08831222
:10042800D10083166A088312D000831669088312E4
:10043800CF00831668088312CE00831603171C08A2
:1004480083120313DF00E001831603171B088312CE
:100458000313E100E2016108E200E1015F086104C1
:10046800D20060086204D3008316031716080A1620
:100478008A15DC230A128A112E2983166B08831227
:10048800BA0083166A088312B900831669088312B2
:10049800B800831668088312B70083160317160876
:1004A8000A168A1583240A128A1138088316E2006C
:1004B800831237088E29831603171B088312031328
:1004C800DF005F088316E0006B088312AD00831617
:1004D8006A088312AC00831669088312AB0083167E
:1004E80068088312AA00831660088312DF005F0879
:1004F800AE00BC30E0006008AF0083160317160892
:100508000A128A1529200A128A1105300A128A1538
:1005180001200A128A1160088312DF005F08A10017
:10052800BC300A168A15A123080083166B088312AB
:10053800AD0083166A088312AC008316690883121B
:10054800AB00831668088312AA00831603171B08DA
:1005580083120313DF005F08AE009C30AF00013048
:10056800B0008316031716080A168A112A250A12DC
:100578008A112E2983166B088312AD0083166A0828
:100588008312AC00831669088312AB0083166808CF
:100598008312AA009B30DF005F08AE0083160317A2
:1005A80016080A168A1137240A128A112E29831668
:1005B8006B088312AC0083166A088312AB0083169B
:1005C80069088312AA00831668088312A900BC3040
:1005D800DF005F08AD008316031716080A168A1194
:1005E80094260A128A11BC3083120313A00000302B
:1005F800A1000A168A1568230A128A112008013EEA
:10060800BB2983160317170883120313DF00E001C1
:100618005F08D8006008D9008316031716080A1265
:100628008A11BF270A128A112E2983160317160862
:1006380083120313DF00E0015F08D6006008D700CB
:100648000A168A15DA220A128A112E298316031726
:10065800160883120313DF00E0015F08E000DF01E2
:10066800831603171708831203135F07D600003099
:10067800031801306007D7000A168A153E240A12AB
:100688008A112E2983160317160883120313DF0015
:10069800E0015F08E000DF018316031717088312E3
:1006A80003135F07DA000030031801306007DB002E
:1006B8009830E1006108DC000A168A1534230A1212
:1006C8008A112E29831603171608031D762B17087F
:1006D800031D722B8312031307102E298312031391
:1006E80007142E291603031D2E291708031D802B16
:1006F8008312031387102E298312031387142E29BC
:100708000317140883120313DF00E0016008003A9E
:1007180003198F2BD62B5F08023A0319D628013A02
:1007280003190F290B3A03191E29013A031938290D
:10073800033A03195029013A03198129073A031981
:10074800A129013A0319AE291C3A0319C929033A08
:100758000319EA29013A0319112A073A0319412A08
:10076800013A0319BE2A033A0319DB2A013A03198D
:10077800992A0F3A03195F2A013A0319052B033AFC
:1007880003196E28383A0319462B063A03192A2BFF
:10079800013A0319192B153A0319662B713A0319F3
:1007A8005F28D62B08002C088039B1003108B60024
:1007B8002C08B1003107B2003208B800AB1B38145E
:1007C80038080319F42B380A031DF22B0030AC004B
:1007D8000030AB000030AA000030A900AB17FC2B9A
:1007E8000030AC000030AB000030AA000030A90097
:1007F80030088039B1003108B6063008B100310739
:10080800B2003208B700AF1B371437080319192C88
:10081800370A031D172C0030B0000030AF0000303D
:10082800AE000030AD00AF17212C0030B000003012
:10083800AF000030AE000030AD003708031D3808A7
:10084800031D2F2C0030AC000030AB000030AA0094
:100858000030A90008002908B1003108A0002F08BD
:100868000A168A1560240A128A112108C200200873
:10087800C1004108B100B201B301B4013408BC00A1
:100888003308BB003208BA003108B9004208B10089
:10089800B201B301B4013408C0003308BF00320804
:1008A800BE003108BD002A08B1003108A0002E089A
:1008B8000A168A1560240A128A112108C200200823
:1008C800C1004108B100B201B301B4013108B90750
:1008D800320803110318013E031DBA073308031138
:1008E8000318013E031DBB07340803110318013E1A
:1008F800031DBC074208B100B201B301B4013108BD
:10090800BD07320803110318013E031DBE07330853
:1009180003110318013E031DBF0734080311031810
:10092800013E031DC0072B08B1003108A0002D08A7
:100938000A168A1560240A128A112108C2002008A2
:10094800C1004108B100B201B301B4013108B907CF
:10095800320803110318013E031DBA0733080311B7
:100968000318013E031DBB07340803110318013E99
:10097800031DBC074208B100B201B301B40131083C
:10098800BD07320803110318013E031DBE073308D3
:1009980003110318013E031DBF0734080311031890
:1009A800013E031DC0070830B1000310B90DBA0D90
:1009B800BB0DBC0DB10BD92C2A08B1003108A00021
:1009C8002D080A168A1560240A128A112108C20005
:1009D8002008C1004108B1004208B200B301B401C7
:1009E8003108B907320803110318013E031DBA077D
:1009F800330803110318013E031DBB073408031114
:100A08000318013E031DBC072908B1003108A000E6
:100A18002E080A168A1560240A128A112108C200B3
:100A28002008C1004108B1004208B200B301B40176
:100A38003108B907320803110318013E031DBA072C
:100A4800330803110318013E031DBB0734080311C3
:100A58000318013E031DBC070830B1000310B90D8F
:100A6800BA0DBB0DBC0DB10B322D2908B1003108F0
:100A7800A0002D080A168A1560240A128A11210876
:100A8800C2002008C1004108B1004208B200B30109
:100A9800B4013108B907320803110318013E031DD8
:100AA800BA07330803110318013E031DBB073408B6
:100AB80003110318013E031DBC072A08B1003108C1
:100AC800A0002F080A168A1560240A128A11210824
:100AD800C2002008C1004108B1004208B200B301B9
:100AE800B4013108BD07320803110318013E031D84
:100AF800BE07330803110318013E031DBF0734085E
:100B080003110318013E031DC0072B08B10031086B
:100B1800A0002E080A168A1560240A128A112108D4
:100B2800C2002008C1004108B1004208B200B30168
:100B3800B4013108BD07320803110318013E031D33
:100B4800BE07330803110318013E031DBF0734080D
:100B580003110318013E031DC0072B08B10031081B
:100B6800A0002F080A168A1560240A128A11210883
:100B7800C2002008C1004108B1004208B200B30118
:100B8800B40108300310B10DB20DB30DB40DFF3E22
:100B9800031DC62D3108BD07320803110318013E95
:100BA800031DBE07330803110318013E031DBF07C9
:100BB800340803110318013E031DC0073C08B100A7
:100BC800B201B301B4013108BD073208031103189B
:100BD800013E031DBE07330803110318013E031D20
:100BE800BF07340803110318013E031DC00708306E
:100BF800B1000310B90DBA0DBB0DBC0DB10BFD2D25
:100C080038083707B100B201B20D3108823EC10081
:100C180032080318013EFF3EC200BF1B2E2E0130D2
:100C2800B1000310BD0DBE0DBF0DC00DB10B152ECB
:100C3800BC1B3D140130B1000310B90DBA0DBB0D3A
:100C4800BC0DB10B202EFF30C1070318C20AFF30BC
:100C5800C207112EB701BC1F472EFF303905B1005E
:100C6800FF303A05B200FF303B05B3007F303C054A
:100C7800B400340833043204310403193D18452EF6
:100C8800472EB701B70A37080319792E0130BD0777
:100C9800003003180130BE07003003180130BF07C9
:100CA800003003180130C007401C792E3D08B10000
:100CB8003E08B2003F08B3004008B4000130B50058
:100CC800340DB40CB30CB20CB10CB50B642E340853
:100CD800C0003308BF003208BE003108BD00013033
:100CE800C1070318C20A0030C2074208803AFF0051
:100CF80080307F02031D822EFF304102031C8F2E9D
:100D08007F3083120313C0008030BF000030BE0064
:100D18000030BD00BF2E831203134208803AFF0043
:100D280080307F02031D9A2E013041020318A82E3D
:100D3800003083120313C0000030BF000030BE0033
:100D48000030BD00B601BF2E831203134108B10065
:100D58003108B800FF30BD05FF30BE057F30BF0544
:100D68000030C0053818BF173808B1000310310C1F
:100D7800B2003208C0003608B1003108C00440088B
:100D8800AC003F08AB003E08AA003D08A9000800D7
:100D9800023083120313EC000430EB00B930EA0090
:100DA800EA0BD42EEB0BD42EEC0BD42EDB2E8316B1
:100DB80003130F168F160F178312850186018701FB
:100DC8008901EF30831685000F308600F0308700E8
:100DD800FF3089001130031788008901031381133C
:100DE8000F30950083128617061786160030A30069
:100DF8000030A2000330A100E830A0000A168A15CE
:100E080002260A128A11831681128115011481148F
:100E180001158B120B128B170B17831210169016D5
:100E2800901083160C1401308312900064000A1687
:100E38008A1598220A128A110030B1000130B000D8
:100E48008630AF00A030AE000A168A1500250A12B7
:100E58008A1100308312A3000130A200C230A10021
:100E68000030A0000A168A15EA260A128A111030E4
:100E78000A168A15AB240A128A112408EE002308E0
:100E8800ED006D0A031D542F6E0A031D542F003008
:100E9800A500A60010300A168A1531250A128A11F3
:100EA800013083120313ED070318EE0A0030EE0732
:100EB8006E08A6006D08A50010300A168A1531259F
:100EC8000A128A11F801F90183160313B201B3015A
:100ED800B401B501FD01FC0183120710871005114B
:100EE800851106090F39EA006A088316B800B901A6
:100EF800B90A3A11BB1701308312EA006A0883164F
:100F0800B907023039060319B90139080A128A15D6
:100F180069250A128A1183163B1C7E2F8312031738
:100F2800100883160313AF008312031711088316E2
:100F38000313AE00BB302E06AA3003192F06031D7B
:100F48007E2F8312031713080313EA006A08831617
:100F5800B70037083806031D370A031D7E2F1430E3
:100F6800B2000030B3000A128A1137200A128A111F
:100F780083163B107E2F83120313DA000030DE0045
:100F88000030DD000030DC000030DB005E08D100FE
:100F98005D08D0005C08CF005B08CE005908D3007C
:100FA8005808D2005A080A168A15DC230A128A1130
:100FB8006400023083120313DB070030031801308A
:100FC800DC07003003180130DD070030031801305A
:100FD800DE075E08031D08005D08031D08000430D5
:100FE8005C02031DFB2F00305B02031DFB2F03185F
:040FF8000800CA2FF4
:1010020083120313A100AA300A168A15B9220A1202
:101012008A15BB300A168A15B9220A128A153808AF
:101022000A168A15B9220A128A1500300A168A157A
:10103200B9220A128A15031714080A168A15B92248
:101042000A128A15831221080A168A15B922080083
:1010520083120313B400B50114308316B4000030B8
:10106200B50083122D08031D080002302C02031D57
:10107200422800302B02031D422800302A02031DA1
:101082004228031808002D08031D552801302C02A0
:10109200031D532800302B02031D532800302A025F
:1010A200031D5328031C5A280830B0003008B5002D
:1010B2005B28B5013408B0003008B6000310B60D45
:1010C200A030B0003008B60436143508B00030083D
:1010D200B6040A168A15C9220A128A15831236081C
:1010E200FE39B000B1013008A3003108A4000A168D
:1010F2008A15A3220A128A152B08B000B101300802
:10110200A3003108A4000A168A15A3220A128A151E
:101112002A08B000B1013008A3003108A4000A1661
:101122008A15A3220A128A150A168A15AE220A12F3
:101132008A1583123608B000B1013008A3003108C5
:10114200A4000A168A15A3220A128A15B3012E08D0
:101152003302031884296400831203132D08031D2C
:10116200842902302C02031DBE2800302B02031DED
:10117200BE2800302A02031DBE28031884292A082B
:10118200013E7F39031D5D290030A300A4000A1629
:101192008A1596250A128A152308B0002F088400A2
:1011A2003008831380000A168A157C220A128A15D7
:1011B20000308312A3000030A2000030A1000530ED
:1011C200A0000A168A1502260A128A150130AA07F9
:1011D200003003180130AB07003003180130AC07B0
:1011E200003003180130AD070130B0003008AF07FE
:1011F2002D08031D0A2901302C02031D0829003085
:101202002B02031D082900302A02031D0829031C92
:101212000F290830B0003008B5001029B501340894
:10122200B0003008B6000310B60DA030B000300890
:10123200B60436143508B0003008B6040A168A150A
:10124200C9220A128A1583123608FE39B000B1018A
:101252003008A3003108A4000A168A15A3220A1234
:101262008A152B08B000B1013008A3003108A40090
:101272000A168A15A3220A128A152A08B000B10199
:101282003008A3003108A4000A168A15A3220A1204
:101292008A150A168A15AE220A128A158312360890
:1012A200B000B1013008A3003108A4000A168A1563
:1012B200A3220A128A157F290130A3000030A4005C
:1012C2000A168A1596250A128A152308B0002F08D5
:1012D20084003008831380000130B0003008AF076B
:1012E2000130AA07003003180130AB0700300318A1
:1012F2000130AC07003003180130AD070130B000F7
:101302003008B307A8280030A300A4000A168A15E3
:1013120096250A128A150A168A157C220A128A153D
:10132200B93083120313B00096299729B00B95297F
:101332009A29080048088039C9004908D20048089B
:10134200C9004907CA004A08D900C71B59145908DD
:101352000319B929590A031DB6290030C800003003
:10136200C7000030C6000030C500C717C801C12938
:101372000030C8000030C7000030C6000030C50091
:1013820044088039C9004908D2064408C9004907FF
:10139200CA004A08DA00C31B5A145A080319DF2983
:1013A2005A0A031DDC290030C4000030C30000309B
:1013B200C2000030C100C317C401E7290030C400D5
:1013C2000030C3000030C2000030C10044084304B2
:1013D20042044104031D062A0030C8000030C70041
:1013E2000030C6000030C5008030C7047F30C8041A
:1013F2005208C9004908C8044808C4004708C30085
:101402004608C2004508C10008005908031D122AF7
:101412000030C4000030C3000030C2000030C10000
:1014220008005908C900CA014A08CC005A084902F2
:10143200CB00031CCC034B087F3ED3004C0803189F
:10144200013E003ED4004808D1004708D0004608BB
:10145200CF004508CE000030C8000030C700003081
:10146200C6000030C5000030D8000030D700003080
:10147200D6000030D500DA011A305A020318852A44
:101482005A080319612A0130C9000310CE0DCF0D8D
:10149200D00DD10DC90B462A0130C9000310C50D6C
:1014A200C60DC70DC80DC90B4F2AD81B45140130F4
:1014B200C9000310D50DD60DD70DD80DC90B5A2A68
:1014C20044085102031D6F2A43085002031D6F2A6C
:1014D20042084F02031D6F2A41084E02031C802A54
:1014E20058174108CE024208031C420FCF0243089C
:1014F200031C430FD0024408031C440FD1020130E5
:10150200C9004908DA073D2A510850044F044E0425
:10151200031D5514C71BA82A0130C9000310C50DAD
:10152200C60DC70DC80DC90B8F2AD81B4514013033
:10153200C9000310D50DD60DD70DD80DC90B9A2AA7
:10154200FF30D3070318D40AFF30D4078B2ADA01FD
:10155200D81FC12AFF305505C900FF305605CA0001
:10156200FF305705CB007F305805CC004C084B04A8
:101572004A04490403194518BF2AC12ADA01DA0AC2
:101582005A080319F32A0130C50700300318013045
:10159200C607003003180130C707003003180130B6
:1015A200C807481CF32A4508C9004608CA0047086C
:1015B200CB004808CC000130CD004C0DCC0CCB0C3C
:1015C200CA0CC90CCD0BDE2A4C08C8004B08C70058
:1015D2004A08C6004908C5000130D3070318D40AD7
:1015E2000030D4075408803AFF0080307F02031D88
:1015F200FC2AFF305302031C0C2BFF30831203130F
:10160200D3000030D4000030C8000030C7000030E2
:10161200C6000030C500831203135408803AFF004D
:1016220080307F02031D172B013053020318262B33
:1016320083120313D301D4010030C8000030C70065
:101642000030C6000030C500D201831203135308D4
:10165200C9004908D900591C302BC717342B7F30D9
:10166200C9004908C7055908C9000310490CCA0036
:101672004A08C800F9294D088039D2005208DA0018
:101682004D08D2005207D3005308DC00CC1B5C1477
:101692005C0803195A2B5C0A031D572B0030CD003E
:1016A2000030CC000030CB000030CA00CC17CD0196
:1016B200622B0030CD000030CC000030CB00003077
:1016C200CA0051088039D2005208DB005B085A0672
:1016D200031D5A175108D2005207D3005308DB00EA
:1016E200D01B5B145B080319842B5B0A031D812B3F
:1016F2000030D1000030D0000030CF000030CE00EA
:10170200D017D1018C2B0030D1000030D000003036
:10171200CF000030CE005C085B020318D22B5A1FA8
:10172200962B8030D2005208DA065C08D2005208AA
:10173200DD005B08D2005208DC005D08D2005208CE
:10174200DB004A08D2005208DD004E08D2005208DF
:10175200CA005D08D2005208CE004B08D2005208DF
:10176200DD004F08D2005208CB005D08D2005208BB
:10177200CF004C08D2005208DD005008D2005208B7
:10178200CC005D08D2005208D0004D08D2005208A9
:10179200DD005108D2005208CD005D08D200520887
:1017A200D100DD015B08D200D3015308D5005C08EB
:1017B2005202D400031CD5035508803AFF00803042
:1017C2007F02031DE62B1A305402031C1F2C8312C6
:1017D20003134D084C044B044A040319F22B013045
:1017E200F32B0030D2005208DD000030CD00003073
:1017F200CC000030CB000030CA005B08D200520897
:10180200DC00252C5D1C0E2C5D08D2000310520C4E
:101812000138D3005308DD00102C0310DD0C4A18E8
:10182200DD170130D2004D0DCD0CCC0CCB0CCA0C07
:10183200D20B142C0130D2005208DC07831203139E
:101842005B085C02031C032C5A1B662C5C08031DFC
:10185200332C0030CD000030CC000030CB00003003
:10186200CA0008004E08CA074F0803110318013EB8
:10187200031DCB07500803110318013E031DCC07BB
:10188200510803110318013E031DCD074D1C082DFD
:101892005D1C542C5D08D2000310520C0138D30099
:1018A2005308DD00562C0310DD0C4A18DD170130F9
:1018B200D2004D0DCD0CCC0CCB0CCA0CD20B5A2C39
:1018C2000130D2005208DC07082D4D08803AFF0093
:1018D2005108803A7F02031D782C50084C02031DE8
:1018E200782C4F084B02031D782C4E084A0203182D
:1018F200D02CFF30D200FF30D300FF30D400FF30B5
:10190200D5004E08D6004F08D7005008D80051081D
:10191200D9004A08D6024B08031C4B0F912C922C7B
:10192200D7024C08031C4C0F972C982CD8024D0858
:10193200031C4D0F9D2C9E2CD9025608D207570826
:101942000318570FA52CA62CD30758080318580FB5
:10195200AB2CAC2CD40759080318590AD5075508E3
:10196200CD005408CC005308CB005208CA00803086
:10197200D2005208DA06DD09DD0A5D08031DDE2CFD
:101982000130CA07003003180130CB0700300318BA
:101992000130CC07003003180130CD07DE2C4E0891
:1019A200CA024F08031C4F0FCB025008031C500FF2
:1019B200CC025108031C510FCD024D084C044B04BC
:1019C2004A04031D062D5D08031D062D0030CD00BF
:1019D2000030CC000030CB000030CA0008000130DB
:1019E200D2000310CA0DCB0DCC0DCD0DD20BF22CB3
:1019F200DD1B4A145D1CFF2C0314002D0310DD0DAA
:101A02005C080319062D0130DC02CC1FF02CDB012F
:101A1200DD1F132D5D087F3903194A18112D132D6F
:101A2200DB01DB0A5B080319462D0130CA070030CF
:101A320003180130CB07003003180130CC07003007
:101A420003180130CD074D1C462D4A08D2004B0821
:101A5200D3004C08D4004D08D5000130D600550DF6
:101A6200D50CD40CD30CD20CD60B302D5508CD008E
:101A72005408CC005308CB005208CA005C0A031970
:101A8200462D0130D2005208DC075C0A031D5C08B7
:101A9200031D562D0030CD000030CC000030CB00AD
:101AA2000030CA005C080319DA015C1C5A2DCC17FD
:101AB2005E2D7F30D2005208CC055C08D2000310A4
:101AC200520CD3005308CD00DA1F0800CD170800CE
:101AD200E1006108031D0F2F1F169F166108831274
:101AE200E600E60DE60D1F086606C33966069F008E
:101AF2000030A3000030A2000030A1000130A0009D
:101B02000A168A15CB250A128A1500308316E500BB
:101B12000030E4000030E3000030E2000130E60073
:101B22000030E70061080A168A117D200A128A1520
:101B32004408CD004308CC004208CB004108CA004B
:101B4200831665088312D100831664088312D000BD
:101B5200831663088312CF00831662088312CE00B5
:101B62000A128A153C230A128A154D088316E500CB
:101B720083124C088316E40083124B088316E30099
:101B820083124A088316E2000A168A154E230A12A5
:101B92008A15013A0319DB2D01308316E607031873
:101BA200E70A0030E707003067020F3003196602C8
:101BB200031C932D0030831667020A300319660254
:101BC200031C08000F3066066704031DF22D660829
:101BD200FF3E8312B300831667080318013EFF3EDF
:101BE200F72D66088312B300831667088312B400C8
:101BF200B501B60100300A168A11A6220A128A1508
:101C02003608C4003508C3003408C2003308C100D6
:101C1200831665088312C800831664088312C700FE
:101C2200831663088312C600831662088312C500F6
:101C32000A128A159B210A128A1544088316E500A6
:101C4200831243088316E400831242088316E300DA
:101C5200831241088316E20065088312E1008316AD
:101C620064088312E000831663088312DF00831680
:101C720062088312DE004430E5007F30E400C030A9
:101C8200E3000030E2000A168A15BE230A128A1502
:101C920061088316A700831260088316A6008312C8
:101CA2005F088316A50083125E088316A400270826
:101CB2008312AC00831626088312AB008316250814
:101CC2008312AA00831624088312A9008316270808
:101CD2008312B000831626088312AF0083162508EC
:101CE2008312AE00831624088312AD000A128A11F1
:101CF200D7230A128A152C088316A70083122B08F1
:101D02008316A60083122A088316A50083122908C7
:101D12008316A4003B308312AC001130AB007D303F
:101D2200AA006B30A900831627088312B00083161D
:101D320026088312AF00831625088312AE0083168D
:101D420024088312AD000A128A11D7230A128A15B7
:101D52002C088316A70083122B088316A600831271
:101D62002A088316A500831229088316A40043308B
:101D72008312CD001630CC000030CB000030CA00F8
:101D8200831627088312D100831626088312D000F7
:101D9200831625088312CF00831624088312CE00EF
:101DA2000A128A153C230A128A154D088316A700C7
:101DB20083124C088316A60083124B088316A500D3
:101DC20083124A088316A40044308312A300FA3017
:101DD200A2000030A1000030A00083162708831261
:101DE200A700831626088312A600831625088312ED
:101DF200A500831624088312A4000A168A1113224E
:101E02000A128A150318080044308316A700FA3014
:101E1200A6000030A5000030A40008001F129F1287
:101E220061088312E600E60DE60D1F086606C33957
:101E320066069F000030A3000030A2000030A1001F
:101E42000130A0000A168A15CB250A128A15003025
:101E52008316E5000030E4000030E3000030E200C9
:101E62000130E6000030E70061080A168A152627CD
:101E72000A128A152A08E6002B08E700E801E901A0
:101E82006908B6006808B5006708B4006608B300C0
:101E920000300A168A11A6220A128A1536088316FB
:101EA200E000831235088316DF008312340883169C
:101EB200DE00831233088316DD0065088312A30057
:101EC200831664088312A200831663088312A1009A
:101ED200831662088312A000831660088312A7008B
:101EE20083165F088312A60083165E088312A5007C
:101EF20083165D088312A4000A168A1113220A129D
:101F02008A1503188D2F83166008E5005F08E40028
:101F12005E08E3005D08E2000A168A154E230A12E3
:101F22008A15013A0319A32F01308316E607031815
:101F3200E70A0030E707003067020F300319660234
:101F4200031C352F0030831667020A30031966021C
:101F5200031C08003E308312AC00A230AB00F73005
:101F6200AA00B130A900831665088312B000831657
:101F720064088312AF00831663088312AE008316CF
:101F820062088312AD000A128A11D7230A128A1537
:101F92002C088316A30083122B088316A200831237
:101FA2002A088316A100831229088316A000230899
:101FB2008312A300831622088312A200831621082B
:101FC2008312A100831620088312A0004130A700CB
:101FD2007030A6000030A5000030A4000A168A1155
:101FE20013220A128A150318080000308316A30070
:101FF2000030A2000030A1000030A0000800FF1B4A
:102002000A2883137F1883170008840A0319FF0A1A
:10201200080010308A000408840A820700346634FB
:102022006634A634BF341434AE342B34C134003495
:1020320040341C3446346634863496344334003497
:10204200C0347F3444340034003400340034C434A7
:10205200FF347F343F348034EF34FF34BE34903465
:10206200E134A9343E34EC3482347634BE348234E2
:10207200AD342B343E340E343C34C334BD34873457
:10208200D13413343D3441347834D334BB34003446
:10209200603478344534003440341C344634463499
:1020A200563445345234533449344F344E34003468
:1020B2004F344B340034C8308312A0002008A200F1
:1020C2006E280130A202033083120313A10097305D
:1020D200A000A00B6A28A10B6A2883160313141907
:1020E200762811081F3903197A2883122208031D42
:1020F20062288312220808008312C6004608C5001F
:10210200C50DC50D1F084506C33945069F000030A1
:10211200A3000030A2000030A1000130A0000A1686
:102122008A15CB250A168A11C701C801C901C90A35
:102132000A168A158E220A168A112008C707031862
:10214200C80A2108C8070130C5004508C90733304D
:102152004902031C99284908FF3EA000FF300318DA
:102162000030A1004808A3004708A2000A168A15F9
:10217200AE260A168A112108C8002008C70047089F
:10218200B3004808B400B501B60100300A168A113E
:10219200A6223608C4003508C3003408C20033083A
:1021A200C10008000030AC000030AB000030AA00D3
:1021B2000030A9002308220421042004031928293D
:1021C200AD01AD0AA31BF3280130A8000310A00D36
:1021D200A10DA20DA30DA80BE7280130A800280825
:1021E200AD07E3280130A8000310A90DAA0DAB0D1D
:1021F200AC0DA80BF52823082702031D0A29220883
:102202002602031D0A2921082502031D0A29200886
:102212002402031C1B292008A4022108031C210FED
:10222200A5022208031C220FA6022308031C230F67
:10223200A702291401300310A30CA20CA10CA00CBC
:10224200FF3E031D1C290130AD02031DF3282C089B
:10225200A3002B08A2002A08A1002908A000080058
:102262000310450D460DC7004708CD004D08031D5C
:1022720043290030C6000030C5000030C4000030E1
:10228200C30008004308C7004408C8004508C90045
:102292004608CA001F300310CA0CC90CC80CC70C70
:1022A200FF3E031D4C294708CB004B08CC00C51745
:1022B200FF30C305FF30C405FF30C5050030C60539
:1022C2009630CD02CD1F7A294D08803A973E031CE5
:1022D2003A2901300310C60CC50CC40CC30CFF3ED6
:1022E200031D6B290130C7004708CD0703198D294B
:1022F2006A2920304D0203183A294D0803198D2905
:102302000130C7000310C30DC40DC50DC60DC70BA8
:1023120083290130CD027E294C0803190800C30924
:10232200C409C509C609C30A0319C40A0319C50A9F
:102332000319C60A08005B08D1005A08D0005908E0
:10234200CF005808CE00831623088312B0008316EC
:1023520022088312AF00831621088312AE0083166F
:1023620020088312AD004130AC002030AB000030B9
:10237200AA000030A9000A128A11D7230A168A116C
:102382002C08C6002B08C5002A08C4002908C3006F
:102392000A168A1131210A168A114408D300430809
:1023A200D20000300A168A15DC230A168A115B084D
:1023B200D1005A08D0005908CF005808CE00831621
:1023C20027088312B000831626088312AF008316F3
:1023D20025088312AE00831624088312AD00413013
:1023E200AC002030AB000030AA000030A9000A1275
:1023F2008A11D7230A168A112C08C6002B08C50099
:102402002A08C4002908C3000A168A1131210A16B3
:102412008A114408D3004308D20001300A168A15F3
:10242200DC23080000302005A80000302105A900A7
:1024320080302205AA007F302305AB002B082A0436
:1024420029042804031D2D2A0030A3000030A20015
:102452000030A1000030A00000302405A8000030A8
:102462002505A90080302605AA007F302705AB008C
:102472002B082A0429042804031D472A0030A70038
:102482000030A6000030A5000030A400A31F6D2A72
:102492000030A8000030A9000030AA008030AB0054
:1024A2002008A8022108031C210F582A592AA90230
:1024B2002208031C220F5E2A5F2AAA022308031C99
:1024C200230F642A652AAB022B08A3002A08A20064
:1024D2002908A1002808A000A71F932A0030A800FD
:1024E2000030A9000030AA008030AB002408A80206
:1024F2002508031C250F7E2A7F2AA9022608031C11
:10250200260F842A852AAA022708031C270F8A2A53
:102512008B2AAB022B08A7002A08A6002908A500CF
:102522002808A4008030A3068030A70627082302CB
:10253200031D080026082202031D080025082102A7
:10254200031D0800240820020800BB003B08031DED
:10255200B61FBB2A3309BD003409BE003509BF00CE
:102562003609C000BD0A0319BE0A0319BF0A0319BE
:10257200C00AC32A3608C0003508BF003408BE00AE
:102582003308BD003608350434043304031DD22A4F
:102592000030B6000030B5000030B4000030B300A7
:1025A20008009630B7003708BC00FE30400503191A
:1025B200032B0130B7003708BC0701300310C00CF1
:1025C200BF0CBE0CBD0CFF3E031DDF2AD62A013014
:1025D200B7003708BC070130BD07003003180130CF
:1025E200BE07003003180130BF0700300318013066
:1025F200C00701300310C00CBF0CBE0CBD0CFF3E67
:10260200031DFB2AFF3040050319172BE82A02306D
:102612003C02031C192B0130BC020130B70003102D
:10262200BD0DBE0DBF0DC00DB70B102BBF1F082B6C
:102632003C18232BFF30BD05FF30BE057F30BF05A0
:10264200FF30C0050310BC0C3C08B700B801B9014B
:10265200BA0118300310B70DB80DB90DBA0DFF3E0F
:10266200031D2B2B3708BD043808BE043908BF04EC
:102672003A08C0043B08031DB61F402BC017400890
:10268200B6003F08B5003E08B4003D08B30008009C
:102692008B188B100C1CC42BB1308F00F3308E00C2
:1026A2000C108316BB1F572BBB1364000A30F807AC
:1026B2000318F90A0030F90703307902E8300319E8
:1026C2007802031C662BF801F90101307902F4301B
:1026D200031978020318712B831203138617742BC4
:1026E2008312031386138316320833040319822BD1
:1026F2000A30B2020030031CB303B302831206177E
:10270200842B831206138316340835040319922B83
:102712000A30B4020030031CB503B50283128616D8
:10272200942B831286120A308316AA070318AB0A67
:102732000030AB070A30B0070318B10A0030B10706
:10274200E8303006033003193106031DC42BB001F3
:10275200B1010130F0007008FD073C307D06031D19
:10276200C42BFD010130F0007008FA073C307A06F4
:10277200031DC42BFA010130F0007008FC07183069
:102782007C060319FC0183128C1E2B2C83163B142E
:102792001E30F6000030F700AC01AD011030F00041
:1027A2007008B600760877040319062C8312031307
:1027B2008C1EFF2B1A08F00083163608840070085E
:1027C200831780002D08803AFF0080307F02031DAE
:1027D200EC2B33302C020318FA2B0130831603132F
:1027E200AC070318AD0A0030AD070130F0007008E5
:1027F200B6071E30F6000030F700D32B0130F60288
:102802000030031CF703F702D32B83160313360899
:102812008400831780018312981C2B2C181218161F
:102822001A08F000F1017008F6007108F7001A08A2
:10283200F000F1017008F6007108F7001A08F000C4
:10284200F1017008F6007108F70003179001831672
:102852000313BB1475088312FF0074088A007308FF
:102862008400720E8300FE0E7E0E09008312031393
:10287200B1002D08031D080002302C02031D492C53
:1028820000302B02031D492C00302A02031D492C63
:10289200031808002D08031D5C2C01302C02031DB7
:1028A2005A2C00302B02031D5A2C00302A02031D21
:1028B2005A2C031C612C0830AF002F08B200622C86
:1028C200B2013108AF002F08B3000310B30DA030DE
:1028D200AF002F08B3043208AF002F08B3040A1662
:1028E2008A15C9220A168A1183123308AF00B00171
:1028F2002F08A3003008A4000A168A15A3220A167C
:102902008A112B08AF00B0012F08A3003008A400E1
:102912000A168A15A3220A168A112A08AF00B001E4
:102922002F08A3003008A4000A168A15A3220A164B
:102932008A112E088400831700080319102D6400E1
:10294200831203132D08031D080002302C02031DFD
:10295200B22C00302B02031DB22C00302A02031DC0
:10296200B22C031808002A08013E7F39031DEE2C01
:102972002E08840083170008AF00B0012F08A300BF
:102982003008A4000A168A15A3220A168A110A160A
:102992008A157C220A168A1100308312A3000030A5
:1029A200A2000030A1000530A0000A168A150226F6
:1029B2000A168A110130AA07003003180130AB074A
:1029C200003003180130AC07003003180130AD07A6
:1029D2000130AF002F08AE074B2C2E08840083175E
:1029E2000008AF00B0012F08A3003008A4000A16A7
:1029F2008A15A3220A168A110130AF002F08AE07EA
:102A02000130AA07003003180130AB070030031869
:102A12000130AC07003003180130AD079A2C0030AA
:102A2200A300A4000A168A15A3220A168A110A16FE
:102A32008A157C220A168A1100308312A300003004
:102A4200A2000030A1000530A0000A168A15022655
:102A5200080083120313B40014308316B40000304C
:102A6200B50083122D08031D080002302C02031D3D
:102A7200422D00302B02031D422D00302A02031D7D
:102A8200422D031808002D08031D552D01302C027C
:102A9200031D532D00302B02031D532D00302A023B
:102AA200031D532D031C5A2D0830B1003108B50007
:102AB2005B2DB5013408B1003108B6000310B60D24
:102AC200A030B1003108B6043508B1003108B604AF
:102AD2000A168A15C9220A168A1183123608B1000B
:102AE200B2013108A3003208A4000A168A15A322F3
:102AF2000A168A112B08B100B2013108A30032086C
:102B0200A4000A168A15A3220A168A112A08B100FD
:102B1200B2013108A3003208A4000A168A15A322C2
:102B22000A168A11B3012E08FF3EB100FF300318C6
:102B32000030B2003208803A803C031DA22D3108D9
:102B4200330203186F2E6400831203132D08031D32
:102B5200080002302C02031DB62D00302B02031D8B
:102B6200B62D00302A02031DB62D031808002A08CC
:102B7200013E7F39031D452E2F0884008317301C28
:102B820083130008B100B2013108A3003208A40087
:102B92000A168A15A3220A168A110A168A157C2297
:102BA2000A168A1100308312A3000030A2000030FE
:102BB200A1000530A0000A168A1502260A168A11FB
:102BC2000130AA07003003180130AB0700300318A8
:102BD2000130AC07003003180130AD070130AF07F8
:102BE2000318B00A0030B0072D08031D062E01306D
:102BF2002C02031D042E00302B02031D042E003074
:102C02002A02031D042E031C0B2E0830B1003108CA
:102C1200B5000C2EB5013408B1003108B60003101E
:102C2200B60DA030B1003108B6043508B100310844
:102C3200B6040A168A15C9220A168A1183123608A0
:102C4200B100B2013108A3003208A4000A168A15A5
:102C5200A3220A168A112B08B100B2013108A3007F
:102C62003208A4000A168A15A3220A168A112A0813
:102C7200B100B2013108A3003208A4000A168A1575
:102C8200A3220A168A116A2E2F0884008317301C89
:102C920083130008B100B2013108A3003208A40076
:102CA2000A168A15A3220A168A110130AF070318E1
:102CB200B00A0030B0070130AA0700300318013013
:102CC200AB07003003180130AC07003003180130A5
:102CD200AD070130B1003108B307942D83120313FD
:102CE2002F0884008317301C83130008B100B2013F
:102CF2003108A3003208A4000A168A15A3220A1674
:102D02008A110A168A157C220A168A110030831249
:102D1200A3000030A2000030A1000530A0000A1676
:102D22008A150226080083120313B100B2012C088F
:102D3200031D080002302B02031DA72E00302A02B9
:102D4200031DA72E00302902031DA72E0318080019
:102D52002C08031DBA2E01302B02031DB82E0030A1
:102D62002A02031DB82E00302902031DB82E031CAF
:102D7200BF2E0830AE002E08B200C02EB2013108BC
:102D8200AE002E08B3000310B30DA030AE002E0823
:102D9200B30433143208AE002E08B3040A168A159F
:102DA200C9220A168A1183123308FE39AE00AF0116
:102DB2002E08A3002F08A4000A168A15A3220A16B9
:102DC2008A112A08AE00AF012E08A3002F08A40022
:102DD2000A168A15A3220A168A112908AE00AF0123
:102DE2002E08A3002F08A4000A168A15A3220A1689
:102DF2008A110A168A15AE220A168A11831233081C
:102E0200AE00AF012E08A3002F08A4000A168A15EF
:102E1200A3220A168A11B0012C08031DE92F0230E1
:102E22002B02031D1C2F00302A02031D1C2F003011
:102E32002902031D1C2F0318E92F2908013E7F399F
:102E4200031DB92F0030A300A4000A168A15962587
:102E52000A168A112308AE002D0884002E08831357
:102E620080000A168A157C220A168A110D308312F6
:102E72000313AF00FB30AE00AE0B3D2FAF0B3D2F67
:102E8200013083120313A907003003180130AA0787
:102E9200003003180130AB07003003180130AC07D3
:102EA2000130AE002E08AD072C08031D662F01303D
:102EB2002B02031D642F00302A02031D642F0030F1
:102EC2002902031D642F031C6B2F0830AE002E084D
:102ED200B2006C2FB2013108AE002E08B30003100D
:102EE200B30DA030AE002E08B30433143208AE0086
:102EF2002E08B3040A168A15C9220A168A118312E9
:102F02003308FE39AE00AF012E08A3002F08A4003B
:102F12000A168A15A3220A168A112A08AE00AF01E0
:102F22002E08A3002F08A4000A168A15A3220A1647
:102F32008A112908AE00AF012E08A3002F08A400B1
:102F42000A168A15A3220A168A110A168A15AE22B1
:102F52000A168A1183123308AE00AF012E08A300AD
:102F62002F08A4000A168A15A3220A168A11E02F36
:102F72000130A3000030A4000A168A1596250A160D
:102F82008A112308AE002D0884002E0883138000C6
:102F92002D08840000080319E92F0130AE002E0825
:102FA200AD070130A907003003180130AA0700302D
:102FB20003180130AB07003003180130AC070130B1
:102FC200B007FF303007AE0040302E02031C0D2F39
:102FD2000030A300A4000A168A1596250A168A1143
:102FE2000A168A157C220A168A11B9308312031333
:0E2FF200AE00FB2FFC2FAE0BFA2FFF2F0800B6
:1034E80064008001840A0406031900340406752A5E
:1034F8000A168A115C20003A8316031D11158B17D2
:1035080008004A308312A1008030A2000A168A15EA
:10351800632508009F149F188F2A1E08A100831690
:103528001E088312A0000800C030831203139F04F2
:10353800803083169F009F1783121F1408000A16F5
:103548008A115C200A168A15003A03190800230814
:10355800930008000A168A115C200A168A15003A98
:103568000319080083169114080083120313A0009E
:1035780014308316B2000030B300981CC12A83129D
:10358800200899008316981608008B1314308316A8
:10359800B4000030B5000A168A115C200A168A1594
:1035A800003A031908008316111408000330D800E4
:1035B8005808D9005708D8005808DA005608D80023
:1035C8005808DB000330D8005808D20059300A16D2
:1035D8008A153A26080083120313BC003A08AD0086
:1035E8003908AC003808AB003708AA00AE01AE0AAB
:1035F8003B30AF000030B0003C080A168A112A257B
:1036080008004E30D0005008D100510A84008313BE
:1036180000080A168A15B9220A168A158312510853
:103628008400831300080A168A15B9220800831239
:103638000313BC003A08AD003908AC003808AB00E9
:103648003708AA00AE01AE0A3D30BB003B08AF0008
:103658003C080A128A152920831203133D08080022
:103668005B08D3005A08D2005C08D4000130D500AA
:103678005C08A0000130A1000A168A1568230A1602
:103688008A152008013EDD005D08D6000A168A1555
:103698006427080083163B1C632B83120317130847
:1036A80083160313380603195E2B83120317130AB4
:1036B800031D632B83120313A001A00A662B831238
:1036C8000313A001200808002008A2002108A30075
:1036D800220884008317231C8313000803197B2BFB
:1036E8000130A2070318A30A0030A3076C2B200897
:1036F8002202A0002108031C210A2302A1000800BD
:10370800A401A50121082502031D8C2B20082402F1
:1037180003180800033083120313A3009730A20094
:10372800A20B942BA30B942B013083120313A40731
:103738000318A50A0030A507862BA300A4012308B7
:10374800A2002208A5002108240203180800250861
:103758008400831300080A168A15B9220A168A15E6
:1037680001308312A2002208A5070130A200220816
:10377800A407A72B8030E1066508CD006408CC00BB
:103788006308CB006208CA006108D1006008D00055
:103798005F08CF005E08CE000A128A153C234D0848
:1037A800E1004C08E0004B08DF004A08DE00080092
:1037B80083120313D5005308D4005408D6005208C6
:1037C800D4005408D7005108AD005008AC004F0889
:1037D800AB004E08AA000230D4005408AE005630A0
:1037E800AF000030B00055080A168A112A250800D3
:1037F80083120313A50025080A168A151C240A1625
:103808008A150313A4002408A6000130A400240884
:10381800A5072608A4002308840024088313800031
:103828000130A4002408A307260803190800FF2B69
:1038380083120313A20014308316B4000030B500BD
:1038480003178C18242C83120313220803178D00E6
:1038580083168C130C144E3083120313A100EA3024
:10386800A000A00B352CA10B352C000083120317E8
:103878000C0808000A30A0000030A1005708A30077
:103888005608A2000A168A15AE260A168A152108B5
:10389800D7002008D6000230D8005808D9005608AA
:1038A800D8005808DA000230D8005808D200593039
:1038B8000A168A153A260800A800A401A5012008BE
:1038C800A200A3012208A6002308A700281C722C26
:1038D8002608A4070318A50A2708A507013003101E
:1038E800A60DA70DFF3E031D732C0310A80C280876
:1038F800031D6A2C2508A1002408A00008008312D3
:103908000313BD003A08AD003908AC003808AB0015
:103918003708AA000230BB003B08AE003E30BC00AE
:103928003C08AF003D080A128A15292083120313A8
:103938003E08BB00BC013B08BC00BB013F083B077D
:10394800B7000030031801303C07B80008008312A4
:103958000313A6002830A5002508A700AA012608F9
:103968000A168A151C240A168A150313A5002708A7
:1039780084002508831380000130A5002508A607C8
:103988000130A5002508A7070130A5002508AA07CA
:1039980002302A02031CB32C2908A4002808A3001B
:1039A800080083120313A700250884008317000862
:1039B8000319F52C250884000008A6002608A00095
:1039C80027080A168A1572260A168A1501308312E4
:1039D8000313A6002608A7070130A6002608A50796
:1039E800D82C250884000008A6002608A00027086F
:1039F8000A168A1572260800283094008316910149
:103A080083122E08B2002F08B3003008B400310822
:103A1800B50002300310B20DB30DB40DB50DFF3E65
:103A2800031D0E2D3508A3003408A2003308A10099
:103A38003208A0000030A7007A30A6001230A50096
:103A48000030A4000A168A11D3202008FF3E8316EE
:103A5800930094018715071608008312AB002530E0
:103A6800A7002708AA00AC012A08840083130008CD
:103A7800A7002708A0002B080A168A1572260A161E
:103A88008A15013083120313A7002708AA070130FB
:103A9800A7002708AB070130A7002708AC070230AA
:103AA8002C02031C382D4E3083120313A800EA3071
:103AB800A700A70B5D2DA80B5D2D000008002108AD
:103AC800A3002208A4002408FF00230884000A1683
:103AD8008A1100200A168A15003A0319892D24082C
:103AE800FF00230884000A168A1100200A168A1586
:103AF8000A168A15B9220A168A1501308312A307F5
:103B08000318A40A0030A407672D2408FF0023081F
:103B180084000A168A1100200A168A150A168A15C0
:103B2800B92208000A168A115C200A168A15003A7A
:103B38008316031D91150A168A115C200A168A1528
:103B4800003A0319AE2D1308A500A6012508A70001
:103B58002608A8000A168A115C200A168A15003A57
:103B68000319C82D23082404031DBE2D831603132F
:103B78009116C12D8316031391121116831228086A
:103B8800A4002708A3000800A301A401080000302E
:103B9800A9000030A8000030A7000030A6002908BE
:103BA800803AFF002308803A7F02031DE52D220892
:103BB8002802031DE52D21082702031DE52D2008F5
:103BC800260203180800033083120313A500973058
:103BD800A400A40BED2DA50BED2D013083120313CA
:103BE800A607003003180130A7070030031801307A
:103BF800A807003003180130A907D32D0030A90009
:103C08000030A8000030A7000030A6002908803A3C
:103C1800FF002308803A7F02031D1C2E2208280279
:103C2800031D1C2E21082702031D1C2E2008260216
:103C3800031808006400033083120313A5009730AB
:103C4800A400A40B252EA50B252E013083120313E7
:103C5800A607003003180130A70700300318013009
:103C6800A807003003180130A9070A2ED400A53090
:103C7800CE005A30CF000A168A1505230A168A156F
:103C880083125208013E0A168A15B9220A168A15A5
:103C980080300A168A15B9220A168A158312D501A8
:103CA8005208550203186A2E55085407D3005308C2
:103CB8008400831300080A168A15B9220A168A1581
:103CC80001308312D3005308D507542E0130A000C9
:103CD8000030A1000A168A158423080083120313F2
:103CE800A30014308316B4000030B50003178C18F5
:103CF8007A2E8B1F842E83120313A401A40A872E05
:103D080083120313A401230803178D00031320084B
:103D180003178C0083168C130C158B1355308D00EC
:103D2800AA308D008C14831203132403031D9E2EC6
:103D38008B179F2E8B13831603170C114E3083128B
:103D48000313A200EA30A100A10BA82EA20BA82EF3
:103D580000000800A601A701200821040319E52E88
:103D6800A501A50AA11BC42E01300310A00DA10DA9
:103D7800FF3E031DB92E0130A4002408A507B62E66
:103D880001300310A60DA70DFF3E031DC52E210807
:103D98002302031DD12E20082202031CDA2E20083C
:103DA800A2022108031CA303A30226140130031056
:103DB800A10CA00CFF3E031DDB2E0130A502031D44
:103DC800C42E2708A1002608A00008004B302106B1
:103DD800200422042304031DFB2E981718168316AB
:103DE8001815181218130C3099000B17142FC2301D
:103DF8002106031D152F220320042304031D152F5C
:103E080010308316990003178715031318158312AA
:103E18009817831618121813831218160B1783167F
:103E28008C16831607178717831218121816A601FF
:103E38001A080130A4002408A6070F302602031828
:103E480008001C2F8312AD002D08AC00AC0DAC0D82
:103E58001F082C06C3392C069F000030A300003031
:103E6800A2000030A1000130A0000A168A15CB2557
:103E78000A168A15B001B101B201B20A0A168A15EA
:103E88008E220A168A152108AF002008AE002F08D6
:103E98003102031D512F2E0830020318572F2F0807
:103EA800B1002E08B0000130AC002C08B207333046
:103EB8003202031C422F3108AB003008AA00080068
:103EC800A530CE005A30CF000A168A1505230A16E7
:103ED8008A1583125608033E0A168A15B9220A164D
:103EE8008A1582300A168A15B9220A168A1583128B
:103EF8005308CF005208CE000A168A1505230A1661
:103F08008A158312D901560859020318A32F590894
:103F18005407D70055080318013ED80057088400F5
:103F28008317581C831300080A168A15B9220A1623
:103F38008A1501308312D7005708D907872F013017
:103F4800A0000030A1000A168A15842308008312F5
:103F5800A400240884000317110883178000840A2A
:103F68001008800012080313A0002408023E8400F1
:103F780020088000031713080313A0002408033E39
:103F8800840020088000031714080313A0002408E5
:103F9800043E840020088000031715080313A000BE
:103FA8002408053E840020088000A201A3012408FB
:103FB800053E84002308803AA00080302002031DBB
:103FC800E72F0008220203180800831203132208AF
:103FD800163E840083170008A00022082407A100C9
:103FE8002108063E8400200880000130A20703183B
:083FF800A30A0030A307DB2F30
:04400E008CEFFFFF35
:00000001FF
