:020000040000FA
:060000000A128A11122809
:10000800FE00030EF2000408F3000A08F40083124D
:1000180003137F08F5000A168A11D9290A128A11D2
:100028001528F801F901FA01FB01FC01FD01831310
:10003800A0308400DD300A168A1568210A128A1158
:10004800831790308400CA300A168A1568210A126C
:100058008A111030840044300A168A1568218301F9
:100068000A128A11BE2E90300A168A158C260A1298
:100078008A1183160317170883120313DF005F081A
:100088008316EB000317180883120313DF005F08B9
:100098008316EA000317190883120313DF005F08A9
:1000A8008316E90003171A0883120313DF005F0899
:1000B8008316E800762B4130DF005F08A000BC30D3
:1000C8000A168A1595220A128A110B300A168A1501
:1000D800C1230A128A11BC308312A1000030A20089
:1000E8000A168A154C240800831603171608031DE0
:1000F800862803132308E6002208E5002108E40007
:1001080020088E2803132708E6002608E50025089E
:10011800E4002408E30041308312AC002030AB0037
:100128000030AA000030A900831666088312B000C8
:10013800831665088312AF00831664088312AE0025
:10014800831663088312AD000A128A11C9230A12A2
:100158008A112C088316E60083122B088316E50003
:1001680083122A088316E400831229088316E30001
:100178008B1302300A168A15C1230A128A116608DF
:100188008312C600831665088312C50083166408A7
:100198008312C400831663088312C3000A168A15E3
:1001A80095270A128A114408CF004308CE000A1680
:1001B8008A15F9218B17080083160317160883126E
:1001C8000313DF005F088316EB0003171708831279
:1001D8000313DF005F088316EA0003171808831269
:1001E8000313DF005F088316E90003171908831259
:1001F8000313DF005F088316E8006B088312DB0037
:1002080083166A088312DA00831669088312D900F4
:10021800831668088312D8000A168A112C20F80160
:10022800F9018316B001B101080002300A168A15D7
:10023800C1230A128A1101308312CE000030CF0088
:100248000A168A15F921080083160317170883125E
:100258000313DF005F08A0008316031716080A16A9
:100268008A155B250A128A1103300A168A15C123DA
:100278000A128A110A168A157921080083160317AB
:1002880016080A168A1532230A128A110313DF0088
:100298005F088316E70001300A168A15C1230A127F
:1002A8008A1167080A168A15AD21080083160317F4
:1002B800160883120313DF005F088316DF00031795
:1002C800180883120313DF00E001831603171708C9
:1002D80083120313E100E2016108E200E1015F0813
:1002E80061048316DD008312600862048316DE0051
:1002F8005E088312A60083165D088312A500831684
:100308005F080A168A151A240A128A1138298316D0
:10031800031716080A168A1102200A128A112408DD
:100328008316E200831223088316E10002300A16BE
:100338008A15C1230A128A1162088312CF00831614
:1003480061088312CE000A168A15F9210800973031
:10035800DF005F08A5008316031716080A128A151E
:1003680000200A128A113829BC30DF005F08A30078
:100378008316031716080A168A15F1220A128A111B
:1003880021306A2883166B088312BA0083166A081C
:100398008312B900831669088312B80083166808A7
:1003A8008312B700831603171B0883120313DF0099
:1003B8005F08BB008316031716080A168A15E3217F
:1003C8000A128A11382983166B088312BA00831619
:1003D8006A088312B900831669088312B800831665
:1003E80068088312B7008316031716080A168A15B9
:1003F8000F220A128A11DF005F088316E700013016
:100408000A168A15C1230A128A1167080A168A155C
:10041800AD21080083166B088312D10083166A0881
:100428008312D000831669088312CF0083166808E8
:100438008312CE00831603171C0883120313DF00F0
:10044800E001831603171B0883120313E100E2017E
:100458006108E200E1015F086104D20060086204FB
:10046800D3008316031716080A168A15D1220A1212
:100478008A11382983166B088312BA0083166A0812
:100488008312B900831669088312B80083166808B6
:100498008312B7008316031716080A168A159923BC
:1004A8000A128A1138088316E2008312370898293D
:1004B800831603171B0883120313DF005F088316D4
:1004C800E00060080A168A15C1230A128A116B080F
:1004D8008312AC0083166A088312AB00831669087E
:1004E8008312AA00831668088312A900831660087D
:1004F8008312DF005F08AD00BC30E0006008AE008A
:100508008316031716080A168A1190260800831600
:100518006B088312AD0083166A088312AC00831639
:1005280069088312AB00831668088312AA00831631
:1005380003171B0883120313DF005F08AE009C300B
:10054800AF000130B0008316031716080A168A1187
:10055800BA230A128A11382983166B088312AD0050
:1005680083166A088312AC00831669088312AB00ED
:10057800831668088312AA009B30DF005F08AE006C
:100588008316031716080A168A11C7220A128A1137
:10059800382983166B088312AC0083166A08831205
:1005A800AB00831669088312AA00831668088312B1
:1005B800A900BC30DF005F08AD00831603171608DA
:1005C8000A168A1124250A128A11BC3083120313D1
:1005D800A0000030A1000A168A155C220A128A11AE
:1005E8002008013E6A28831603171708831203138D
:1005F800DF00E0015F08D8006008D9008316031700
:1006080016080A168A154D260A128A1138298316E1
:100618000317160883120313DF00E0015F08D600F2
:100628006008D7000A168A15CE210A128A113829BD
:1006380083160317160883120313DF00E0015F080F
:10064800E000DF01831603171708831203135F07FF
:10065800D6000030031801306007D7000A168A1543
:1006680054230A128A11382983160317160883128D
:100678000313DF00E0015F08E000DF0183160317C2
:100688001708831203135F07DA00003003180130DC
:100698006007DB009830E1006108DC000A168A1563
:1006A80028220A128A113829831603171608031DEF
:1006B800682B1708031D642B8312031307103829AE
:1006C80083120313071438291603031D3829170842
:1006D800031D722B83120313871038298312031307
:1006E800871438290317140883120313DF00E00165
:1006F8006008003A0319812BC82B5F08023A0319D6
:10070800E028013A031919290B3A03192829013A53
:1007180003194229033A03195A29013A03198B2963
:10072800073A0319AB29013A0319B8291C3A0319E6
:10073800C629033A0319E729013A03190E2A073A89
:1007480003193E2A013A0319B02A033A0319CD2A9C
:10075800013A03198B2A0F3A03195C2A013A031943
:10076800F72A033A03197828383A0319382B063A36
:1007780003191C2B013A03190B2B153A0319582B93
:10078800713A03195F28C82B08002C088039B1007A
:100798003108B6002C08B1003107B2003208B800A1
:1007A800AB1B381438080319E62B380A031DE42B51
:1007B8000030AC000030AB000030AA000030A900C7
:1007C800AB17EE2B0030AC000030AB000030AA00B5
:1007D8000030A90030088039B1003108B606300869
:1007E800B1003107B2003208B700AF1B3714370821
:1007F80003190B2C370A031D092C0030B0000030F8
:10080800AF000030AE000030AD00AF17132C003041
:10081800B0000030AF000030AE000030AD00370847
:10082800031D3808031D212C0030AC000030AB003C
:100838000030AA000030A90008002908B1003108DA
:10084800A0002F080A168A1576230A128A11210891
:10085800C2002008C1004108B100B201B301B401CF
:100868003408BC003308BB003208BA003108B900AC
:100878004208B100B201B301B4013408C000330822
:10088800BF003208BE003108BD002A08B100310897
:10089800A0002E080A168A1576230A128A11210842
:1008A800C2002008C1004108B100B201B301B4017F
:1008B8003108B907320803110318013E031DBA07AE
:1008C800330803110318013E031DBB073408031145
:1008D8000318013E031DBC074208B100B201B30171
:1008E800B4013108BD07320803110318013E031D86
:1008F800BE07330803110318013E031DBF07340860
:1009080003110318013E031DC0072B08B10031086D
:10091800A0002D080A168A1576230A128A112108C2
:10092800C2002008C1004108B100B201B301B401FE
:100938003108B907320803110318013E031DBA072D
:10094800330803110318013E031DBB0734080311C4
:100958000318013E031DBC074208B100B201B301F0
:10096800B4013108BD07320803110318013E031D05
:10097800BE07330803110318013E031DBF073408DF
:1009880003110318013E031DC0070830B10003100E
:10099800B90DBA0DBB0DBC0DB10BCB2C2A08B1009B
:1009A8003108A0002D080A168A1576230A128A1122
:1009B8002108C2002008C1004108B1004208B20065
:1009C800B301B4013108B907320803110318013E15
:1009D800031DBA07330803110318013E031DBB07A3
:1009E800340803110318013E031DBC072908B10090
:1009F8003108A0002E080A168A1576230A128A11D1
:100A08002108C2002008C1004108B1004208B20014
:100A1800B301B4013108B907320803110318013EC4
:100A2800031DBA07330803110318013E031DBB0752
:100A3800340803110318013E031DBC070830B10038
:100A48000310B90DBA0DBB0DBC0DB10B242D29082F
:100A5800B1003108A0002D080A168A1576230A125B
:100A68008A112108C2002008C1004108B1004208CB
:100A7800B200B301B4013108B907320803110318F1
:100A8800013E031DBA07330803110318013E031D75
:100A9800BB07340803110318013E031DBC072A08CD
:100AA800B1003108A0002F080A168A1576230A1209
:100AB8008A112108C2002008C1004108B10042087B
:100AC800B200B301B4013108BD073208031103189D
:100AD800013E031DBE07330803110318013E031D21
:100AE800BF07340803110318013E031DC0072B0874
:100AF800B1003108A0002E080A168A1576230A12BA
:100B08008A112108C2002008C1004108B10042082A
:100B1800B200B301B4013108BD073208031103184C
:100B2800013E031DBE07330803110318013E031DD0
:100B3800BF07340803110318013E031DC0072B0823
:100B4800B1003108A0002F080A168A1576230A1268
:100B58008A112108C2002008C1004108B1004208DA
:100B6800B200B301B40108300310B10DB20DB30DDA
:100B7800B40DFF3E031DB82D3108BD07320803111F
:100B88000318013E031DBE07330803110318013E75
:100B9800031DBF07340803110318013E031DC007D6
:100BA8003C08B100B201B301B4013108BD073208F5
:100BB80003110318013E031DBE0733080311031870
:100BC800013E031DBF07340803110318013E031D2E
:100BD800C0070830B1000310B90DBA0DBB0DBC0D2C
:100BE800B10BEF2D38083707B100B201B20D31084B
:100BF800823EC10032080318013EFF3EC200BF1BFF
:100C0800202E0130B1000310BD0DBE0DBF0DC00D6B
:100C1800B10B072EBC1B3D140130B1000310B90DF8
:100C2800BA0DBB0DBC0DB10B122EFF30C107031856
:100C3800C20AFF30C207032EB701BC1F392EFF308E
:100C48003905B100FF303A05B200FF303B05B3006B
:100C58007F303C05B40034083304320431040319EE
:100C68003D18372E392EB701B70A370803196B2EEE
:100C78000130BD07003003180130BE0700300318EB
:100C88000130BF07003003180130C007401C6B2E2D
:100C98003D08B1003E08B2003F08B3004008B40068
:100CA8000130B500340DB40CB30CB20CB10CB50B5B
:100CB800562E3408C0003308BF003208BE00310881
:100CC800BD000130C1070318C20A0030C20742083C
:100CD800803AFF0080307F02031D742EFF304102EE
:100CE800031C812E7F3083120313C0008030BF00A5
:100CF8000030BE000030BD00B12E8312031342083D
:100D0800803AFF0080307F02031D8C2E01304102A3
:100D180003189A2E003083120313C0000030BF005E
:100D28000030BE000030BD00B601B12E831203139F
:100D38004108B1003108B800FF30BD05FF30BE05DD
:100D48007F30BF050030C0053818BF173808B1001C
:100D58000310310CB2003208C0003608B100310867
:100D6800C0044008AC003F08AB003E08AA003D089C
:100D7800A9000800023083120313EC000430EB00D2
:100D8800B930EA00EA0BC62EEB0BC62EEC0BC62ECA
:100D9800CD2E831603130F168F160F178312850196
:100DA800860187018901EF30831685000F308600A0
:100DB800F0308700FF30890011300317880089015F
:100DC800031381130F3095008312861706178616B2
:100DD8000030A3000030A2000330A100E830A000DA
:100DE8000A168A15EB240A128A11831681128115B4
:100DF8000114811401158B120B128B170B17831218
:100E080010169016901083160C140130831290005F
:100E180064000A168A158C210A128A110030B10062
:100E28000130B0008630AF00A030AE000A168A1537
:100E3800E9230A128A1100308312A3000130A200AC
:100E4800C230A1000030A0000A168A15D3250A1264
:100E58008A1110300A168A1102200A128A112408EF
:100E6800EE002308ED006D0A031D462F6E0A031DD0
:100E7800462F0030A500A60010300A168A151A243D
:100E88000A128A11013083120313ED070318EE0AC0
:100E98000030EE076E08A6006D08A50010300A168F
:100EA8008A151A240A128A11F801F9018316031304
:100EB800B201B301B401B501FD01FC0183120710B1
:100EC80087100511851106090F39EA006A0883168B
:100ED800B800B901B90A3A11BB1701308312EA0008
:100EE8006A088316B907023039060319B9013908A7
:100EF8000A128A1569250A128A1183163B1C702F5B
:100F080083120317100883160313AF008312031705
:100F1800110883160313AE00BB302E06AA3003193E
:100F28002F06031D702F8312031713080313EA00FB
:100F38006A088316B70037083806031D370A031DE9
:100F4800702F1430B2000030B3000A128A11372013
:100F58000A128A11831603133B10702FA530CE0096
:100F68005A30CF000A168A15F9210A128A118312FB
:100F78005608033E0A168A15AD210A128A118230D4
:100F88000A168A15AD210A128A1183125308CF0056
:100F98005208CE000A168A15F9210A128A118312FC
:100FA800D901560859020318F12F59085407D700D8
:100FB80055080318013ED800570884008317581CA9
:100FC800831300080A168A15AD210A128A11013006
:100FD8008312D7005708D907D52F0130A000003059
:0A0FE800A1000A168A1578220800FD
:1010000083120313A700250884008317000803191F
:101010002028250884000008A6002608A00027082C
:101020000A168A155B250A128A15013083120313EA
:10103000A6002608A7070130A6002608A507032852
:10104000250884000008A6002608A00027080A1624
:101050008A155B250800B400B50114308316B4006E
:101060000030B50083122D08031D080002302C0249
:10107000031D422800302B02031D422800302A02A3
:10108000031D4228031808002D08031D55280130B0
:101090002C02031D532800302B02031D532800305F
:1010A0002A02031D5328031C5A280830B0003008B8
:1010B000B5005B28B5013408B0003008B600031055
:1010C000B60DA030B0003008B60436143508B000B4
:1010D0003008B6040A168A15BD210A128A15831231
:1010E0003608FE39B000B1013008A3003108A40071
:1010F0000A168A1597210A128A152B08B000B10129
:101100003008A3003108A4000A168A1597210A1294
:101110008A152A08B000B1013008A3003108A400E4
:101120000A168A1597210A128A150A168A15A2210B
:101130000A128A1583123608B000B1013008A300E4
:101140003108A4000A168A1597210A128A15B301DC
:101150002E083302031884296400831203132D0818
:10116000031D842902302C02031DBE2800302B02EF
:10117000031DBE2800302A02031DBE28031884293F
:101180002A08013E7F39031D5D290030A300A40019
:101190000A168A157F240A128A152308B0002F0820
:1011A00084003008831380000A168A1570210A1201
:1011B0008A1500308312A3000030A2000030A10085
:1011C0000530A0000A168A15EB240A128A15013090
:1011D000AA07003003180130AB07003003180130B4
:1011E000AC07003003180130AD070130B000300803
:1011F000AF072D08031D0A2901302C02031D082901
:1012000000302B02031D082900302A02031D082983
:10121000031C0F290830B0003008B5001029B501B3
:101220003408B0003008B6000310B60DA030B0008E
:101230003008B60436143508B0003008B6040A1673
:101240008A15BD210A128A1583123608FE39B000AC
:10125000B1013008A3003108A4000A168A159721AD
:101260000A128A152B08B000B1013008A30031081A
:10127000A4000A168A1597210A128A152A08B000B6
:10128000B1013008A3003108A4000A168A1597217D
:101290000A128A150A168A15A2210A128A158312C1
:1012A0003608B000B1013008A3003108A4000A16C6
:1012B0008A1597210A128A157F290130A300003070
:1012C000A4000A168A157F240A128A152308B00082
:1012D0002F0884003008831380000130B0003008EC
:1012E000AF070130AA07003003180130AB07003008
:1012F00003180130AC07003003180130AD0701308E
:10130000B0003008B307A8280030A300A4000A16D4
:101310008A157F240A128A150A168A1570210A1264
:101320008A15B93083120313B00096299729B00BA0
:1013300095299A29080048088039C9004908D2002F
:101340004808C9004907CA004A08D900C71B5914F0
:1013500059080319B929590A031DB6290030C800D4
:101360000030C7000030C6000030C500C717C801F4
:10137000C1290030C8000030C7000030C60000306E
:10138000C50044088039C9004908D2064408C9008C
:101390004907CA004A08DA00C31B5A145A0803193D
:1013A000DF295A0A031DDC290030C4000030C300C5
:1013B0000030C2000030C100C317C401E72900306B
:1013C000C4000030C3000030C2000030C100440837
:1013D000430442044104031D062A0030C8000030C3
:1013E000C7000030C6000030C5008030C7047F3021
:1013F000C8045208C9004908C8044808C40047087E
:10140000C3004608C2004508C10008005908031D72
:10141000122A0030C4000030C3000030C200003087
:10142000C10008005908C900CA014A08CC005A087E
:101430004902CB00031CCC034B087F3ED3004C0871
:101440000318013E003ED4004808D1004708D000F0
:101450004608CF004508CE000030C8000030C70065
:101460000030C6000030C5000030D8000030D70082
:101470000030D6000030D500DA011A305A020318C5
:10148000852A5A080319612A0130C9000310CE0DBC
:10149000CF0DD00DD10DC90B462A0130C900031064
:1014A000C50DC60DC70DC80DC90B4F2AD81B451455
:1014B0000130C9000310D50DD60DD70DD80DC90BBD
:1014C0005A2A44085102031D6F2A43085002031D83
:1014D0006F2A42084F02031D6F2A41084E02031C67
:1014E000802A58174108CE024208031C420FCF023F
:1014F0004308031C430FD0024408031C440FD102CD
:101500000130C9004908DA073D2A510850044F0448
:101510004E04031D5514C71BA82A0130C90003102F
:10152000C50DC60DC70DC80DC90B8F2AD81B451494
:101530000130C9000310D50DD60DD70DD80DC90B3C
:101540009A2AFF30D3070318D40AFF30D4078B2A16
:10155000DA01D81FC12AFF305505C900FF305605F2
:10156000CA00FF305705CB007F305805CC004C082F
:101570004B044A04490403194518BF2AC12ADA0159
:10158000DA0A5A080319F32A0130C5070030031894
:101590000130C607003003180130C70700300318B8
:1015A0000130C807481CF32A4508C9004608CA008C
:1015B0004708CB004808CC000130CD004C0DCC0CC6
:1015C000CB0CCA0CC90CCD0BDE2A4C08C8004B084A
:1015D000C7004A08C6004908C5000130D3070318F0
:1015E000D40A0030D4075408803AFF0080307F02CC
:1015F000031DFC2AFF305302031C0C2BFF30831207
:101600000313D3000030D4000030C8000030C700FE
:101610000030C6000030C500831203135408803A1E
:10162000FF0080307F02031D172B01305302031887
:10163000262B83120313D301D4010030C8000030DD
:10164000C7000030C6000030C500D201831203136A
:101650005308C9004908D900591C302BC717342B2F
:101660007F30C9004908C7055908C9000310490C53
:10167000CA004A08C800F9294D088039D20052082A
:10168000DA004D08D2005207D3005308DC00CC1B0F
:101690005C145C0803195A2B5C0A031D572B00309D
:1016A000CD000030CC000030CB000030CA00CC1799
:1016B000CD01622B0030CD000030CC000030CB00DB
:1016C0000030CA0051088039D2005208DB005B08A4
:1016D0005A06031D5A175108D2005207D300530867
:1016E000DB00D01B5B145B080319842B5B0A031D12
:1016F000812B0030D1000030D0000030CF0000300E
:10170000CE00D017D1018C2B0030D1000030D0009A
:101710000030CF000030CE005C085B020318D22BF3
:101720005A1F962B8030D2005208DA065C08D2008D
:101730005208DD005B08D2005208DC005D08D200D0
:101740005208DB004A08D2005208DD004E08D200E1
:101750005208CA005D08D2005208CE004B08D200E1
:101760005208DD004F08D2005208CB005D08D200BD
:101770005208CF004C08D2005208DD005008D200B9
:101780005208CC005D08D2005208D0004D08D200AB
:101790005208DD005108D2005208CD005D08D20089
:1017A0005208D100DD015B08D200D3015308D500F7
:1017B0005C085202D400031CD5035508803AFF0090
:1017C00080307F02031DE62B1A305402031C1F2CAD
:1017D000831203134D084C044B044A040319F22BE3
:1017E0000130F32B0030D2005208DD000030CD0074
:1017F0000030CC000030CB000030CA005B08D200C3
:101800005208DC00252C5D1C0E2C5D08D200031054
:10181000520C0138D3005308DD00102C0310DD0CEE
:101820004A18DD170130D2004D0DCD0CCC0CCB0C7D
:10183000CA0CD20B142C0130D2005208DC078312E0
:1018400003135B085C02031C032C5A1B662C5C0808
:10185000031D332C0030CD000030CC000030CB0015
:101860000030CA0008004E08CA074F0803110318C9
:10187000013E031DCB07500803110318013E031D51
:10188000CC07510803110318013E031DCD074D1C61
:10189000082D5D1C542C5D08D2000310520C013839
:1018A000D3005308DD00562C0310DD0C4A18DD1759
:1018B0000130D2004D0DCD0CCC0CCB0CCA0CD20B90
:1018C0005A2C0130D2005208DC07082D4D08803A0E
:1018D000FF005108803A7F02031D782C50084C020B
:1018E000031D782C4F084B02031D782C4E084A022A
:1018F0000318D02CFF30D200FF30D300FF30D400CB
:10190000FF30D5004E08D6004F08D7005008D80049
:101910005108D9004A08D6024B08031C4B0F912CE2
:10192000922CD7024C08031C4C0F972C982CD802F1
:101930004D08031C4D0F9D2C9E2CD9025608D20732
:1019400057080318570FA52CA62CD30758080318BF
:10195000580FAB2CAC2CD40759080318590AD507DB
:101960005508CD005408CC005308CB005208CA00DB
:101970008030D2005208DA06DD09DD0A5D08031D59
:10198000DE2C0130CA07003003180130CB070030CD
:1019900003180130CC07003003180130CD07DE2CCE
:1019A0004E08CA024F08031C4F0FCB025008031CFD
:1019B000500FCC025108031C510FCD024D084C04AE
:1019C0004B044A04031D062D5D08031D062D00303F
:1019D000CD000030CC000030CB000030CA00080041
:1019E0000130D2000310CA0DCB0DCC0DCD0DD20BA2
:1019F000F22CDD1B4A145D1CFF2C0314002D031078
:101A0000DD0D5C080319062D0130DC02CC1FF02C23
:101A1000DB01DD1F132D5D087F3903194A18112DD5
:101A2000132DDB01DB0A5B080319462D0130CA07C1
:101A3000003003180130CB07003003180130CC0709
:101A4000003003180130CD074D1C462D4A08D20046
:101A50004B08D3004C08D4004D08D5000130D60007
:101A6000550DD50CD40CD30CD20CD60B302D5508FB
:101A7000CD005408CC005308CB005208CA005C0AC1
:101A80000319462D0130D2005208DC075C0A031D01
:101A90005C08031D562D0030CD000030CC00003016
:101AA000CB000030CA005C080319DA015C1C5A2D17
:101AB000CC175E2D7F30D2005208CC055C08D200D6
:101AC0000310520CD3005308CD00DA1F0800CD17C5
:101AD0000800E1006108031D0F2F1F169F16610803
:101AE0008312E600E60DE60D1F086606C33966069A
:101AF0009F000030A3000030A2000030A1000130A0
:101B0000A0000A168A15B4240A128A15003083161A
:101B1000E5000030E4000030E3000030E200013076
:101B2000E6000030E70061080A168A15E1260A126D
:101B30008A154408CD004308CC004208CB00410878
:101B4000CA00831665088312D100831664088312C5
:101B5000D000831663088312CF00831662088312B5
:101B6000CE000A128A153C230A128A154D088316E4
:101B7000E50083124C088316E40083124B08831699
:101B8000E30083124A088316E2000A168A154222ED
:101B90000A128A15013A0319DB2D01308316E60774
:101BA0000318E70A0030E707003067020F30031917
:101BB0006602031C932D0030831667020A30031956
:101BC0006602031C08000F3066066704031DF22D31
:101BD0006608FF3E8312B300831667080318013EB0
:101BE000FF3EF72D66088312B30083166708831241
:101BF000B400B501B60100300A168A1136210A1266
:101C00008A153608C4003508C3003408C2003308FA
:101C1000C100831665088312C80083166408831206
:101C2000C700831663088312C600831662088312F6
:101C3000C5000A128A159B210A128A1544088316C8
:101C4000E500831243088316E400831242088316DA
:101C5000E300831241088316E20065088312E10065
:101C6000831664088312E000831663088312DF0082
:101C7000831662088312DE004430E5007F30E40002
:101C8000C030E3000030E2000A168A15B3220A12BF
:101C90008A1561088316A700831260088316A600C0
:101CA00083125F088316A50083125E088316A400C2
:101CB00027088312AC00831626088312AB00831614
:101CC00025088312AA00831624088312A90083160C
:101CD00027088312B000831626088312AF008316EC
:101CE00025088312AE00831624088312AD000A1261
:101CF0008A11C9230A128A152C088316A700831299
:101D00002B088316A60083122A088316A5008312C7
:101D100029088316A4003B308312AC001130AB00BD
:101D20007D30AA006B30A900831627088312B0000B
:101D3000831626088312AF00831625088312AE008F
:101D4000831624088312AD000A128A11C9230A12CD
:101D50008A152C088316A70083122B088316A60069
:101D600083122A088316A500831229088316A4006B
:101D700043308312CD001630CC000030CB00003051
:101D8000CA00831627088312D100831626088312FF
:101D9000D000831625088312CF00831624088312EF
:101DA000CE000A128A153C230A128A154D088316A2
:101DB000A70083124C088316A60083124B088316D3
:101DC000A50083124A088316A40044308312A3009E
:101DD000FA30A2000030A1000030A00083162708CE
:101DE0008312A700831626088312A60083162508EF
:101DF0008312A500831624088312A4000A168A11F0
:101E0000A3200A128A150318080044308316A7007D
:101E1000FA30A6000030A5000030A40008001F1210
:101E20009F1261088312E600E60DE60D1F086606A4
:101E3000C33966069F000030A3000030A2000030C6
:101E4000A1000130A0000A168A15B4240A128A15CE
:101E500000308316E5000030E4000030E30000307D
:101E6000E2000130E6000030E70061080A168A153A
:101E70000F260A128A152A08E6002B08E700E80157
:101E8000E9016908B6006808B5006708B40066088B
:101E9000B30000300A168A1136210A128A15360854
:101EA0008316E000831235088316DF00831234089E
:101EB0008316DE00831233088316DD006508831263
:101EC000A300831664088312A2008316630883129A
:101ED000A100831662088312A00083166008831293
:101EE000A70083165F088312A60083165E0883127C
:101EF000A50083165D088312A4000A168A11A32088
:101F00000A128A1503188D2F83166008E5005F08F2
:101F1000E4005E08E3005D08E2000A168A1542222A
:101F20000A128A15013A0319A32F01308316E60716
:101F30000318E70A0030E707003067020F30031983
:101F40006602031C352F0030831667020A3003191E
:101F50006602031C08003E308312AC00A230AB00C6
:101F6000F730AA00B130A900831665088312B000CB
:101F7000831664088312AF00831663088312AE00D1
:101F8000831662088312AD000A128A11C9230A124D
:101F90008A152C088316A30083122B088316A2002F
:101FA00083122A088316A100831229088316A00031
:101FB00023088312A300831622088312A20083162B
:101FC00021088312A100831620088312A00041304B
:101FD000A7007030A6000030A5000030A4000A164B
:101FE0008A11A3200A128A150318080000308316EC
:101FF000A3000030A2000030A1000030A0000800C3
:1020040083120313A6002830A5002508A700AA01FF
:1020140026080A168A1532230A168A110313A50004
:10202400270884002508831380000130A5002508B3
:10203400A6070130A5002508A7070130A50025083B
:10204400AA0702302A02031C0A282908A400280827
:10205400A30008005B08D1005A08D0005908CF003B
:102064005808CE00831623088312B0008316220872
:102074008312AF00831621088312AE008316200852
:102084008312AD004130AC002030AB000030AA0018
:102094000030A9000A128A11C9230A168A112C08D1
:1020A400C6002B08C5002A08C4002908C3000A1664
:1020B4008A1595270A168A114408D3004308D200CA
:1020C40000300A168A15D1220A168A115B08D1003B
:1020D4005A08D0005908CF005808CE0083162708A4
:1020E4008312B000831626088312AF0083162508D6
:1020F4008312AE00831624088312AD004130AC0075
:102104002030AB000030AA000030A9000A128A1166
:10211400C9230A168A112C08C6002B08C5002A08F0
:10212400C4002908C3000A168A1595270A168A11BD
:102134004408D3004308D20001300A168A15D1227C
:10214400080000302005A80000302105A9008030D7
:102154002205AA007F302305AB002B082A0429049A
:102164002804031DBD280030A3000030A200003065
:10217400A1000030A00000302405A800003025058F
:10218400A90080302605AA007F302705AB002B0864
:102194002A0429042804031DD7280030A70000308E
:1021A400A6000030A5000030A400A31FFD280030C5
:1021B400A8000030A9000030AA008030AB0020083D
:1021C400A8022108031C210FE828E928A9022208F3
:1021D400031C220FEE28EF28AA022308031C230F56
:1021E400F428F528AB022B08A3002A08A20029082A
:1021F400A1002808A000A71F23290030A800003050
:10220400A9000030AA008030AB002408A8022508E9
:10221400031C250F0E290F29A9022608031C260FCB
:1022240014291529AA022708031C270F1A291B2978
:10223400AB022B08A7002A08A6002908A500280835
:10224400A4008030A3068030A70627082302031DBC
:10225400080026082202031D080025082102031D88
:102264000800240820020800BB003B08031DB61F19
:102274004B293309BD003409BE003509BF003609B6
:10228400C000BD0A0319BE0A0319BF0A0319C00A14
:1022940053293608C0003508BF003408BE0033088F
:1022A400BD003608350434043304031D62290030AC
:1022B400B6000030B5000030B4000030B3000800B0
:1022C4009630B7003708BC00FE3040050319932947
:1022D4000130B7003708BC0701300310C00CBF0C35
:1022E400BE0CBD0CFF3E031D6F2966290130B700EB
:1022F4003708BC070130BD07003003180130BE07A2
:10230400003003180130BF07003003180130C00744
:1023140001300310C00CBF0CBE0CBD0CFF3E031DEE
:102324008B29FF3040050319A729782902303C0284
:10233400031CA9290130BC020130B7000310BD0DF4
:10234400BE0DBF0DC00DB70BA029BF1F98293C18A7
:10235400B329FF30BD05FF30BE057F30BF05FF3018
:10236400C0050310BC0C3C08B700B801B901BA01A0
:1023740018300310B70DB80DB90DBA0DFF3E031D8B
:10238400BB293708BD043808BE043908BF043A081D
:10239400C0043B08031DB61FD029C0174008B6006F
:1023A4003F08B5003E08B4003D08B30008008B1890
:1023B4008B100C1C542AB1308F00F3308E000C109B
:1023C4008316BB1FE729BB1364000A30F807031800
:1023D400F90A0030F90703307902E830031978026A
:1023E400031CF629F801F90101307902F4300319CC
:1023F40078020318012A831203138617042A83120E
:10240400031386138316320833040319122A0A307D
:10241400B2020030031CB303B30283120617142A5A
:10242400831206138316340835040319222A0A304A
:10243400B4020030031CB503B50283128616242AA5
:10244400831286120A308316AA070318AB0A0030D7
:10245400AB070A30B0070318B10A0030B107E830FF
:102464003006033003193106031D542AB001B101AB
:102474000130F0007008FD073C307D06031D542A2E
:10248400FD010130F0007008FA073C307A06031DA4
:10249400542AFA010130F0007008FC0718307C0659
:1024A4000319FC0183128C1EBB2A83163B141E30B5
:1024B400F6000030F700AC01AD011030F0007008F8
:1024C400B600760877040319962A831203138C1E28
:1024D4008F2A1A08F00083163608840070088317C0
:1024E40080002D08803AFF0080307F02031D7C2A83
:1024F40033302C0203188A2A013083160313AC07E5
:102504000318AD0A0030AD070130F0007008B607BB
:102514001E30F6000030F700632A0130F602003066
:10252400031CF703F702632A831603133608840097
:10253400831780018312981CBB2A181218161A08D4
:10254400F000F1017008F6007108F7001A08F000B5
:10255400F1017008F6007108F7001A08F000F101A3
:102564007008F6007108F70003179001831603132F
:10257400BB1475088312FF0074088A007308840072
:10258400720E8300FE0E7E0E090083120313B10047
:102594002D08031D080002302C02031DD92A003027
:1025A4002B02031DD92A00302A02031DD92A03183D
:1025B40008002D08031DEC2A01302C02031DEA2A11
:1025C40000302B02031DEA2A00302A02031DEA2AE6
:1025D400031CF12A0830AF002F08B200F22AB2011E
:1025E4003108AF002F08B3000310B30DA030AF00C3
:1025F4002F08B3043208AF002F08B3040A168A1553
:10260400BD210A168A1183123308AF00B0012F08C6
:10261400A3003008A4000A168A1597210A168A1105
:102624002B08AF00B0012F08A3003008A4000A163D
:102634008A1597210A168A112A08AF00B0012F08BB
:10264400A3003008A4000A168A1597210A168A11D5
:102654002E088400831700080319A02B640083123A
:1026640003132D08031D080002302C02031D422B06
:1026740000302B02031D422B00302A02031D422B83
:10268400031808002A08013E7F39031D7E2B2E08FB
:10269400840083170008AF00B0012F08A30030089E
:1026A400A4000A168A1597210A168A110A168A1591
:1026B40070210A168A1100308312A3000030A20090
:1026C4000030A1000530A0000A168A15EB240A1672
:1026D4008A110130AA07003003180130AB0700301B
:1026E40003180130AC07003003180130AD07013086
:1026F400AF002F08AE07DB2A2E08840083170008DA
:10270400AF00B0012F08A3003008A4000A168A15F0
:1027140097210A168A110130AF002F08AE07013045
:10272400AA07003003180130AB070030031801304A
:10273400AC07003003180130AD072A2B0030A3008A
:10274400A4000A168A1597210A168A110A168A15F0
:1027540070210A168A1100308312A3000030A200EF
:102764000030A1000530A0000A168A15EB240800E9
:1027740083120313B40014308316B4000030B50080
:1027840083122D08031D080002302C02031DD22BD6
:1027940000302B02031DD22B00302A02031DD22B42
:1027A400031808002D08031DE52B01302C02031D1E
:1027B400E32B00302B02031DE32B00302A02031D00
:1027C400E32B031CEA2B0830B1003108B500EB2BD6
:1027D400B5013408B1003108B6000310B60DA030BD
:1027E400B1003108B6043508B1003108B6040A1640
:1027F4008A15BD210A168A1183123608B100B20166
:102804003108A3003208A4000A168A1597210A1673
:102814008A112B08B100B2013108A3003208A400C8
:102824000A168A1597210A168A112A08B100B201DC
:102834003108A3003208A4000A168A1597210A1643
:102844008A11B3012E08FF3EB100FF300318003097
:10285400B2003208803A803C031D322C3108330226
:102864000318FF2C6400831203132D08031D0800B2
:1028740002302C02031D462C00302B02031D462C73
:1028840000302A02031D462C031808002A08013EC2
:102894007F39031DD52C2F0884008317301C831324
:1028A4000008B100B2013108A3003208A4000A16DE
:1028B4008A1597210A168A110A168A1570210A1692
:1028C4008A1100308312A3000030A2000030A1005E
:1028D4000530A0000A168A15EB240A168A11013065
:1028E400AA07003003180130AB0700300318013089
:1028F400AC07003003180130AD070130AF070318EF
:10290400B00A0030B0072D08031D962C01302C02AC
:10291400031D942C00302B02031D942C00302A023A
:10292400031D942C031C9B2C0830B1003108B50006
:102934009C2CB5013408B1003108B6000310B60D63
:10294400A030B1003108B6043508B1003108B6042E
:102954000A168A15BD210A168A1183123608B10097
:10296400B2013108A3003208A4000A168A1597217F
:102974000A168A112B08B100B2013108A3003208EB
:10298400A4000A168A1597210A168A112A08B1008A
:10299400B2013108A3003208A4000A168A1597214F
:1029A4000A168A11FA2C2F0884008317301C83130B
:1029B4000008B100B2013108A3003208A4000A16CD
:1029C4008A1597210A168A110130AF070318B00A35
:1029D4000030B0070130AA07003003180130AB07FC
:1029E400003003180130AC07003003180130AD0784
:1029F4000130B1003108B307242C831203132F08CC
:102A040084008317301C83130008B100B20131081D
:102A1400A3003208A4000A168A1597210A168A11FF
:102A24000A168A1570210A168A1100308312A3002F
:102A34000030A2000030A1000530A0000A168A155B
:102A4400EB24080083120313B100B2012C08031D08
:102A5400080002302B02031D372D00302A02031D0B
:102A6400372D00302902031D372D031808002C08C8
:102A7400031D4A2D01302B02031D482D00302A026C
:102A8400031D482D00302902031D482D031C4F2D22
:102A94000830AE002E08B200502DB2013108AE004D
:102AA4002E08B3000310B30DA030AE002E08B304FB
:102AB40033143208AE002E08B3040A168A15BD2159
:102AC4000A168A1183123308FE39AE00AF012E08AC
:102AD400A3002F08A4000A168A1597210A168A1142
:102AE4002A08AE00AF012E08A3002F08A4000A167E
:102AF4008A1597210A168A112908AE00AF012E08FB
:102B0400A3002F08A4000A168A1597210A168A1111
:102B14000A168A15A2210A168A1183123308AE00F6
:102B2400AF012E08A3002F08A4000A168A159721C6
:102B34000A168A11B0012C08031D792E02302B02CB
:102B4400031DAC2D00302A02031DAC2D00302902D8
:102B5400031DAC2D0318792E2908013E7F39031D6E
:102B6400492E0030A300A4000A168A157F240A16F1
:102B74008A112308AE002D0884002E0883138000D8
:102B84000A168A1570210A168A110D30831203134E
:102B9400AF00FB30AE00AE0BCD2DAF0BCD2D013011
:102BA40083120313A907003003180130AA07003069
:102BB40003180130AB07003003180130AC070130B3
:102BC400AE002E08AD072C08031DF62D01302B0294
:102BD400031DF42D00302A02031DF42D00302902B8
:102BE400031DF42D031CFB2D0830AE002E08B2008B
:102BF400FC2DB2013108AE002E08B3000310B30D52
:102C0400A030AE002E08B30433143208AE002E08F0
:102C1400B3040A168A15BD210A168A1183123308D1
:102C2400FE39AE00AF012E08A3002F08A4000A1637
:102C34008A1597210A168A112A08AE00AF012E08B8
:102C4400A3002F08A4000A168A1597210A168A11D0
:102C54002908AE00AF012E08A3002F08A4000A160D
:102C64008A1597210A168A110A168A15A2210A16AC
:102C74008A1183123308AE00AF012E08A3002F0877
:102C8400A4000A168A1597210A168A11702E01309B
:102C9400A3000030A4000A168A157F240A168A119C
:102CA4002308AE002D0884002E08831380002D080D
:102CB400840000080319792E0130AE002E08AD07F8
:102CC4000130A907003003180130AA0700300318A7
:102CD4000130AB07003003180130AC070130B007F6
:102CE400FF303007AE0040302E02031C9D2D003013
:102CF400A300A4000A168A157F240A168A110A164C
:102D04008A1570210A168A11B93083120313AE0092
:102D14008B2E8C2EAE0B8A2E8F2E0800831203135B
:102D2400B300B40114308316B4000030B50083122C
:102D34002C08031D080002302B02031DA92E0030AD
:102D44002A02031DA92E00302902031DA92E0318EF
:102D540008002C08031DBC2E01302B02031DBA2EC3
:102D640000302A02031DBA2E00302902031DBA2E98
:102D7400031CC12E0830AF002F08B400C22EB401CA
:102D84003308AF002F08B5000310B50DA030AF0015
:102D94002F08B50435143408AF002F08B5040A16FB
:102DA4008A15BD210A168A1183123508FE39AF002F
:102DB400B0012F08A3003008A4000A168A15972131
:102DC4000A168A112A08AF00B0012F08A3003008A0
:102DD400A4000A168A1597210A168A112908AF0039
:102DE400B0012F08A3003008A4000A168A15972101
:102DF4000A168A110A168A15A2210A168A11831242
:102E04003508AF00B0012F08A3003008A4000A164B
:102E14008A1597210A168A11B2012D083202031865
:102E2400E92F6400831203132C08031DE92F0230D9
:102E34002B02031D252F00302A02031D252F0030ED
:102E44002902031D252F0318E92F2908013E7F3984
:102E5400031DBD2F0030A300A4000A168A157F2489
:102E64000A168A112308AF002E0884002F08831342
:102E740080000A168A1570210A168A1183122E08F8
:102E84008400831300080A168A15AD210A168A11D4
:102E940001308312A907003003180130AA0700305B
:102EA40003180130AB07003003180130AC072C08BD
:102EB400031D6A2F01302B02031D682F00302A02E4
:102EC400031D682F00302902031D682F031C6F2F78
:102ED4000830AF002F08B400702FB4013308AF00DE
:102EE4002F08B5000310B50DA030AF002F08B504AE
:102EF40035143408AF002F08B5040A168A15BD210D
:102F04000A168A1183123508FE39AF00B0012F0862
:102F1400A3003008A4000A168A1597210A168A11FC
:102F24002A08AF00B0012F08A3003008A4000A1635
:102F34008A1597210A168A112908AF00B0012F08B3
:102F4400A3003008A4000A168A1597210A168A11CC
:102F54000A168A15A2210A168A1183123508AF00AF
:102F6400B0012F08A3003008A4000A168A1597217F
:102F74000A168A11E42F0130A3000030A4000A16B7
:102F84008A157F240A168A112308AF002E088400AC
:102F94002F08831380002E08840000080A168A155F
:102FA400AD210A168A1101308312A90700300318D3
:102FB4000130AA07003003180130AB0700300318B2
:102FC4000130AC070130AF002F08B2070F2F0030DB
:102FD400A300A4000A168A157F240A168A110A1669
:102FE4008A1570210A168A11B93083120313AF00AF
:102FF400FB2FFC2FAF0BFA2FFF2F0800FF1B0A2813
:1030040083137F1883170008840A0319FF0A080032
:1030140018308A000408840A82070034663466344F
:10302400A634BF341434AE342B34C13400344034A9
:103034001C34463466348634963443340034C03405
:103044007F3444340034003400340034C434FF3456
:103054007F343F348034EF34FF34BE349034E13471
:10306400A9343E34EC3482347634BE348234AD3404
:103074002B343E340E343C34C334BD348734D13421
:1030840013343D3441347834D334BB3400346034A5
:1030940078344534003440341C3446347634313486
:1030A4002E3430342E343134363400344F344B34EF
:0230B4000034E6
:1032D00064008001840A0406031900340406692985
:1032E0000A168A151123003A8316031D11158B1730
:1032F000080049308312A1008030A2000A168A1506
:103300004C2408009F149F1883291E08A1008316CF
:103310001E088312A0000800C030831203139F040C
:10332000803083169F009F1783121F1408000A160F
:103330008A1511230A168A15003A03190800230872
:10334000930008000A168A1511230A168A15003AF6
:103350000319080083169114080083120313A000B8
:1033600014308316B2000030B300981CB5298312C4
:10337000200899008316981608008B1314308316C2
:10338000B4000030B5000A168A1511230A168A15F2
:10339000003A031908008316111408000330D800FE
:1033A0005808D9005708D8005808DA005608D8003D
:1033B0005808DB000330D8005808D20059300A16EC
:1033C0008A152325080083120313BC003A08AD00B8
:1033D0003908AC003808AB003708AA00AE01AE0AC5
:1033E0003B30AF000030B0003C080A168A11BA2307
:1033F00008004E30D0005008D100510A84008313D9
:1034000000080A168A15AD210A168A15831251087A
:103410008400831300080A168A15AD210800831260
:103420000313BC003A08AD003908AC003808AB0003
:103430003708AA00AE01AE0A3D30BB003B08AF0022
:103440003C080A128A152B20831203133D0808003A
:103450005B08D3005A08D2005C08D4000130D500C4
:103460005C08A0000130A1000A168A155C220A1629
:103470008A152008013EDD005D08D6000A128A1177
:10348000B227080083163B1C572A83120317130820
:103490008316031338060319522A83120317130ADB
:1034A000031D572A83120313A001A00A5A2A83126C
:1034B0000313A001200808002008A2002108A3008F
:1034C000220884008317231C8313000803196F2A22
:1034D0000130A2070318A30A0030A307602A2008BE
:1034E0002202A0002108031C210A2302A1000800D7
:1034F000A401A50121082502031D802A2008240219
:1035000003180800033083120313A3009730A200AE
:10351000A20B882AA30B882A013083120313A40765
:103520000318A50A0030A5077A2AA2002208A100E4
:103530002108A300200884000A168A150A200A160A
:103540008A15A10023088400210883138000000845
:10355000031908000130A1002108A3070130A100D0
:103560002108A0079A2A8030E1066508CD0064088A
:10357000CC006308CB006208CA006108D100600873
:10358000D0005F08CF005E08CE000A128A153C23E7
:103590004D08E1004C08E0004B08DF004A08DE005F
:1035A000080083120313D5005308D4005408D60032
:1035B0005208D4005408D7005108AD005008AC00A0
:1035C0004F08AB004E08AA000230D4005408AE00E9
:1035D0005630AF000030B00055080A168A11BA23E1
:1035E000080083120313A50025080A168A15322342
:1035F0000A168A150313A4002408A6000130A400AB
:103600002408A5072608A40023088400240883139F
:1036100080000130A4002408A3072608031908002D
:10362000F42AC8308312A0002008A200232B013006
:10363000A202033083120313A1009730A000A00B55
:103640001F2BA10B1F2B8316031314192B2B1108EF
:103650001F3903192F2B83122208031D172B8312E6
:103660002208080083120313A20014308316B4004A
:103670000030B50003178C183A2B8312031322086D
:1036800003178D0083168C130C144E308312031312
:10369000A100EA30A000A00B4B2BA10B4B2B00008C
:1036A000831203170C0808000A30A0000030A100A4
:1036B0005708A3005608A2000A168A1597250A166D
:1036C0008A152108D7002008D6000230D8005808F3
:1036D000D9005608D8005808DA000230D800580837
:1036E000D20059300A168A1523250800A800A40123
:1036F000A5012008A200A3012208A6002308A70014
:10370000281C882B2608A4070318A50A2708A50744
:1037100001300310A60DA70DFF3E031D892B0310DA
:10372000A80C2808031D802B2508A1002408A00050
:10373000080083120313BD003A08AD003908AC003D
:103740003808AB003708AA000230BB003B08AE00C7
:103750003E30BC003C08AF003D080A128A152B2001
:10376000831203133E08BB00BC013B08BC00BB0135
:103770003F083B07B7000030031801303C07B80092
:10378000080083120313A100AA300A168A15AD217E
:103790000A168A15BB300A168A15AD210A168A1533
:1037A00038080A168A15AD210A168A1500300A163D
:1037B0008A15AD210A168A15031714080A168A15E8
:1037C000AD210A168A15831221080A168A15AD2121
:1037D0000800283094008316910183122E08B2004D
:1037E0002F08B3003008B4003108B50002300310D0
:1037F000B20DB30DB40DB50DFF3E031DF72B35080B
:10380000A3003408A2003308A1003208A000003051
:10381000A7007A30A6001230A5000030A4000A16D6
:103820008A1537272008FF3E8316930094018715D9
:10383000071608008312AB002530A7002708AA004E
:10384000AC012A08840083130008A7002708A00001
:103850002B080A168A155B250A168A150130831271
:103860000313A7002708AA070130A7002708AB0702
:103870000130A7002708AC0702302C02031C212CC2
:103880004E3083120313A800EA30A700A70B462C82
:10389000A80B462C000008002108A3002208A40061
:1038A0002408FF00230884000A168A1500200A163F
:1038B0008A15003A0319722C2408FF00230884009B
:1038C0000A168A1500200A168A150A168A15AD21CD
:1038D0000A168A1501308312A3070318A40A0030C0
:1038E000A407502C2408FF00230884000A168A1518
:1038F00000200A168A150A168A15AD2108000A1634
:103900008A1511230A168A15003A8316031D91158C
:103910000A168A1511230A168A15003A0319972CDC
:103920001308A500A6012508A7002608A8000A1666
:103930008A1511230A168A15003A0319B12C230897
:103940002404031DA72C831603139116AA2C831697
:1039500003139112111683122808A4002708A3004C
:103960000800A301A40108000030A9000030A8004D
:103970000030A7000030A6002908803AFF00230885
:10398000803A7F02031DCE2C22082802031DCE2C74
:1039900021082702031DCE2C200826020318080048
:1039A000033083120313A5009730A400A40BD62C78
:1039B000A50BD62C013083120313A6070030031881
:1039C0000130A707003003180130A80700300318A2
:1039D0000130A907BC2C0030A9000030A80000303D
:1039E000A7000030A6002908803AFF002308803A8B
:1039F0007F02031D052D22082802031D052D210825
:103A00002702031D052D2008260203180800640064
:103A1000033083120313A5009730A400A40B0E2DCE
:103A2000A50B0E2D013083120313A60700300318D7
:103A30000130A707003003180130A8070030031831
:103A40000130A907F32CD400A530CE005A30CF00A6
:103A50000A168A15F9210A168A1583125208013EA0
:103A60000A168A15AD210A168A1580300A168A159B
:103A7000AD210A168A158312D50152085502031882
:103A8000532D55085407D3005308840083130008AE
:103A90000A168A15AD210A168A1501308312D30041
:103AA0005308D5073D2D0130A0000030A1000A16B3
:103AB0008A157822080083120313A300143083169A
:103AC000B4000030B50003178C18632D8B1F6D2DCB
:103AD00083120313A401A40A702D83120313A401FB
:103AE000230803178D000313200803178C00831687
:103AF0008C130C158B1355308D00AA308D008C144F
:103B0000831203132403031D872D8B17882D8B131A
:103B1000831603170C114E3083120313A200EA30F0
:103B2000A100A10B912DA20B912D00000800A60170
:103B3000A701200821040319CE2DA501A50AA11B68
:103B4000AD2D01300310A00DA10DFF3E031DA22DD0
:103B50000130A4002408A5079F2D01300310A60DF5
:103B6000A70DFF3E031DAE2D21082302031DBA2D14
:103B700020082202031CC32D2008A2022108031CD6
:103B8000A303A302261401300310A10CA00CFF3ED6
:103B9000031DC42D0130A502031DAD2D2708A10072
:103BA0002608A00008004B3021062004220423042C
:103BB000031DE42D981718168316181518121813DC
:103BC0000C3099000B17FD2DC2302106031DFE2D70
:103BD000220320042304031DFE2D103083169900B8
:103BE00003178715031318158312981783161812D5
:103BF0001813831218160B1783168C1683160717C3
:103C00008717831218121816A6011A080130A4008B
:103C10002408A6070F30260203180800052E831279
:103C2000AD002D08AC00AC0DAC0D1F082C06C3393F
:103C30002C069F000030A3000030A2000030A1003D
:103C40000130A0000A168A15B4240A168A15B0019C
:103C5000B101B201B20A0A168A1582210A168A1522
:103C60002108AF002008AE002F083102031D3A2EB4
:103C70002E0830020318402E2F08B1002E08B00085
:103C80000130AC002C08B20733303202031C2B2E5B
:103C90003108AB003008AA00080083120313DA00D1
:103CA0000030DE000030DD000030DC000030DB00E2
:103CB0005E08D1005D08D0005C08CF005B08CE0034
:103CC0005908D3005808D2005A080A168A15D1227A
:103CD0000A168A156400023083120313DB070030D2
:103CE00003180130DC07003003180130DD07003015
:103CF00003180130DE075E08031D08005D08031D80
:103D0000080004305C02031D892E00305B02031D95
:103D1000892E03180800582E8312A400240884005A
:103D20000317110883178000840A10088000120806
:103D30000313A0002408023E84002008800003171B
:103D400013080313A0002408033E84002008800009
:103D5000031714080313A0002408043E840020085D
:103D60008000031715080313A0002408053E8400F3
:103D700020088000A201A3012408053E8400230836
:103D8000803AA00080302002031DC82E00082202C5
:103D900003180800831203132208163E84008317B9
:103DA0000008A00022082407A1002108063E840084
:103DB000200880000130A2070318A30A0030A307DF
:103DC000BC2E8312C6004608C500C50DC50D1F08D0
:103DD0004506C33945069F000030A3000030A2000D
:103DE0000030A1000130A0000A168A15B4240A167A
:103DF0008A15C701C801C901C90A0A168A15822194
:103E00000A168A152008C7070318C80A2108C80718
:103E10000130C5004508C90733304902031CFD2E97
:103E20004908FF3EA000FF3003180030A1004808F9
:103E3000A3004708A2000A168A1597250A168A15B4
:103E40002108C8002008C7004708B3004808B4008C
:103E5000B501B60100300A168A1136213608C400B1
:103E60003508C3003408C2003308C1000800003020
:103E7000AC000030AB000030AA000030A9002308DD
:103E800022042104200403198C2FAD01AD0AA31BC9
:103E9000572F0130A8000310A00DA10DA20DA30DF6
:103EA000A80B4B2F0130A8002808AD07472F013081
:103EB000A8000310A90DAA0DAB0DAC0DA80B592F2E
:103EC00023082702031D6E2F22082602031D6E2FD2
:103ED00021082502031D6E2F20082402031C7F2FBA
:103EE0002008A4022108031C210FA5022208031C9C
:103EF000220FA6022308031C230FA7022914013056
:103F00000310A30CA20CA10CA00CFF3E031D802FDC
:103F10000130AD02031D572F2C08A3002B08A2006F
:103F20002A08A1002908A00008000310450D460D2D
:103F3000C7004708CD004D08031DA72F0030C6005D
:103F40000030C5000030C4000030C3000800430842
:103F5000C7004408C8004508C9004608CA001F3009
:103F60000310CA0CC90CC80CC70CFF3E031DB02FB0
:103F70004708CB004B08CC00C517FF30C305FF3006
:103F8000C405FF30C5050030C6059630CD02CD1FF3
:103F9000DE2F4D08803A973E031C9E2F0130031000
:103FA000C60CC50CC40CC30CFF3E031DCF2F013043
:103FB000C7004708CD070319F12FCE2F20304D023F
:103FC00003189E2F4D080319F12F0130C70003106D
:103FD000C30DC40DC50DC60DC70BE72F0130CD02B3
:103FE000E22F4C0803190800C309C409C509C60912
:103FF000C30A0319C40A0319C50A0319C60A08002B
:04400E008CEFFFFF35
:00000001FF
