:020000040000FA
:060000000A128A11122809
:10000800FE00030EF2000408F3000A08F40083124D
:1000180003137F08F5000A168A115C2B0A128A114D
:100028001528F801F901FA01FB01FC018313CF300F
:100038008400EC300A168A1510210A128A118317D7
:1000480090308400C9300A168A1510210A128A11C4
:100058001030840050300A168A15102183010A16C0
:100068008A11472CB9300A168A1545270A128A11AF
:1000780083160317400883120313DE005E088316F5
:10008800CE000317410883120313DE005E088316AF
:10009800CD000317420883120313DE005E0883169F
:1000A800CC000317430883120313DE005E0883168F
:1000B800CB00492C0B300A168A1558230A128A11CC
:1000C80041308312A1008030A2000A168A159724B5
:1000D8000800831603173F08031D7B2803135208E3
:1000E800C6005108C5005008C4004F0883280313F0
:1000F8005608C6005508C5005408C4005308C30074
:1001080041308312AC002030AB000030AA00003030
:10011800A900831646088312B00083164508831287
:10012800AF00831644088312AE0083164308831277
:10013800AD000A128A11A2240A128A112C08831609
:10014800C60083122B088316C50083122A0883165B
:10015800C400831229088316C3008B1302300A16C1
:100168008A1558230A128A1146088312C600831674
:1001780045088312C500831644088312C4008316F9
:1001880043088312C3000A168A11D2200A128A1160
:100198004408CF004308CE000A168A1573218B172E
:1001A8000800831603173F0883120313DE00DF01DC
:1001B8005E08DF00DE01831603174008831203136D
:1001C8005E07D8000030031801305F07D900DA0154
:1001D800D91BDA035A08DB000A168A116E20F801C7
:1001E800F90183160313DF01E001E9010800023079
:1001F8000A168A1558230A128A1101308312CE0072
:100208000030CF000A168A157321080083160317D9
:10021800400883120313DE005E08A000831603174C
:100228003F080A168A1571250A128A1103300A1620
:100238008A1558230A128A110A168A152A210800D3
:10024800831603173F080A168A15A5220A128A116F
:100258000313DE005E088316C70001300A168A15EC
:1002680058230A128A1147080A168A115E200800C4
:10027800831603173F0883120313DE005E088316F4
:10028800C0000317410883120313DE00DF01831641
:100298000317400883120313E000E1016008E1003E
:1002A800E0015E0860048316BE0083125F086104E3
:1002B8008316BF003F088312A60083163E088312E8
:1002C800A500831640080A168A1533240A128A11D3
:1002D8001A29831603173F080A168A1580230A125B
:1002E8008A1124088316C200831223088316C100CA
:1002F80002300A168A1558230A128A1142088312F4
:10030800CF00831641088312CE000A168A1573217E
:100318000800C030DE005E08A500831603173F08FA
:100328000A168A15AA230A128A111A29A930DE0088
:100338005E08A300831603173F080A168A1545228C
:100348000A128A1110300A168A1558230A128A11BD
:10035800A9308312A1000130A2000A168A15972439
:10036800080083164E088312B20083164D088312C4
:10037800B10083164C088312B00083164B08831211
:10038800AF00C430DE005E08B300831603173F08D1
:100398000A168A155D210A128A111A2983164E082F
:1003A8008312B70083164D088312B60083164C08D3
:1003B8008312B50083164B088312B4008316031703
:1003C8003F080A168A15D0210A128A11DE005E0833
:1003D8008316C70001300A168A1558230A128A1193
:1003E80047080A168A115E20080083160317440876
:1003F80083120313DE005E088316C900031745083D
:1004080083120313DE005E088316C8004E088312A9
:10041800D10083164D088312D00083164C0883122E
:10042800CF0083164B088312CE0083164908831227
:10043800D300831648088312D200831603173F0897
:100448000A168A1565220A128A111A2983164E0875
:100458008312B70083164D088312B60083164C0822
:100468008312B50083164B088312B4008316031752
:100478003F080A168A1530230A128A11350883168E
:10048800C200831234087A2983160317440883129A
:100498000313DE005E088316CA004E088312A90003
:1004A80083164D088312A80083164C088312A700F0
:1004B80083164B088312A60083164A088312DE00AF
:1004C8005E08AA001030AB000130AC008316031799
:1004D8003F080A128A152C200A128A118316031360
:1004E8004A080A168A1558230A128A114A088312DA
:1004F800DE00DF015E08A1005F08A20010300A16C6
:100508008A150C23080083164E088312A50083164B
:100518004D088312A40083164C088312A300831687
:100528004B088312A200831603174408831203138F
:10053800DE005E08A600C530A7000130A8008316BB
:1005480003173F080A168A1136250A128A111A2932
:1005580083164E088312A50083164D088312A40043
:1005680083164C088312A30083164B088312A2003B
:10057800C430DE005E08A600831603173F080A167B
:100588008A1173220A128A111A2983164E088312B5
:10059800A90083164D088312A80083164C088312FD
:1005A800A70083164B088312A600A930DE005E0858
:1005B800AA00831603173F080A168A1194260A12FE
:1005C8008A11A9300A168A15B7210A128A11200839
:1005D800A72983160317400883120313DE005E0859
:1005E800AF00831603173F080A168A1563260A12F6
:1005F8008A111A29831668088312DE00DF015E0853
:10060800B1005F08B2000A30B3000030B400A03077
:100618000A168A1585220A128A1183166708831218
:10062800DE00DF015E08B1005F08B2000A30B300E7
:100638000030B400AA300A168A1585220A128A11D7
:10064800831669088312DE00DF015E08B1005F08C7
:10065800B2000A30B3000030B400B4300A168A156C
:1006680085220A128A114C30DE005E08A000A930EB
:100678000A168A1509220A128A1183162108031DEF
:10068800522B4B308312A0008030A100A9300A12EF
:100698008A1500200A128A118316A201A03083123B
:1006A800A0000030A100A9300A128A1500200A1201
:1006B8008A114D30A0008030A100A9300A128A1595
:1006C80000200A128A1183162B08031D782B4B3041
:1006D8008312A0008030A100A9300A128A150020D8
:1006E8000A128A118316AC01AA308312A0000030C6
:1006F800A100A9300A128A1500200A128A114D3069
:10070800A0008030A100A9300A128A1500200A1220
:100718008A1183163508031D9E2B4B308312A000C7
:100728008030A100A9300A128A1500200A128A1105
:100738008316B601B4308312A0000030A100A9309E
:100748000A128A1500200A128A11A9300A168A1577
:10075800B7210A128A1120080A168A1558230A1284
:100768008A11A9308312A1000130A2000A168A1545
:1007780097240A128A1100300A168A115E2008008E
:10078800831603173F0883120313DE005E088316DF
:10079800E8000317400883120313DE005E0883167F
:1007A800E7000317410883120313DE005E0883166F
:1007B800E9001A29831603173F0883120313DE0082
:1007C800DF015E08D6005F08D7000A168A1548219F
:1007D8000A128A111A29831603173F088312031372
:1007E800DE00DF015E08DF00DE0183160317400824
:1007F800831203135E07D6000030031801305F0729
:10080800D7000A168A15C7220A128A111A298316CE
:1008180003173F0883120313DE00DF015E08DF00C1
:10082800DE01831603174008831203135E07DA00FC
:100838000030031801305F07DB00C130E0006008BA
:10084800DC000A168A1589210A128A111A298316C8
:1008580003173F08031D3B2C4008031D372C831248
:10086800031307101A298312031307141A293F03C5
:10087800031D1A294008031D452C831203138710F2
:100888001A298312031387141A2903173D088312A0
:100898000313DE00DF015F08003A0319542CA12C72
:1008A8005E08023A0319D528013A0319FB280B3AC6
:1008B80003190A29013A03192429033A03193C297F
:1008C800013A03196D29073A03198D29013A0319C9
:1008D8009A291C3A0319B529033A0319D229013A6E
:1008E8000319F929073A03192A2A013A0319AC2AE4
:1008F800033A0319C92A013A0319872A0F3A031937
:10090800482A013A0319ED2A033A03196D28043AD3
:100918000319C42B013A0319FE2A3F3A0319DE2BA7
:10092800013A0319EF2B053A03190B2C023A031964
:100938002B2C0D3A03195E28A12C08002C088039AD
:10094800B1003108B6002C08B1003107B2003208F6
:10095800B800AB1B381438080319BF2C380A031D1C
:10096800BD2C0030AC000030AB000030AA000030D5
:10097800A900AB17C72C0030AC000030AB0000302A
:10098800AA000030A90030088039B1003108B60645
:100998003008B1003107B2003208B700AF1B371476
:1009A80037080319E42C370A031DE22C0030B00085
:1009B8000030AF000030AE000030AD00AF17EC2CB7
:1009C8000030B0000030AF000030AE000030AD00A5
:1009D8003708031D3808031DFA2C0030AC0000301E
:1009E800AB000030AA000030A90008002908B100B7
:1009F8003108A0002F080A168A15E9220A128A115E
:100A08002108C2002008C1004108B100B201B301A9
:100A1800B4013408BC003308BB003208BA003108FE
:100A2800B9004208B100B201B301B4013408C000F2
:100A38003308BF003208BE003108BD002A08B100E3
:100A48003108A0002E080A168A15E9220A128A110E
:100A58002108C2002008C1004108B100B201B30159
:100A6800B4013108B907320803110318013E031D08
:100A7800BA07330803110318013E031DBB073408E6
:100A880003110318013E031DBC074208B100B2015F
:100A9800B301B4013108BD07320803110318013E40
:100AA800031DBE07330803110318013E031DBF07CA
:100AB800340803110318013E031DC0072B08B100B9
:100AC8003108A0002D080A168A15E9220A128A118F
:100AD8002108C2002008C1004108B100B201B301D9
:100AE800B4013108B907320803110318013E031D88
:100AF800BA07330803110318013E031DBB07340866
:100B080003110318013E031DBC074208B100B201DE
:100B1800B301B4013108BD07320803110318013EBF
:100B2800031DBE07330803110318013E031DBF0749
:100B3800340803110318013E031DC0070830B10033
:100B48000310B90DBA0DBB0DBC0DB10BA42D2A08AD
:100B5800B1003108A0002D080A168A15E9220A12E8
:100B68008A112108C2002008C1004108B1004208CA
:100B7800B200B301B4013108B907320803110318F0
:100B8800013E031DBA07330803110318013E031D74
:100B9800BB07340803110318013E031DBC072908CD
:100BA800B1003108A0002E080A168A15E9220A1297
:100BB8008A112108C2002008C1004108B10042087A
:100BC800B200B301B4013108B907320803110318A0
:100BD800013E031DBA07330803110318013E031D24
:100BE800BB07340803110318013E031DBC07083076
:100BF800B1000310B90DBA0DBB0DBC0DB10BFD2D25
:100C08002908B1003108A0002D080A168A15E92222
:100C18000A128A112108C2002008C1004108B10047
:100C28004208B200B301B4013108B9073208031110
:100C38000318013E031DBA07330803110318013EC8
:100C4800031DBB07340803110318013E031DBC072D
:100C58002A08B1003108A0002F080A168A15E922CF
:100C68000A128A112108C2002008C1004108B100F7
:100C78004208B200B301B4013108BD0732080311BC
:100C88000318013E031DBE07330803110318013E74
:100C9800031DBF07340803110318013E031DC007D5
:100CA8002B08B1003108A0002E080A168A15E9227F
:100CB8000A128A112108C2002008C1004108B100A7
:100CC8004208B200B301B4013108BD07320803116C
:100CD8000318013E031DBE07330803110318013E24
:100CE800031DBF07340803110318013E031DC00785
:100CF8002B08B1003108A0002F080A168A15E9222E
:100D08000A128A112108C2002008C1004108B10056
:100D18004208B200B301B40108300310B10DB20D9E
:100D2800B30DB40DFF3E031D912E3108BD073208E7
:100D380003110318013E031DBE07330803110318EE
:100D4800013E031DBF07340803110318013E031DAC
:100D5800C0073C08B100B201B301B4013108BD07B6
:100D6800320803110318013E031DBE07330803119F
:100D78000318013E031DBF07340803110318013E81
:100D8800031DC0070830B1000310B90DBA0DBB0D23
:100D9800BC0DB10BC82E38083707B100B201B20D2F
:100DA8003108823EC10032080318013EFF3EC200EE
:100DB800BF1BF92E0130B1000310BD0DBE0DBF0DD4
:100DC800C00DB10BE02EBC1B3D140130B100031067
:100DD800B90DBA0DBB0DBC0DB10BEB2EFF30C10721
:100DE8000318C20AFF30C207DC2EB701BC1F122F3E
:100DF800FF303905B100FF303A05B200FF303B053E
:100E0800B3007F303C05B4003408330432043104A5
:100E180003193D18102F122FB701B70A3708031905
:100E2800442F0130BD07003003180130BE070030E1
:100E380003180130BF07003003180130C007401CF9
:100E4800442F3D08B1003E08B2003F08B3004008F7
:100E5800B4000130B500340DB40CB30CB20CB10CB5
:100E6800B50B2F2F3408C0003308BF003208BE006E
:100E78003108BD000130C1070318C20A0030C2079B
:100E88004208803AFF0080307F02031D4D2FFF305B
:100E98004102031C5A2F7F3083120313C000803095
:100EA800BF000030BE000030BD008A2F831203133C
:100EB8004208803AFF0080307F02031D652F013011
:100EC80041020318732F003083120313C00000304F
:100ED800BF000030BE000030BD00B6018A2F83126B
:100EE80003134108B1003108B800FF30BD05FF30D9
:100EF800BE057F30BF050030C0053818BF17380859
:100F0800B1000310310CB2003208C0003608B1003D
:100F18003108C0044008AC003F08AB003E08AA00F6
:100F28003D08A9000800B0002908AE002808AD0057
:100F38002B08A1002A08A0002E08A3002D08A20053
:100F48000A168A15AD250A128A112108AE00200852
:100F5800AD000130AC002C08B0072D082E04031D8D
:100F68009C2F30088400831380010130B0022B08C5
:100F7800A1002A08A0002908A3002808A2000A1630
:100F88008A1565240A128A112008AC002C08AF00C3
:100F98002B08A1002A08A0002908A3002808A200FD
:100FA8000A168A15AD250A128A112108A9002008F7
:100FB800A8000A302F02031CE52F0730AC002C08CC
:100FC800AF073030AC002C08AF072F08AC00300852
:100FD80084002C08831380000130B00228082904FB
:100FE800031DBB2F0130AC002C08B00708000A16FF
:100FF8008A15082191140800A4002408A2002208D8
:10100800A300230884000008031919280130A2004E
:101018002208A30705280130A2002208A3070130EF
:10102800A0070318A10A0030A1072108FF00200823
:1010380084000A168A1100200A128A15A2002308C1
:1010480084002208831780000008031908000F286D
:1010580083120313B100B2012908031D08000230EE
:101068002802031D3F2800302702031D3F280030B7
:101078002602031D3F28031808002908031D5228CB
:1010880001302802031D502800302702031D502874
:1010980000302602031D5028031C57280830AD00D5
:1010A8002D08B2005828B2013108AD002D08B30050
:1010B8000310B30DA030AD002D08B304331432086B
:1010C800AD002D08B3040A168A1518210A128A15CC
:1010D80083123308FE39AD00AE012D08A0002E089A
:1010E800A1000A168A1521210A128A152708AD00BF
:1010F800AE012D08A0002E08A1000A168A1521218C
:101108000A128A152608AD00AE012D08A0002E0887
:10111800A1000A168A1521210A128A150A128A11B3
:10112800FB270A128A1583123308AD00AE012D0879
:10113800A0002E08A1000A168A1521210A128A1574
:10114800B0012A083002031884292908031D8429BC
:1011580002302802031DB82800302702031DB828D2
:1011680000302602031DB828031884292608013EEA
:101178007F39031D59290030A000A1000A168A15DD
:10118800D5230A128A152008AD002B08840083177E
:101198002C1C83132D0880000A168A1503210A12B5
:1011A8008A150D3083120313AE00FB30AD00AD0B72
:1011B800DB28AE0BDB28013083120313A6070030AF
:1011C80003180130A707003003180130A8070030C2
:1011D80003180130A9070130AB070318AC0A003027
:1011E800AC072908031D062901302802031D04291C
:1011F80000302702031D042900302602031D04299C
:10120800031C0B290830AD002D08B2000C29B201CF
:101218003108AD002D08B3000310B30DA030AD00A8
:101228002D08B30433143208AD002D08B3040A1690
:101238008A1518210A128A1583123308FE39AD005F
:10124800AE012D08A0002E08A1000A168A1521213A
:101258000A128A152708AD00AE012D08A0002E0835
:10126800A1000A168A1521210A128A152608AD003E
:10127800AE012D08A0002E08A1000A168A1521210A
:101288000A128A150A128A11FB270A128A15831272
:101298003308AD00AE012D08A0002E08A1000A16E3
:1012A8008A1521210A128A157F290130A0000030F1
:1012B800A1000A168A15D5230A128A152008AD003E
:1012C8002B08840083172C1C83132D088000013001
:1012D800AB070318AC0A0030AC070130A607003092
:1012E80003180130A707003003180130A8070030A1
:1012F80003180130A9070130AD002D08B007A52853
:101308000030A000A1000A168A15D5230A128A15F2
:101318000A168A1503210A128A15B9308312031393
:10132800AD0096299729AD0B95299A2908004808F8
:101338008039C9004908D2004808C9004907CA00CD
:101348004A08D900C71B591459080319B929590A59
:10135800031DB6290030C8000030C7000030C600A1
:101368000030C500C717C801C1290030C8000030C7
:10137800C7000030C6000030C50044088039C900E5
:101388004908D2064408C9004907CA004A08DA00D1
:10139800C31B5A145A080319DF295A0A031DDC29EA
:1013A8000030C4000030C3000030C2000030C1006B
:1013B800C317C401E7290030C4000030C30000305F
:1013C800C2000030C1004408430442044104031D24
:1013D800062A0030C8000030C7000030C6000030C0
:1013E800C5008030C7047F30C8045208C9004908C6
:1013F800C8044808C4004708C3004608C200450896
:10140800C10008005908031D122A0030C40000302A
:10141800C3000030C2000030C10008005908C900EC
:10142800CA014A08CC005A084902CB00031CCC0365
:101438004B087F3ED3004C080318013E003ED40001
:101448004808D1004708D0004608CF004508CE001C
:101458000030C8000030C7000030C6000030C500AA
:101468000030D8000030D7000030D6000030D5005A
:10147800DA011A305A020318852A5A080319612A10
:101488000130C9000310CE0DCF0DD00DD10DC90B01
:10149800462A0130C9000310C50DC60DC70DC80D79
:1014A800C90B4F2AD81B45140130C9000310D50DAC
:1014B800D60DD70DD80DC90B5A2A44085102031D61
:1014C8006F2A43085002031D6F2A42084F02031D6A
:1014D8006F2A41084E02031C802A58174108CE0281
:1014E8004208031C420FCF024308031C430FD002DB
:1014F8004408031C440FD1020130C9004908DA0727
:101508003D2A510850044F044E04031D5514C71BAF
:10151800A82A0130C9000310C50DC60DC70DC80D96
:10152800C90B8F2AD81B45140130C9000310D50DEB
:10153800D60DD70DD80DC90B9A2AFF30D30703183B
:10154800D40AFF30D4078B2ADA01D81FC12AFF300A
:101558005505C900FF305605CA00FF305705CB00B6
:101568007F305805CC004C084B044A044904031941
:101578004518BF2AC12ADA01DA0A5A080319F32AD8
:101588000130C507003003180130C60700300318C2
:101598000130C707003003180130C807481CF32A78
:1015A8004508C9004608CA004708CB004808CC00CF
:1015B8000130CD004C0DCC0CCB0CCA0CC90CCD0B9A
:1015C800DE2A4C08C8004B08C7004A08C60049086C
:1015D800C5000130D3070318D40A0030D4075408D3
:1015E800803AFF0080307F02031DFC2AFF3053023F
:1015F800031C0C2BFF3083120313D3000030D400DC
:101608000030C8000030C7000030C6000030C500F8
:10161800831203135408803AFF0080307F02031DB1
:10162800172B013053020318262B83120313D301FF
:10163800D4010030C8000030C7000030C6000030B8
:10164800C500D201831203135308C9004908D90001
:10165800591C302BC717342B7F30C9004908C705E0
:101668005908C9000310490CCA004A08C800F929DA
:101678004D088039D2005208DA004D08D2005207CE
:10168800D3005308DC00CC1B5C145C0803195A2BEC
:101698005C0A031D572B0030CD000030CC00003011
:1016A800CB000030CA00CC17CD01622B0030CD0032
:1016B8000030CC000030CB000030CA00510880391F
:1016C800D2005208DB005B085A06031D5A1751085E
:1016D800D2005207D3005308DB00D01B5B145B0811
:1016E8000319842B5B0A031D812B0030D1000030C5
:1016F800D0000030CF000030CE00D017D1018C2BA5
:101708000030D1000030D0000030CF000030CE00D3
:101718005C085B020318D22B5A1F962B8030D2002C
:101728005208DA065C08D2005208DD005B08D200D5
:101738005208DC005D08D2005208DB004A08D200DB
:101748005208DD004E08D2005208CA005D08D200D7
:101758005208CE004B08D2005208DD004F08D200D4
:101768005208CB005D08D2005208CF004C08D200C6
:101778005208DD005008D2005208CC005D08D200A3
:101788005208D0004D08D2005208DD005108D2009E
:101798005208CD005D08D2005208D100DD015B0877
:1017A800D200D3015308D5005C085202D400031CB0
:1017B800D5035508803AFF0080307F02031DE62BD1
:1017C8001A305402031C1F2C831203134D084C04B7
:1017D8004B044A040319F22B0130F32B0030D200DA
:1017E8005208DD000030CD000030CC000030CB00C6
:1017F8000030CA005B08D2005208DC00252C5D1CB2
:101808000E2C5D08D2000310520C0138D300530887
:10181800DD00102C0310DD0C4A18DD170130D20052
:101828004D0DCD0CCC0CCB0CCA0CD20B142C0130AA
:10183800D2005208DC07831203135B085C02031C06
:10184800032C5A1B662C5C08031D332C0030CD007A
:101858000030CC000030CB000030CA0008004E0831
:10186800CA074F0803110318013E031DCB07500890
:1018780003110318013E031DCC0751080311031877
:10188800013E031DCD074D1C082D5D1C542C5D0821
:10189800D2000310520C0138D3005308DD00562C37
:1018A8000310DD0C4A18DD170130D2004D0DCD0CA8
:1018B800CC0CCB0CCA0CD20B5A2C0130D2005208DB
:1018C800DC07082D4D08803AFF005108803A7F0256
:1018D800031D782C50084C02031D782C4F084B022E
:1018E800031D782C4E084A020318D02CFF30D20072
:1018F800FF30D300FF30D400FF30D5004E08D600AB
:101908004F08D7005008D8005108D9004A08D60215
:101918004B08031C4B0F912C922CD7024C08031C2C
:101928004C0F972C982CD8024D08031C4D0F9D2C5A
:101938009E2CD9025608D20757080318570FA52C12
:10194800A62CD30758080318580FAB2CAC2CD40777
:1019580059080318590AD5075508CD005408CC0072
:101968005308CB005208CA008030D2005208DA0669
:10197800DD09DD0A5D08031DDE2C0130CA070030D1
:1019880003180130CB07003003180130CC070030B2
:1019980003180130CD07DE2C4E08CA024F08031C7D
:1019A8004F0FCB025008031C500FCC025108031CE8
:1019B800510FCD024D084C044B044A04031D062D5B
:1019C8005D08031D062D0030CD000030CC0000302E
:1019D800CB000030CA0008000130D2000310CA0D45
:1019E800CB0DCC0DCD0DD20BF22CDD1B4A145D1C9A
:1019F800FF2C0314002D0310DD0D5C080319062DC0
:101A08000130DC02CC1FF02CDB01DD1F132D5D083B
:101A18007F3903194A18112D132DDB01DB0A5B08E6
:101A28000319462D0130CA07003003180130CB07CF
:101A3800003003180130CC07003003180130CD07FF
:101A48004D1C462D4A08D2004B08D3004C08D40040
:101A58004D08D5000130D600550DD50CD40CD30C4B
:101A6800D20CD60B302D5508CD005408CC005308A5
:101A7800CB005208CA005C0A0319462D0130D20077
:101A88005208DC075C0A031D5C08031D562D003054
:101A9800CD000030CC000030CB000030CA005C081C
:101AA8000319DA015C1C5A2DCC175E2D7F30D20049
:101AB8005208CC055C08D2000310520CD30053081E
:101AC800CD00DA1F0800CD170800A4002408031D64
:101AD8000F2F1F169F1624088312E600E60DE60D49
:101AE8001F086606C33966069F000030A300003051
:101AF800A2000030A1000A30A0000A168A15CA24E4
:101B08000A128A1500308316A8000030A70000309A
:101B1800A6000030A5000130A9000030AA00240862
:101B28000A168A15EF260A128A154408CD004308BA
:101B3800CC004208CB004108CA008316280883124B
:101B4800D100831627088312D00083162608831233
:101B5800CF00831625088312CE000A128A153C236B
:101B68000A128A154D088316A80083124C0883169A
:101B7800A70083124B088316A60083124A0883160F
:101B8800A5000A168A15A0210A128A15013A031916
:101B9800DB2D01308316A9070318AA0A0030AA070B
:101BA80000302A020F3003192902031C932D00303C
:101BB80083162A020A3003192902031C08000F3071
:101BC80029062A04031DF22D2908FF3E8312B300BB
:101BD80083162A080318013EFF3EF72D29088312B1
:101BE800B30083162A088312B400B501B601003089
:101BF8000A168A11D0210A128A153608C400350837
:101C0800C3003408C2003308C100831628088312B1
:101C1800C800831627088312C70083162608831274
:101C2800C600831625088312C5000A128A159B214F
:101C38000A128A1544088316A800831243088316DB
:101C4800A700831242088316A60083124108831650
:101C5800A50028088312E100831627088312E000F4
:101C6800831626088312DF00831625088312DE00F8
:101C78004430E5007F30E400C030E3000030E2008B
:101C88000A168A1527220A128A1561088316D600B1
:101C9800831260088316D50083125F088316D40068
:101CA80083125E088316D30056088312AC0083168D
:101CB80055088312AB00831654088312AA008316B2
:101CC80053088312A900831656088312B00083169E
:101CD80055088312AF00831654088312AE0083168A
:101CE80053088312AD000A128A11A2240A128A1517
:101CF8002C088316D60083122B088316D50083126E
:101D08002A088316D400831229088316D3003B308F
:101D18008312AC001130AB007D30AA006B30A900F3
:101D2800831656088312B000831655088312AF0035
:101D3800831654088312AE00831653088312AD002D
:101D48000A128A11A2240A128A152C088316D600B0
:101D580083122B088316D50083122A088316D40011
:101D6800831229088316D30043308312CD0016301E
:101D7800CC000030CB000030CA008316560883120E
:101D8800D100831655088312D00083165408831295
:101D9800CF00831653088312CE000A128A153C23FB
:101DA8000A128A154D088316D60083124C0883162A
:101DB800D50083124B088316D40083124A08831671
:101DC800D30044308312A300FA30A2000030A100EF
:101DD8000030A000831656088312A7008316550802
:101DE8008312A600831654088312A500831653088D
:101DF8008312A4000A168A113D210A128A150318B3
:101E0800080044308316D600FA30D5000030D400DC
:101E18000030D30008001F129F1224088312E60026
:101E2800E60DE60D1F086606C33966069F000030FA
:101E3800A3000030A2000030A1000A30A0000A165A
:101E48008A15CA240A128A1500308316A8000030A1
:101E5800A7000030A6000030A5000130A90000301E
:101E6800AA0024080A168A1525260A128A152A089D
:101E7800E6002B08E700E801E9016908B6006808F0
:101E8800B5006708B4006608B30000300A168A1166
:101E9800D0210A128A1536088316A3008312350842
:101EA8008316A200831234088316A1008312330814
:101EB8008316A00028088312A3008316270883121C
:101EC800A200831626088312A10083162508831210
:101ED800A000831623088312A70083162208831202
:101EE800A600831621088312A500831620088312F2
:101EF800A4000A168A113D210A128A1503188D2F8B
:101F080083162308A8002208A7002108A600200895
:101F1800A5000A168A15A0210A128A15013A031982
:101F2800A32F01308316A9070318AA0A0030AA07AD
:101F380000302A020F3003192902031C352F003004
:101F480083162A020A3003192902031C08003E30AE
:101F58008312AC00A230AB00F730AA00B130A90060
:101F6800831628088312B000831627088312AF004F
:101F7800831626088312AE00831625088312AD0047
:101F88000A128A11A2240A128A152C088316D20072
:101F980083122B088316D10083122A088316D000D7
:101FA800831229088316CF0052088312A3008316D0
:101FB80051088312A200831650088312A1008316C9
:101FC8004F088312A0004130A7007030A6000030EF
:101FD800A5000030A4000A168A113D210A128A15AC
:101FE8000318080000308316D2000030D1000030FA
:101FF800D0000030CF000800FF1B0A2883137F1889
:1020080083170008840A0319FF0A080010308A00A1
:102018000408840A8207003466346634A634BF3460
:102028001434AE342B34C134003440341C344634B8
:1020380066348634963443340034C0347F344434B0
:102048000034003400340034C434FF347F343F3467
:102058008034EF34FF34BE349034E134A9343E3454
:10206800EC3482347634BE348234AD342B343E348E
:102078000E343C34C334BD348734D13413343D3446
:1020880041347834D334BB34003460347834453444
:10209800003440341C344634763431342E343034F1
:1020A8002E34333400344F344B340034303400345D
:1020B8003A34003483120313A00014308316E1006D
:1020C8000030E200981C66288312200899008316C5
:1020D800981608005B08D1005A08D0005908CF00AC
:1020E8005808CE00831656088312C6008316550872
:1020F8008312C500831654088312C400831653083C
:102108008312C3000A168A11D2200A168A114408BB
:10211800D3004308D20000300A168A1565220A1631
:102128008A11831203135B08D1005A08D00059089A
:10213800CF005808CE00831652088312B0008316C9
:1021480051088312AF00831650088312AE0083161D
:102158004F088312AD004130AC002030AB00003096
:10216800AA000030A9000A128A11A2240A168A11AC
:102178002C08C6002B08C5002A08C4002908C3007B
:102188000A168A11D2200A168A114408D300430875
:10219800D20001300A168A15652208000310450D81
:1021A800460DC7004708CD004D08031DE428003040
:1021B800C6000030C5000030C4000030C30008006D
:1021C8004308C7004408C8004508C9004608CA00B3
:1021D8001F300310CA0CC90CC80CC70CFF3E031DE6
:1021E800ED284708CB004B08CC00C517FF30C305C6
:1021F800FF30C405FF30C5050030C6059630CD0256
:10220800CD1F1B294D08803A973E031CDB2801305F
:102218000310C60CC50CC40CC30CFF3E031D0C29CF
:102228000130C7004708CD0703192E290B29203094
:102238004D020318DB284D0803192E290130C70069
:102248000310C30DC40DC50DC60DC70B24290130DD
:10225800CD021F294C0803190800C309C409C50980
:10226800C609C30A0319C40A0319C50A0319C60A09
:10227800080000302005A80000302105A9008030A2
:102288002205AA007F302305AB002B082A04290465
:102298002804031D57290030A3000030A200003095
:1022A800A1000030A00000302405A800003025055A
:1022B800A90080302605AA007F302705AB002B082F
:1022C8002A0429042804031D71290030A7000030BE
:1022D800A6000030A5000030A400A31F97290030F5
:1022E800A8000030A9000030AA008030AB00200808
:1022F800A8022108031C210F82298329A902220888
:10230800031C220F88298929AA022308031C230FEA
:102318008E298F29AB022B08A3002A08A2002908BE
:10232800A1002808A000A71FBD290030A800003080
:10233800A9000030AA008030AB002408A8022508B4
:10234800031C250FA829A929A9022608031C260F62
:10235800AE29AF29AA022708031C270FB429B529DB
:10236800AB022B08A7002A08A6002908A500280800
:10237800A4008030A3068030A70627082302031D87
:10238800080026082202031D080025082102031D53
:102398000800240820020800BB003B08031DB61FE4
:1023A800E5293309BD003409BE003509BF003609E7
:1023B800C000BD0A0319BE0A0319BF0A0319C00ADF
:1023C800ED293608C0003508BF003408BE003308C0
:1023D800BD003608350434043304031DFC290030DD
:1023E800B6000030B5000030B4000030B30008007B
:1023F8009630B7003708BC00FE30400503192D2A77
:102408000130B7003708BC0701300310C00CBF0CFF
:10241800BE0CBD0CFF3E031D092A002A0130B7007F
:102428003708BC070130BD07003003180130BE076C
:10243800003003180130BF07003003180130C0070F
:1024480001300310C00CBF0CBE0CBD0CFF3E031DB9
:10245800252AFF3040050319412A122A02303C027E
:10246800031C432A0130BC020130B7000310BD0D24
:10247800BE0DBF0DC00DB70B3A2ABF1F322A3C183C
:102488004D2AFF30BD05FF30BE057F30BF05FF3048
:10249800C0050310BC0C3C08B700B801B901BA016B
:1024A80018300310B70DB80DB90DBA0DFF3E031D56
:1024B800552A3708BD043808BE043908BF043A084D
:1024C800C0043B08031DB61F6A2AC0174008B6009F
:1024D8003F08B5003E08B4003D08B3000800831269
:1024E8000313A9002508031D080002302402031D58
:1024F800852A00302302031D852A00302202031D8D
:10250800852A031808002508031D982A013024028B
:10251800031D962A00302302031D962A003022024A
:10252800031D962A031C9D2A0830A7002708AA0025
:102538009E2AAA012908A7002708AB000310AB0DA3
:10254800A030A7002708AB042A08A7002708AB0477
:102558000A168A1518210A168A1183122B08A70051
:10256800A8012708A0002808A1000A168A15212119
:102578000A168A112308A700A8012708A00028081E
:10258800A1000A168A1521210A168A112208A70015
:10259800A8012708A0002808A1000A168A152121E9
:1025A8000A168A1126088400831700080319452B88
:1025B8002508031D080002302402031DEB2A003001
:1025C8002302031DEB2A00302202031DEB2A031805
:1025D80008002208013E7F39031D242B26088400A9
:1025E8000008A700A8012708A0002808A1000A16CB
:1025F8008A1521210A168A110A168A1503210A1634
:102608008A110D3083120313A800FB30A700A70B13
:102618000B2BA80B0B2B013083120313A2070030DE
:1026280003180130A307003003180130A407003055
:1026380003180130A5070130A7002708A607872A35
:10264800260884000008A700A8012708A000280879
:10265800A1000A168A1521210A168A110130A7003D
:102668002708A6070130A207003003180130A30786
:10267800003003180130A407003003180130A50703
:10268800D62A0030A000A1000A168A1521210A16B0
:102698008A110A168A1503210A168A11B93083127B
:1026A8000313A700572B582BA70B562B5B2B08009F
:1026B8008B188B100C1CD42BB1308F00F3308E008C
:1026C8000C108316EB1F6A2BEB1364000A30F80713
:1026D8000318F90A0030F90703307902E8300319C2
:1026E8007802031C792BF801F90101307902F430E2
:1026F800031978020318842B831203138617872B78
:102708008312031386138316610862040319952B39
:102718000A30E1020030031CE203E20283120617CA
:10272800972B831206137A087B040319A32B0A300C
:10273800FA020030031CFB03FB028616A42B861248
:102748000A308316D9070318DA0A0030DA070A3084
:10275800DF070318E00A0030E007E8305F060330BF
:1027680003196006031DD42BDF01E0010130F000DE
:102778007008E9073C306906031DD42BE9010130D4
:10278800F0007008E7073C306706031DD42BE7010B
:102798000130F0007008E807183068060319E801EE
:1027A80083128C1E3B2C83166B141E30F6000030EF
:1027B800F700DB01DC019030F0007008E3007608D8
:1027C80077040319162C831203138C1E0F2C1A0876
:1027D800F0008316630884007008831780005C0883
:1027E800803AFF0080307F02031DFC2B18305B020B
:1027F80003180A2C013083160313DB070318DC0ABD
:102808000030DC070130F0007008E3071E30F600E6
:102818000030F700E32B0130F6020030031CF70309
:10282800F702E32B831603136308840083178001E0
:102838008312981C3B2C181218161A08F000F10184
:102848007008F6007108F7001A08F000F101700826
:10285800F6007108F7001A08F000F1017008F60098
:102868007108F7008316031790010313EB1475081A
:102878008312FF0074088A0073088400720E8300B4
:10288800FE0E7E0E0900023083120313EC000430A2
:10289800EB00B930EA00EA0B4F2CEB0B4F2CEC0B9A
:1028A8004F2C562C831603130F168F160F178312EF
:1028B8008501860187018901EF30831685000F3075
:1028C8008600F0308700FF30890011300317880038
:1028D8008901031381130F30950083128617061799
:1028E80086160030A3000030A2000330A100E830B3
:1028F800A0000A168A1539250A168A11831681122C
:1029080081150114811401158B120B128B170B17EB
:10291800831210169016901083160C14013083122F
:10292800900064000A168A153D210A168A110030A3
:10293800B1000130B0008630AF00A030AE000A16FA
:102948008A1502240A168A1100308312A300013066
:10295800A200C230A1000030A0000A168A15E9259D
:102968000A168A1110300A168A1580230A168A1147
:102978002408EE002308ED006D0A031DCF2C6E0A13
:10298800031DCF2C0030A500A60010300A168A15AA
:1029980033240A168A11013083120313ED07031832
:1029A800EE0A0030EE076E08A6006D08A50010308C
:1029B8000A168A1533240A168A11F801F9018316B2
:1029C8000313E101E201FA01FB01E901E8018312C5
:1029D800071087100511851106090F39EA006A08E2
:1029E8008316E500E601E60A6A11EB170130831247
:1029F800EA006A088316E607023066060319E6014C
:102A080066080A128A1569250A168A1183166B1C2C
:102A1800F92C031710080313DE000317110803131A
:102A2800DD00BB305D06AA3003195E06031DF92CD4
:102A38000317130883120313EA006A088316E400D5
:102A480064086506031D640A031DF92C1430E100AF
:102A58000030E2000A128A1136200A168A118316FB
:102A68006B10F92C83120313AC002508031D080012
:102A780002302402031D482D00302302031D482D77
:102A880000302202031D482D031808002508031DE5
:102A98005B2D01302402031D592D00302302031D34
:102AA800592D00302202031D592D031C602D0830BA
:102AB800A9002908AD00612DAD012C08A90029083D
:102AC800AE000310AE0DA030A9002908AE042D08F1
:102AD800A9002908AE040A168A1518210A168A11AF
:102AE80083122E08A900AA012908A0002A08A1001B
:102AF8000A168A1521210A168A112308A900AA0193
:102B08002908A0002A08A1000A168A1521210A16F8
:102B18008A112208A900AA012908A0002A08A100F0
:102B28000A168A1521210A168A11AB012608FF3ECA
:102B3800A900FF3003180030AA002A08803A803C18
:102B4800031DA82D29082B020318722E83120313C4
:102B58002508031D080002302402031DBB2D003088
:102B68002302031DBB2D00302202031DBB2D0318B9
:102B780008002208013E7F39031D482E27088400DB
:102B88008317281C83130008A900AA012908A0009C
:102B98002A08A1000A168A1521210A168A110A167E
:102BA8008A1503210A168A110D3083120313AA000D
:102BB800FB30A900A90BDE2DAA0BDE2D01308312F4
:102BC8000313A207003003180130A30700300318CD
:102BD8000130A407003003180130A5070130A7070A
:102BE8000318A80A0030A8072508031D092E01307C
:102BF8002402031D072E00302302031D072E003078
:102C08002202031D072E031C0E2E0830A9002908D6
:102C1800AD000F2EAD012C08A9002908AE00031045
:102C2800AE0DA030A9002908AE042D08A900290876
:102C3800AE040A168A1518210A168A1183122E085C
:102C4800A900AA012908A0002A08A1000A168A15C5
:102C580021210A168A112308A900AA012908A0001F
:102C68002A08A1000A168A1521210A168A112208A3
:102C7800A900AA012908A0002A08A1000A168A1595
:102C880021210A168A116D2E270884008317281C13
:102C980083130008A900AA012908A0002A08A10096
:102CA8000A168A1521210A168A110130A707031866
:102CB800A80A0030A8070130A20700300318013025
:102CC800A307003003180130A407003003180130AF
:102CD800A5070130A9002908AB079A2D8312031311
:102CE800270884008317281C83130008A900AA0159
:102CF8002908A0002A08A1000A168A1521210A1607
:102D08008A110A168A1503210A168A11B930831204
:102D18000313A9008F2E902EA90B8E2E932E080038
:102D280083120313AE00AF012908031D0800023007
:102D38002802031DA72E00302702031DA72E0030EE
:102D48002602031DA72E031808002908031DBA2E02
:102D580001302802031DB82E00302702031DB82EAB
:102D680000302602031DB82E031CBF2E0830AB000E
:102D78002B08AF00C02EAF012E08AB002B08B00007
:102D88000310B00DA030AB002B08B00430142F088E
:102D9800AB002B08B0040A168A1518210A168A11E6
:102DA80083123008FE39AB00AC012B08A0002C08B8
:102DB800A1000A168A1521210A168A112708AB00D4
:102DC800AC012B08A0002C08A1000A168A152121A5
:102DD8000A168A112608AB00AC012B08A0002C08A3
:102DE800A1000A168A1521210A168A110A128A11C7
:102DF800FB270A168A1183123008AB00AC012B0896
:102E0800A0002C08A1000A168A1521210A168A1189
:102E1800AD012908031DE92F02302802031D1C2FCC
:102E280000302702031D1C2F00302602031D1C2F13
:102E38000318E92F2608013E7F39031DB92F0030FA
:102E4800A000A1000A168A15D5230A168A1120089F
:102E5800AB002A0884002B08831780000A168A15FD
:102E680003210A168A110D3083120313AC00FB30BC
:102E7800AB00AB0B3D2FAC0B3D2F0130831203137E
:102E8800A607003003180130A707003003180130E7
:102E9800A807003003180130A9070130AB002B0840
:102EA800AA072908031D662F01302802031D642F75
:102EB80000302702031D642F00302602031D642FF3
:102EC800031C6B2F0830AB002B08AF006C2FAF0131
:102ED8002E08AB002B08B0000310B00DA030AB00DB
:102EE8002B08B00430142F08AB002B08B0040A16C6
:102EF8008A1518210A168A1183123008FE39AB0088
:102F0800AC012B08A0002C08A1000A168A15212163
:102F18000A168A112708AB00AC012B08A0002C0860
:102F2800A1000A168A1521210A168A112608AB0063
:102F3800AC012B08A0002C08A1000A168A15212133
:102F48000A168A110A128A11FB270A168A11831295
:102F58003008AB00AC012B08A0002C08A1000A1611
:102F68008A1521210A168A11E02F0130A0000030AD
:102F7800A1000A168A15D5230A168A112008AB0063
:102F88002A0884002B08831780002A088400000878
:102F98000319E92F0130AB002B08AA070130A60757
:102FA800003003180130A707003003180130A807C4
:102FB800003003180130A9070130AD07FF302D0795
:102FC800AB0040302B02031C0D2F0030A000A100E5
:102FD8000A168A15D5230A168A110A168A15032194
:102FE8000A168A11B93083120313AB00FB2FFC2F8A
:082FF800AB0BFA2FFF2F0800BC
:103206000A168A15082111150800831614190829AB
:1032160011081F3903190800082964008001840A6F
:10322600040603190034040611291430FA0000308C
:10323600FB000A168A150821111408008316EB17DD
:103246000A168A15082183122008930008004830C0
:103256008312A1008030A2000A168A15972408005E
:103266009F149F1834291E08A10083161E08831276
:10327600A0000800C030831203139F048030831619
:103286009F009F1783121F1408000330D8005808A8
:10329600D9005708D8005808DA005608D800580848
:1032A600DB000330D8005808D20059300A168A15B8
:1032B6000125080083120313B4003208A500310863
:1032C600A4003008A3002F08A200A601A60A33080E
:1032D600A7000130A80034080A168A11362508000E
:1032E6004E30D0005008D100510A840083130008E4
:1032F6000A168A115E200A168A158312510884005E
:10330600831300080A168A115E2008005B08D300A2
:103316005A08D2005C08D4000130D5005C080A16B1
:103326008A15B7210A168A152008013EDD005D08B8
:10333600D6000A168A15A826080083166B1CB22921
:1033460003171308031365060319AD290317130A98
:10335600031DB22983120313A001A00AB529831203
:103366000313A0012008080083120313A4002408F5
:10337600A2002208A300230884008317000803196B
:10338600C9290130A2002208A307BE292408230266
:10339600A000A101A01BA103080083120313B8001B
:1033A6003708A9003608A8003508A7003408A60083
:1033B600AA01AA0A3908AB000030AC0038080A1284
:1033C6008A152C20831203133908840083130008FE
:1033D6000800A401A50121082502031DF4292008DF
:1033E600240203180800033083120313A300973046
:1033F600A200A20BFC29A30BFC29013083120313A4
:10340600A4070318A50A0030A507EE29A200220882
:10341600A1002108A300200884000A168A110A20A8
:103426000A168A15A1002308840021088317800044
:103436000008031908000130A1002108A307013084
:10344600A1002108A0070E2A8030E1066508CD00FC
:103456006408CC006308CB006208CA006108D1008A
:103466006008D0005F08CF005E08CE000A128A15F9
:103476003C234D08E1004C08E0004B08DF004A08F9
:10348600DE00080083120313A50025080A168A1514
:10349600A5220A168A150313A4002408A6000130E3
:1034A600A4002408A5072608A400230884002408ED
:1034B600831780000130A4002408A30726080319F7
:1034C6000800482A83120313D5005308D400540871
:1034D600D6005208D4005408D7005108A500500859
:1034E600A4004F08A3004E08A2000230D4005408DE
:1034F600A6005630A7000030A80055080A168A1103
:1035060036250800B700B21F982A2D30B5003708B7
:1035160084003508831380000130B5003508B707ED
:10352600B109B209B10A0319B20A3208A900310871
:10353600A8003408AB003308AA0037080A128A111B
:103546009727080083120313A2001430FA000030F4
:10355600FB00831603178C18AC2A83120313220868
:1035660003178D0083168C130C144E30831203132D
:10357600A100EA30A000A00BBE2AA10BBE2A0000C3
:10358600831203170C0808000A30A0000030A100BF
:103596005708A3005608A2000A168A15AD250A1672
:1035A6008A152108D7002008D6000230D80058080E
:1035B600D9005608D8005808DA000230D800580852
:1035C600D20059300A168A1501250800A800A40160
:1035D600A5012008A200A3012208A6002308A7002F
:1035E600281CFB2A2608A4070318A50A2708A507EE
:1035F60001300310A60DA70DFF3E031DFC2A031084
:10360600A80C2808031DF32A2508A1002408A000F9
:103616000800A500A6012530A3002308A700260858
:10362600A300A40122082402031D1B2B2108230248
:103636000318080027088400831300080A168A1155
:103646005E200A168A1501308312A3002308A707F5
:103656000130A3002308A607122B83120313BA0016
:103666003708A9003608A8003508A7003408A600C0
:103676000230B8003808AA003B30AB000030AC007E
:103686003A080A128A152C20831203133B08B80045
:10369600B9013808B900B8013C083807B400003051
:1036A600031801303907B500080083120313A1007F
:1036B600AA300A168A115E200A168A15BB300A1627
:1036C6008A115E200A168A1565080A168A115E2076
:1036D6000A168A1500300A168A115E200A168A15FD
:1036E60003173D080A168A115E200A168A158312E8
:1036F60021080A168A115E20080083120313A60009
:103706002830A5002508A700AA0126080A168A154A
:10371600A5220A168A150313A50027088400250882
:10372600831380000130A5002508A6070130A500F7
:103736002508A7070130A5002508AA0702302A0296
:10374600031C882B2908A4002808A300080083125C
:103756000313A70025088400831700080319CA2B42
:10376600250884000008A6002608A00027080A16D7
:103776008A1571250A168A15013083120313A600CD
:103786002608A7070130A6002608A507AD2B2508A1
:1037960084000008A6002608A00027080A168A1535
:1037A600712508008316EB170A168A1508210A16D2
:1037B6008A1591150A168A1508210A168A15831282
:1037C6001308A200A3012208A4002308A5000A16D4
:1037D6008A1508210A168A15831220082104031D5A
:1037E600F82B831603139116FB2B831603139112E2
:1037F600111683122508A1002408A000080028300D
:1038060094008316910183122E08B2002F08B3008C
:103816003008B4003108B50002300310B20DB30D04
:10382600B40DB50DFF3E031D102C3508A30034085A
:10383600A2003308A1003208A0000030A7007A30A9
:10384600A6001230A5000030A4000A168A15A22789
:103856002008FF3E8316930094018715071608007B
:103866008312AB002530A7002708AA00AC012A085E
:10387600840083130008A7002708A0002B080A1657
:103886008A1571250A168A15013083120313A700BB
:103896002708AA070130A7002708AB070130A700B1
:1038A6002708AC0702302C02031C3A2C4E30831238
:1038B6000313A800EA30A700A70B5F2CA80B5F2C08
:1038C60000000800200821040319922CA501A50A6E
:1038D600A11B792C01300310A00DA10DFF3E031D85
:1038E6006E2C0130A4002408A5076B2C21082302A6
:1038F600031D7F2C20082202031C872C2008A2020D
:103906002108031CA303A30201300310A10CA00C81
:10391600FF3E031D882C0130A502031D792C2308C8
:10392600A1002208A00008002108A3002208A40084
:103936002408FF00230884000A168A1100200A16AC
:103946008A15003A0319BD2C2408FF0023088400B9
:103956000A168A1100200A168A150A168A115E208E
:103966000A168A1501308312A3070318A40A003029
:10397600A4079B2C2408FF00230884000A168A113A
:1039860000200A168A150A168A115E2008000030E1
:10399600A9000030A8000030A7000030A6002908C2
:1039A600803AFF002308803A7F02031DE42C220898
:1039B6002802031DE42C21082702031DE42C2008FD
:1039C600260203180800033083120313A50097305C
:1039D600A400A40BEC2CA50BEC2C013083120313D2
:1039E600A607003003180130A7070030031801307E
:1039F600A807003003180130A907D22CD400A5303F
:103A0600CE005A30CF000A168A1573210A168A1577
:103A160083125208013E0A168A115E200A168A157A
:103A260080300A168A115E200A168A158312D5017D
:103A3600520855020318312D55085407D300530870
:103A46008400831300080A168A115E200A168A1556
:103A560001308312D3005308D5071B2D0130A00077
:103A66000030A1000A168A15EC2108000030A900D2
:103A76000030A8000030A7000030A6002908803AD0
:103A8600FF002308803A7F02031D532D22082802D7
:103A9600031D532D21082702031D532D200826023E
:103AA600031808006400033083120313A50097303F
:103AB600A400A40B5C2DA50B5C2D0130831203130F
:103AC600A607003003180130A7070030031801309D
:103AD600A807003003180130A907412D83120313EC
:103AE600A3001430FA000030FB00831603178C186D
:103AF600782D8B1F832D83120313A401A40A862D10
:103B060083120313A401230803178D00031320084F
:103B160003178C0083168C130C158B1355308D00F0
:103B2600AA308D008C14831203132403031D9D2DCC
:103B36008B179E2D8B13831603170C114E30831291
:103B46000313A200EA30A100A10BA72DA20BA72DFB
:103B560000000800A601A701200821040319E42D8E
:103B6600A501A50AA11BC32D01300310A00DA10DAF
:103B7600FF3E031DB82D0130A4002408A507B52D6E
:103B860001300310A60DA70DFF3E031DC42D21080D
:103B96002302031DD02D20082202031CD92D200844
:103BA600A2022108031CA303A3022614013003105A
:103BB600A10CA00CFF3E031DDA2D0130A502031D4A
:103BC600C32D2708A1002608A00008004B302106B7
:103BD600200422042304031DFA2D981718168316B1
:103BE6001815181218130C3099000B17132EC23023
:103BF6002106031D142E220320042304031D142E64
:103C060010308316990003178715031318158312AE
:103C16009817831618121813831218160B17831683
:103C26008C16831607178717831218121816A60103
:103C36001A080130A4002408A6070F30260203182C
:103C460008001B2E8312AD002D08AC00AC0DAC0D88
:103C56001F082C06C3392C069F000030A300003035
:103C6600A2000030A1000A30A0000A168A15CA2454
:103C76000A168A15B001B101B201B20A0A168A15EE
:103C860033210A168A152108AF002008AE002F0836
:103C96003102031D502E2E0830020318562E2F080F
:103CA600B1002E08B0000130AC002C08B20733304A
:103CB6003202031C412E3108AB003008AA0008006E
:103CC60083120313B300B4012F08B0003408103E6A
:103CD60084003008831780000130B0003008B40734
:103CE60080303402031C672EB501B6013608B100D8
:103CF6003508B0000730FF000310B00DB10DFF0B03
:103D06007F2E3008A2003108A300A401A50180304F
:103D1600B2003208A6001030A7000130A800330810
:103D26000A168A1136250A168A15013083120313DC
:103D3600B5070318B60A0030B6070430360200305D
:103D46000319350203180800792EA530CE005A3023
:103D5600CF000A168A1573210A168A158312560889
:103D6600033E0A168A115E200A168A1582300A1642
:103D76008A115E200A168A1583125308CF0052084C
:103D8600CE000A168A1573210A168A158312D901DE
:103D9600560859020318E72E59085407D700550844
:103DA6000318013ED800570884008317581C831354
:103DB60000080A168A115E200A168A150130831237
:103DC600D7005708D907CB2E0130A0000030A1003C
:103DD6000A168A15EC2108008312C6004608C5009B
:103DE600C50DC50D1F084506C33945069F000030A1
:103DF600A3000030A2000030A1000A30A0000A167D
:103E06008A15CA240A168A15C701C801C901C90A32
:103E16000A168A1533210A168A152008C7070318B9
:103E2600C80A2108C8070130C5004508C90733304C
:103E36004902031C0B2F4908FF3EA000FF30031860
:103E46000030A1004808A3004708A2000A168A15F8
:103E5600AD250A168A152108C8002008C70047089C
:103E6600B3004808B400B501B60100300A168A113D
:103E7600D0213608C4003508C3003408C200330810
:103E8600C10008008312A4002408840083160317C7
:103E9600110883178000840A100880001208831214
:103EA6000313A0002408023E840020088000831625
:103EB6000317130883120313A0002408033E84008B
:103EC6002008800083160317140883120313A0002A
:103ED6002408043E84002008800083160317150872
:103EE60083120313A0002408053E840020088000E6
:103EF600A201A3012408053E84002308803AA000FD
:103F060080302002031D892F0008220203180800B2
:103F1600831203132208963E840083170008A0002C
:103F260022082407A1002108063E840020088000FC
:103F36000130A2070318A30A0030A3077D2F003023
:103F4600AC000030AB000030AA000030A900230806
:103F56002204210420040319F72FAD01AD0AA31B87
:103F6600C22F0130A8000310A00DA10DA20DA30DB4
:103F7600A80BB62F0130A8002808AD07B22F0130D4
:103F8600A8000310A90DAA0DAB0DAC0DA80BC42FEC
:103F960023082702031DD92F22082602031DD92F25
:103FA60021082502031DD92F20082402031CEA2F0D
:103FB6002008A4022108031C210FA5022208031CC5
:103FC600220FA6022308031C230FA702291401307F
:103FD6000310A30CA20CA10CA00CFF3E031DEB2F9B
:103FE6000130AD02031DC22F2C08A3002B08A2002E
:0A3FF6002A08A1002908A000080015
:04400E0084EFFFFF3D
:00000001FF
