:020000040000FA
:060000000A128A11122809
:10000800FE00030EF2000408F3000A08F40083124D
:1000180003137F08F5000A168A11B4290A128A11F7
:100028001528F801F901FA01FB01FC01FD01831211
:100038000313EF018313BD308400D8300A168A15E4
:10004800B6210A128A11831790308400EB300A1601
:100058008A15B6210A128A111030840044300A1613
:100068008A15B62183010A168A119F2A90300A162A
:100078008A15F7260A128A1183160317170883129E
:100088000313DF005F088316AE00031718088312F6
:100098000313DF005F088316AD00031719088312E6
:1000A8000313DF005F088316AC0003171A088312D6
:1000B8000313DF005F088316AB00752B4130DF00A8
:1000C8005F08A000CA300A168A15CA220A128A11C5
:1000D8000B300A168A15D8230A128A11CA308312DD
:1000E800A1000130A2000A168A15B8240800831658
:1000F80003171608031D892803134408A900430899
:10010800A8004208A7004108912803134008A90045
:100118003F08A8003E08A7003D08A600413083120A
:10012800AC002030AB000030AA000030A9008316D4
:1001380029088312B000831628088312AF0083169B
:1001480027088312AE00831626088312AD000A1210
:100158008A11C8230A128A112C088316A90083124F
:100168002B088316A80083122A088316A700831277
:1001780029088316A6008B1302300A168A15D8237D
:100188000A128A1129088312C600831628088312C6
:10019800C500831627088312C40083162608831215
:1001A800C3000A168A1113200A128A114408CF00C4
:1001B8004308CE000A168A1536228B1708008316C4
:1001C8000317160883120313DF005F088316AE00B7
:1001D8000317170883120313DF005F088316AD00A7
:1001E8000317180883120313DF005F088316AC0097
:1001F8000317190883120313DF005F088316AB0087
:100208002E088312DB0083162D088312DA0083166A
:100218002C088312D90083162B088312D8000A12DF
:100228008A150120F801F90183160313CD01CE01C7
:10023800080002300A168A15D8230A128A110230D9
:100248008312CE000030CF000A168A153622080025
:1002580083160317170883120313DF005F08A00033
:100268008316031716080A168A15FC250A128A111E
:1002780003300A168A15D8230A128A110A168A1513
:10028800C72108008316031716080A168A1549237A
:100298000A128A110313DF005F088316AA000130CF
:1002A8000A168A15D8230A128A112A080A168A15E4
:1002B800FB21080083160317160883120313DF00B7
:1002C8005F088316A2000317180883120313DF00C0
:1002D800E00183160317170883120313E100E201F4
:1002E8006108E200E1015F0861048316A00083123F
:1002F800600862048316A10021088312A6008316F1
:1003080020088312A500831622080A168A15862457
:100318000A128A113C298316031716080A168A1529
:1003280000240A128A1124088316A50083122308C0
:100338008316A40002300A168A15D8230A128A11D5
:1003480025088312CF00831624088312CE000A16CC
:100358008A15362208009730DF005F08A50083164B
:10036800031716080A168A152A240A128A113C2924
:10037800CA30DF005F08A3008316031716080A16A1
:100388008A1508230A128A1121306D2883162E082F
:100398008312BA0083162D088312B90083162C081D
:1003A8008312B80083162B088312B700831603172D
:1003B8001B0883120313DF005F08BB0083160317B3
:1003C80016080A168A1520220A128A113C29831651
:1003D8002E088312B90083162D088312B8008316DD
:1003E8002C088312B70083162B088312B6008316D5
:1003F800031716080A168A157B220A128A11DF00CB
:100408005F088316AA0001300A168A15D8230A1233
:100418008A112A080A168A15FB21080083162E0855
:100428008312D10083162D088312D00083162C085E
:100438008312CF0083162B088312CE00831603176E
:100448001C0883120313DF00E001831603171B083F
:1004580083120313E100E2016108E200E1015F0891
:100468006104D20060086204D300831603171608DB
:100478000A168A15E8220A128A113C2983162E08C0
:100488008312B90083162D088312B80083162C082E
:100498008312B70083162B088312B600831603173E
:1004A80016080A168A15B0230A128A113708831605
:1004B800A500831236089C29831603171B0883128C
:1004C8000313DF005F088316A30023080A168A15A2
:1004D800D8230A128A112E088312AC0083162D081D
:1004E8008312AB0083162C088312AA0083162B08EC
:1004F8008312A900831623088312DF005F08AD006A
:10050800CA30E0006008AE008316031716080A1602
:100518008A118226080083162E088312AD008316DE
:100528002D088312AC0083162C088312AB008316A7
:100538002B088312AA00831603171B0883120313C0
:10054800DF005F08AE009C30AF000130B0008316BA
:10055800031716080A168A1192230A128A113C29CF
:1005680083162E088312AD0083162D088312AC0063
:1005780083162C088312AB0083162B088312AA005B
:100588009B30DF005F08AE008316031716080A12B7
:100598008A11BD260A128A113C2983162E08831255
:1005A800AC0083162D088312AB0083162C08831227
:1005B800AA0083162B088312A900CA30DF005F083F
:1005C800AD008316031716080A168A1108250A12A1
:1005D8008A11CA300A168A1594220A128A1120082A
:1005E800013E6D2883160317170883120313DF00D3
:1005F800E0015F08D8006008D900831603171608C1
:100608000A168A1574260A128A113C2983160317BA
:10061800160883120313DF00E0015F08D6006008A4
:10062800D7000A168A150B220A128A113C2983164A
:100638000317160883120313DF00E0015F08E000C8
:10064800DF01831603171708831203135F07D60009
:100658000030031801306007D7000A168A156B238B
:100668000A128A113C2983160317160883120313EA
:10067800DF00E0015F08E000DF01831603171708B9
:10068800831203135F07DA00003003180130600794
:10069800DB009830E1006108DC000A168A154C225C
:1006A8000A128A113C29831603171608031D672BA3
:1006B8001708031D632B8312031307103C298312A9
:1006C800031307143C291603031D3C291708031DAF
:1006D800712B8312031387103C2983120313871489
:1006E8003C290317140883120313DF00E001600894
:1006F800003A0319802BC72B5F08023A0319E32835
:10070800013A03191D290B3A03192C29013A031937
:100718004629033A03195E29013A03198F29073A32
:100728000319AF29013A0319BC291C3A0319CA292C
:10073800033A0319EB29013A0319122A073A031954
:10074800422A013A0319B42A033A0319D12A013A71
:1007580003198F2A0F3A0319602A013A0319F62A56
:10076800033A03197B28383A0319372B063A031939
:100778001B2B013A03190A2B153A0319572B713A07
:1007880003196228C72B08002C088039B1003108EA
:10079800B6002C08B1003107B2003208BC00AB1B10
:1007A8003C143C080319E52B3C0A031DE32B0030DD
:1007B800AC000030AB000030AA000030A900AB1735
:1007C800ED2B0030AC000030AB000030AA00003048
:1007D800A90030088039B1003108B6063008B100E8
:1007E8003107B2003208B700AF1B371437080319B6
:1007F8000A2C370A031D082C0030B0000030AF0067
:100808000030AE000030AD00AF17122C0030B00041
:100818000030AF000030AE000030AD003708031DD7
:100828003C08031D202C0030AC000030AB00003029
:10083800AA000030A90008002908B1003108A0006A
:100848002F080A168A158D230A128A112108C20058
:100858002008C1004108B100B201B301B401340855
:10086800BB003308BA003208B9003108B8004208A2
:10087800B100B201B301B4013408C0003308BF00AD
:100888003208BE003108BD002A08B1003108A000B6
:100898002E080A168A158D230A128A112108C20009
:1008A8002008C1004108B100B201B301B401310808
:1008B800B807320803110318013E031DB9073308AE
:1008C80003110318013E031DBA0734080311031866
:1008D800013E031DBB074208B100B201B301B401D8
:1008E8003108BD07320803110318013E031DBE0776
:1008F800330803110318013E031DBF073408031111
:100908000318013E031DC0072B08B1003108A000E1
:100918002D080A168A158D230A128A112108C20089
:100928002008C1004108B100B201B301B401310887
:10093800B807320803110318013E031DB90733082D
:1009480003110318013E031DBA07340803110318E5
:10095800013E031DBB074208B100B201B301B40157
:100968003108BD07320803110318013E031DBE07F5
:10097800330803110318013E031DBF073408031190
:100988000318013E031DC0070830B1000310B80D5D
:10099800B90DBA0DBB0DB10BCA2C2A08B10031082C
:1009A800A0002D080A168A158D230A128A1121081B
:1009B800C2002008C1004108B1004208B200B301DA
:1009C800B4013108B807320803110318013E031DAA
:1009D800B907330803110318013E031DBA07340889
:1009E80003110318013E031DBB072908B100310894
:1009F800A0002E080A168A158D230A128A112108CA
:100A0800C2002008C1004108B1004208B200B30189
:100A1800B4013108B807320803110318013E031D59
:100A2800B907330803110318013E031DBA07340838
:100A380003110318013E031DBB070830B100031062
:100A4800B80DB90DBA0DBB0DB10B232D2908B10096
:100A58003108A0002D080A168A158D230A128A115A
:100A68002108C2002008C1004108B1004208B200B4
:100A7800B301B4013108B807320803110318013E65
:100A8800031DB907330803110318013E031DBA07F4
:100A9800340803110318013E031DBB072A08B100DF
:100AA8003108A0002F080A168A158D230A128A1108
:100AB8002108C2002008C1004108B1004208B20064
:100AC800B301B4013108BD07320803110318013E10
:100AD800031DBE07330803110318013E031DBF079A
:100AE800340803110318013E031DC0072B08B10089
:100AF8003108A0002E080A168A158D230A128A11B9
:100B08002108C2002008C1004108B1004208B20013
:100B1800B301B4013108BD07320803110318013EBF
:100B2800031DBE07330803110318013E031DBF0749
:100B3800340803110318013E031DC0072B08B10038
:100B48003108A0002F080A168A158D230A128A1167
:100B58002108C2002008C1004108B1004208B200C3
:100B6800B301B40108300310B10DB20DB30DB40DCB
:100B7800FF3E031DB72D3108BD07320803110318C6
:100B8800013E031DBE07330803110318013E031D70
:100B9800BF07340803110318013E031DC0073B08B3
:100BA800B100B201B301B4013108BD073208031125
:100BB8000318013E031DBE07330803110318013E45
:100BC800031DBF07340803110318013E031DC007A6
:100BD8000830B1000310B80DB90DBA0DBB0DB10B3B
:100BE800EE2D3C083707B100B201B20D3108823E44
:100BF800C10032080318013EFF3EC200BF1B1F2E72
:100C08000130B1000310BD0DBE0DBF0DC00DB10BFD
:100C1800062EBB1B3D140130B1000310B80DB90DF1
:100C2800BA0DBB0DB10B112EFF30C1070318C20A54
:100C3800FF30C207022EB701BB1F382EFF30380520
:100C4800B100FF303905B200FF303A05B3007F30FC
:100C58003B05B400340833043204310403193D1849
:100C6800362E382EB701B70A370803196A2E013015
:100C7800BD07003003180130BE07003003180130EB
:100C8800BF07003003180130C007401C6A2E3D081A
:100C9800B1003E08B2003F08B3004008B40001307C
:100CA800B500340DB40CB30CB20CB10CB50B552E09
:100CB8003408C0003308BF003208BE003108BD0048
:100CC8000130C1070318C20A0030C2074208803A3F
:100CD800FF0080307F02031D732EFF304102031C8A
:100CE800802E7F3083120313C0008030BF00003095
:100CF800BE000030BD00B02E831203134208803AB4
:100D0800FF0080307F02031D8B2E01304102031843
:100D1800992E003083120313C0000030BF0000304A
:100D2800BE000030BD00B601B02E83120313410887
:100D3800B1003108BC00FF30BD05FF30BE057F3073
:100D4800BF050030C0053C18BF173C08B1000310B0
:100D5800310CB2003208C0003608B1003108C004B6
:100D68004008AC003F08AB003E08AA003D08A900B7
:100D7800080083120313B1002D08031D0800023078
:100D88002C02031DCF2E00302B02031DCF2E003066
:100D98002A02031DCF2E03180800831203132D08FF
:100DA800031DE42E01302C02031DE22E00302B021D
:100DB800031DE22E00302A02031DE22E031CEB2E37
:100DC800083083120313AF002F08B200EE2E8312EF
:100DD8000313B2013108AF002F08B3000310B30D9D
:100DE800A030AF002F08B3043208AF002F08B304B7
:100DF8000A168A1102200A128A1183123308AF00D8
:100E0800B0012F08A3003008A4000A168A15E521AE
:100E18000A128A112B08AF00B0012F08A30030086E
:100E2800A4000A168A15E5210A128A112A08AF00B9
:100E3800B0012F08A3003008A4000A168A15E5217E
:100E48000A128A112E0884008317000803199E2F9E
:100E58006400831203132D08031D080002302C02BE
:100E6800031D3E2F00302B02031D3E2F00302A02A7
:100E7800031D3E2F03180800831203132A08013E9E
:100E88007F39031D7C2F2E08840083170008AF00CC
:100E9800B0012F08A3003008A4000A168A15E5211E
:100EA8000A128A110A168A15BE210A128A110030FE
:100EB8008312A3000030A2000030A1000530A0007A
:100EC8000A168A158C250A128A110130AA070030E1
:100ED80003180130AB07003003180130AC070030AD
:100EE80003180130AD070130AF002F08AE07D32E2D
:100EF8002E08840083170008AF00B0012F08A30054
:100F08003008A4000A168A15E5210A128A11013050
:100F1800AF002F08AE070130AA07003003180130D0
:100F2800AB07003003180130AC070030031801305C
:100F3800AD07262F0030A300A4000A168A15E52164
:100F48000A128A110A168A15BE210A128A1100305D
:100F58008312A3000030A2000030A1000530A000D9
:100F68000A168A158C250800A530CE005A30CF0005
:100F78000A168A1536220A128A1183125608033E67
:100F88000A168A15FB210A128A1182300A168A1556
:100F9800FB210A128A1183125308CF005208CE008F
:100FA8000A168A1536220A128A118312D90156089E
:100FB80059020318F72F59085407D7005508031882
:100FC800013ED800570884008317581C8313000873
:100FD8000A168A15FB210A128A1101308312D700DA
:100FE8005708D907DB2F0130A0000030A1000A16EE
:060FF8008A15AD2208007D
:101002005B08D1005A08D0005908CF005808CE001A
:10101200831644088312B000831643088312AF007C
:10102200831642088312AE00831641088312AD0074
:101032004130AC002030AB000030AA000030A900E3
:101042000A128A11C8230A128A152C08C6002B0814
:10105200C5002A08C4002908C3000A168A111320F1
:101062000A128A154408D3004308D20000300A1637
:101072008A15E8220A128A15831203135B08D1002B
:101082005A08D0005908CF005808CE0083164008ED
:101092008312C60083163F088312C50083163E08DA
:1010A2008312C40083163D088312C3000A168A11F4
:1010B20013200A128A154408D3004308D2000130D3
:1010C2000A168A15E8220800B300B4011430831608
:1010D200D1000030D20083122D08031D0800023017
:1010E2002C02031D7C2800302B02031D7C280030BB
:1010F2002A02031D7C2803180800831203132D08FB
:10110200031D912801302C02031D8F2800302B0271
:10111200031D8F2800302A02031D8F28031C9828E4
:10112200083083120313B0003008B4009B288312E6
:101132000313B4013308B0003008B5000310B50D35
:10114200A030B0003008B50435143408B0003008BF
:10115200B5040A168A1102200A128A15831235086A
:10116200FE39B000B1013008A3003108A4000A160C
:101172008A15E5210A128A152B08B000B101300840
:10118200A3003108A4000A168A15E5210A128A155D
:101192002A08B000B1013008A3003108A4000A16E1
:1011A2008A15E5210A128A150A168A15F0210A12F1
:1011B2008A1583123508B000B1013008A300310846
:1011C200A4000A168A15E5210A128A15B2012E0810
:1011D20032020318CA296400831203132D08031D67
:1011E200CA2902302C02031DFE2800302B02031DE7
:1011F200FE2800302A02031DFE280318CA29831282
:1012020003132A08013E7F39031DA3290030A300DE
:10121200A4000A168A15EB240A128A152308B000C4
:101222002F0884003008831380000A168A15BE2115
:101232000A128A1500308312A3000030A200003087
:10124200A1000530A0000A168A158C250A128A15FB
:101252000130AA07003003180130AB070030031831
:101262000130AC07003003180130AD070130B00087
:101272003008AF072D08031D4C2901302C02031D35
:101282004A2900302B02031D4A2900302A02031D7D
:101292004A29031C5329083083120313B000300873
:1012A200B400562983120313B4013308B000300886
:1012B200B5000310B50DA030B0003008B5043514E8
:1012C2003408B0003008B5040A168A1102200A1246
:1012D2008A1583123508FE39B000B1013008A30027
:1012E2003108A4000A168A15E5210A128A152B086C
:1012F200B000B1013008A3003108A4000A168A1513
:10130200E5210A128A152A08B000B1013008A300AB
:101312003108A4000A168A15E5210A128A150A164E
:101322008A15F0210A128A1583123508B000B1011C
:101332003008A3003108A4000A168A15E5210A1212
:101342008A15C5290130A3000030A4000A168A15A7
:10135200EB240A128A152308B0002F0884003008F3
:10136200831380000130B0003008AF070130AA07B4
:10137200003003180130AB07003003180130AC070E
:10138200003003180130AD070130B0003008B20759
:10139200E828003083120313A300A4000A168A155A
:1013A200EB240A128A150A168A15BE210A128A1518
:1013B200B93083120313B000DE29DF29B00BDD2917
:1013C200E22908004A088039CB004B08D4004A08B9
:1013D200CB004B07CC004C08DB00C91B5B145B083D
:1013E2000319012A5B0A031DFE290030CA000030DE
:1013F200C9000030C8000030C700C917CA01092A55
:101402000030CA000030C9000030C8000030C700F8
:1014120046088039CB004B08D4064608CB004B0760
:10142200CC004C08DC00C51B5C145C080319272A9D
:101432005C0A031D242A0030C6000030C5000030BB
:10144200C4000030C300C517C6012F2A0030C600F1
:101452000030C5000030C4000030C3004608450417
:1014620044044304031D4E2A0030CA000030C90060
:101472000030C8000030C7008030C9047F30CA0481
:101482005408CB004B08CA044A08C6004908C500E4
:101492004808C4004708C30008005B08031D5A2A15
:1014A2000030C6000030C5000030C4000030C30068
:1014B20008005B08CB00CC014C08CE005C084B0254
:1014C200CD00031CCE034D087F3ED5004E08031805
:1014D200013E003ED6004A08D3004908D20048081F
:1014E200D1004708D0000030CA000030C9000030E7
:1014F200C8000030C7000030DA000030D9000030E8
:10150200D8000030D700DC011A305C020318CD2A63
:101512005C080319A92A0130CB000310D00DD10DAC
:10152200D20DD30DCB0B8E2A0130CB000310C70D89
:10153200C80DC90DCA0DCB0B972ADA1B471401300F
:10154200CB000310D70DD80DD90DDA0DCB0BA22A83
:1015520046085302031DB72A45085202031DB72A43
:1015620044085102031DB72A43085002031CC82A2B
:101572005A174308D0024408031C440FD1024508FD
:10158200031C450FD2024608031C460FD30201304A
:10159200CB004B08DC07852A53085204510450043F
:1015A200031D5714C91BF02A0130CB000310C70DCD
:1015B200C80DC90DCA0DCB0BD72ADA1B471401304F
:1015C200CB000310D70DD80DD90DDA0DCB0BE22AC3
:1015D200FF30D5070318D60AFF30D607D32ADC011D
:1015E200DA1F092BFF305705CB00FF305805CC001E
:1015F200FF305905CD007F305A05CE004E084D040C
:101602004C044B0403194718072B092BDC01DC0A95
:101612005C0803193B2B0130C70700300318013067
:10162200C807003003180130C90700300318013021
:10163200CA074A1C3B2B4708CB004808CC00490884
:10164200CD004A08CE000130CF004E0DCE0CCD0C9D
:10165200CC0CCB0CCF0B262B4E08CA004D08C90070
:101662004C08C8004B08C7000130D5070318D60A3A
:101672000030D6075608803AFF0080307F02031DF3
:10168200442BFF305502031C542BFF3083120313EB
:10169200D5000030D6000030CA000030C90000304A
:1016A200C8000030C700831203135608803AFF00B7
:1016B20080307F02031D5F2B0130550203186E2B11
:1016C20083120313D501D6010030CA000030C900CD
:1016D2000030C8000030C700D4018312031355083C
:1016E200CB004B08DB005B1C782BC9177C2B7F30AF
:1016F200CB004B08C9055B08CB0003104B0CCC0098
:101702004C08CA00412AB4003408AC00AC0DAC0D40
:1017120083121F0883162C06C3392C0683129F00DE
:101722000030A3000030A2000030A1000130A00070
:101732000A168A1555250A128A1500308316B80032
:101742000030B7000030B6000030B500B901B90A68
:1017520034080A168A154C270A128A153108E00045
:101762003008DF002F08DE002E08DD00831638085F
:101772008312E400831637088312E30083163608C7
:101782008312E200831635088312E1000A128A15D9
:101792006F250A128A15831260088316B800831215
:1017A2005F088316B70083125E088316B6008312A1
:1017B2005D088316B5000A168A1563220A128A1575
:1017C200013A0319ED2B01308316AC002C08B9073E
:1017D2000F303902031CA92B0A3083163902031C6D
:1017E20008000F303906031D042C3908FF3E83120E
:1017F200A000FF3003180030A100A201A11BA20328
:101802002208A300182C3908AC00AD01AE01AF01CB
:101812002F088312A30083162E088312A2008316B8
:101822002D088312A10083162C088312A000013018
:101832000A168A1111210A128A152308C6002208E3
:10184200C5002108C4002008C3008316380883128B
:10185200CA00831637088312C9008316360883121A
:10186200C800831635088312C7000A128A15E321BD
:101872000A128A1546088316B80083124508831691
:10188200B700831244088316B600831243088316F6
:10189200B5003408031D662DC2308312E000C83043
:1018A200DF000030DE000030DD004430C6007F3053
:1018B200C500C030C4000030C3004330AC00483023
:1018C200AB000030AA000030A9008316380883124A
:1018D200B000831637088312AF00831636088312CE
:1018E200AE00831635088312AD000A128A11C8238E
:1018F2000A128A152C08CA002B08C9002A08C80037
:101902002908C7000A128A15E3210A128A15460815
:10191200E4004508E3004408E2004308E1000A123B
:101922008A156F250A128A15831260088316C4006D
:1019320083125F088316C30083125E088316C200F7
:1019420083125D088316C100C2308312A3003430B3
:10195200A2000030A1000030A000831644088312C8
:10196200A700831643088312A60083164208831237
:10197200A500831641088312A4000A168A117E204C
:101982000A128A15031C08004230E0003430DF00DE
:101992000030DE000030DD00831644088312E400CC
:1019A200831643088312E300831642088312E2007F
:1019B200831641088312E1000A128A156F250A1262
:1019C2008A1583126008AC005F08AB005E08AA00AB
:1019D2005D08A9004230E0003430DF000030DE0054
:1019E2000030DD00831644088312E40083164308A6
:1019F2008312E300831642088312E2008316410831
:101A02008312E1000A128A156F250A128A158312BF
:101A12006008B0005F08AF005E08AE005D08AD0070
:101A22000A128A11C8230A128A152C088316B300D7
:101A320083122B088316B20083122A088316B10080
:101A4200831229088316B0003C308312AC00543054
:101A5200AB00FD30AA00F430A900831633088312CC
:101A6200B000831632088312AF0083163108831246
:101A7200AE00831630088312AD000A128A11C82301
:101A82000A128A152C088316A70083122B088316C4
:101A9200A60083122A088316A5008312290883163A
:101AA200A4004408AB004308AA004208A900410868
:101AB200A8000A168A1520252708C4002608C30094
:101AC2002508C2002408C10008003808C0003708F1
:101AD200BF003608BE003508BD0008006008803926
:101AE200E50065088316A00083126008E50065071B
:101AF200E60066088316A2008312DF1F822D83167A
:101B02002214831622080319962D220A031D922DF0
:101B120000308312E0000030DF000030DE000030D1
:101B2200DD008312DF17E0019F2D00308312E000F9
:101B32000030DF000030DE000030DD006408803954
:101B4200E50065088316A10021082006031D201761
:101B520083126408E5006507E60066088316A100A3
:101B62008312E31FB62D831621148316210803194D
:101B7200CA2D210A031DC62D00308312E400003055
:101B8200E3000030E2000030E1008312E317E401D9
:101B9200D32D00308312E4000030E3000030E20075
:101BA2000030E1008316220821020318332E201F81
:101BB200E02D80308312E50065088316A006220816
:101BC2008312E50065088316A30021088312E5004D
:101BD20065088316A20023088312E50065088316B0
:101BE200A10083125D08E50065088316A300831235
:101BF2006108E5006508DD00831623088312E5000D
:101C02006508E1005E08E50065088316A3008312FB
:101C12006208E5006508DE00831623088312E500EA
:101C22006508E2005F08E50065088316A3008312D9
:101C32006308E5006508DF00831623088312E500C8
:101C42006508E3006008E50065088316A3008312B7
:101C52006408E5006508E000831623088312E500A6
:101C62006508E4008316A30121088312E500E6015A
:101C72006608E8008316220883126502E700031C47
:101C8200E8036808803AFF0080307F02031D4B2E74
:101C92001A306702031C902E8312031360085F043C
:101CA2005E045D040319572E0130582E0030E50002
:101CB20065088316A30000308312E0000030DF00C5
:101CC2000030DE000030DD00831621088312E500BB
:101CD20065088316A200962E231C7A2E23088312EF
:101CE200E5000310650C0138E60066088316A300C0
:101CF2007C2E0310A30C83125D1C812E8316A31766
:101D020001308312E500600DE00CDF0CDE0CDD0C0F
:101D1200E50B842E0130E50065088316A2078316C1
:101D2200031321082202031C6D2E201BE12E220820
:101D3200031DA52E00308312E0000030DF000030CA
:101D4200DE000030DD00080083126108DD07620852
:101D520003110318013E031DDE0763080311031874
:101D6200013E031DDF07640803110318013E031D32
:101D7200E007601C8E2F8316231CCA2E23088312B1
:101D8200E5000310650C0138E60066088316A3001F
:101D9200CC2E0310A30C83125D1CD12E8316A31725
:101DA20001308312E500600DE00CDF0CDE0CDD0C6F
:101DB200E50BD42E0130E50065088316A2078E2FAD
:101DC20083126008803AFF006408803A7F02031D94
:101DD200F42E63085F02031DF42E62085E02031DE7
:101DE200F42E61085D0203184E2FFF30E500FF302C
:101DF200E600FF30E700FF30E8006108E900620812
:101E0200EA006308EB006408EC005D08E9025E0882
:101E1200031C5E0F0D2F0E2FEA025F08031C5F0FDB
:101E2200132F142FEB026008031C600F192F1A2FB7
:101E3200EC026908E5076A0803186A0F212F222FAE
:101E4200E6076B0803186B0F272F282FE7076C088C
:101E520003186C0AE8076808E0006708DF006608F4
:101E6200DE006508DD008030E50065088316A00607
:101E7200A309A30A2308031D5C2F01308312DD0787
:101E8200003003180130DE07003003180130DF078D
:101E9200003003180130E0075C2F6108DD026208A0
:101EA200031C620FDE026308031C630FDF02640877
:101EB200031C640FE002831260085F045E045D0489
:101EC200031D8B2F83162308031D8B2F00308312D3
:101ED200E0000030DF000030DE000030DD000800EE
:101EE2000130E5000310DD0DDE0DDF0DE00DE50B29
:101EF200732F8316A31F7F2F83125D148316231C57
:101F0200842F0314852F0310A30D220803198B2F8E
:101F12000130A2028312DF1F712F8316A101A31FBA
:101F22009C2F23087F39031D992F83125D1C9C2F40
:101F32008316A101A10A831621080319D42F0130A7
:101F42008312DD07003003180130DE07003003186A
:101F52000130DF07003003180130E007601CD42F86
:101F62005D08E5005E08E6005F08E7006008E8003B
:101F72000130E900680DE80CE70CE60CE50CE90B12
:101F8200BB2F6808E0006708DF006608DE0065080E
:101F9200DD008316220A0319D42F01308312E500D3
:101FA20065088316A2078316220A031D2208031D51
:101FB200E72F00308312E0000030DF000030DE0047
:101FC2000030DD00831622080319A001221CEC2F29
:101FD2008312DF17F12F7F308312E5006508DF05DA
:101FE200831622088312E5000310650CE6006608DA
:0E1FF200E0008316A01F08008312E01708000D
:102004008B1314308316D1000030D2000A168A15BF
:1020140028230A168A11003A03190800831611149A
:1020240008000310450D460DC7004708CD004D08B4
:10203400031D25280030C6000030C5000030C40050
:102044000030C30008004308C7004408C80045081E
:10205400C9004608CA001F300310CA0CC90CC80CBA
:10206400C70CFF3E031D2E284708CB004B08CC00AD
:10207400C517FF30C305FF30C405FF30C505003068
:10208400C6059630CD02CD1F5C284D08803A973E98
:10209400031C1C2801300310C60CC50CC40CC30C53
:1020A400FF3E031D4D280130C7004708CD07031923
:1020B4006F284C2820304D0203181C284D080319A2
:1020C4006F280130C7000310C30DC40DC50DC60D24
:1020D400C70B65280130CD0260284C08031908009D
:1020E400C309C409C509C609C30A0319C40A0319E3
:1020F400C50A0319C60A080000302005A8000030EC
:102104002105A90080302205AA007F302305AB00F9
:102114002B082A0429042804031D98280030A3004E
:102124000030A2000030A1000030A00000302405DF
:10213400A80000302505A90080302605AA007F30BC
:102144002705AB002B082A0429042804031DB22800
:102154000030A7000030A6000030A5000030A40025
:10216400A31FD8280030A8000030A9000030AA001E
:102174008030AB002008A8022108031C210FC328CB
:10218400C428A9022208031C220FC928CA28AA02AB
:102194002308031C230FCF28D028AB022B08A3004D
:1021A4002A08A2002908A1002808A000A71FFE28C9
:1021B4000030A8000030A9000030AA008030AB0035
:1021C4002408A8022508031C250FE928EA28A902E7
:1021D4002608031C260FEF28F028AA022708031C50
:1021E400270FF528F628AB022B08A7002A08A6001B
:1021F4002908A5002808A4008030A3068030A7067B
:1022040027082302031D080026082202031D0800D4
:1022140025082102031D0800240820020800A80044
:102224002808031DA31F26292009AA002109AB00A1
:102234002209AC002309AD00AA0A0319AB0A031949
:10224400AC0A0319AD0A2E292308AD002208AC00FC
:102254002108AB002008AA0023082204210420043A
:10226400031D3D290030A3000030A2000030A1006E
:102274000030A00008009630A4002408A900FE3015
:102284002D0503196E290130A4002408A907013083
:102294000310AD0CAC0CAB0CAA0CFF3E031D4A2979
:1022A40041290130A4002408A9070130AA070030FD
:1022B40003180130AB07003003180130AC070030BD
:1022C40003180130AD0701300310AD0CAC0CAB0C9E
:1022D400AA0CFF3E031D6629FF302D050319822930
:1022E400532902302902031C84290130A902013038
:1022F400A4000310AA0DAB0DAC0DAD0DA40B7B29EE
:10230400AC1F732929188E29FF30AA05FF30AB05AD
:102314007F30AC05FF30AD050310A90C2908A400DB
:10232400A501A601A70118300310A40DA50DA60D43
:10233400A70DFF3E031D96292408AA042508AB0413
:102344002608AC042708AD042808031DA31FAB29E5
:10235400AD172D08A3002C08A2002B08A1002A0801
:10236400A00008008B188B100C1C2E2AB1308F0093
:10237400F3308E000C10EF1FC129EF1364000A30F4
:10238400F8070318F90A0030F90703307902E83036
:1023940003197802031CD029F801F90101307902EC
:1023A400F430031978020318DB2983120313861708
:1023B400DE2983120313861383164F08500403196E
:1023C400EC290A30CF020030031CD003D002831260
:1023D4000617EE29831206138316510852040319B3
:1023E400FC290A30D1020030031CD203D20283122A
:1023F4008616FE29831286120A308316C70703182D
:10240400C80A0030C8070A30CD070318CE0A0030C6
:10241400CE07E8304D06033003194E06031D2E2A5D
:10242400CD01CE010130F0007008FD073C307D067F
:10243400031D2E2AFD010130F0007008FA073C301C
:102444007A06031D2E2AFA010130F0007008FC07F9
:1024540018307C060319FC0183128C1E942A6F1415
:102464001E30F6000030F7008316C901CA0110308F
:10247400F0007008D300760877040319702A8312D9
:1024840003138C1E692A1A08F0008316530884006B
:102494007008831780004A08803AFF0080307F026A
:1024A400031D562A333049020318642A0130831667
:1024B4000313C9070318CA0A0030CA070130F00021
:1024C4007008D3071E30F6000030F7003D2A0130B3
:1024D400F6020030031CF703F7023D2A83160313A8
:1024E40053088400831780018312981C942A1812BD
:1024F40018161A08F000F1017008F6007108F700C8
:102504001A08F000F1017008F6007108F7001A08C3
:10251400F000F1017008F6007108F700031790014C
:102524000313EF147508FF0074088A00730884000D
:10253400720E8300FE0E7E0E090002308316031312
:10254400BC000430BB00B930BA00BA0BA72ABB0BDD
:10255400A72ABC0BA72AAE2A831603130F168F16BD
:102564000F1783128501860187018901EF308316D5
:1025740085000F308600F0308700FF30890011306D
:10258400031788008901031381130F309500831208
:102594008617061786160030A3000030A200033009
:1025A400A100E830A0000A168A158C250A168A11A3
:1025B4008316811281150114811401158B120B12DB
:1025C4008B170B17831210169016901083160C1489
:1025D40001308312900064000A168A15DA210A1663
:1025E4008A110030B1000130B0008630AF00A03055
:1025F400AE000A168A1555240A168A110030831271
:10260400A3000130A200C230A1000030A0000A16CD
:102614008A15B5260A168A1110300A168A1500245E
:102624000A168A112408EE002308ED006D0A031D22
:10263400272B6E0A031D272B0030A500A60010309F
:102644000A168A1586240A168A1101308312031386
:10265400ED070318EE0A0030EE076E08A6006D08B9
:10266400A50010300A168A1586240A168A11F80164
:10267400F90183160313CF01D001D101D201FD0169
:10268400FC018312071087100511851106090F3903
:102694008316BA003A08D500D601D60AD710831299
:1026A400EF1701308316BA003A08D60702305606EF
:1026B4000319D60156080A128A1584230A168A11A8
:1026C40083126F1C512B0317100883160313CC00BD
:1026D40083120317110883160313CB00BB304B0678
:1026E400AA3003194C06031D512B83120317130838
:1026F40083160313BA003A08D40054085506031D80
:10270400540A031D512B1430CF000030D0000A129C
:102714008A113A200A168A11831203136F10512B5F
:1027240083120313B40014308316D1000030D20096
:1027340083122D08031D080002302C02031DAA2B4E
:1027440000302B02031DAA2B00302A02031DAA2BE2
:1027540003180800831203132D08031DBF2B013037
:102764002C02031DBD2B00302B02031DBD2B00309A
:102774002A02031DBD2B031CC62B0830831203132E
:10278400B1003108B500C92B83120313B501340815
:10279400B1003108B6000310B60DA030B100310805
:1027A400B6043508B1003108B6040A168A110220AD
:1027B4000A168A1183123608B100B2013108A30047
:1027C4003208A4000A168A15E5210A168A112B0874
:1027D400B100B2013108A3003208A4000A168A1518
:1027E400E5210A168A112A08B100B2013108A300B2
:1027F4003208A4000A168A15E5210A168A11B301C3
:102804002E08FF3EB100FF3003180030B20032083A
:10281400803A803C031D102C310833020318E32C4A
:102824006400831203132D08031D080002302C02D8
:10283400031D242C00302B02031D242C00302A02FB
:10284400031D242C03180800831203132A08013ED5
:102854007F39031DB92C2F0884008317301C831380
:102864000008B100B2013108A3003208A4000A161E
:102874008A15E5210A168A110A168A15BE210A1636
:102884008A1100308312A3000030A2000030A1009E
:102894000530A0000A168A158C250A168A11013003
:1028A400AA07003003180130AB07003003180130C9
:1028B400AC07003003180130AD070130AF0703182F
:1028C400B00A0030B0072D08031D762C01302C020D
:1028D400031D742C00302B02031D742C00302A02BB
:1028E400031D742C031C7D2C083083120313B100C8
:1028F4003108B500802C83120313B5013408B100EC
:102904003108B6000310B60DA030B1003108B6048A
:102914003508B1003108B6040A168A1102200A16D5
:102924008A1183123608B100B2013108A3003208BB
:10293400A4000A168A15E5210A168A112B08B1008B
:10294400B2013108A3003208A4000A168A15E52151
:102954000A168A112A08B100B2013108A30032080C
:10296400A4000A168A15E5210A168A11DE2C2F08FE
:1029740084008317301C83130008B100B2013108AE
:10298400A3003208A4000A168A15E5210A168A1142
:102994000130AF070318B00A0030B0070130AA07AE
:1029A400003003180130AB07003003180130AC07C6
:1029B400003003180130AD070130B1003108B3070E
:1029C400022C831203132F0884008317301C8313F3
:1029D4000008B100B2013108A3003208A4000A16AD
:1029E4008A15E5210A168A110A168A15BE210A16C5
:1029F4008A1100308312A3000030A2000030A1002D
:102A04000530A0000A168A158C25080083120313CA
:102A1400B100B2012C08031D080002302B02031D73
:102A24001B2D00302A02031D1B2D00302902031D1B
:102A34001B2D03180800831203132C08031D302DCB
:102A440001302B02031D2E2D00302A02031D2E2DD2
:102A540000302902031D2E2D031C372D083083124C
:102A64000313AE002E08B2003A2D83120313B201F1
:102A74003108AE002E08B3000310B30DA030AE0031
:102A84002E08B30433143208AE002E08B3040A1619
:102A94008A1102200A168A1183123308FE39AE0005
:102AA400AF012E08A3002F08A4000A168A15E521F9
:102AB4000A168A112A08AE00AF012E08A3002F08B7
:102AC400A4000A168A15E5210A168A112908AE00FF
:102AD400AF012E08A3002F08A4000A168A15E521C9
:102AE4000A168A110A168A15F0210A168A11831207
:102AF4003308AE00AF012E08A3002F08A4000A1665
:102B04008A15E5210A168A11B0012C08031D692EC5
:102B140002302B02031D962D00302A02031D962D30
:102B240000302902031D962D0318692E8312031306
:102B34002908013E7F39031D392E0030A300A4006B
:102B44000A168A15EB240A168A112308AE002D08EA
:102B540084002E08831780000A168A15BE210A16DF
:102B64008A110D3083120313AF00FB30AE00AE0B9D
:102B7400B92DAF0BB92D013083120313A90700300F
:102B840003180130AA07003003180130AB070030E6
:102B940003180130AC070130AE002E08AD072C0835
:102BA400031DE22D01302B02031DE02D00302A020B
:102BB400031DE02D00302902031DE02D031CE92D27
:102BC400083083120313AE002E08B200EC2D8312DA
:102BD4000313B2013108AE002E08B3000310B30D85
:102BE400A030AE002E08B30433143208AE002E0811
:102BF400B3040A168A1102200A168A1183123308B2
:102C0400FE39AE00AF012E08A3002F08A4000A1657
:102C14008A15E5210A168A112A08AE00AF012E088A
:102C2400A3002F08A4000A168A15E5210A168A11A2
:102C34002908AE00AF012E08A3002F08A4000A162D
:102C44008A15E5210A168A110A168A15F0210A1630
:102C54008A1183123308AE00AF012E08A3002F0897
:102C6400A4000A168A15E5210A168A11602E01307D
:102C7400A3000030A4000A168A15EB240A168A1150
:102C84002308AE002D0884002E08831780002D0829
:102C9400840000080319692E0130AE002E08AD0728
:102CA4000130A907003003180130AA0700300318C7
:102CB4000130AB07003003180130AC070130B00716
:102CC400FF303007AE0040302E02031C872D003049
:102CD40083120313A300A4000A168A15EB240A1610
:102CE4008A110A168A15BE210A168A11B93083126E
:102CF4000313AE007D2E7E2EAE0B7C2E812E08009B
:102D040083120313B200B30114308316D1000030D0
:102D1400D20083122C08031D080002302B02031D6D
:102D24009B2E00302A02031D9B2E00302902031D16
:102D34009B2E03180800831203132C08031DB02EC6
:102D440001302B02031DAE2E00302A02031DAE2ECD
:102D540000302902031DAE2E031CB72E0830831247
:102D64000313AF002F08B300BA2E83120313B30169
:102D74003208AF002F08B4000310B40DA030AF0028
:102D84002F08B40434143308AF002F08B4040A160F
:102D94008A1102200A168A1183123408FE39AF0000
:102DA400B0012F08A3003008A4000A168A15E521F3
:102DB4000A168A112A08AF00B0012F08A3003008B0
:102DC400A4000A168A15E5210A168A112908AF00FB
:102DD400B0012F08A3003008A4000A168A15E521C3
:102DE4000A168A110A168A15F0210A168A11831204
:102DF4003408AF00B0012F08A3003008A4000A165D
:102E04008A15E5210A168A11B1012D083102031829
:102E1400E72F6400831203132C08031DE72F0230ED
:102E24002B02031D1D2F00302A02031D1D2F00300D
:102E34002902031D1D2F0318E72F831203132908EA
:102E4400013E7F39031DBB2F0030A300A4000A16E6
:102E54008A15EB240A168A112308AF002E08840071
:102E64002F08831780000A168A15BE210A168A11B4
:102E740083122E088400831700080A168A15FB2182
:102E84000A168A1101308312A90700300318013091
:102E9400AA07003003180130AB07003003180130D3
:102EA400AC072C08031D642F01302B02031D622F75
:102EB40000302A02031D622F00302902031D622FF5
:102EC400031C6B2F083083120313AF002F08B300C9
:102ED4006E2F83120313B3013208AF002F08B4001E
:102EE4000310B40DA030AF002F08B4043414330819
:102EF400AF002F08B4040A168A1102200A168A1198
:102F040083123408FE39AF00B0012F08A300300843
:102F1400A4000A168A15E5210A168A112A08AF00A8
:102F2400B0012F08A3003008A4000A168A15E52171
:102F34000A168A112908AF00B0012F08A30030082F
:102F4400A4000A168A15E5210A168A110A168A159A
:102F5400F0210A168A1183123408AF00B0012F0839
:102F6400A3003008A4000A168A15E5210A168A115E
:102F7400E22F0130A3000030A4000A168A15EB24C6
:102F84000A168A112308AF002E0884002F0883171D
:102F940080002E08840000080A168A15FB210A16F0
:102FA4008A1101308312A907003003180130AA07DF
:102FB400003003180130AB07003003180130AC07B0
:102FC4000130AF002F08B107072F0030831203131D
:102FD400A300A4000A168A15EB240A168A110A16FD
:102FE4008A15BE210A168A11B93083120313AF0061
:102FF400FB2FFC2FAF0BFA2FFF2F0800FF1B0A2813
:1030040083137F1883170008840A0319FF0A080032
:1030140018308A000408840A82070034663466344F
:10302400A634BF341434AE342B34C13400344034A9
:103034001C34463466348634963443340034C03405
:103044007F3444340034003400340034C434FF3456
:103054007F343F348034EF34FF34BE349034E13471
:10306400A9343E34EC3482347634BE348234AD3404
:103074002B343E340E343C34C334BD348734D13421
:1030840013343D3441347834D334BB3400346034A5
:1030940078344534003440341C3446344C344A3497
:1030A40042342D343134303435344B3400344F34DD
:0430B4004B34003465
:10336C0064008001840A0406031900340406B7299A
:10337C000A168A152823003A8316031D11158B177C
:10338C0008004A308312A1008030A2000A168A1568
:10339C00B82408009F149F18D1291E08A100831679
:1033AC001E088312A0000800C030831203139F0470
:1033BC00803083169F009F1783121F1408000A1673
:1033CC008A1528230A168A15003A031908002308BF
:1033DC00930008000A168A1528230A168A15003A43
:1033EC000319080083169114080083120313A0001C
:1033FC0014308316CF000030D000981C032A83129F
:10340C00200899008316981608000330D800580835
:10341C00D9005708D8005808DA005608D8005808C0
:10342C00DB000330D8005808D20059300A168A1530
:10343C00C425080083120313BC003A08AD003908F8
:10344C00AC003808AB003708AA00AE01AE0A3B301E
:10345C00AF000030B0003C080A168A119223080015
:10346C004E30D0005008D100510A8400831300085C
:10347C000A168A15FB210A168A1583125108840034
:10348C00831300080A168A15FB2108005B08D30079
:10349C005A08D2005C08D4000130D5005C080A162A
:1034AC008A1594220A168A152008013EDD005D0853
:1034BC00D6000A128A11B827080083126F1C772ACB
:1034CC00031713088316031355060319722A831264
:1034DC000317130A031D772A83120313A001A00AF2
:1034EC00792A0313A0012008080083120313BB00E0
:1034FC003908AD003808AC003708AB003608AA0014
:10350C00AE01AE0A3C30BA003A08AF003B080A12D2
:10351C008A156520831203133C08080083120313D9
:10352C00A4002408A2002208A30023088400831707
:10353C0000080319A62A0130A2002208A3079B2A1F
:10354C0024082302A000A101A01BA1030800A401D0
:10355C00A50121082502031DB52A20082402031801
:10356C000800033083120313A3009730A200A20BB0
:10357C00BD2AA30BBD2A013083120313A407031821
:10358C00A50A0030A507AF2AA2002208A100210835
:10359C00A300200884000A168A150A200A168A1528
:1035AC00A100230884002108831780000008031958
:1035BC0008000130A1002108A3070130A100210857
:1035CC00A007CF2A83120313D5005308D400540844
:1035DC00D6005208D4005408D7005108AD0050084A
:1035EC00AC004F08AB004E08AA000230D4005408BF
:1035FC00AE005630AF000030B00055080A168A11E4
:10360C009223080083120313A50025080A168A15B5
:10361C0049230A168A150313A4002408A6000130B6
:10362C00A4002408A5072608A40023088400240865
:10363C00831780000130A4002408A307260803196F
:10364C0008000B2BC8308312A0002008A2003A2BD4
:10365C000130A202033083120313A1009730A000A3
:10366C00A00B362BA10B362B831603131419422BEC
:10367C0011081F390319462B83122208031D2E2B08
:10368C0083122208080083120313A200143083163D
:10369C00D1000030D20003178C18512B8312031366
:1036AC00220803178D0083168C130C144E308312D2
:1036BC000313A100EA30A000A00B622BA10B622B1C
:1036CC000000831203170C0808000A30A000003019
:1036DC00A1005708A3005608A2000A168A1538261E
:1036EC000A168A152108D7002008D6000230D80007
:1036FC005808D9005608D8005808DA000230D8000B
:10370C005808D20059300A168A15C4250800A8009A
:10371C00A401A5012008A200A3012208A6002308E9
:10372C00A700281C9F2B2608A4070318A50A270806
:10373C00A50701300310A60DA70DFF3E031DA02BFE
:10374C000310A80C2808031D972B2508A10024089A
:10375C00A000080083120313BC003908AD00380820
:10376C00AC003708AB003608AA000230BA003A08A1
:10377C00AE003D30BB003B08AF003C080A128A1576
:10378C006520831203133D08BA00BB013A08BB0045
:10379C00BA013E083A07B6000030031801303B0767
:1037AC00B700080083120313A100AA300A168A1569
:1037BC00FB210A168A15BB300A168A15FB210A163C
:1037CC008A1555080A168A15FB210A168A15003027
:1037DC000A168A15FB210A168A15031714080A16ED
:1037EC008A15FB210A168A15831221080A168A15D6
:1037FC00FB21080083120313A6002830A50025081E
:10380C00A700AA0126080A168A1549230A168A1542
:10381C000313A500270884002508831380000130BA
:10382C00A5002508A6070130A5002508A70701302B
:10383C00A5002508AA0702302A02031C082C290817
:10384C00A4002808A300080083120313A70025086E
:10385C0084008317000803194A2C250884000008EB
:10386C00A6002608A00027080A168A15FC250A16A9
:10387C008A15013083120313A6002608A70701300E
:10388C00A6002608A5072D2C250884000008A600F4
:10389C002608A00027080A168A15FC2508002830DF
:1038AC0094008316910183122E08B2002F08B300E6
:1038BC003008B4003108B50002300310B20DB30D5E
:1038CC00B40DB50DFF3E031D632C3508A300340861
:1038DC00A2003308A1003208A0000030A7007A3003
:1038EC00A6001230A5000030A4000A168A15A227E3
:1038FC002008FF3E831693009401871507160800D5
:10390C008312AA002530A7002708A900AB012908BB
:10391C00840083130008A7002708A0002A080A16B1
:10392C008A15FC250A168A15013083120313A70089
:10393C002708A9070130A7002708AA070130A7000C
:10394C002708AB0702302B02031C8D2C4E30831240
:10395C000313A800EA30A700A70BB22CA80BB22CBB
:10396C00000008002108A3002208A4002408FF007E
:10397C00230884000A168A1500200A168A15003AB4
:10398C000319DE2C2408FF00230884000A168A156C
:10399C0000200A168A150A168A15FB210A168A15A2
:1039AC0001308312A3070318A40A0030A407BC2C0F
:1039BC002408FF00230884000A168A1500200A1622
:1039CC008A150A168A15FB2108000A168A1528235F
:1039DC000A168A15003A8316031D91150A168A15C4
:1039EC0028230A168A15003A0319032D1308A5007B
:1039FC00A6012508A7002608A8000A168A15282360
:103A0C000A168A15003A03191D2D23082404031DD8
:103A1C00132D831603139116162D8316031391126F
:103A2C00111683122808A4002708A3000800A3017C
:103A3C00A40108008030A7062B088312E00083162F
:103A4C002A088312DF00831629088312DE008316EE
:103A5C0028088312DD00831627088312E4008316DE
:103A6C0026088312E300831625088312E2008316CE
:103A7C0024088312E1000A128A156F25831260084C
:103A8C008316A70083125F088316A60083125E08B4
:103A9C008316A50083125D088316A400080000306D
:103AAC00A9000030A8000030A7000030A6002908AB
:103ABC00803AFF002308803A7F02031D6F2D2208F5
:103ACC002802031D6F2D21082702031D6F2D2008CE
:103ADC00260203180800033083120313A500973045
:103AEC00A400A40B772DA50B772D013083120313A3
:103AFC00A607003003180130A70700300318013067
:103B0C00A807003003180130A9075D2D0030A9006B
:103B1C000030A8000030A7000030A6002908803A29
:103B2C00FF002308803A7F02031DA62D22082802DD
:103B3C00031DA62D21082702031DA62D20082602F1
:103B4C00031808006400033083120313A500973098
:103B5C00A400A40BAF2DA50BAF2D013083120313C2
:103B6C00A607003003180130A707003003180130F6
:103B7C00A807003003180130A907942DD400A530F4
:103B8C00CE005A30CF000A168A1536220A168A152C
:103B9C0083125208013E0A168A15FB210A168A1551
:103BAC0080300A168A15FB210A168A158312D50154
:103BBC00520855020318F42D55085407D300530826
:103BCC008400831300080A168A15FB210A168A152D
:103BDC0001308312D3005308D507DE2D0130A0002D
:103BEC000030A1000A168A15AD22080083120313B7
:103BFC00A30014308316D1000030D20003178C18A8
:103C0C00042E8B1F0E2E83120313A401A40A112E53
:103C1C0083120313A401230803178D000313200838
:103C2C0003178C0083168C130C158B1355308D00D9
:103C3C00AA308D008C14831203132403031D282E29
:103C4C008B17292E8B13831603170C114E308312EE
:103C5C000313A200EA30A100A10B322EA20B322ECC
:103C6C0000000800A501A6012008210403196F2EED
:103C7C00A701A70AA11B4E2E01300310A00DA10D08
:103C8C00FF3E031D432E0130A4002408A707402E3D
:103C9C0001300310A50DA60DFF3E031D4F2E21086C
:103CAC002302031D5B2E20082202031C642E200815
:103CBC00A2022108031CA303A30225140130031044
:103CCC00A10CA00CFF3E031D652E0130A702031DA5
:103CDC004E2E2608A1002508A0000800831203130D
:103CEC00DA000030DE000030DD000030DC00003097
:103CFC00DB00831203135E08D1005D08D0005C0862
:103D0C00CF005B08CE005908D3005808D2005A08DF
:103D1C000A168A15E8220A168A15640002308312E4
:103D2C000313DB07003003180130DC0700300318E5
:103D3C000130DD07003003180130DE075E08031D7B
:103D4C0008005D08031D080004305C02031DB22E40
:103D5C0000305B02031DB22E031808007F2E4B307F
:103D6C002106200422042304031DC82E83120313EE
:103D7C009817181683161815181218130C3099006A
:103D8C000B17E42EC230831203132106031DE52EFC
:103D9C00220320042304031DE52E10308316031385
:103DAC009900031787150313181583129817831698
:103DBC0018121813831218160B1783168C168316E9
:103DCC00031307178717831218121816A5011A0860
:103DDC000130A4002408A5070F30250203180800A1
:103DEC00ED2E8312A40024088400031711088317F6
:103DFC008000840A1008800012080313A000240815
:103E0C00023E840020088000031713080313A0004F
:103E1C002408033E840020088000031714080313B1
:103E2C00A0002408043E8400200880000317150815
:103E3C000313A0002408053E840020088000A20182
:103E4C00A3012408053E84002308803AA00080309A
:103E5C002002031D332F00082202031808008312CE
:103E6C0003132208163E840083170008A0002208C2
:103E7C002407A1002108063E8400200880000130A0
:103E8C00A2070318A30A0030A307272F8312B3003D
:103E9C003308B200B20DB20D1F083206C339320618
:103EAC009F000030A3000030A2000030A1000130C0
:103EBC00A0000A168A1555250A168A15B401B501F3
:103ECC00B601B60A0A168A15D0210A168A152008D8
:103EDC00B4070318B50A2108B5070130B20032083F
:103EEC00B60733303602031C682F3608FF3EA0009D
:103EFC00FF3003180030A1003508A3003408A200DD
:103F0C000A168A1538260A168A152108B5002008C3
:103F1C00B4003408A0003508A100A201A3010030B0
:103F2C000A168A1111212308B1002208B0002108B9
:103F3C00AF002008AE0008000030AC000030AB0031
:103F4C000030AA000030A900230822042104200418
:103F5C000319F72FAD01AD0AA31BC22F0130A80026
:103F6C000310A00DA10DA20DA30DA80BB62F0130AF
:103F7C00A8002808AD07B22F0130A8000310A90D26
:103F8C00AA0DAB0DAC0DA80BC42F23082702031DE3
:103F9C00D92F22082602031DD92F21082502031D23
:103FAC00D92F20082402031CEA2F2008A402210880
:103FBC00031C210FA5022208031C220FA6022308B2
:103FCC00031C230FA702291401300310A30CA20C0D
:103FDC00A10CA00CFF3E031DEB2F0130AD02031D05
:103FEC00C22F2C08A3002B08A2002A08A100290824
:043FFC00A000080019
:04400E008C2FFF3FB5
:00000001FF
