:020000040000FA
:060000000A128A11122809
:10000800FE00030EF2000408F3000A08F40083124D
:1000180003137F08F5000A168A11DE290A128A11CD
:100028001528F801F901FA01FB01FC01FD01831211
:100038000313E801E901EA01EB01EC018313A030A5
:100048008400D8300A168A15E6210A128A11831705
:1000580090308400CA300A168A15E6210A128A11DD
:100068001030840044300A168A15E62183010A16E6
:100078008A11C92A90300A168A15EB260A128A11A3
:1000880083160317170883120313DF005F0883160C
:10009800E6000317180883120313DF005F088316AE
:1000A800E5000317190883120313DF005F0883169E
:1000B800E40003171A0883120313DF005F0883168E
:1000C800E3007D2B4130DF005F08A000B7300A163F
:1000D8008A150D230A128A110B300A168A1539243B
:1000E8000A128A11B7308312A1000030A2000A1642
:1000F8008A15E9240800831603171608031D8D289E
:1001080003132308E1002208E0002108DF0020088B
:10011800952803132708E1002608E0002508DF00DA
:100128002408DE0041308312AC002030AB000030E0
:10013800AA000030A900831661088312B000831654
:1001480060088312AF0083165F088312AE0083161F
:100158005E088312AD000A128A11D0230A128A118E
:100168002C088316E10083122B088316E000831203
:100178002A088316DF00831229088316DE008B13F2
:1001880002300A168A1539240A128A116108831264
:10019800C600831660088312C50083165F088312A1
:1001A800C40083165E088312C3000A168A159527B1
:1001B8000A128A114408CF004308CE000A168A158D
:1001C8008B228B1708008316031716088312031354
:1001D800DF005F088316E60003171708831203136E
:1001E800DF005F088316E50003171808831203135E
:1001F800DF005F088316E40003171908831203134E
:10020800DF005F088316E30066088312DB008316AD
:1002180065088312DA00831664088312D9008316EE
:1002280063088312D8000A168A113120F801F901EF
:100238008316B001B101080002300A168A15392464
:100248000A128A1101308312CE000030CF000A163C
:100258008A158B22080083160317170883120313C5
:10026800DF005F08A0008316031716080A168A1510
:10027800F8250A128A1103300A168A1539240A1237
:100288008A110A168A15F72108008316031716081B
:100298000A168A15AA230A128A110313DF005F08B7
:1002A8008316E20001300A168A1539240A128A11C7
:1002B80062080A168A152B220800831603171608E7
:1002C80083120313DF005F088316DA000317180888
:1002D80083120313DF00E001831603171708831244
:1002E8000313E100E2016108E200E1015F08610433
:1002F8008316D8008312600862048316D90059084F
:100308008312A600831658088312A50083165A087C
:100318000A168A15B7240A128A113F298316031769
:1003280016080A168A1562240A128A1124088316E6
:10033800DD00831223088316DC0002300A168A15B2
:1003480039240A128A115D088312CF0083165C08CB
:100358008312CE000A168A158B2208009730DF0018
:100368005F08A5008316031716080A168A158C2439
:100378000A128A113F29B730DF005F08A3008316ED
:10038800031716080A168A1569230A128A112130DA
:100398007128831666088312BA00831665088312CB
:1003A800B900831664088312B800831663088312A1
:1003B800B700831603171B0883120313DF005F08B7
:1003C800BB008316031716080A168A1575220A1227
:1003D8008A113F29831666088312BA0083166508B6
:1003E8008312B900831664088312B8008316630861
:1003F8008312B7008316031716080A168A15A12256
:100408000A128A11DF005F088316E20001300A161B
:100418008A1539240A128A1162080A168A152B22AB
:100428000800831666088312D100831665088312B4
:10043800D000831664088312CF00831663088312E2
:10044800CE00831603171C0883120313DF00E00194
:10045800831603171B0883120313E100E2016108E6
:10046800E200E1015F086104D20060086204D30081
:100478008316031716080A168A1549230A128A11C1
:100488003F29831666088312BA008316650883120B
:10049800B900831664088312B800831663088312B0
:1004A800B7008316031716080A168A1511240A12AC
:1004B8008A1138088316DD00831237089F298316AE
:1004C80003171B0883120313DF005F088316DB0082
:1004D8005B080A168A1539240A128A1166088312DB
:1004E800AC00831665088312AB0083166408831278
:1004F800AA00831663088312A90083165B08831277
:10050800DF005F08AD00B730E0006008AE0083167A
:10051800031716080A168A1190260800831666081B
:100528008312AD00831665088312AC008316640835
:100538008312AB00831663088312AA00831603177D
:100548001B0883120313DF005F08AE009C30AF0066
:100558000130B0008316031716080A168A11BA2349
:100568000A128A113F29831666088312AD00831682
:1005780065088312AC00831664088312AB008316E7
:1005880063088312AA009B30DF005F08AE00831661
:10059800031716080A128A11C5260A128A113F295A
:1005A800831666088312AC00831665088312AB00B5
:1005B800831664088312AA00831663088312A900AD
:1005C800B730DF005F08AD008316031716080A1658
:1005D8008A1124250A128A11B73083120313A00046
:1005E8000030A1000A168A15D4220A128A1120089E
:1005F800013E712883160317170883120313DF00BF
:10060800E0015F08D8006008D900831603171608B0
:100618000A168A15AC260A128A113F29831603176F
:10062800160883120313DF00E0015F08D600600894
:10063800D7000A168A1560220A128A113F298316E2
:100648000317160883120313DF00E0015F08E000B8
:10065800DF01831603171708831203135F07D600F9
:100668000030031801306007D7000A168A15CC231A
:100678000A128A113F2983160317160883120313D7
:10068800DF00E0015F08E000DF01831603171708A9
:10069800831203135F07DA00003003180130600784
:1006A800DB009830E1006108DC000A168A15BA22DE
:1006B8000A128A113F29831603171608031D6F2B88
:1006C8001708031D6B2B8312031307103F2983128E
:1006D800031307143F291603031D3F291708031D99
:1006E800792B8312031387103F298312031387146E
:1006F8003F290317140883120313DF00E001600881
:10070800003A0319882BCF2B5F08023A0319E72810
:10071800013A031920290B3A03192F29013A031921
:100728004929033A03196129013A03199229073A19
:100738000319B229013A0319BF291C3A0319CD2913
:10074800033A0319EE29013A0319152A073A03193E
:10075800452A013A0319B72A033A0319D42A013A58
:100768000319922A0F3A0319632A013A0319FE2A38
:10077800033A03197F28383A03193F2B063A03191D
:10078800232B013A0319122B153A03195F2B713ADF
:1007980003196628CF2B08002C088039B1003108CE
:1007A800B6002C08B1003107B2003208BC00AB1B00
:1007B8003C143C080319ED2B3C0A031DEB2B0030BD
:1007C800AC000030AB000030AA000030A900AB1725
:1007D800F52B0030AC000030AB000030AA00003030
:1007E800A90030088039B1003108B6063008B100D8
:1007F8003107B2003208B700AF1B371437080319A6
:10080800122C370A031D102C0030B0000030AF0046
:100818000030AE000030AD00AF171A2C0030B00029
:100828000030AF000030AE000030AD003708031DC7
:100838003C08031D282C0030AC000030AB00003011
:10084800AA000030A90008002908B1003108A0005A
:100858002F080A168A15EE230A128A112108C200E7
:100868002008C1004108B100B201B301B401340845
:10087800BB003308BA003208B9003108B800420892
:10088800B100B201B301B4013408C0003308BF009D
:100898003208BE003108BD002A08B1003108A000A6
:1008A8002E080A168A15EE230A128A112108C20098
:1008B8002008C1004108B100B201B301B4013108F8
:1008C800B807320803110318013E031DB90733089E
:1008D80003110318013E031DBA0734080311031856
:1008E800013E031DBB074208B100B201B301B401C8
:1008F8003108BD07320803110318013E031DBE0766
:10090800330803110318013E031DBF073408031100
:100918000318013E031DC0072B08B1003108A000D1
:100928002D080A168A15EE230A128A112108C20018
:100938002008C1004108B100B201B301B401310877
:10094800B807320803110318013E031DB90733081D
:1009580003110318013E031DBA07340803110318D5
:10096800013E031DBB074208B100B201B301B40147
:100978003108BD07320803110318013E031DBE07E5
:10098800330803110318013E031DBF073408031180
:100998000318013E031DC0070830B1000310B80D4D
:1009A800B90DBA0DBB0DB10BD22C2A08B100310814
:1009B800A0002D080A168A15EE230A128A112108AA
:1009C800C2002008C1004108B1004208B200B301CA
:1009D800B4013108B807320803110318013E031D9A
:1009E800B907330803110318013E031DBA07340879
:1009F80003110318013E031DBB072908B100310884
:100A0800A0002E080A168A15EE230A128A11210858
:100A1800C2002008C1004108B1004208B200B30179
:100A2800B4013108B807320803110318013E031D49
:100A3800B907330803110318013E031DBA07340828
:100A480003110318013E031DBB070830B100031052
:100A5800B80DB90DBA0DBB0DB10B2B2D2908B1007E
:100A68003108A0002D080A168A15EE230A128A11E9
:100A78002108C2002008C1004108B1004208B200A4
:100A8800B301B4013108B807320803110318013E55
:100A9800031DB907330803110318013E031DBA07E4
:100AA800340803110318013E031DBB072A08B100CF
:100AB8003108A0002F080A168A15EE230A128A1197
:100AC8002108C2002008C1004108B1004208B20054
:100AD800B301B4013108BD07320803110318013E00
:100AE800031DBE07330803110318013E031DBF078A
:100AF800340803110318013E031DC0072B08B10079
:100B08003108A0002E080A168A15EE230A128A1147
:100B18002108C2002008C1004108B1004208B20003
:100B2800B301B4013108BD07320803110318013EAF
:100B3800031DBE07330803110318013E031DBF0739
:100B4800340803110318013E031DC0072B08B10028
:100B58003108A0002F080A168A15EE230A128A11F6
:100B68002108C2002008C1004108B1004208B200B3
:100B7800B301B40108300310B10DB20DB30DB40DBB
:100B8800FF3E031DBF2D3108BD07320803110318AE
:100B9800013E031DBE07330803110318013E031D60
:100BA800BF07340803110318013E031DC0073B08A3
:100BB800B100B201B301B4013108BD073208031115
:100BC8000318013E031DBE07330803110318013E35
:100BD800031DBF07340803110318013E031DC00796
:100BE8000830B1000310B80DB90DBA0DBB0DB10B2B
:100BF800F62D3C083707B100B201B20D3108823E2C
:100C0800C10032080318013EFF3EC200BF1B272E59
:100C18000130B1000310BD0DBE0DBF0DC00DB10BED
:100C28000E2EBB1B3D140130B1000310B80DB90DD9
:100C3800BA0DBB0DB10B192EFF30C1070318C20A3C
:100C4800FF30C2070A2EB701BB1F402EFF30380500
:100C5800B100FF303905B200FF303A05B3007F30EC
:100C68003B05B400340833043204310403193D1839
:100C78003E2E402EB701B70A37080319722E0130ED
:100C8800BD07003003180130BE07003003180130DB
:100C9800BF07003003180130C007401C722E3D0802
:100CA800B1003E08B2003F08B3004008B40001306C
:100CB800B500340DB40CB30CB20CB10CB50B5D2EF1
:100CC8003408C0003308BF003208BE003108BD0038
:100CD8000130C1070318C20A0030C2074208803A2F
:100CE800FF0080307F02031D7B2EFF304102031C72
:100CF800882E7F3083120313C0008030BF0000307D
:100D0800BE000030BD00B82E831203134208803A9B
:100D1800FF0080307F02031D932E0130410203182B
:100D2800A12E003083120313C0000030BF00003032
:100D3800BE000030BD00B601B82E8312031341086F
:100D4800B1003108BC00FF30BD05FF30BE057F3063
:100D5800BF050030C0053C18BF173C08B1000310A0
:100D6800310CB2003208C0003608B1003108C004A6
:100D78004008AC003F08AB003E08AA003D08A900A7
:100D8800080083120313B1002D08031D0800023068
:100D98002C02031DD72E00302B02031DD72E003046
:100DA8002A02031DD72E031808002D08031DEA2E5A
:100DB80001302C02031DE82E00302B02031DE82E03
:100DC80000302A02031DE82E031CEF2E0830AF0066
:100DD8002F08B200F02EB2013108AF002F08B3007F
:100DE8000310B30DA030AF002F08B3043208AF00D2
:100DF8002F08B3040A168A153B220A128A11831295
:100E08003308AF00B0012F08A3003008A4000A1669
:100E18008A1515220A128A112B08AF00B0012F0873
:100E2800A3003008A4000A168A1515220A128A118E
:100E38002A08AF00B0012F08A3003008A4000A1642
:100E48008A1515220A128A112E08840083170008B1
:100E580003199E2F6400831203132D08031D080035
:100E680002302C02031D402F00302B02031D402F9F
:100E780000302A02031D402F031808002A08013EEB
:100E88007F39031D7C2F2E08840083170008AF00CC
:100E9800B0012F08A3003008A4000A168A151522ED
:100EA8000A128A110A168A15EE210A128A110030CE
:100EB8008312A3000030A2000030A1000530A0007A
:100EC8000A168A1588250A128A110130AA070030E5
:100ED80003180130AB07003003180130AC070030AD
:100EE80003180130AD070130AF002F08AE07D92E27
:100EF8002E08840083170008AF00B0012F08A30054
:100F08003008A4000A168A1515220A128A1101301F
:100F1800AF002F08AE070130AA07003003180130D0
:100F2800AB07003003180130AC070030031801305C
:100F3800AD07282F0030A300A4000A168A15152231
:100F48000A128A110A168A15EE210A128A1100302D
:100F58008312A3000030A2000030A1000530A000D9
:100F68000A168A1588250800A530CE005A30CF0009
:100F78000A168A158B220A128A1183125608033E12
:100F88000A168A152B220A128A1182300A168A1525
:100F98002B220A128A1183125308CF005208CE005E
:100FA8000A168A158B220A128A118312D901560849
:100FB80059020318F72F59085407D7005508031882
:100FC800013ED800570884008317581C8313000873
:100FD8000A168A152B220A128A1101308312D700A9
:100FE8005708D907DB2F0130A0000030A1000A16EE
:060FF8008A15F02208003A
:101006000030AC000030AB000030AA000030A90070
:10101600230822042104200403195828AD01AD0A2F
:10102600A31B23280130A8000310A00DA10DA20DBB
:10103600A30DA80B17280130A8002808AD07132810
:101046000130A8000310A90DAA0DAB0DAC0DA80B1D
:10105600252823082702031D3A2822082602031DF5
:101066003A2821082502031D3A2820082402031CD9
:101076004B282008A4022108031C210FA5022208E0
:10108600031C220FA6022308031C230FA702291400
:1010960001300310A30CA20CA10CA00CFF3E031DF3
:1010A6004C280130AD02031D23282C08A3002B0871
:1010B600A2002A08A1002908A0000800B400B50172
:1010C60014308316B4000030B50083122D08031DBA
:1010D600080002302C02031D782800302B02031D65
:1010E600782800302A02031D7828031808002D08E6
:1010F600031D8B2801302C02031D892800302B028A
:10110600031D892800302A02031D8928031C902804
:101116000830B0003008B5009128B5013408B00099
:101126003008B6000310B60DA030B0003008B60483
:1011360036143508B0003008B6040A168A153B2264
:101146000A128A1583123608FE39B000B10130083A
:10115600A3003108A4000A168A1515220A128A1558
:101166002B08B000B1013008A3003108A4000A160C
:101176008A1515220A128A152A08B000B10130080C
:10118600A3003108A4000A168A1515220A128A1528
:101196000A168A1520220A128A1583123608B0000A
:1011A600B1013008A3003108A4000A168A151522D9
:1011B6000A128A15B3012E0833020318BA296400ED
:1011C600831203132D08031DBA2902302C02031DB6
:1011D600F42800302B02031DF42800302A02031DD8
:1011E600F4280318BA292A08013E7F39031D9329DA
:1011F6000030A300A4000A168A151C250A128A15B7
:101206002308B0002F0884003008831380000A16D4
:101216008A15EE210A128A1500308312A3000030C7
:10122600A2000030A1000530A0000A168A15882504
:101236000A128A150130AA07003003180130AB07DD
:10124600003003180130AC07003003180130AD0739
:101256000130B0003008AF072D08031D40290130CA
:101266002C02031D3E2900302B02031D3E290030AF
:101276002A02031D3E29031C45290830B000300808
:10128600B5004629B5013408B0003008B600031091
:10129600B60DA030B0003008B60436143508B000DC
:1012A6003008B6040A168A153B220A128A158312DA
:1012B6003608FE39B000B1013008A3003108A40099
:1012C6000A168A1515220A128A152B08B000B101D2
:1012D6003008A3003108A4000A168A1515220A123E
:1012E6008A152A08B000B1013008A3003108A4000D
:1012F6000A168A1515220A128A150A168A15202236
:101306000A128A1583123608B000B1013008A3000C
:101316003108A4000A168A1515220A128A15B5295B
:101326000130A3000030A4000A168A151C250A12F3
:101336008A152308B0002F08840030088313800024
:101346000130B0003008AF070130AA07003003189B
:101356000130AB07003003180130AC07003003182A
:101366000130AD070130B0003008B307DE28003089
:10137600A300A4000A168A151C250A128A150A1645
:101386008A15EE210A128A15B93083120313B000AA
:10139600CC29CD29B00BCB29D029080035088039B6
:1013A600B6003608BF003508B6003607B70037085E
:1013B600C600B41B461446080319EF29460A031D46
:1013C600EC290030B5000030B4000030B300003026
:1013D600B200B417B501F7290030B5000030B400EB
:1013E6000030B3000030B20031088039B60036084C
:1013F600BF063108B6003607B7003708C700B01B6E
:10140600471447080319152A470A031D122A0030F4
:10141600B1000030B0000030AF000030AE00B017B1
:10142600B1011D2A0030B1000030B0000030AF001D
:101436000030AE00310830042F042E04031D3C2A70
:101446000030B5000030B4000030B3000030B20008
:101456008030B4047F30B5043F08B6003608B504C2
:101466003508B1003408B0003308AF003208AE00CA
:1014760008004608031D482A0030B1000030B000BD
:101486000030AF000030AE0008004608B600B701D5
:101496003708B90047083602B800031CB9033808F4
:1014A6007F3EC00039080318013E003EC1003508E2
:1014B600BE003408BD003308BC003208BB00003053
:1014C600B5000030B4000030B3000030B200003088
:1014D600C5000030C4000030C3000030C200C701A0
:1014E6001A3047020318BB2A47080319972A013006
:1014F600B6000310BB0DBC0DBD0DBE0DB60B7C2A90
:101506000130B6000310B20DB30DB40DB50DB60B18
:10151600852AC51B32140130B6000310C20DC30D57
:10152600C40DC50DB60B902A31083E02031DA52A2F
:1015360030083D02031DA52A2F083C02031DA52ADB
:101546002E083B02031CB62A45172E08BB022F089D
:10155600031C2F0FBC023008031C300FBD023108DC
:10156600031C310FBE020130B6003608C707732AC6
:101576003E083D043C043B04031D4214B41BDE2A12
:101586000130B6000310B20DB30DB40DB50DB60B98
:10159600C52AC51B32140130B6000310C20DC30D97
:1015A600C40DC50DB60BD02AFF30C0070318C10AFB
:1015B600FF30C107C12AC701C51FF72AFF30420500
:1015C600B600FF304305B700FF304405B8007F3052
:1015D6004505B900390838043704360403193218AA
:1015E600F52AF72AC701C70A47080319292B01302C
:1015F600B207003003180130B3070030031801307A
:10160600B407003003180130B507351C292B320802
:10161600B6003308B7003408B8003508B900013001
:10162600BA00390DB90CB80CB70CB60CBA0B142BA2
:101636003908B5003808B4003708B3003608B200D8
:101646000130C0070318C10A0030C1074108803ABB
:10165600FF0080307F02031D322BFF304002031C47
:10166600422BFF3083120313C0000030C10000304C
:10167600B5000030B4000030B3000030B200831271
:1016860003134108803AFF0080307F02031D4D2B73
:101696000130400203185C2B83120313C001C10101
:1016A6000030B5000030B4000030B3000030B200A6
:1016B600BF01831203134008B6003608C600461C55
:1016C600662BB4176A2B7F30B6003608B405460879
:1016D600B6000310360CB7003708B5002F2A3A08B3
:1016E6008039BF003F08C7003A08BF003F07C00067
:1016F6004008C900B91B491449080319902B490A27
:10170600031D8D2B0030BA000030B9000030B80040
:101716000030B700B917BA01982B0030BA00003074
:10172600B9000030B8000030B7003E088039BF006D
:101736003F08C80048084706031D47173E08BF0074
:101746003F07C0004008C800BD1B481448080319DD
:10175600BA2B480A031DB72B0030BE000030BD006F
:101766000030BC000030BB00BD17BE01C22B0030EC
:10177600BE000030BD000030BC000030BB00490890
:1017860048020318082C471FCC2B8030BF003F08A7
:10179600C7064908BF003F08CA004808BF003F08FF
:1017A600C9004A08BF003F08C8003708BF003F0805
:1017B600CA003B08BF003F08B7004A08BF003F0801
:1017C600BB003808BF003F08CA003C08BF003F08FE
:1017D600B8004A08BF003F08BC003908BF003F08F0
:1017E600CA003D08BF003F08B9004A08BF003F08CD
:1017F600BD003A08BF003F08CA003E08BF003F08C8
:10180600BA004A08BF003F08BE00CA014808BF0028
:10181600C0014008C20049083F02C100031CC203C0
:101826004208803AFF0080307F02031D1C2C1A30CC
:101836004102031C552C831203133A083904380459
:1018460037040319282C0130292C0030BF003F082B
:10185600CA000030BA000030B9000030B8000030CD
:10186600B7004808BF003F08C9005B2C4A1C442C3F
:101876004A08BF0003103F0C0138C0004008CA00E8
:10188600462C0310CA0C3718CA170130BF003A0D90
:10189600BA0CB90CB80CB70CBF0B4A2C0130BF0000
:1018A6003F08C9078312031348084902031C392C51
:1018B600471B9C2C4908031D692C0030BA000030D8
:1018C600B9000030B8000030B70008003B08B70781
:1018D6003C0803110318013E031DB8073D08031118
:1018E6000318013E031DB9073E0803110318013E04
:1018F600031DBA073A1C3E2D4A1C8A2C4A08BF0013
:1019060003103F0C0138C0004008CA008C2C03109D
:10191600CA0C3718CA170130BF003A0DBA0CB90CF9
:10192600B80CB70CBF0B902C0130BF003F08C9079D
:101936003E2D3A08803AFF003E08803A7F02031D9A
:10194600AE2C3D083902031DAE2C3C083802031D9F
:10195600AE2C3B0837020318062DFF30BF00FF30C0
:10196600C000FF30C100FF30C2003B08C3003C0886
:10197600C4003D08C5003E08C6003708C302380843
:10198600031C380FC72CC82CC4023908031C390F96
:10199600CD2CCE2CC5023A08031C3A0FD32CD42CDE
:1019A600C6024308BF0744080318440FDB2CDC2C8F
:1019B600C00745080318450FE12CE22CC10746086D
:1019C6000318460AC2074208BA004108B90040088F
:1019D600B8003F08B7008030BF003F08C706CA09F5
:1019E600CA0A4A08031D142D0130B7070030031830
:1019F6000130B807003003180130B907003003186A
:101A06000130BA07142D3B08B7023C08031C3C0FF3
:101A1600B8023D08031C3D0FB9023E08031C3E0FE9
:101A2600BA023A08390438043704031D3C2D4A0823
:101A3600031D3C2D0030BA000030B9000030B8005C
:101A46000030B70008000130BF000310B70DB80D15
:101A5600B90DBA0DBF0B282DCA1B37144A1C352DDC
:101A66000314362D0310CA0D490803193C2D013005
:101A7600C902B91F262DC801CA1F492D4A087F3938
:101A860003193718472D492DC801C80A48080319F4
:101A96007C2D0130B707003003180130B80700303D
:101AA60003180130B907003003180130BA073A1C91
:101AB6007C2D3708BF003808C0003908C1003A0835
:101AC600C2000130C300420DC20CC10CC00CBF0CD9
:101AD600C30B662D4208BA004108B9004008B80099
:101AE6003F08B700490A03197C2D0130BF003F08A3
:101AF600C907490A031D4908031D8C2D0030BA0089
:101B06000030B9000030B8000030B70049080319AA
:101B1600C701491C902DB917942D7F30BF003F088F
:101B2600B9054908BF0003103F0CC0004008BA00C1
:101B3600C71F0800BA170800D4005408031D192F40
:101B460083161F169F1683125408D300D30DD30D88
:101B56001F085306C33953069F000030A300003008
:101B6600A2000030A1000130A0000A168A155125F6
:101B76000A128A150030D8000030D7000030D6008F
:101B86000030D5000130D9000030DA0054080A16BA
:101B96008A1540270A128A153108BA003008B9009A
:101BA6002F08B8002E08B7005808BE005708BD0019
:101BB6005608BC005508BB000A128A1572230A1281
:101BC6008A153A08D8003908D7003808D6003708E9
:101BD600D5000A168A154C220A128A15013A0319EB
:101BE600012E0130D9070318DA0A0030DA0700306F
:101BF6005A020F3003195902031CC92D00305A022C
:101C06000A3003195902031C08000F3059065A04FA
:101C1600031D152E5908FF3EA0005A080318013E61
:101C2600FF3E182E5908A0005A08A100A201A301E0
:101C360000300A168A113B210A128A152308B100C0
:101C46002208B0002108AF002008AE005808B500F1
:101C56005708B4005608B3005508B2000A128A1590
:101C6600D1210A128A153108D8003008D7002F086A
:101C7600D6002E08D5005808CE005708CD005608C5
:101C8600CC005508CB004430D2007F30D100C030A4
:101C9600D0000030CF000A168A152B230A128A15A7
:101CA6004E088316A70083124D088316A6008312DA
:101CB6004C088316A50083124B088316A400270838
:101CC6008312AC00831626088312AB008316250800
:101CD6008312AA00831624088312A90083162708F4
:101CE6008312B000831626088312AF0083162508D8
:101CF6008312AE00831624088312AD000A128A11DD
:101D0600D0230A128A152C088316A70083122B08E3
:101D16008316A60083122A088316A50083122908B3
:101D26008316A4003B308312AC001130AB007D302B
:101D3600AA006B30A900831627088312B000831609
:101D460026088312AF00831625088312AE00831679
:101D560024088312AD000A128A11D0230A128A15AA
:101D66002C088316A70083122B088316A60083125D
:101D76002A088316A500831229088316A400433077
:101D86008312BA001630B9000030B8000030B70030
:101D9600831627088312BE00831626088312BD0009
:101DA600831625088312BC00831624088312BB0001
:101DB6000A128A1572230A128A153A088316A70090
:101DC600831239088316A600831238088316A500E5
:101DD600831237088316A40044308312A300FA3016
:101DE600A2000030A1000030A0008316270883124D
:101DF600A700831626088312A600831625088312D9
:101E0600A500831624088312A4000A168A11A820A6
:101E16000A128A150318080044308316A700FA3000
:101E2600A6000030A5000030A400080083161F128B
:101E36009F1283125408D300D30DD30D1F085306E7
:101E4600C33953069F000030A3000030A2000030C3
:101E5600A1000130A0000A168A1551250A128A151A
:101E66000030D8000030D7000030D6000030D50052
:101E76000130D9000030DA0054080A168A154027C6
:101E86000A128A153108BA003008B9002F08B800BE
:101E96002E08B7005808BE005708BD005608BC00FB
:101EA6005508BB000A128A1572230A128A153A08C7
:101EB600D8003908D7003808D6003708D5000A16E2
:101EC6008A154C220A128A15013A0319772F013016
:101ED600D9070318DA0A0030DA0700305A020F3041
:101EE60003195902031C3F2F00305A020A30031906
:101EF6005902031C08000F3059065A04031D8B2F84
:101F06005908FF3EA0005A080318013EFF3E8E2FD7
:101F16005908A0005A08A100A201A30100300A1620
:101F26008A113B210A128A152308B1002208B00043
:101F36002108AF002008AE005808B5005708B400C5
:101F46005608B3005508B2000A128A15D1210A12A2
:101F56008A153108D8003008D7002F08D6002E0879
:101F6600D5003F30AC000E30AB00EC30AA007D301F
:101F7600A9005808B0005708AF005608AE0055082B
:101F8600AD000A128A11D0230A128A152C0883166C
:101F9600A30083122B088316A20083122A08831635
:101FA600A100831229088316A00023088312A30028
:101FB600831622088312A200831621088312A10029
:101FC600831620088312A0004130A7007030A600B7
:101FD6000030A5000030A4000A168A11A8200A12B3
:101FE6008A150318080000308316A3000030A200EB
:101FF6000030A1000030A0000800283094008316AD
:10200600910183122E08B2002F08B3003008B400E5
:102016003108B50002300310B20DB30DB40DB50D85
:10202600FF3E031D0E283508A3003408A20033081E
:10203600A1003208A0000030A7007A30A6001230B6
:10204600A5000030A4000A128A1503202008FF3ECE
:102056008316930094018715071608005B08D100C4
:102066005A08D0005908CF005808CE008316230816
:102076008312B000831622088312AF00831621084C
:102086008312AE00831620088312AD004130AC00E7
:102096002030AB000030AA000030A9000A128A11D5
:1020A600D0230A168A112C08C6002B08C5002A0858
:1020B600C4002908C3000A168A1595270A168A112C
:1020C6004408D3004308D20000300A168A15492373
:1020D6000A168A115B08D1005A08D0005908CF00A9
:1020E6005808CE00831627088312B00083162608E8
:1020F6008312AF00831625088312AE0083162408C8
:102106008312AD004130AC002030AB000030AA0095
:102116000030A9000A128A11D0230A168A112C0847
:10212600C6002B08C5002A08C4002908C3000A16E1
:102136008A1595270A168A114408D3004308D20047
:1021460001300A168A154923080000302005A80028
:1021560000302105A90080302205AA007F30230522
:10216600AB002B082A0429042804031DC2280030CA
:10217600A3000030A2000030A1000030A000003013
:102186002405A80000302505A90080302605AA00F0
:102196007F302705AB002B082A0429042804031DD9
:1021A600DC280030A7000030A6000030A500003073
:1021B600A400A31F02290030A8000030A9000030A7
:1021C600AA008030AB002008A8022108031C210FBA
:1021D600ED28EE28A9022208031C220FF328F42872
:1021E600AA022308031C230FF928FA28AB022B089E
:1021F600A3002A08A2002908A1002808A000A71FFA
:1022060028290030A8000030A9000030AA0080303C
:10221600AB002408A8022508031C250F132914293E
:10222600A9022608031C260F19291A29AA0227081B
:10223600031C270F1F292029AB022B08A7002A08F9
:10224600A6002908A5002808A4008030A30680302F
:10225600A70627082302031D080026082202031DDD
:10226600080025082102031D080024082002080092
:10227600A8002808031DA31F50292009AA00210928
:10228600AB002209AC002309AD00AA0A0319AB0A68
:102296000319AC0A0319AD0A58292308AD00220810
:1022A600AC002108AB002008AA0023082204210460
:1022B6002004031D67290030A3000030A20000306F
:1022C600A1000030A00008009630A4002408A90050
:1022D600FE302D05031998290130A4002408A9070A
:1022E60001300310AD0CAC0CAB0CAA0CFF3E031D69
:1022F60074296B290130A4002408A9070130AA0714
:10230600003003180130AB07003003180130AC076A
:10231600003003180130AD0701300310AD0CAC0CD2
:10232600AB0CAA0CFF3E031D9029FF302D050319A7
:10233600AC297D2902302902031CAE290130A902ED
:102346000130A4000310AA0DAB0DAC0DAD0DA40B0E
:10235600A529AC1F9D292918B829FF30AA05FF30E9
:10236600AB057F30AC05FF30AD050310A90C29087D
:10237600A400A501A601A70118300310A40DA50D00
:10238600A60DA70DFF3E031DC0292408AA04250893
:10239600AB042608AC042708AD042808031DA31FB8
:1023A600D529AD172D08A3002C08A2002B08A100E3
:1023B6002A08A00008008B188B100C1C582AB13074
:1023C6008F00F3308E000C10EC1FEB29EC13640029
:1023D6000A30F8070318F90A0030F90703307902C2
:1023E600E83003197802031CFA29F801F9010130D3
:1023F6007902F430031978020318052A83120313AD
:102406008617082A831203138613831632083304A9
:102416000319162A0A30B2020030031CB303B302B2
:1024260083120617182A83120613831634083504F6
:102436000319262A0A30B4020030031CB503B5027C
:1024460083128616282A831286120A308316AA0752
:102456000318AB0A0030AB070A30B0070318B10AFD
:102466000030B107E8303006033003193106031D8A
:10247600582AB001B1010130F0007008FD073C3068
:102486007D06031D582AFD010130F0007008FA0789
:102496003C307A06031D582AFA010130F000700814
:1024A600FC0718307C060319FC0183128C1EBE2A19
:1024B6006C141E30F6000030F7008316AC01AD0137
:1024C6001030F0007008B6007608770403199A2ACF
:1024D600831203138C1E932A1A08F00083163608FB
:1024E60084007008831780002D08803AFF00803032
:1024F6007F02031D802A33302C0203188E2A0130F6
:1025060083160313AC070318AD0A0030AD0701307C
:10251600F0007008B6071E30F6000030F700672A94
:102526000130F6020030031CF703F702672A831610
:10253600031336088400831780018312981CBE2A71
:10254600181218161A08F000F1017008F600710842
:10255600F7001A08F000F1017008F6007108F7009C
:102566001A08F000F1017008F6007108F700031769
:1025760090010313EC147508FF0074088A007308B1
:102586008400720E8300FE0E7E0E09000230831256
:102596000313E5000430E400B930E300E30BD12A6D
:1025A600E40BD12AE50BD12AD82A831603130F167A
:1025B6008F160F1783128501860187018901EF3077
:1025C600831685000F308600F0308700FF308900C3
:1025D6001130031788008901031381130F3095000A
:1025E60083128617061786160030A3000030A20055
:1025F6000330A100E830A0000A168A1588250A16BD
:102606008A118316811281150114811401158B120A
:102616000B128B170B178312101690169010831639
:102626000C1401308312900064000A168A150A22DF
:102636000A168A110030B1000130B0008630AF00B2
:10264600A030AE000A168A1100200A168A11003040
:102656008312A3000130A200C230A1000030A00006
:102666000A168A1570260A168A1110300A168A1555
:1026760062240A168A112408E7002308E600660A7F
:10268600031D512B670A031D512B0030A500A60020
:1026960010300A168A15B7240A168A1101308312D9
:1026A6000313E6070318E70A0030E7076708A600E2
:1026B6006608A50010300A168A15B7240A168A116C
:1026C600F801F90183160313B201B301B401B50190
:1026D600FD01FC01831207108710051185110609FB
:1026E6000F39E3006308E900EA01EA0A6B11831275
:1026F600EC170130E3006308EA0702306A060319A3
:10270600EA016A080A128A159F250A168A11831297
:102716006C1C7A2B0317100883160313AF00831261
:102726000317110883160313AE00BB302E06AA301A
:1027360003192F06031D7A2B83120317130803139D
:10274600E3006308E80068086906031D680A031DBC
:102756007A2B14308316B2000030B3000A128A11A5
:102766003E200A168A11831203136C107A2B8312E9
:102776000313B40014308316B4000030B50083127E
:102786002D08031D080002302C02031DD22B003039
:102796002B02031DD22B00302A02031DD22B031855
:1027A60008002D08031DE52B01302C02031DE32B29
:1027B60000302B02031DE32B00302A02031DE32BFE
:1027C600031CEA2B0830B1003108B500EB2BB5012C
:1027D6003408B1003108B6000310B60DA030B100C0
:1027E6003108B6043508B1003108B6040A168A1550
:1027F6003B220A168A1183123608B100B20131084B
:10280600A3003208A4000A168A1515220A168A1190
:102816002B08B100B2013108A3003208A4000A1641
:102826008A1515220A168A112A08B100B201310842
:10283600A3003208A4000A168A1515220A168A1160
:10284600B3012E08FF3EB100FF3003180030B2007E
:102856003208803A803C031D322C310833020318BB
:10286600FF2C6400831203132D08031D0800023099
:102876002C02031D462C00302B02031D462C003073
:102886002A02031D462C031808002A08013E7F3938
:10289600031DD52C2F0884008317301C83130008D2
:1028A600B100B2013108A3003208A4000A168A1545
:1028B60015220A168A110A168A15EE210A168A1197
:1028C60000308312A3000030A2000030A1000530C2
:1028D600A0000A168A1588250A168A110130AA0749
:1028E600003003180130AB07003003180130AC0785
:1028F600003003180130AD070130AF070318B00AE6
:102906000030B0072D08031D962C01302C02031D44
:10291600942C00302B02031D942C00302A02031D38
:10292600942C031C9B2C0830B1003108B5009C2C5C
:10293600B5013408B1003108B6000310B60DA03059
:10294600B1003108B6043508B1003108B6040A16DC
:102956008A153B220A168A1183123608B100B20183
:102966003108A3003208A4000A168A1515220A1691
:102976008A112B08B100B2013108A3003208A40065
:102986000A168A1515220A168A112A08B100B201FA
:102996003108A3003208A4000A168A1515220A1661
:1029A6008A11FA2C2F0884008317301C8313000821
:1029B600B100B2013108A3003208A4000A168A1534
:1029C60015220A168A110130AF070318B00A003023
:1029D600B0070130AA07003003180130AB070030FA
:1029E60003180130AC07003003180130AD07013081
:1029F600B1003108B307242C831203132F08840077
:102A06008317301C83130008B100B2013108A300FC
:102A16003208A4000A168A1515220A168A110A1601
:102A26008A15EE210A168A1100308312A30000309F
:102A3600A2000030A1000530A0000A168A158825DC
:102A4600080083120313B100B2012C08031D08000D
:102A560002302B02031D372D00302A02031D372DAD
:102A660000302902031D372D031808002C08031D0A
:102A76004A2D01302B02031D482D00302A02031D6A
:102A8600482D00302902031D482D031C4F2D083008
:102A9600AE002E08B200502DB2013108AE002E084D
:102AA600B3000310B30DA030AE002E08B3043314E8
:102AB6003208AE002E08B3040A168A153B220A16FF
:102AC6008A1183123308FE39AE00AF012E08A30027
:102AD6002F08A4000A168A1515220A168A112A0832
:102AE600AE00AF012E08A3002F08A4000A168A150F
:102AF60015220A168A112908AE00AF012E08A30076
:102B06002F08A4000A168A1515220A168A110A1613
:102B16008A1520220A168A1183123308AE00AF01E5
:102B26002E08A3002F08A4000A168A1515220A16D5
:102B36008A11B0012C08031D792E02302B02031DC9
:102B4600AC2D00302A02031DAC2D00302902031DD6
:102B5600AC2D0318792E2908013E7F39031D492E15
:102B66000030A300A4000A168A151C250A168A112D
:102B76002308AE002D0884002E08831380000A1651
:102B86008A15EE210A168A110D3083120313AF003F
:102B9600FB30AE00AE0BCD2DAF0BCD2D0130831229
:102BA6000313A907003003180130AA0700300318E1
:102BB6000130AB07003003180130AC070130AE001E
:102BC6002E08AD072C08031DF62D01302B02031D20
:102BD600F42D00302A02031DF42D00302902031DB6
:102BE600F42D031CFB2D0830AE002E08B200FC2D80
:102BF600B2013108AE002E08B3000310B30DA030A9
:102C0600AE002E08B30433143208AE002E08B30407
:102C16000A168A153B220A168A1183123308FE39D0
:102C2600AE00AF012E08A3002F08A4000A168A15CD
:102C360015220A168A112A08AE00AF012E08A30033
:102C46002F08A4000A168A1515220A168A112908C1
:102C5600AE00AF012E08A3002F08A4000A168A159D
:102C660015220A168A110A168A1520220A168A11B0
:102C760083123308AE00AF012E08A3002F08A4006C
:102C86000A168A1515220A168A11702E0130A3001B
:102C96000030A4000A168A151C250A168A11230874
:102CA600AE002D0884002E08831380002D088400B2
:102CB60000080319792E0130AE002E08AD07013049
:102CC600A907003003180130AA07003003180130A5
:102CD600AB07003003180130AC070130B007FF30F6
:102CE6003007AE0040302E02031C9D2D0030A3009D
:102CF600A4000A168A151C250A168A110A168A15B0
:102D0600EE210A168A11B93083120313AE008B2EF8
:102D16008C2EAE0B8A2E8F2E080083120313B3005F
:102D2600B40114308316B4000030B50083122C08A9
:102D3600031D080002302B02031DA92E00302A02B3
:102D4600031DA92E00302902031DA92E0318080011
:102D56002C08031DBC2E01302B02031DBA2E003099
:102D66002A02031DBA2E00302902031DBA2E031CA7
:102D7600C12E0830AF002F08B400C22EB4013308AC
:102D8600AF002F08B5000310B50DA030AF002F0817
:102D9600B50435143408AF002F08B5040A168A1591
:102DA6003B220A168A1183123508FE39AF00B0019C
:102DB6002F08A3003008A4000A168A1515220A1641
:102DC6008A112A08AF00B0012F08A3003008A4001A
:102DD6000A168A1515220A168A112908AF00B001AB
:102DE6002F08A3003008A4000A168A1515220A1611
:102DF6008A110A168A1520220A168A1183123508A4
:102E0600AF00B0012F08A3003008A4000A168A15E7
:102E160015220A168A11B2012D0832020318E92F6B
:102E26006400831203132C08031DE92F02302B02C2
:102E3600031D252F00302A02031D252F00302902ED
:102E4600031D252F0318E92F2908013E7F39031D8D
:102E5600BD2F0030A300A4000A168A151C250A16E9
:102E66008A112308AF002E0884002F0883138000E0
:102E76000A168A15EE210A168A1183122E08840074
:102E8600831300080A168A152B220A168A110130A6
:102E96008312A907003003180130AA07003003186F
:102EA6000130AB07003003180130AC072C08031DB6
:102EB6006A2F01302B02031D682F00302A02031DE2
:102EC600682F00302902031D682F031C6F2F08305E
:102ED600AF002F08B400702FB4013308AF002F08DD
:102EE600B5000310B50DA030AF002F08B50435149A
:102EF6003408AF002F08B5040A168A153B220A16B5
:102F06008A1183123508FE39AF00B0012F08A300DD
:102F16003008A4000A168A1515220A168A112A08EC
:102F2600AF00B0012F08A3003008A4000A168A15C6
:102F360015220A168A112908AF00B0012F08A3002E
:102F46003008A4000A168A1515220A168A110A16CE
:102F56008A1520220A168A1183123508AF00B0019D
:102F66002F08A3003008A4000A168A1515220A168F
:102F76008A11E42F0130A3000030A4000A168A1536
:102F86001C250A168A112308AF002E0884002F0874
:102F9600831380002E08840000080A168A152B2247
:102FA6000A168A1101308312A9070030031801306E
:102FB600AA07003003180130AB07003003180130B0
:102FC600AC070130AF002F08B2070F2F0030A30067
:102FD600A4000A168A151C250A168A110A168A15CD
:102FE600EE210A168A11B93083120313AF00FB2FA4
:102FF600FC2FAF0BFA2FFF2F0800FF1B0A288313A5
:103006007F1883170008840A0319FF0A080018307E
:103016008A000408840A8207003466346634A634BB
:10302600BF341434AE342B34C134003440341C3431
:10303600463466348634963443340034C0347F34A0
:1030460044340034003400340034C434FF347F3454
:103056003F348034EF34FF34BE349034E134A93445
:103066003E34EC3482347634BE348234AD342B3480
:103076003E340E343C34C334BD348734D134133437
:103086003D3441347834D334BB340034603478343E
:103096004534003440341C344634763431342E34CE
:1030A60030342E343134373400344F344B3400341A
:1033CC0064008001840A0406031900340406E7290A
:1033DC000A168A158923003A8316031D11158B17BB
:1033EC00080049308312A1008030A2000A168A1509
:1033FC00E92408009F149F18012A1E08A1008316B7
:10340C001E088312A0000800C030831203139F040F
:10341C00803083169F009F1783121F1408000A1612
:10342C008A1589230A168A15003A031908002308FD
:10343C00930008000A168A1589230A168A15003A81
:10344C000319080083169114080083120313A000BB
:10345C0014308316B2000030B300981C332A831248
:10346C00200899008316981608008B1314308316C5
:10347C00B4000030B5000A168A1589230A168A157D
:10348C00003A031908008316111408006C1C5C2AFE
:10349C0003171308031369060319582A0317130A91
:1034AC00031D5C2A0313A001A00A5E2A0313A001CA
:1034BC00200808000330D8005808D9005708D80055
:1034CC005808DA005608D8005808DB000330D8003A
:1034DC005808D20059300A168A15C02508008312E4
:1034EC000313BC003A08AD003908AC003808AB0037
:1034FC003708AA00AE01AE0A3B30AF000030B00076
:10350C003C080A168A11BA2308004E30D000500825
:10351C00D100510A8400831300080A168A152B2245
:10352C000A168A15831251088400831300080A16A0
:10353C008A152B22080083120313BC003A08AD0035
:10354C003908AC003808AB003708AA00AE01AE0A47
:10355C003D30BB003B08AF003C080A128A156120C5
:10356C00831203133D0808005B08D3005A08D200ED
:10357C005C08D4000130D5005C08A0000130A1002B
:10358C000A168A15D4220A168A152008013EDD0077
:10359C005D08D6000A128A11B82708002008A2007C
:1035AC002108A300220884008317231C831300081E
:1035BC000319E72A0130A2070318A30A0030A30756
:1035CC00D82A20082202A0002108031C210A230269
:1035DC00A1000800A401A50121082502031DF82A59
:1035EC002008240203180800033083120313A300DD
:1035FC009730A200A20B002BA30B002B01308312DF
:10360C000313A4070318A50A0030A507F22AA20089
:10361C002208A1002108A300200884000A168A159C
:10362C000A200A168A15A100230884002108831396
:10363C0080000008031908000130A1002108A3072D
:10364C000130A1002108A007122B8030CE065208B1
:10365C00BA005108B9005008B8004F08B7004E081E
:10366C00BE004D08BD004C08BC004B08BB000A1244
:10367C008A1572233A08CE003908CD003808CC00E0
:10368C003708CB00080083120313D5005308D4006D
:10369C005408D6005208D4005408D7005108AD0085
:1036AC005008AC004F08AB004E08AA000230D40002
:1036BC005408AE005630AF000030B00055080A1662
:1036CC008A11BA23080083120313A50025080A16D1
:1036DC008A15AA230A168A150313A4002408A60027
:1036EC000130A4002408A5072608A40023088400A0
:1036FC002408831380000130A4002408A3072608A3
:10370C00031908006C2BC8308312A0002008A200FB
:10371C009B2B0130A202033083120313A1009730BC
:10372C00A000A00B972BA10B972B83160313141936
:10373C00A32B11081F390319A72B83122208031D71
:10374C008F2B83122208080083120313A20014305B
:10375C008316B4000030B50003178C18B22B8312FB
:10376C000313220803178D0083168C130C144E3090
:10377C0083120313A100EA30A000A00BC32BA10BF2
:10378C00C32B0000831203170C0808000A30A0009A
:10379C000030A1005708A3005608A2000A168A158B
:1037AC0034260A168A152108D7002008D6000230C4
:1037BC00D8005808D9005608D8005808DA0002304A
:1037CC00D8005808D20059300A168A15C0250800AE
:1037DC00A800A401A5012008A200A3012208A600AC
:1037EC002308A700281C002C2608A4070318A50AE8
:1037FC002708A50701300310A60DA70DFF3E031DDA
:10380C00012C0310A80C2808031DF82B2508A10077
:10381C002408A000080083120313BD003A08AD0071
:10382C003908AC003808AB003708AA000230BB00DE
:10383C003B08AE003E30BC003C08AF003D080A120D
:10384C008A156120831203133E08BB00BC013B08A0
:10385C00BC00BB013F083B07B70000300318013028
:10386C003C07B800080083120313A100AA300A1603
:10387C008A152B220A168A15BB300A168A152B229A
:10388C000A168A15831269080A168A152B220A163B
:10389C008A1500300A168A152B220A168A15031768
:1038AC0014080A168A152B220A168A158312210867
:1038BC000A168A152B22080083120313A60028303F
:1038CC00A5002508A700AA0126080A168A15AA230E
:1038DC000A168A150313A5002708840025088313EC
:1038EC0080000130A5002508A6070130A500250899
:1038FC00A7070130A5002508AA0702302A02031CDD
:10390C006A2C2908A4002808A300080083120313BA
:10391C00A70025088400831700080319AC2C250880
:10392C0084000008A6002608A00027080A168A159D
:10393C00F8250A168A15013083120313A6002608EF
:10394C00A7070130A6002608A5078F2C25088400A0
:10395C000008A6002608A00027080A168A15F825D4
:10396C0008008312AB002530A7002708AA00AC0181
:10397C002A08840083130008A7002708A0002B083E
:10398C000A168A15F8250A168A15013083120313B4
:10399C00A7002708AA070130A7002708AB070130AA
:1039AC00A7002708AC0702302C02031CBE2C4E309B
:1039BC0083120313A800EA30A700A70BE32CA80B73
:1039CC00E32C000008002108A3002208A40024080E
:1039DC00FF00230884000A168A1500200A168A158F
:1039EC00003A03190F2D2408FF00230884000A163F
:1039FC008A1500200A168A150A168A152B220A1611
:103A0C008A1501308312A3070318A40A0030A407F7
:103A1C00ED2C2408FF00230884000A168A150020C8
:103A2C000A168A150A168A152B2208000A168A15F8
:103A3C0089230A168A15003A8316031D91150A1656
:103A4C008A1589230A168A15003A0319342D13088E
:103A5C00A500A6012508A7002608A8000A168A15A5
:103A6C0089230A168A15003A03194E2D23082404BB
:103A7C00031D442D831603139116472D8316031330
:103A8C009112111683122808A4002708A30008001D
:103A9C00A301A40108000030A9000030A8000030E8
:103AAC00A7000030A6002908803AFF002308803ABE
:103ABC007F02031D6B2D22082802031D6B2D21088C
:103ACC002702031D6B2D2008260203180800033063
:103ADC0083120313A5009730A400A40B732DA50B20
:103AEC00732D013083120313A60700300318013025
:103AFC00A707003003180130A80700300318013065
:103B0C00A907592D0030A9000030A8000030A700EB
:103B1C000030A6002908803AFF002308803A7F0273
:103B2C00031DA22D22082802031DA22D2108270205
:103B3C00031DA22D20082602031808006400033080
:103B4C0083120313A5009730A400A40BAB2DA50B77
:103B5C00AB2D013083120313A6070030031801307C
:103B6C00A707003003180130A807003003180130F4
:103B7C00A907902DD400A530CE005A30CF000A16DC
:103B8C008A158B220A168A1583125208013E0A16D0
:103B9C008A152B220A168A1580300A168A152B22B2
:103BAC000A168A158312D501520855020318F02DF6
:103BBC0055085407D30053088400831300080A16D1
:103BCC008A152B220A168A1501308312D30053084A
:103BDC00D507DA2D0130A0000030A1000A168A1595
:103BEC00F022080083120313A30014308316B400D0
:103BFC000030B50003178C18002E8B1F0A2E831271
:103C0C000313A401A40A0D2E83120313A401230889
:103C1C0003178D000313200803178C0083168C13D5
:103C2C000C158B1355308D00AA308D008C1483121B
:103C3C0003132403031D242E8B17252E8B1383169D
:103C4C0003170C114E3083120313A200EA30A100AB
:103C5C00A10B2E2EA20B2E2E00000800A501A601F2
:103C6C002008210403196B2EA701A70AA11B4A2EB9
:103C7C0001300310A00DA10DFF3E031D3F2E01309E
:103C8C00A4002408A7073C2E01300310A50DA60D97
:103C9C00FF3E031D4B2E21082302031D572E200827
:103CAC002202031C602E2008A2022108031CA3037D
:103CBC00A302251401300310A10CA00CFF3E031D20
:103CCC00612E0130A702031D4A2E2608A1002508EB
:103CDC00A00008004B302106200422042304031DFD
:103CEC00812E9817181683161815181218130C30E5
:103CFC0099000B179A2EC2302106031D9B2E22030E
:103D0C0020042304031D9B2E1030831699000317E7
:103D1C008715031318158312981783161812181386
:103D2C00831218160B1783168C1683160717871712
:103D3C00831218121816A6011A080130A4002408C0
:103D4C00A6070F30260203180800A22E83120313B5
:103D5C00DA000030DE000030DD000030DC00003026
:103D6C00DB005E08D1005D08D0005C08CF005B086A
:103D7C00CE005908D3005808D2005A080A168A15E2
:103D8C0049230A168A156400023083120313DB07D9
:103D9C00003003180130DC07003003180130DD0758
:103DAC00003003180130DE075E08031D08005D08B3
:103DBC00031D080004305C02031DE82E00305B027A
:103DCC00031DE82E03180800B72E8312A400240844
:103DDC0084000317110883178000840A10088000E0
:103DEC0012080313A0002408023E8400200880005F
:103DFC00031713080313A0002408033E84002008B3
:103E0C008000031714080313A0002408043E840048
:103E1C0020088000031715080313A0002408053E92
:103E2C00840020088000A201A3012408053E840020
:103E3C002308803AA00080302002031D272F0008A1
:103E4C00220203180800831203132208163E840072
:103E5C0083170008A00022082407A1002108063EB1
:103E6C008400200880000130A2070318A30A003048
:103E7C00A3071B2FB3003308B200B20DB20D1F08FD
:103E8C003206C33932069F000030A3000030A20076
:103E9C000030A1000130A0000A168A1551250A161F
:103EAC008A15B401B501B601B60A0A168A150022A4
:103EBC000A168A152008B4070318B50A2108B50795
:103ECC000130B2003208B60733303602031C5B2FC8
:103EDC003608FF3EA000FF3003180030A100350863
:103EEC00A3003408A2000A168A1534260A168A156D
:103EFC002108B5002008B4003408A0003508A10042
:103F0C00A201A30100300A168A113B212308B1003B
:103F1C002208B0002108AF002008AE0008000310F2
:103F2C00450D460DC7004708CD004D08031DA72FB2
:103F3C000030C6000030C5000030C4000030C300A3
:103F4C0008004308C7004408C8004508C9004608D3
:103F5C00CA001F300310CA0CC90CC80CC70CFF3E9A
:103F6C00031DB02F4708CB004B08CC00C517FF3002
:103F7C00C305FF30C405FF30C5050030C6059630BB
:103F8C00CD02CD1FDE2F4D08803A973E031C9E2F8D
:103F9C0001300310C60CC50CC40CC30CFF3E031D32
:103FAC00CF2F0130C7004708CD070319F12FCE2FB3
:103FBC0020304D0203189E2F4D080319F12F0130AC
:103FCC00C7000310C30DC40DC50DC60DC70BE72FDD
:103FDC000130CD02E22F4C0803190800C309C409B3
:103FEC00C509C609C30A0319C40A0319C50A03196A
:043FFC00C60A0800E9
:04400E008CEFFFFF35
:00000001FF
