:060000000A128A11122809
:10000800FE00030EF2000408F3000A08F40083124D
:1000180003137F08F5000A168A11A9290A128A1102
:100028001528F801F901FA01FB01FC01FD01831310
:10003800C9308400E5300A168A1569210A128A1126
:10004800831790308400EB300A168A1569210A124A
:100058008A111030840044300A168A1569218301F8
:100068000A128A156D2890300A168A15D8260A129F
:100078008A118316031717080313B1003108C30048
:10008800031718080313B1003108C2000317190831
:100098000313B1003108C10003171A080313B10094
:1000A8003108C000312B4130B10031088312A00063
:1000B800CA300A168A1570220A128A110B300A16DB
:1000C8008A155A230A128A11CA308312A1000130F4
:1000D800A2000A168A158D24080003171608031DA6
:1000E8007E2803134C08BE004B08BD004A08BC001C
:1000F8004908862803135008BE004F08BD004E0863
:10010800BC004D08BB0041308312CE002030CD002A
:100118000030CC000030CB0083163E088312D2009A
:1001280083163D088312D10083163C088312D00041
:1001380083163B088312CF000A128A1183230A12FE
:100148008A114E088316BE0083124D088316BD001F
:1001580083124C088316BC0083124B088316BB001D
:100168008B1302300A168A155A230A128A113E087E
:100178008312E80083163D088312E70083163C08C3
:100188008312E60083163B088312E5000A128A15DB
:1001980002200A128A1166088316A10083126508D4
:1001A8008316A0000A168A15C5218B1708000317A5
:1001B80016080313B1003108C30003171708031307
:1001C800B1003108C200031718080313B100310841
:1001D800C100031719080313B1003108C000430810
:1001E800AD004208AC004108AB004008AA000A165E
:1001F8008A158327F801F90183160313D901DA0157
:10020800080002300A168A155A230A128A11013088
:10021800A0000030A1000A168A15C521080003179E
:1002280017080313B10031088312A00083160317BF
:1002380016080A168A159A250A128A1103300A1610
:100248008A155A230A128A110A168A157A21080071
:10025800031716080A168A15ED220A128A11831640
:100268000313B1003108BF0001300A168A155A235A
:100278000A128A113F080A168A15A42108000317D2
:1002880016080313B1003108B70003171808031341
:10029800B100B201031717080313B300B401330800
:1002A800B400B30131083304B50032083404B60091
:1002B80036088312A600831635088312A500831614
:1002C80037080A168A155B240A128A11222903178D
:1002D80016080A168A15AB230A128A1124088316EF
:1002E800BA00831223088316B90002300A168A1549
:1002F8005A230A128A113A08A1003908A0000A16DE
:100308008A15C52108009730B10031088312A5006D
:100318008316031716080A168A15FF230A128A116C
:100328002229CA30B10031088312A30083160317AB
:1003380016080A168A15AC220A128A112130632877
:1003480043088312BA00831642088312B900831641
:1003580041088312B800831640088312B700831639
:1003680003171B080313B10031088312BB0083165F
:10037800031716080A168A15DA210A128A11222981
:1003880043088312B900831642088312B800831603
:1003980041088312B700831640088312B6008316FB
:1003A800031716080A168A1508220A128A118316D4
:1003B800B1003108BF0001300A168A155A230A1203
:1003C8008A113F080A168A15A42108004308A300C9
:1003D8004208A2004108A1004008A00003171C0819
:1003E8000313B100B20103171B080313B300B401D0
:1003F8003308B400B30131083304A40032083404CC
:10040800A500031716080A168A1582230A128A11EC
:10041800222943088312B900831642088312B800C0
:10042800831641088312B700831640088312B6006A
:100438008316031716080A168A1532230A128A1118
:1004480037088316BA0083123608772903171B0862
:100458000313B1003108B80038080A168A155A2360
:100468000A128A1143088312AC00831642088312C9
:10047800AB00831641088312AA0083164008831232
:10048800A90083163808B10031088312AD00CA30BC
:100498008316B20032088312AE00831603171608BB
:1004A8000A168A118226080043088312AD008316B3
:1004B80042088312AC00831641088312AB008316EE
:1004C80040088312AA00831603171B080313B10000
:1004D80031088312AE009C30AF000130B0008316A3
:1004E800031716080A168A1192230A128A1122295A
:1004F80043088312AD00831642088312AC008316AA
:1005080041088312AB00831640088312AA009B306F
:100518008316B10031088312AE008316031716083C
:100528000A168A1197220A128A112229430883126D
:10053800AC00831642088312AB008316410883126D
:10054800AA00831640088312A900CA308316B10096
:1005580031088312AD008316031716080A168A118C
:1005680008250A128A11CA300A168A1521220A1287
:100578008A112008013E6328031717080313B100E6
:10058800B2013108AA003208AB00031716080A1690
:100598008A1512260A128A1122290317160803132C
:1005A800B100B2013108A8003208A9000A168A1160
:1005B80000200A128A112229031716080313B10012
:1005C800B2013108B200B10103171708031331074C
:1005D800A8000030031801303207A9000A168A154E
:1005E800D5230A128A112229031716080313B1000A
:1005F800B2013108B200B10103171708031331071C
:10060800AC000030031801303207AD009830B30059
:100618003308AE000A168A15F0210A128A11222917
:1006280003171608031D232B1708031D1F2B8312FE
:100638000313071022298312031307142229160310
:10064800031D22291708031D2D2B8312031387105E
:10065800222983120313871422290317140803136A
:10066800B100B2013208003A03193B2B822B310842
:10067800023A0319DB28013A031905290B3A031931
:100688001329013A03192C29033A03194329013A7A
:1006980003196B29073A03198729013A0319952980
:1006A8001C3A0319A429033A0319C429013A031966
:1006B800EA29073A03190D2A013A03197C2A033A51
:1006C80003199A2A013A0319582A0F3A03192A2AB0
:1006D800013A0319C02A033A03197128383A031951
:1006E800F82A063A0319E02A013A0319D12A153AD9
:1006F8000319142B713A03195728822B08004E0846
:100708008039D3005308D8004E08D3005307D400CB
:100718005408DE00CD1B5E145E080319A02B5E0A88
:10072800031D9E2B0030CE000030CD000030CC00E1
:100738000030CB00CD17A82B0030CE000030CD0004
:100748000030CC000030CB0052088039D300530869
:10075800D8065208D3005307D4005408D900D11B37
:10076800591459080319C52B590A031DC32B003006
:10077800D2000030D1000030D0000030CF00D117B7
:10078800CD2B0030D2000030D1000030D000003036
:10079800CF005908031D5E08031DDB2B0030CE0077
:1007A8000030CD000030CC000030CB0008004B08F2
:1007B800D3005308A00051080A168A150F230A12FD
:1007C8008A112108E4002008E3006308D300D4015B
:1007D800D501D6015608DD005508DC005408DB00B9
:1007E8005308DA006408D300D401D501D6015608AD
:1007F800E2005508E1005408E0005308DF004C0807
:10080800D3005308A00050080A168A150F230A12AD
:100818008A112108E4002008E3006308D300D4010A
:10082800D501D6015308DA07540803110318013E0D
:10083800031DDB07550803110318013E031DDC07E0
:10084800560803110318013E031DDD076408D30091
:10085800D401D501D6015308DF0754080311031842
:10086800013E031DE007550803110318013E031D4F
:10087800E107560803110318013E031DE2074D085E
:10088800D3005308A0004F080A168A150F230A122E
:100898008A112108E4002008E3006308D300D4018A
:1008A800D501D6015308DA07540803110318013E8D
:1008B800031DDB07550803110318013E031DDC0760
:1008C800560803110318013E031DDD076408D30011
:1008D800D401D501D6015308DF07540803110318C2
:1008E800013E031DE007550803110318013E031DCF
:1008F800E107560803110318013E031DE2070830FB
:10090800D3000310DA0DDB0DDC0DDD0DD30B852CC8
:100918004C08D3005308A0004F080A168A150F2365
:100928000A128A112108E4002008E3006308D300B2
:100938006408D400D501D6015308DA075408031116
:100948000318013E031DDB07550803110318013E78
:10095800031DDC07560803110318013E031DDD07BC
:100968004B08D3005308A00050080A168A150F2315
:100978000A128A112108E4002008E3006308D30062
:100988006408D400D501D6015308DA0754080311C6
:100998000318013E031DDB07550803110318013E28
:1009A800031DDC07560803110318013E031DDD076C
:1009B8000830D3000310DA0DDB0DDC0DDD0DD30B91
:1009C800DE2C4B08D3005308A0004F080A168A15DE
:1009D8000F230A128A112108E4002008E3006308A3
:1009E800D3006408D400D501D6015308DA075408A7
:1009F80003110318013E031DDB07550803110318F3
:100A0800013E031DDC07560803110318013E031DB0
:100A1800DD074C08D3005308A00051080A168A15B0
:100A28000F230A128A112108E4002008E300630852
:100A3800D3006408D400D501D6015308DF07540851
:100A480003110318013E031DE0075508031103189D
:100A5800013E031DE107560803110318013E031D5B
:100A6800E2074D08D3005308A00050080A168A155B
:100A78000F230A128A112108E4002008E300630802
:100A8800D3006408D400D501D6015308DF07540801
:100A980003110318013E031DE0075508031103184D
:100AA800013E031DE107560803110318013E031D0B
:100AB800E2074D08D3005308A00051080A168A150A
:100AC8000F230A128A112108E4002008E3006308B2
:100AD800D3006408D400D501D60108300310D30D23
:100AE800D40DD50DD60DFF3E031D722D5308DF071B
:100AF800540803110318013E031DE00755080311AC
:100B08000318013E031DE107560803110318013EAF
:100B1800031DE2075D08D300D401D501D6015308AF
:100B2800DF07540803110318013E031DE0075508A9
:100B380003110318013E031DE107560803110318AA
:100B4800013E031DE2070830D3000310DA0DDB0D68
:100B5800DC0DDD0DD30BA92D5E085907D300D40198
:100B6800D40D5308823EE30054080318013EFF3EAB
:100B7800E400E11BDA2D0130D3000310DF0DE00D96
:100B8800E10DE20DD30BC12DDD1B5F140130D30045
:100B98000310DA0DDB0DDC0DDD0DD30BCC2DFF3092
:100BA800E3070318E40AFF30E407BD2DD901DD1F70
:100BB800F32DFF305A05D300FF305B05D400FF301A
:100BC8005C05D5007F305D05D600560855045404F1
:100BD800530403195F18F12DF32DD901D90A5908C7
:100BE8000319252E0130DF07003003180130E00714
:100BF800003003180130E107003003180130E20724
:100C0800621C252E5F08D3006008D4006108D50057
:100C18006208D6000130D700560DD60CD50CD40C7E
:100C2800D30CD70B102E5608E2005508E1005408E3
:100C3800E0005308DF000130E3070318E40A00303E
:100C4800E4076408803AFF0080307F02031D2E2EDF
:100C5800FF306302031C3B2E7F3083120313E20034
:100C68008030E1000030E0000030DF006B2E83129E
:100C780003136408803AFF0080307F02031D462E6C
:100C8800013063020318542E003083120313E2006C
:100C98000030E1000030E0000030DF00D8016B2EAA
:100CA800831203136308D3005308DE00FF30DF0507
:100CB800FF30E0057F30E1050030E2055E18E117FE
:100CC8005E08D3000310530CD4005408E2005808FF
:100CD800D3005308E2046208CE006108CD00600822
:100CE800CC005F08CB000800B300B40114308316B1
:100CF800DD000030DE0083122D08031D08000230DD
:100D08002C02031D8F2E00302B02031D8F2E003066
:100D18002A02031D8F2E03180800831203132D08BF
:100D2800031DA42E01302C02031DA22E00302B021D
:100D3800031DA22E00302A02031DA22E031CAB2E77
:100D4800083083120313B0003008B400AE2E8312AB
:100D58000313B4013308B0003008B5000310B50D13
:100D6800A030B0003008B50435143408B00030089D
:100D7800B5040A168A15B4210A128A118312350895
:100D8800FE39B000B1013008A3003108A4000A16EA
:100D98008A158E210A128A112B08B000B101300879
:100DA800A3003108A4000A168A158E210A128A1196
:100DB8002A08B000B1013008A3003108A4000A16BF
:100DC8008A158E210A128A110A168A1599210A1281
:100DD8008A1183123508B000B1013008A300310828
:100DE800A4000A168A158E210A128A11B2012E0849
:100DF80032020318DD2F6400831203132D08031D2C
:100E0800DD2F02302C02031D112F00302B02031D91
:100E1800112F00302A02031D112F0318DD2F831212
:100E280003132A08013E7F39031DB62F0030A300A3
:100E3800A4000A168A15C0240A128A112308B000D1
:100E48002F0884003008831380000A168A15712140
:100E58000A128A1100308312A3000030A200003069
:100E6800A1000530A0000A168A1562250A128A1107
:100E78000130AA07003003180130AB07003003180F
:100E88000130AC07003003180130AD070130B00065
:100E98003008AF072D08031D5F2F01302C02031DFA
:100EA8005D2F00302B02031D5D2F00302A02031D29
:100EB8005D2F031C662F083083120313B00030081F
:100EC800B400692F83120313B4013308B00030084B
:100ED800B5000310B50DA030B0003008B5043514C6
:100EE8003408B0003008B5040A168A15B4210A126D
:100EF8008A1183123508FE39B000B1013008A30009
:100F08003108A4000A168A158E210A128A112B08A4
:100F1800B000B1013008A3003108A4000A168A15F0
:100F28008E210A128A112A08B000B1013008A300E4
:100F38003108A4000A168A158E210A128A110A1687
:100F48008A1599210A128A1183123508B000B10155
:100F58003008A3003108A4000A168A158E210A1247
:100F68008A11D82F0130A3000030A4000A168A1570
:100F7800C0240A128A112308B0002F088400300800
:100F8800831380000130B0003008AF070130AA0792
:100F9800003003180130AB07003003180130AC07EC
:100FA800003003180130AD070130B0003008B20737
:100FB800FB2E003083120313A300A4000A168A151F
:100FC800C0240A128A110A168A1571210A128A1176
:100FD800B93083120313B000F12FF22FB00BF02FAA
:100FE800F52F08009F149F18F72F1E08A1008316DD
:080FF8001E088312A00008008E
:101004000310670D680DE9006908EF006F08031D00
:1010140014280030E8000030E7000030E60000301B
:10102400E50008006508E9006608EA006708EB00C7
:101034006808EC001F300310EC0CEB0CEA0CE90C14
:10104400FF3E031D1D286908ED006D08EE00E7173B
:10105400FF30E505FF30E605FF30E7050030E80521
:101064009630EF02EF1F4B286F08803A973E031C1F
:101074000B2801300310E80CE70CE60CE50CFF3EEE
:10108400031D3C280130E9006908EF0703195E28B5
:101094003B2820306F0203180B286F0803195E28C1
:1010A4000130E9000310E50DE60DE70DE80DE90B4D
:1010B40054280130EF024F286E0803190800E5098F
:1010C400E609E709E809E50A0319E60A0319E70A44
:1010D4000319E80A0800023083160313C60004301B
:1010E400C500B930C400C40B7528C50B7528C60BE0
:1010F40075287C28831603130F168F160F17831277
:101104008501860187018901EF30831685000F3040
:101114008600F0308700FF30890011300317880003
:101124008901031381130F30950083128617061764
:1011340086168316E41000308312A3000030A20048
:101144000330A100E830A0000A168A1562250A12AD
:101154008A158316811281150114811401158B12CD
:101164000B128B170B178312101690169010831600
:101174000C1401308312900064000A168A1583212E
:101184000A128A150030B1000130B0008630AF0079
:10119400A030AE000A168A152A240A128A150030D5
:1011A4008312A3000130A200C230A1000030A000CD
:1011B4000A168A1552260A128A1510300A168A153A
:1011C400AB230A128A1524088316C8008312230845
:1011D4008316C700470A031DFC28480A031DFC2880
:1011E40000308312A500A60010300A168A155B246D
:1011F4000A128A15013083160313C7070318C80A95
:101204000030C80748088312A600831647088312D3
:10121400A50010300A168A155B240A128A15F801F3
:10122400F90183160313DB01DC01DD01DE01FD019D
:10123400FC018312071087100511851106090F3967
:101244008316C4004408E100E201E20A6311E417D2
:101254000130C4004408E207023062060319E201C7
:1012640062080A128A1537250A128A158316641C25
:10127400292983120317100883160313D800831235
:101284000317110883160313D700BB305706AA307F
:1012940003195806031D29298312031713088316FB
:1012A4000313C4004408E00060086106031D600ADB
:1012B400031D29291430DB000030DC000A128A11D6
:1012C40037200A128A158316031364102929350856
:1012D4008039B6003608BF003508B6003607B700B7
:1012E4003708C600B41B4614460803198729460A62
:1012F400031D84290030B5000030B4000030B30071
:101304000030B200B417B5018F290030B5000030A9
:10131400B4000030B3000030B20031088039B600A8
:101324003608BF063108B6003607B7003708C700CD
:10133400B01B471447080319AD29470A031DAA29FE
:101344000030B1000030B0000030AF000030AE001B
:10135400B017B101B5290030B1000030B000003041
:10136400AF000030AE00310830042F042E04031DFA
:10137400D4290030B5000030B4000030B300003090
:10138400B2008030B4047F30B5043F08B60036089C
:10139400B5043508B1003408B0003308AF00320892
:1013A400AE0008004608031DE0290030B1000030FB
:1013B400B0000030AF000030AE0008004608B600B0
:1013C400B7013708B90047083602B800031CB9034F
:1013D40038087F3EC00039080318013E003EC100B2
:1013E4003508BE003408BD003308BC003208BB0019
:1013F4000030B5000030B4000030B3000030B2005B
:101404000030C5000030C4000030C3000030C2000A
:10141400C7011A3047020318532A470803192F2A11
:101424000130B6000310BB0DBC0DBD0DBE0DB60BD7
:10143400142A0130B6000310B20DB30DB40DB50D6E
:10144400B60B1D2AC51B32140130B6000310C20DA1
:10145400C30DC40DC50DB60B282A31083E02031D69
:101464003D2A30083D02031D3D2A2F083C02031D7E
:101474003D2A2E083B02031C4E2A45172E08BB02A8
:101484002F08031C2F0FBC023008031C300FBD02B1
:101494003108031C310FBE020130B6003608C707FD
:1014A4000B2A3E083D043C043B04031D4214B41BB8
:1014B400762A0130B6000310B20DB30DB40DB50D8C
:1014C400B60B5D2AC51B32140130B6000310C20DE1
:1014D400C30DC40DC50DB60B682AFF30C007031831
:1014E400C10AFF30C107592AC701C51F8F2AFF301F
:1014F4004205B600FF304305B700FF304405B8008D
:101504007F304505B9003908380437043604031917
:1015140032188D2A8F2AC701C70A47080319C12A1E
:101524000130B207003003180130B307003003184C
:101534000130B407003003180130B507351CC12A47
:101544003208B6003308B7003408B8003508B900CB
:101554000130BA00390DB90CB80CB70CB60CBA0B83
:10156400AC2A3908B5003808B4003708B300360887
:10157400B2000130C0070318C10A0030C107410896
:10158400803AFF0080307F02031DCA2AFF304002E8
:10159400031CDA2AFF3083120313C0000030C10099
:1015A4000030B5000030B4000030B3000030B200A9
:1015B400831203134108803AFF0080307F02031D29
:1015C400E52A013040020318F42A83120313C001F0
:1015D400C1010030B5000030B4000030B300003069
:1015E400B200BF01831203134008B6003608C600D8
:1015F400461CFE2AB417022B7F30B6003608B40509
:101604004608B6000310360CB7003708B500C729E2
:101614003A088039BF003F08C7003A08BF003F07B7
:10162400C0004008C900B91B491449080319282BF4
:10163400490A031D252B0030BA000030B9000030E0
:10164400B8000030B700B917BA01302B0030BA0027
:101654000030B9000030B8000030B7003E088039CF
:10166400BF003F08C80048084706031D47173E0847
:10167400BF003F07C0004008C800BD1B481448080D
:101684000319522B480A031D4F2B0030BE000030B3
:10169400BD000030BC000030BB00BD17BE015A2B9A
:1016A4000030BE000030BD000030BC000030BB0084
:1016B400490848020318A02B471F642B8030BF0041
:1016C4003F08C7064908BF003F08CA004808BF00D2
:1016D4003F08C9004A08BF003F08C8003708BF00D8
:1016E4003F08CA003B08BF003F08B7004A08BF00D4
:1016F4003F08BB003808BF003F08CA003C08BF00D1
:101704003F08B8004A08BF003F08BC003908BF00C2
:101714003F08CA003D08BF003F08B9004A08BF009F
:101724003F08BD003A08BF003F08CA003E08BF009A
:101734003F08BA004A08BF003F08BE00CA01480873
:10174400BF00C0014008C20049083F02C100031C99
:10175400C2034208803AFF0080307F02031DB42B8D
:101764001A304102031CED2B831203133A08390487
:10177400380437040319C02B0130C12B0030BF00DB
:101784003F08CA000030BA000030B9000030B80089
:101794000030B7004808BF003F08C900F32B4A1CBB
:1017A400DC2B4A08BF0003103F0C0138C00040087E
:1017B400CA00DE2B0310CA0C3718CA170130BF0049
:1017C4003A0DBA0CB90CB80CB70CBF0BE22B0130B4
:1017D400BF003F08C9078312031348084902031CCA
:1017E400D12B471B342C4908031D012C0030BA00AF
:1017F4000030B9000030B8000030B70008003B08E2
:10180400B7073C0803110318013E031DB8073D0840
:1018140003110318013E031DB9073E080311031801
:10182400013E031DBA073A1CD62C4A1C222C4A0836
:10183400BF0003103F0C0138C0004008CA00242C2C
:101844000310CA0C3718CA170130BF003A0DBA0C7E
:10185400B90CB80CB70CBF0B282C0130BF003F08E3
:10186400C907D62C3A08803AFF003E08803A7F0226
:10187400031D462C3D083902031D462C3C08380242
:10188400031D462C3B08370203189E2CFF30BF0073
:10189400FF30C000FF30C100FF30C2003B08C3006E
:1018A4003C08C4003D08C5003E08C6003708C30212
:1018B4003808031C380F5F2C602CC4023908031C41
:1018C400390F652C662CC5023A08031C3A0F6B2CA1
:1018D4006C2CC6024308BF0744080318440F732C3A
:1018E400742CC00745080318450F792C7A2CC107BE
:1018F40046080318460AC2074208BA004108B9005C
:101904004008B8003F08B7008030BF003F08C70652
:10191400CA09CA0A4A08031DAC2C0130B7070030B3
:1019240003180130B807003003180130B90700303C
:1019340003180130BA07AC2C3B08B7023C08031C5F
:101944003C0FB8023D08031C3D0FB9023E08031CBE
:101954003E0FBA023A08390438043704031DD42C64
:101964004A08031DD42C0030BA000030B9000030FE
:10197400B8000030B70008000130BF000310B70DF5
:10198400B80DB90DBA0DBF0BC02CCA1B37144A1CB5
:10199400CD2C0314CE2C0310CA0D49080319D42CE2
:1019A4000130C902B91FBE2CC801CA1FE12C4A0864
:1019B4007F3903193718DF2CE12CC801C80A4808FD
:1019C4000319142D0130B707003003180130B8078C
:1019D400003003180130B907003003180130BA078A
:1019E4003A1C142D3708BF003808C0003908C1005C
:1019F4003A08C2000130C300420DC20CC10CC00C35
:101A0400BF0CC30BFE2C4208BA004108B9004008C1
:101A1400B8003F08B700490A0319142D0130BF006C
:101A24003F08C907490A031D4908031D242D003036
:101A3400BA000030B9000030B8000030B7004908DF
:101A44000319C701491C282DB9172C2D7F30BF005D
:101A54003F08B9054908BF0003103F0CC000400807
:101A6400BA00C71F0800BA170800A4002408031D01
:101A7400EB2E1F169F1624088312E500E50DE50DD5
:101A84001F086506C33965069F000030A3000030B7
:101A9400A2000030A1000130A0000A168A152B25EF
:101AA4000A128A1500308316AA000030A9000030FB
:101AB400A8000030A7000130A5000030A6002408CB
:101AC4000A168A152D270A128A153108BA00300819
:101AD400B9002F08B8002E08B70083162A0883120D
:101AE400BE00831629088312BD00831628088312BA
:101AF400BC00831627088312BB000A128A150A2326
:101B04000A128A153A088316AA0083123908831622
:101B1400A900831238088316A80083123708831695
:101B2400A7000A168A153A220A128A15013A0319DD
:101B3400A92D01308316A5070318A60A0030A607AD
:101B4400003026020F3003192502031C612D0030DA
:101B5400831626020A3003192502031C08000F30DD
:101B640025062604031DC02D2508FF3E8312A00070
:101B7400831626080318013EFF3EC52D250883124F
:101B8400A000831626088312A100A201A30100303D
:101B94000A168A1106210A128A152308B10022089E
:101BA400B0002108AF002008AE0083162A08831273
:101BB400B500831629088312B400831628088312FB
:101BC400B300831627088312B2000A128A1569210A
:101BD4000A128A1531088316AA0083123008831664
:101BE400A90083122F088316A80083122E088316D7
:101BF400A7002A088312CE00831629088312CD0079
:101C0400831628088312CC00831627088312CB007E
:101C14004430D2007F30D100C030D0000030CF003B
:101C24000A168A158E220A128A154E088316AA00ED
:101C340083124D088316A90083124C088316A8004A
:101C440083124B088316A7002A088312A300831665
:101C540029088312A200831628088312A100831680
:101C640027088312A0004430A7002F30A6000030BC
:101C7400A5000030A4000A168A1173200A128A15DE
:101C840003184D2E83162A08D0002908CF002808EF
:101C9400CE002708C02E4030CE004330CD00333074
:101CA400CC003330CB00C430BA002F30B900003040
:101CB400B8000030B70083162A088312BE008316CA
:101CC40029088312BD00831628088312BC008316DA
:101CD40027088312BB000A128A150A230A128A15DE
:101CE4003A08D2003908D1003808D0003708CF00AC
:101CF4000A128A1183230A128A154E088316A30036
:101D040083124D088316A20083124C088316A10087
:101D140083124B088316A0002A088312BA00831684
:101D240029088312B900831628088312B800831681
:101D340027088312B700831623088312BE00831674
:101D440022088312BD00831621088312BC00831667
:101D540020088312BB000A128A150A230A128A1564
:101D64003A088316D000831239088316CF008312F1
:101D740038088316CE00831237088316CD0044300A
:101D84008312A300FA30A2000030A1000030A000AA
:101D9400831650088312A70083164F088312A600E7
:101DA40083164E088312A50083164D088312A400DF
:101DB4000A168A1173200A128A150318080044307F
:101DC4008316D000FA30CF000030CE000030CD00B2
:101DD40008001F129F1224088312E500E50DE50D8B
:101DE4001F086506C33965069F000030A300003054
:101DF400A2000030A1000130A0000A168A152B258C
:101E04000A128A1500308316AA000030A900003097
:101E1400A8000030A7000130A5000030A600240867
:101E24000A168A152D270A128A153108BA003008B5
:101E3400B9002F08B8002E08B70083162A088312A9
:101E4400BE00831629088312BD0083162808831256
:101E5400BC00831627088312BB000A128A150A23C2
:101E64000A128A153A088316AA00831239088316BF
:101E7400A900831238088316A80083123708831632
:101E8400A7000A168A153A220A128A15013A03197A
:101E9400592F01308316A5070318A60A0030A60798
:101EA400003026020F3003192502031C112F0030C5
:101EB400831626020A3003192502031C08000F307A
:101EC40025062604031D702F2508FF3E8312A0005B
:101ED400831626080318013EFF3E752F250883123A
:101EE400A000831626088312A100A201A3010030DA
:101EF4000A168A1106210A128A152308B10022083B
:101F0400B0002108AF002008AE0083162A0883120F
:101F1400B500831629088312B40083162808831297
:101F2400B300831627088312B2000A128A156921A6
:101F34000A128A1531088316AA0083123008831600
:101F4400A90083122F088316A80083122E08831673
:101F5400A7003F308312CE000E30CD00EC30CC0011
:101F64007D30CB0083162A088312D20083162908F9
:101F74008312D100831628088312D0008316270801
:101F84008312CF000A128A1183230A128A154E087B
:101F94008316CC0083124D088316CB0083124C08A1
:101FA4008316CA0083124B088316C9004C08831297
:101FB400A30083164B088312A20083164A088312D7
:101FC400A100831649088312A0004130A700703095
:101FD400A6000030A5000030A4000A168A11732060
:101FE4000A128A150318080000308316CC0000304A
:101FF400CB000030CA000030C90008000330AA003A
:102004002A08AB002908AA002A08AC002808AA005C
:102014002A08AD000330AA002A08A400AB300A162F
:102024008A15F52408000030AC000030AB00003005
:10203400AA000030A9002308220421042004031963
:102044006A28AD01AD0AA31B35280130A80003108E
:10205400A00DA10DA20DA30DA80B29280130A800E5
:102064002808AD0725280130A8000310A90DAA0DE2
:10207400AB0DAC0DA80B372823082702031D4C28F1
:1020840022082602031D4C2821082502031D4C2882
:1020940020082402031C5D282008A4022108031C34
:1020A400210FA5022208031C220FA6022308031CE9
:1020B400230FA702291401300310A30CA20CA10CB6
:1020C400A00CFF3E031D5E280130AD02031D352820
:1020D4002C08A3002B08A2002A08A1002908A000AC
:1020E400080000302005A80000302105A900803038
:1020F4002205AA007F302305AB002B082A042904FB
:102104002804031D8D280030A3000030A2000030F5
:10211400A1000030A00000302405A80000302505EF
:10212400A90080302605AA007F302705AB002B08C4
:102134002A0429042804031DA7280030A70000301E
:10214400A6000030A5000030A400A31FCD28003055
:10215400A8000030A9000030AA008030AB0020089D
:10216400A8022108031C210FB828B928A9022208B3
:10217400031C220FBE28BF28AA022308031C230F16
:10218400C428C528AB022B08A3002A08A2002908EA
:10219400A1002808A000A71FF3280030A8000030E1
:1021A400A9000030AA008030AB002408A80225084A
:1021B400031C250FDE28DF28A9022608031C260F8E
:1021C400E428E528AA022708031C270FEA28EB289D
:1021D400AB022B08A7002A08A6002908A500280896
:1021E400A4008030A3068030A70627082302031D1D
:1021F400080026082202031D080025082102031DE9
:102204000800240820020800A8002808031DA31FB2
:102214001B292009AA002109AB002209AC002309CB
:10222400AD00AA0A0319AB0A0319AC0A0319AD0AD3
:1022340023292308AD002208AC002108AB002008A4
:10224400AA002308220421042004031D322900309B
:10225400A3000030A2000030A1000030A00008005C
:102264009630A4002408A900FE302D050319632923
:102274000130A4002408A90701300310AD0CAC0CF4
:10228400AB0CAA0CFF3E031D3F2936290130A400E4
:102294002408A9070130AA07003003180130AB074E
:1022A400003003180130AC07003003180130AD07CB
:1022B40001300310AD0CAC0CAB0CAA0CFF3E031D9B
:1022C4005B29FF302D05031977294829023029029B
:1022D400031C79290130A9020130A4000310AA0DBE
:1022E400AB0DAC0DAD0DA40B7029AC1F68292918DA
:1022F4008329FF30AA05FF30AB057F30AC05FF30E2
:10230400AD050310A90C2908A400A501A601A70185
:1023140018300310A40DA50DA60DA70DFF3E031D37
:102324008B292408AA042508AB042608AC04270832
:10233400AD042808031DA31FA029AD172D08A30071
:102344002C08A2002B08A1002A08A00008008B1862
:102354008B100C1C242AB1308F00F3308E000C102B
:102364008316E41FB729E41364000A30F80703183E
:10237400F90A0030F90703307902E83003197802CA
:10238400031CC629F801F90101307902F43003195C
:1023940078020318D129831203138617D4298312D0
:1023A4000313861383165B085C040319E2290A30BD
:1023B400DB020030031CDC03DC0283120617E42971
:1023C4008312061383165D085E040319F2290A308A
:1023D400DD020030031CDE03DE0283128616F429BC
:1023E400831286120A308316D3070318D40A0030E6
:1023F400D4070A30D9070318DA0A0030DA07E830BC
:102404005906033003195A06031D242AD901DA0197
:102414000130F0007008FD073C307D06031D242ABE
:10242400FD010130F0007008FA073C307A06031D04
:10243400242AFA010130F0007008FC0718307C06E9
:102444000319FC0183128C1E8B2A831664141E301C
:10245400F6000030F700D501D6011030F000700806
:10246400DF00760877040319662A831203138C1E8F
:102474005F2A1A08F00083165F0884007008831727
:1024840080005608803AFF0080307F02031D4C2AEA
:102494003330550203185A2A013083160313D50723
:1024A4000318D60A0030D6070130F0007008DF07A1
:1024B4001E30F6000030F700332A0130F6020030F7
:1024C400031CF703F702332A831603135F088400FF
:1024D400831780018312981C8B2A181218161A0865
:1024E400F000F1017008F6007108F7001A08F00016
:1024F400F1017008F6007108F7001A08F000F10104
:102504007008F6007108F70003179001831603138F
:10251400E41475088312FF0074088A0073088400A9
:10252400720E8300FE0E7E0E090083120313B100A7
:102534002D08031D080002302C02031DA92A0030B7
:102544002B02031DA92A00302A02031DA92A0318FD
:102554000800831203132D08031DBE2A01302C0228
:10256400031DBC2A00302B02031DBC2A00302A02A2
:10257400031DBC2A031CC52A083083120313AF00B1
:102584002F08B200C82A83120313B2013108AF0026
:102594002F08B3000310B30DA030AF002F08B3040D
:1025A4003208AF002F08B3040A168A15B4210A169C
:1025B4008A1183123308AF00B0012F08A30030083A
:1025C400A4000A168A158E210A168A112B08AF0058
:1025D400B0012F08A3003008A4000A168A158E2122
:1025E4000A168A112A08AF00B0012F08A300300888
:1025F400A4000A168A158E210A168A112E08840050
:10260400831700080319782B6400831203132D0821
:10261400031D080002302C02031D182B00302B026E
:10262400031D182B00302A02031D182B0318080061
:10263400831203132A08013E7F39031D562B2E08EB
:10264400840083170008AF00B0012F08A3003008EE
:10265400A4000A168A158E210A168A110A168A15EA
:1026640071210A168A1100308312A3000030A200DF
:102674000030A1000530A0000A168A1562250A164A
:102684008A110130AA07003003180130AB0700306B
:1026940003180130AC07003003180130AD070130D6
:1026A400AF002F08AE07AD2A2E0884008317000858
:1026B400AF00B0012F08A3003008A4000A168A1541
:1026C4008E210A168A110130AF002F08AE0701309F
:1026D400AA07003003180130AB070030031801309B
:1026E400AC07003003180130AD07002B0030A30005
:1026F400A4000A168A158E210A168A110A168A154A
:1027040071210A168A1100308312A3000030A2003E
:102714000030A1000530A0000A168A1562250800C1
:1027240083120313B40014308316DD000030DE007E
:1027340083122D08031D080002302C02031DAA2B4E
:1027440000302B02031DAA2B00302A02031DAA2BE2
:1027540003180800831203132D08031DBF2B013037
:102764002C02031DBD2B00302B02031DBD2B00309A
:102774002A02031DBD2B031CC62B0830831203132E
:10278400B1003108B500C92B83120313B501340815
:10279400B1003108B6000310B60DA030B100310805
:1027A400B6043508B1003108B6040A168A15B421F6
:1027B4000A168A1183123608B100B2013108A30047
:1027C4003208A4000A168A158E210A168A112B08CB
:1027D400B100B2013108A3003208A4000A168A1518
:1027E4008E210A168A112A08B100B2013108A30009
:1027F4003208A4000A168A158E210A168A11B3011A
:102804002E08FF3EB100FF3003180030B20032083A
:10281400803A803C031D102C310833020318E32C4A
:102824006400831203132D08031D080002302C02D8
:10283400031D242C00302B02031D242C00302A02FB
:10284400031D242C03180800831203132A08013ED5
:102854007F39031DB92C2F0884008317301C831380
:102864000008B100B2013108A3003208A4000A161E
:102874008A158E210A168A110A168A1571210A16DA
:102884008A1100308312A3000030A2000030A1009E
:102894000530A0000A168A1562250A168A1101302D
:1028A400AA07003003180130AB07003003180130C9
:1028B400AC07003003180130AD070130AF0703182F
:1028C400B00A0030B0072D08031D762C01302C020D
:1028D400031D742C00302B02031D742C00302A02BB
:1028E400031D742C031C7D2C083083120313B100C8
:1028F4003108B500802C83120313B5013408B100EC
:102904003108B6000310B60DA030B1003108B6048A
:102914003508B1003108B6040A168A15B4210A161E
:102924008A1183123608B100B2013108A3003208BB
:10293400A4000A168A158E210A168A112B08B100E2
:10294400B2013108A3003208A4000A168A158E21A8
:102954000A168A112A08B100B2013108A30032080C
:10296400A4000A168A158E210A168A11DE2C2F0855
:1029740084008317301C83130008B100B2013108AE
:10298400A3003208A4000A168A158E210A168A1199
:102994000130AF070318B00A0030B0070130AA07AE
:1029A400003003180130AB07003003180130AC07C6
:1029B400003003180130AD070130B1003108B3070E
:1029C400022C831203132F0884008317301C8313F3
:1029D4000008B100B2013108A3003208A4000A16AD
:1029E4008A158E210A168A110A168A1571210A1669
:1029F4008A1100308312A3000030A2000030A1002D
:102A04000530A0000A168A156225080083120313F4
:102A1400B100B2012C08031D080002302B02031D73
:102A24001B2D00302A02031D1B2D00302902031D1B
:102A34001B2D03180800831203132C08031D302DCB
:102A440001302B02031D2E2D00302A02031D2E2DD2
:102A540000302902031D2E2D031C372D083083124C
:102A64000313AE002E08B2003A2D83120313B201F1
:102A74003108AE002E08B3000310B30DA030AE0031
:102A84002E08B30433143208AE002E08B3040A1619
:102A94008A15B4210A168A1183123308FE39AE004E
:102AA400AF012E08A3002F08A4000A168A158E2150
:102AB4000A168A112A08AE00AF012E08A3002F08B7
:102AC400A4000A168A158E210A168A112908AE0056
:102AD400AF012E08A3002F08A4000A168A158E2120
:102AE4000A168A110A168A1599210A168A1183125E
:102AF4003308AE00AF012E08A3002F08A4000A1665
:102B04008A158E210A168A11B0012C08031D692E1C
:102B140002302B02031D962D00302A02031D962D30
:102B240000302902031D962D0318692E8312031306
:102B34002908013E7F39031D392E0030A300A4006B
:102B44000A168A15C0240A168A112308AE002D0815
:102B540084002E08831780000A168A1571210A162C
:102B64008A110D3083120313AF00FB30AE00AE0B9D
:102B7400B92DAF0BB92D013083120313A90700300F
:102B840003180130AA07003003180130AB070030E6
:102B940003180130AC070130AE002E08AD072C0835
:102BA400031DE22D01302B02031DE02D00302A020B
:102BB400031DE02D00302902031DE02D031CE92D27
:102BC400083083120313AE002E08B200EC2D8312DA
:102BD4000313B2013108AE002E08B3000310B30D85
:102BE400A030AE002E08B30433143208AE002E0811
:102BF400B3040A168A15B4210A168A1183123308FB
:102C0400FE39AE00AF012E08A3002F08A4000A1657
:102C14008A158E210A168A112A08AE00AF012E08E1
:102C2400A3002F08A4000A168A158E210A168A11F9
:102C34002908AE00AF012E08A3002F08A4000A162D
:102C44008A158E210A168A110A168A1599210A16DE
:102C54008A1183123308AE00AF012E08A3002F0897
:102C6400A4000A168A158E210A168A11602E0130D4
:102C7400A3000030A4000A168A15C0240A168A117B
:102C84002308AE002D0884002E08831780002D0829
:102C9400840000080319692E0130AE002E08AD0728
:102CA4000130A907003003180130AA0700300318C7
:102CB4000130AB07003003180130AC070130B00716
:102CC400FF303007AE0040302E02031C872D003049
:102CD40083120313A300A4000A168A15C0240A163B
:102CE4008A110A168A1571210A168A11B9308312BB
:102CF4000313AE007D2E7E2EAE0B7C2E812E08009B
:102D040083120313B200B30114308316DD000030C4
:102D1400DE0083122C08031D080002302B02031D61
:102D24009B2E00302A02031D9B2E00302902031D16
:102D34009B2E03180800831203132C08031DB02EC6
:102D440001302B02031DAE2E00302A02031DAE2ECD
:102D540000302902031DAE2E031CB72E0830831247
:102D64000313AF002F08B300BA2E83120313B30169
:102D74003208AF002F08B4000310B40DA030AF0028
:102D84002F08B40434143308AF002F08B4040A160F
:102D94008A15B4210A168A1183123408FE39AF0049
:102DA400B0012F08A3003008A4000A168A158E214A
:102DB4000A168A112A08AF00B0012F08A3003008B0
:102DC400A4000A168A158E210A168A112908AF0052
:102DD400B0012F08A3003008A4000A168A158E211A
:102DE4000A168A110A168A1599210A168A1183125B
:102DF4003408AF00B0012F08A3003008A4000A165D
:102E04008A158E210A168A11B1012D083102031880
:102E1400E72F6400831203132C08031DE72F0230ED
:102E24002B02031D1D2F00302A02031D1D2F00300D
:102E34002902031D1D2F0318E72F831203132908EA
:102E4400013E7F39031DBB2F0030A300A4000A16E6
:102E54008A15C0240A168A112308AF002E0884009C
:102E64002F08831780000A168A1571210A168A1101
:102E740083122E088400831700080A168A15A421D9
:102E84000A168A1101308312A90700300318013091
:102E9400AA07003003180130AB07003003180130D3
:102EA400AC072C08031D642F01302B02031D622F75
:102EB40000302A02031D622F00302902031D622FF5
:102EC400031C6B2F083083120313AF002F08B300C9
:102ED4006E2F83120313B3013208AF002F08B4001E
:102EE4000310B40DA030AF002F08B4043414330819
:102EF400AF002F08B4040A168A15B4210A168A11E1
:102F040083123408FE39AF00B0012F08A300300843
:102F1400A4000A168A158E210A168A112A08AF00FF
:102F2400B0012F08A3003008A4000A168A158E21C8
:102F34000A168A112908AF00B0012F08A30030082F
:102F4400A4000A168A158E210A168A110A168A15F1
:102F540099210A168A1183123408AF00B0012F0890
:102F6400A3003008A4000A168A158E210A168A11B5
:102F7400E22F0130A3000030A4000A168A15C024F1
:102F84000A168A112308AF002E0884002F0883171D
:102F940080002E08840000080A168A15A4210A1647
:102FA4008A1101308312A907003003180130AA07DF
:102FB400003003180130AB07003003180130AC07B0
:102FC4000130AF002F08B107072F0030831203131D
:102FD400A300A4000A168A15C0240A168A110A1628
:102FE4008A1571210A168A11B93083120313AF00AE
:102FF400FB2FFC2FAF0BFA2FFF2F0800FF1B0A2813
:1030040083137F1883170008840A0319FF0A080032
:1030140018308A000408840A82070034663466344F
:10302400A634BF341434AE342B34C13400344034A9
:103034001C34463466348634963443340034C03405
:103044007F3444340034003400340034C434FF3456
:103054007F343F348034EF34FF34BE349034E13471
:10306400A9343E34EC3482347634BE348234AD3404
:103074002B343E340E343C34C334BD348734D13421
:1030840013343D3441347834D334BB3400346034A5
:1030940078344534003440341C3446347634313486
:1030A4002E3430342E343334303400344F344B34F3
:0230B4000034E6
:1032D20064008001840A04060319003404066A2982
:1032E2000A168A15CC22003A8316031D11158B1774
:1032F200080049308312A1008030A2000A168A1504
:103302008D240800C030831203139F04803083167B
:103312009F009F1783121F1408000A168A15CC22D9
:103322000A168A15003A03190800230893000800B8
:103332000A168A15CC220A168A15003A03190800C1
:1033420083169114080083120313A000143083160D
:10335200DB000030DC00981CAC29831220089900A5
:103362008316981608008B1314308316DD00003084
:10337200DE000A168A15CC220A168A15003A0319AB
:103382000800831611140800A030A2002208A3002E
:10339200230A8400831300080A168A15A4210A1638
:1033A2008A1523088400831300080A168A15A421AB
:1033B200080083120313BC003A08AD003908AC00C0
:1033C2003808AB003708AA00AE01AE0A3B30AF00A6
:1033D2000030B0003C080A168A11922308002D081A
:1033E200A5002C08A4002E08A6000130A7002E0874
:1033F2000A168A1521220A168A152008013E83160A
:10340200AF002F08A8000A168A1594260800831216
:103412000313BB003908AD003808AC003708AB0015
:103422003608AA00AE01AE0A3C30BA003A08AF0034
:103432003B080A128A117826831203133C080800FB
:1034420083120313A4002408A2002208A300230865
:103452008400831700080319332A0130A2002208CE
:10346200A307282A24082302A000A101A01BA1036C
:103472000800641C4E2A83120317130883160313D1
:1034820061060319492A83120317130A031D4E2AE0
:1034920083120313A001A00A512A83120313A0016D
:1034A20020080800A401A50121082502031D5B2AAA
:1034B2002008240203180800033083120313A30018
:1034C2009730A200A20B632AA30B632A0130831256
:1034D2000313A4070318A50A0030A507552AA20062
:1034E2002208A1002108A300200884000A168A15D8
:1034F2000A200A168A15A1002308840021088317CE
:1035020080000008031908000130A1002108A30768
:103512000130A1002108A007752A8030CE0652088A
:10352200BA005108B9005008B8004F08B7004E0859
:10353200BE004D08BD004C08BC004B08BB000A127F
:103542008A150A233A08CE003908CD003808CC0083
:103552003708CB00080083120313A50025080A16BA
:103562008A15ED220A168A150313A4002408A60060
:103572000130A4002408A5072608A400230884001B
:103582002408831780000130A4002408A30726081A
:1035920003190800AF2AC8308312A0002008A20035
:1035A200DE2A0130A202033083120313A1009730F6
:1035B200A000A00BDA2AA10BDA2A8316031314192E
:1035C200E62A11081F390319EA2A83122208031D69
:1035D200D22A83122208080083120313A200143095
:1035E2008316DD000030DE0003178C18F52A8312E3
:1035F2000313220803178D0083168C130C144E300C
:1036020083120313A100EA30A000A00B062BA10B2A
:10361200062B0000831203170C080800A800A4015F
:10362200A5012008A200A3012208A6002308A700E2
:10363200281C212B2608A4070318A50A2708A5077A
:1036420001300310A60DA70DFF3E031D222B031010
:10365200A80C2808031D192B2508A1002408A00086
:10366200080083120313BC003908AD003808AC000F
:103672003708AB003608AA000230BA003A08AE009A
:103682003D30BB003B08AF003C080A128A11782685
:10369200831203133D08BA00BB013A08BB00BA010A
:1036A2003E083A07B6000030031801303B07B70066
:1036B200080083120313A100AA300A168A15A42156
:1036C2000A168A15BB300A168A15A4210A168A150B
:1036D20061080A168A15A4210A168A1500300A16EC
:1036E2008A15A4210A168A15031714080A168A15C0
:1036F200A4210A168A15831221080A168A15A42102
:1037020008000313A7002508A6002608A80024081D
:10371200A6002608A90023088312AD0083162208FA
:103722008312AC00831621088312AB008316200893
:103732008312AA0002308316A60026088312AE0066
:10374200A830AF000030B000831627080A168A118D
:103752009223080083120313A6002830A50025082F
:10376200A700AA0126080A168A15ED220A168A154A
:103772000313A50027088400250883138000013065
:10378200A5002508A6070130A5002508A7070130D6
:10379200A5002508AA0702302A02031CB32B290818
:1037A200A4002808A30008000A308312A0000030F9
:1037B200A100831629088312A30083162808831206
:1037C200A2000A168A15D6250A168A15210883161A
:1037D200A900831220088316A8000230AA002A0832
:1037E200AB002808AA002A08AC000230AA002A0866
:1037F200A400AB300A168A15F524080083120313BD
:10380200A700250884008317000803191F2C250828
:1038120084000008A6002608A00027080A168A15B8
:103822009A250A168A15013083120313A600260868
:10383200A7070130A6002608A507022C2508840048
:103842000008A6002608A00027080A168A159A254D
:103852000800283094008316910183122E08B200CA
:103862002F08B3003008B4003108B500023003104D
:10387200B20DB30DB40DB50DFF3E031D382C350846
:10388200A3003408A2003308A1003208A0000030CF
:10389200A7007A30A6001230A5000030A4000A1654
:1038A2008A1115202008FF3E831693009401871584
:1038B200071608008312AA002530A7002708A900CE
:1038C200AB012908840083130008A7002708A00081
:1038D2002A080A168A159A250A168A1501308312B1
:1038E2000313A7002708A9070130A7002708AA0782
:1038F2000130A7002708AB0702302B02031C622C01
:103902004E3083120313A800EA30A700A70B872CBE
:10391200A80B872C000008002108A3002208A4009D
:103922002408FF00230884000A168A1500200A16BC
:103932008A15003A0319B32C2408FF0023088400D7
:103942000A168A1500200A168A150A168A15A42153
:103952000A168A1501308312A3070318A40A00303D
:10396200A407912C2408FF00230884000A168A1554
:1039720000200A168A150A168A15A42108000A16BA
:103982008A15CC220A168A15003A8316031D911550
:103992000A168A15CC220A168A15003A0319D82C5F
:1039A2001308A500A6012508A7002608A8000A16E4
:1039B2008A15CC220A168A15003A0319F22C23081A
:1039C2002404031DE82C831603139116EB2C831693
:1039D20003139112111683122808A4002708A300CA
:1039E2000800A301A4010800A600A530A0005A30D7
:1039F200A1000A168A15C5210A168A152408013E55
:103A02000A168A15A4210A168A1580300A168A1502
:103A1200A4210A168A15A701240827020318222DB9
:103A220027082607A50025088400831300080A1624
:103A32008A15A4210A168A150130A5002508A707B0
:103A42000D2D01308312A0000030A1000A168A1544
:103A5200532208000030A9000030A8000030A7005F
:103A62000030A6002908803AFF002308803A7F022E
:103A7200031D452D22082802031D452D210827027A
:103A8200031D452D20082602031808000330831267
:103A92000313A5009730A400A40B4D2DA50B4D2DAB
:103AA200013083120313A607003003180130A70761
:103AB200003003180130A807003003180130A907AD
:103AC200332D0030A9000030A8000030A7000030DC
:103AD200A6002908803AFF002308803A7F02031DCE
:103AE2007C2D22082802031D7C2D21082702031D9C
:103AF2007C2D20082602031808006400033083127C
:103B02000313A5009730A400A40B852DA50B852DCA
:103B1200013083120313A607003003180130A707F0
:103B2200003003180130A807003003180130A9073C
:103B32006A2D83120313A30014308316DD000030B4
:103B4200DE0003178C18A22D8B1FAC2D83120313DA
:103B5200A401A40AAF2D83120313A401230803179F
:103B62008D000313200803178C0083168C130C1589
:103B72008B1355308D00AA308D008C1483120313E1
:103B82002403031DC62D8B17C72D8B138316031712
:103B92000C114E3083120313A200EA30A100A10BD4
:103BA200D02DA20BD02D00000800A501A6012008EF
:103BB200210403190D2EA701A70AA11BEC2D013028
:103BC2000310A00DA10DFF3E031DE12D0130A40045
:103BD2002408A707DE2D01300310A50DA60DFF3E18
:103BE200031DED2D21082302031DF92D20082202B9
:103BF200031C022E2008A2022108031CA303A30215
:103C0200251401300310A10CA00CFF3E031D032E4E
:103C12000130A702031DEC2D2608A1002508A000F3
:103C220008000313AC000030B0000030AF000030D9
:103C3200AE000030AD00831603133008A3002F0836
:103C4200A2002E08A1002D08A0002B08A5002A081A
:103C5200A4002C080A168A1582230A168A15640003
:103C6200023083160313AD07003003180130AE078C
:103C7200003003180130AF07003003180130B007DD
:103C82003008031D08002F08031D080004302E020F
:103C9200031D4F2E00302D02031D4F2E0318080066
:103CA2001C2E4B302106200422042304031D652E02
:103CB200831203139817181683161815181218135F
:103CC2000C3099000B17812EC23083120313210688
:103CD200031D822E220320042304031D822E103092
:103CE20083160313990003178715031318158312FC
:103CF2009817831618121813831218160B178316A7
:103D02008C168316031307178717831218121816B7
:103D1200A5011A080130A4002408A5070F302502C6
:103D2200031808008A2EA530A0005A30A1000A16F6
:103D32008A15C5210A168A152808033E0A168A150D
:103D4200A4210A168A1582300A168A15A4210A1697
:103D52008A152508A1002408A0000A168A15C52183
:103D62000A168A15AB0128082B020318CF2E2B083E
:103D72002607A90027080318013EAA002908840083
:103D820083172A1C831300080A168A15A4210A160F
:103D92008A150130A9002908AB07B42E013083121D
:103DA200A0000030A1000A168A15532208008312CF
:103DB200A400240884000317110883178000840AD2
:103DC2001008800012080313A0002408023E840099
:103DD20020088000031713080313A0002408033EE1
:103DE200840020088000031714080313A00024088D
:103DF200043E840020088000031715080313A00066
:103E02002408053E840020088000A201A3012408A2
:103E1200053E84002308803AA00080302002031D62
:103E2200142F000822020318080083120313220829
:103E3200163E840083170008A00022082407A10070
:103E42002108063E8400200880000130A2070318E2
:103E5200A30A0030A307082F8312B3003308B2006D
:103E6200B20DB20D1F083206C33932069F00003070
:103E7200A3000030A2000030A1000130A0000A1609
:103E82008A152B250A168A15B401B501B601B60AA0
:103E92000A128A11F6270A168A152008B40703188F
:103EA200B50A2108B5070130B2003208B60733302F
:103EB2003602031C492F3608FF3EA000FF300318CC
:103EC2000030A1003508A3003408A2000A168A15A2
:103ED200D6250A168A152108B5002008B400340830
:103EE200A0003508A100A201A30100300A168A1120
:103EF20006212308B1002208B0002108AF002008E3
:103F0200AE0008002D08A3002C08A2002B08A10077
:103F12002A08A0004C088312D20083164B08831291
:103F2200D10083164A088312D000831649088312EF
:103F3200CF004130CE002030CD000030CC00003028
:103F4200CB000A128A1183230A168A154E08E8004A
:103F52004D08E7004C08E6004B08E5000A128A15F6
:103F620002200A168A1566088316A50083126508C0
:103F72008316A40000300A168A1582230A168A15AF
:103F8200831603132D08A3002C08A2002B08A100FE
:103F92002A08A00050088312D20083164F08831209
:103FA200D10083164E088312D00083164D08831267
:103FB200CF004130CE002030CD000030CC000030A8
:103FC200CB000A128A1183230A168A154E08E800CA
:103FD2004D08E7004C08E6004B08E5000A128A1576
:103FE20002200A168A1566088316A5008312650840
:0E3FF2008316A40001300A168A1582230800E7
:04400E008C2FFF3FB5
:00000001FF
