:020000040000FA
:060000000A128A11122809
:10000800FE00030EF7000408F8000A08F90083123E
:1000180003137F08FA000A128A11CB2E0A128A11DA
:100028001528831603170130E100E200903083178A
:100038008400DE300A128A1508200A128A1110304C
:10004800840069300A128A150820F001F101F201D2
:10005800F301F401F501F60183010A128A11D32D87
:10006800D3220A128A11170883120313DC0083169D
:100078000317160883120313DB00831603171508EA
:1000880083120313DA00831603171408DD220A12F9
:100098008A118A200A128A11B5220A128A11182294
:1000A8000A128A1183162108AD002008AC0000301E
:1000B800F9210A128A1183160313D3220A128A110C
:1000C800130883120313DC00831603171208831224
:1000D8000313DB0083160317110883120313DA00D6
:1000E800831603171008DD220A128A118A200A12C1
:1000F8008A11B5220A128A1118220A128A11831645
:100108002108AD002008AC000130F9295808E100A9
:100118008030E1050310580DE300D71B6314630812
:1001280003199E28630F9C28D501D601D701D80151
:10013800D717A228D501D601D701D8015C08803984
:10014800E10603105C0DE200DB1B62146208031970
:10015800B528620FB328D901DA01DB01DC01DB170E
:10016800B928D901DA01DB01DC016208031D630843
:10017800031DC328D501D601D701D80108005508A9
:10018800A0005B08DE210A128A112108ED00200870
:10019800EC00E400E501E601E7016D08E800E9018B
:1001A800EA01EB015608A0005A08DE210A128A115A
:1001B800A6220A128A110318E9070318EA07031886
:1001C800EB075708A0005908DE210A128A11A62257
:1001D8000A128A11C5220A128A115608A000590863
:1001E800DE210A128A1172220A128A110318013EAC
:1001F800031DE7075508A0005A08DE210A128A11D4
:1002080072220A128A110318013E031DE7076608C5
:10021800E7006508E6006408E500E4015508A00069
:100228005908DE210A128A1172220A128A11031849
:10023800013E031DE7075608A0005B08DE210A12ED
:100248008A1121088C220A128A1195220A128A110F
:10025800E7220A128A115A08DE210A128A11210895
:100268008C220A128A1195220A128A11E7220A128E
:100278008A115B08DE210A128A1121088C220A12CF
:100288008A115F08E0005E08DF005D08DE00DD011E
:1002980095220A128A110318013E031DEB0767080D
:1002A800E8070130C5220A128A116308EC00ED0143
:1002B8006208EC070318ED0A8230EC07031CED0313
:1002C800EA1B74290310E80DE90DEA0DEB0DE71B95
:1002D8006814FF300310E40DE50DE60DE70D612904
:1002E800E201E71F89296408DD006508DE00660869
:1002F800DF007F306705E0005F045E045D040319DA
:10030800681887298929E201E20A620803199D29E8
:10031800E80A0319E90A0319EA0A0319EB0A6B1C2C
:100328009D296B0DEB0CEA0CE90CE80CEC0A03199F
:10033800ED0A6D08803AFF0080307F02031DA62970
:10034800FF306C02031CB1297F3083120313EB00CA
:100358008030EA00E901E801D329831203136D080C
:10036800803AFF0080307F02031DBC2901306C02F7
:100378000318C62983120313E801E901EA01EB0116
:10038800E101D329831203136C08E3007F30EA05E7
:100398000030EB016318EA170310630CEB006108E7
:1003A800EB046B08D8006A08D7006908D60068080B
:1003B800D5000800A700A301A4012008A500A601F4
:1003C800271CEC292508A3070318A40A2608A40754
:1003D8000310A50DA60D0310A70C2708031DE4297B
:1003E8002408A1002308A00008000313AE002D086C
:1003F800AF002C08B0002B088312A50083162A082A
:100408008312A400831629088312A30083162808E0
:100418008312A2000230A600AF30A700A8018316FD
:100428002E080A128A154F2E0310220D230D83124F
:10043800EF006F08031D262A8316A001A101A2015F
:10044800A301080083162008A4002108A50022089B
:10045800A6002308A7001F300310A70CA60CA50CA4
:10046800A40CFF3E031D302A24088312EE008316D5
:100478009630A217A3018312EF02EF1F522A6F08CA
:10048800803A973E031C202A03108316A30CA20C63
:10049800A10CA00C8312EF0F482A622A20306F02A9
:1004A8000318202A6F080319622A03108316A00D67
:1004B800A10DA20DA30D8312EF03562A6E0803198E
:1004C80008008316A009A109A209A309A00A031913
:1004D800A10A0319A20A0319A30A08002108ED00BA
:1004E8002008EC00DD006D08DE00DF01E0015D089A
:1004F800E4075E0803110318013E031DE5075F08C2
:1005080003110318013E031DE607600803110800E4
:10051800ED002008EC00DD006D08DE00DF01E001E1
:1005280008005D08E8075E0803110318013E031D73
:10053800E9075F0803110318013E031DEA07600875
:10054800031108002108ED002008EC00E407013041
:100558000318E5070318E6070318E7076D08E80717
:10056800013458088316A300831257088316A20083
:10057800831256088316A100831255088316A0001B
:1005880008000318E9070318EA070318EB076608C9
:10059800E7006508E6006408E500E401080034089F
:1005A800AB003308AA003208A9003108A8000317D5
:1005B800080083120313D9004130D8002030D70037
:1005C800D601D50108000318013E031DEB075708A3
:1005D800A0000800031728082904031DF42A292C61
:1005E8001F0883120313D000831603171E088312F3
:1005F8000313CF00831603171D0883120313CE00BD
:10060800831603171C0883120313CD007308D40044
:100618007208D3007108D2007008D1000A168A1136
:1006280038260A128A1184240A128A1162240A12AC
:100638008A11BB230A128A11031C2E2B8316031757
:10064800E201E20A2B2B83160317620BF32A0A1620
:100658008A11F0287C240A128A1162240A128A114B
:10066800BB230A128A110318272B7C240A128A1129
:1006780062240A128A11BB230A128A11031808007D
:1006880083160317E201F32A8316031726082704A3
:10069800031D4F2B2D2C3808831203138C240A16A4
:1006A8008A11A9240A128A110A168A118F270A1296
:1006B8008A11831603171B0883120313D4008316A9
:1006C80003171A0883120313D30083160317190894
:1006D80083120313D2008316031718088312031317
:1006E800D1000A168A1138260A128A1184240A129D
:1006F8008A11D50083160317130883120313DC002D
:1007080083160317120883120313DB0083160317DB
:10071800110883120313DA008316031710088312D3
:100728000313D900BB230A128A11031CA72B8316B3
:100738000317E101E10AA42B83160317610B4E2B63
:100748000A168A11072931240A128A11BB230A12B0
:100758008A110318A02B31240A128A11BB230A120A
:100768008A110318080083160317E1014E2B803005
:10077800DD01DE015705DF007F305805E0005F042A
:100788005E045D04031DCC2BD501D601D701D80129
:100798008030DD01DE015B05DF007F305C05E000B5
:1007A8005F045E045D04031DDD2BD901DA01DB0162
:1007B800DC01D81FFA2B8030DD01DE01DF01E0000B
:1007C8005508DD025608031C560FDE025708031CA5
:1007D800570FDF025808031C580FE0026008D800C2
:1007E8005F08D7005E08D6005D08D500DC1F172C0F
:1007F8008030DD01DE01DF01E0005908DD025A0822
:10080800031C5A0FDE025B08031C5B0FDF025C0847
:10081800031C5C0FE0026008DC005F08DB005E0878
:10082800DA005D08D9008030D806DC065C0858027A
:10083800031D08005B085702031D08005A085602EA
:10084800031D0800590855020800831203130710F6
:1008580008008312031387100800831603171B0868
:1008680083120313D800831603171A08831203137D
:10087800D70083160317190883120313D6008316AB
:100888000317180883120313D500831603171308D8
:1008980083120313DC008316031712088312031351
:1008A800DB0083160317110883120313DA0083167B
:1008B8000317100883120313D9000800D500831604
:1008C8000317170883120313DC008316031716088F
:1008D80083120313DB00831603171508831203130F
:1008E800DA0083160317140883120313D9000800CB
:1008F8007308D8007208D7007108D600700808007D
:100908005008D8004F08D7004E08D6004D080800F8
:10091800AB000130AC01AD01AE0108008312031336
:10092800A40024087E250A128A110313A500A40A2C
:1009380023088400250883178000A30A25080319C3
:100948000800952C00309F250A128A11BA250A162C
:100958008A11A9240A128A112E08F3002D08F20020
:100968002C08F1002B08F00041308316A30020303A
:10097800A200A101A0017308A7007208A6007108CF
:10098800A5007008A4000A168A1117250A128A11F0
:100998002308F3002208F2002108F1002008F000E3
:1009A80002307E250A128A118316BA0003307E258A
:1009B8000A128A118316B90004307E250313AB008E
:1009C8000030AC01AD01AE010A168A11A9240A1241
:1009D8008A112E08831603179F00831203132D080C
:1009E800831603179E00831203132C08831603171C
:1009F8009D00831203132B08831603179C000530F0
:100A08009F250A128A11240883160317A900831246
:100A18000313230883160317A80007309F250A121B
:100A28008A11BA250A168A11A9240A128A112E08CF
:100A3800831603179B00831203132D0883160317CD
:100A48009A00831203132C08831603179900831244
:100A580003132B0883160317980041300313A300D0
:100A68002030A200A101A00103171B080313A7004F
:100A780003171A080313A600031719080313A50080
:100A8800031718080313A4000A168A1117250A1257
:100A98008A11230803179B000313220803179A00DF
:100AA800031321080317990003132008031798005C
:100AB80009307E250A128A118316B7000A307E256E
:100AC8000A128A118316B6000B307E250A128A1183
:100AD8008316B8000C309F250A128A112408831641
:100AE8000317A70083120313230883160317A6000E
:100AF8000E307E2D83120313A200143083160317C1
:100B0800B000B1018C18862D831203132208031735
:100B18008D0083168C130C144E3083120313A1001E
:100B2800EA30A000A00B962DA10B962D0000831291
:100B380003170C08080083120313A6002830A70027
:100B4800AA012708840026087E250A128A11831321
:100B5800800003130230A60AA70AAA0A2A02031C65
:100B6800A52D2908A4002808A30008002308831637
:100B7800B900831224088316BA00BB01BC013C08E3
:100B88008312AE0083163B088312AD0083163A0821
:100B98008312AC00831639088312AB00003402308C
:100BA80083160317E0000430DF00B930DE00DE0BE7
:100BB800DB2DDF0BDB2DE00BDB2DE22D8316031382
:100BC8000F168F160F178312850186018701890179
:100BD800EF30831685000F308600F0308700FF3035
:100BE80089001130031788008901031381130F301E
:100BF800950083128617061786160330A301A201F3
:100C0800A100E830A0000A168A1506250A128A11E2
:100C18008316811281150114811401158B120B1290
:100C28008B170B17831210169016901083160C143E
:100C380001308312900064000A128A11F0270A1208
:100C48008A110130B001AF008630AE00A030AD008F
:100C58000A168A158C260A128A1183120130A301FA
:100C6800A200C230A100A0010A168A1533250A1273
:100C78008A1110300A128A119F250A128A11240833
:100C88008316EF00831223088316EE006E0F582E8A
:100C98006F0A031D582E83121030A501A6010A16EB
:100CA8008A1501270A128A1183160313EE0A0319FB
:100CB800EF0A6F088312A60083166E088312A50038
:100CC80010300A168A1501270A128A11831603178B
:100CD800AE01AF01AC01AD01B001B101BD01BC0174
:100CE800831203130710871005118511060983164F
:100CF8000317B4000F30B405B501B50A0A128A11FA
:100D0800A6240A128A117613F617831603170230DF
:100D1800B50A35060319B50135080A168A111220D5
:100D28000A128A11761FA32E0A128A11EE220A12BB
:100D38008A110A128A1148230A128A11A72E8312CD
:100D4800031307108710761C882E83120317500888
:100D58008316A500831251088316A400BB3AAA3053
:100D680003192506031D882E831253088316B30022
:100D780034060319C12E330F882E1430AC00AD0190
:100D88000A128A1545200A128A117610882E8B18A5
:100D98008B100C1C442FB1308F00F3308E000C10D8
:100DA800F61FD82EF61364000A3083160317AE0711
:100DB8000318AF0A03302F02E83003192E02031C70
:100DC800E72EAE01AF0101302F02F43003192E02D5
:100DD8000318F22E831203138617F52E83120313BA
:100DE8008613831603172C082D040319052F0A30C0
:100DF800AC020030031CAD03AD02831203130617C7
:100E0800082F8312031306138316031730083104BF
:100E18000319182F0A30B0020030031CB103B102C5
:100E28008312031386161B2F8312031386120A30AC
:100E380083160317A0070318A10AAA070318AB0A09
:100E4800E8302A06033003192B06031D442FAA0194
:100E5800AB01BD0A7508031DF5037408031DF403EF
:100E68003C303D06031D442FBD01BB0A3C303B0608
:100E7800031D442FBB01BC0A18303C060319BC01F2
:100E8800831203138C1E992F1E307614FB00FC016D
:100E980083160317A201A3015030B2007B087C041B
:100EA8000319812F831203138C1E7A2F83160317BD
:100EB80032088400831203131A08831780008316EC
:100EC80003172308803AFF0080307F02031D6E2F2E
:100ED800183022020318762F83160317A20A031963
:100EE800A30AB20A1E30FB00FC01522F0130FB029C
:100EF8000030031CFC03FC02522F83160317320830
:100F080084008317800183120313981C992F1812E9
:100F180018161A08FB00FC011A08FB00FC011A0845
:100F2800FB00FC010317D001F6147A080313FF0035
:100F380079088A0078088400770E8300FE0E7E0EFA
:100F4800090083120313A4008400031751088317B0
:100F58008000840A5008800003132408023E84009D
:100F680003175208800003132408033E8400031764
:100F78005308800003132408043E84000317540810
:100F8800800003132408053E8400031755088000D9
:100F98000313A201A3012408053E84002308803A14
:100FA800A00080302002031DDB2F00082202031856
:100FB8000800831203132208563E84008317000892
:100FC800A00022082407A100063E84002008800013
:100FD800A20A0319A30ACF2FC030831203139F0458
:0E0FE800803083169F009F1783121F1408008D
:1010100064008001840A04060319003404060928C8
:10102000A530A8005A30A9007F270A128A152F0878
:10103000033EDD230A128A158230DD230A128A1547
:101040002C08A9002B08A8007F270A128A15B201D4
:101050002F08320203183E2832082D07B0002E0850
:101060000318013EB100300884008317311C83133C
:101070000008DD230A128A15B20A28288312A0016B
:10108000A00AA1010A168A15FF2DCE300A128A1174
:10109000A5270A128A158316031755080313ED00B6
:1010A000031756080313EC00031757080313EB004C
:1010B000031758080313EA00432B0B30A1232D30EC
:1010C0008312A1008030A2000A168A15D92C0317BA
:1010D0005408031D792817080313E50003171608A1
:1010E0000313E400031715080313E30003171408A0
:1010F000862813080313E500031712080313E400FE
:10110000031711080313E300031710080313E20089
:1011100041308312D8002030D700D601D501831684
:1011200065088312DC00831664088312DB008316D3
:1011300063088312DA00831662088312D9000A1248
:101140008A118A200A128A1558088316E50083122C
:1011500057088316E400831256088316E3008312AF
:1011600055088316E2008B130230A1236508A30003
:101170006408A2006308A1006208A0000A128A1194
:1011800018220A128A1583162108A9002008A8002F
:101190007F278B170800031754080313BD00BE01F7
:1011A000BE00BD010317550803133D07B100003011
:1011B000031801303E07B200B301B21BB30333087A
:1011C000B4000A128A11342083160317AE01AF014E
:1011D000AA01AB01080003175408031DF128761378
:1011E0000800761708000230A1230A128A1503307E
:1011F000A800A9017F2F0330A1230A128A15A02776
:101200000A128A11A62C0317550883120313A00093
:101210008316031754080A168A153C270A128A15E2
:101220000330A1230A128A15A02F031754080A12AB
:101230008A117E250A128A1583160313E6000130EF
:10124000A1230A128A156608DD2B0317540803131D
:10125000DF00031755080313DE00031756080313B6
:10126000DD005E088312A60083165D088312A500C8
:1012700083165F080A168A1501270A128A15102993
:10128000031754080A128A119F250A128A15240886
:101290008316E100831223088316E0000230A123A5
:1012A0000A128A156108A9006008A8007F2FD530AE
:1012B0008312A5008316031754080A168A152427DB
:1012C0000A128A151029BE308312A3008316031751
:1012D00054080A128A1192240A128A151030A12386
:1012E0000A128A15EE270A168A15D92C6D08831260
:1012F000B20083166C088312B10083166B08831248
:10130000B00083166A088312AF00D930B300831689
:10131000031754080A168A155D240A128A15102923
:101320006D088312B40083166C088312B300831611
:101330006B088312B20083166A088312B100831609
:10134000031754080A168A1587240A128A15831669
:10135000E6000130A1230A128A156608DD2B031767
:1013600059080313E80003175A080313E7006D0830
:10137000AB006C08AA006B08A9006A08A8006808FE
:10138000AD006708AC00031754080A128A11F9214E
:101390000A128A1510296D088312B40083166C088E
:1013A0008312B30083166B088312B20083166A0897
:1013B0008312B1008316031754080A168A15A22453
:1013C0000A128A1532088316E100831231084C296B
:1013D000031759080313E9006D088312A700831649
:1013E0006C088312A60083166B088312A50083166F
:1013F0006A088312A400831669088312A8001030BB
:10140000A9000130AA008316031754086F250A1299
:101410008A15831603136908A12369088312A100A2
:101420001030A2010A168A15BD2C6D088312A50082
:1014300083166C088312A40083166B088312A30022
:1014400083166A088312A2008316031759088312B1
:101450000313A600DA30A7000130A8008316031793
:1014600054084F260A128A1510296D088312A50008
:1014700083166C088312A40083166B088312A300E2
:1014800083166A088312A200D930A60083160317B8
:101490005408EE230A128A1510296D088312A7003A
:1014A00083166C088312A60083166B088312A500AE
:1014B00083166A088312A400BE30A800831603179F
:1014C00054088A240A128A15BE308D270A128A15FA
:1014D00020086F290317550883120313AF008316E2
:1014E000031754080A168A156C250A128A15102942
:1014F00003173C08CF270A128A15BF30B2016527AF
:101500000A128A15831603173B08CF270A128A1579
:10151000C930B20165270A128A15831603173D08E0
:10152000CF270A128A15D330B20165273830A000C0
:10153000BE300A168A1572240A128A1583164008CC
:10154000031DAA2AD6270A128A15BD230A128A1554
:101550008316C101BF308312A000BE30A101BD239C
:101560000A128A15E3270A128A15BD230A128A1560
:1015700083164A08031DC42AD6270A128A15BD23DA
:101580000A128A158316CB01C9308312A000BE301F
:10159000A101BD230A128A15E3270A128A15BD2369
:1015A0000A128A1583165408031DDE2AD6270A124A
:1015B0008A15BD230A128A158316D501D3308312EA
:1015C000A000BE30A101BD230A128A15BE308D27AE
:1015D0000A128A152008A1230A128A15EE270A1674
:1015E0008A15D9240A128A150030DD2B03175408F6
:1015F000BC005508BB005608BD001029031754084D
:101600000313AF00B0010A168A15A7250A128A151E
:101610001029031754080313B000031755080313C8
:10162000AF000A168A15B1250A128A151029031768
:1016300054080313B400031755080313B300D6303E
:10164000B5000A168A154A240A128A1510290317AA
:101650005408031D362B5508031D322B8312031328
:10166000071010298312031307141029540B102993
:101670005508031D3F2B8312031387101029831273
:10168000031387141029031752080313BD00BE016A
:101690003E08003A03194D2BA02B3D08013A0319CF
:1016A000FB28033A0319CB28013A0319F3280B3A14
:1016B00003190329013A03191529033A03192529A6
:1016C000013A03194029073A03195729013A031926
:1016D00063291C3A03197629033A03199029013A20
:1016E0000319AF29073A0319CB29013A0319352AFF
:1016F000033A03194D2A013A0319152A0F3A03191F
:10170000E829013A03196A2A033A03196728043AB7
:101710000319F62A013A0319782A3F3A0319FE2AD7
:10172000013A0319092B053A0319172B023A031939
:10173000272B0C3A0319EB28013A03195D28A02B3B
:10174000080083120313A100AA30DD230A128A15B0
:10175000BB30DD230A128A1503173408DD230A1271
:101760008A150030DD230A128A1503175208DD237B
:101770000A128A1583122108DD2BA400A300230876
:10178000840000080319CA2BA30ABF2BA30AA00ACE
:101790000319A10A2108FF00200884000A168A15EF
:1017A00000200A128A15A200230884002208831749
:1017B0008000000803190800C62B83120313A00041
:1017C000143083160317AC00AD010313981CE52BEE
:1017D00083122008990083169816080083120313B9
:1017E000A9002508031D080002302402031DFE2B5A
:1017F00000302302031DFE2B0030220203180800D4
:101800002508031D0F2C01302402031D0D2C003070
:101810002302031D0D2C00302202031C122C083061
:10182000AA00132CAA012908AB00A0300310AB0DAD
:10183000AB042A08AB042C270A128A1583122B0842
:10184000A000A10126270A128A152308A000A101E1
:1018500026270A128A152208A000A10126270A12AB
:101860008A1526088400831700080319782C250898
:10187000031D080002302402031D442C0030230203
:10188000031D442C00302202031808002208013EE8
:101890007F39031D692CFA270A128A1526270A1296
:1018A0008A1534270A128A150D3083120313A800F3
:1018B000FB30A700A70B5A2CA80B5A2C831203133A
:1018C000A20A0319A30A0319A40A0319A50AA60A5E
:1018D000002CFA270A128A1526270A128A15A60A48
:1018E000A20A0319A30A0319A40A0319A50A312C91
:1018F000A001A10126270A128A1534270A128A1587
:10190000B93083120313A700852C862CA70B842CD7
:10191000892C080083120313AC00AD012708031DB6
:10192000080002302602031D9B2C00302502031DF7
:101930009B2C00302402031808002708031DAC2C40
:1019400001302602031DAA2C00302502031DAA2CFB
:1019500000302402031CAF2C0830AD00B02CAD01C8
:10196000BC270A128A152C270A128A15F4270A1294
:101970008A1526270A128A152508A000A101262704
:101980000A128A152408A000A10126270A128A1526
:1019900062270A128A1583122E08A000A1012627A9
:1019A0000A128A15AB012708031D5D2D023026029D
:1019B000031DE02C00302502031DE02C0030240222
:1019C00003185D2D2408013E7F39031D3E2D280894
:1019D0008400A001A10137270A128A152008831765
:1019E000800034270A128A150D3083120313AA00CF
:1019F000FB30A900A90BFA2CAA0BFA2C83120313B3
:101A0000A40A0319A50A0319A60A0319A70AA80A12
:101A10002708031D172D01302602031D152D003048
:101A20002502031D152D00302402031C1A2D083039
:101A3000AD001B2DAD01BC270A128A152C270A12F6
:101A40008A15F4270A128A1526270A128A152508EC
:101A5000A000A10126270A128A152408A000A101CE
:101A600026270A128A1562270A128A1583122E085F
:101A7000A000A10126270A128A15562D28088400E5
:101A8000A001A00AA10137270A128A15200883178E
:101A9000800028088400000803195D2DA80AA40A04
:101AA0000319A50A0319A60A0319A70A2B08AB0AEA
:101AB000A90040302902031CD32CA001A101372723
:101AC0000A128A1534270A128A15B93083120313B1
:101AD000A9006A2D6B2DA90B692D6E2D08008312AC
:101AE0000313AE002708031D080002302602031D61
:101AF0007F2D00302502031D7F2D003024020318A6
:101B000008002708031D902D01302602031D8E2D8D
:101B100000302502031D8E2D00302402031C932D5E
:101B20000830AF00942DAF01B2270A128A152C2776
:101B30000A128A15E8270A128A1526270A128A1518
:101B40002508A000A10126270A128A152408A00052
:101B5000A10126270A128A1562270A128A15831202
:101B60003008A000A10126270A128A15AD01280815
:101B70002D0203183D2E2708031D3D2E023026029C
:101B8000031DC82D00302502031DC82D003024027E
:101B900003183D2E2408013E7F39031D272EDC2724
:101BA0000A128A15A10137270A128A152008800017
:101BB00034270A128A150D3083120313AC00FB3050
:101BC000AB00AB0BE12DAC0BE12D83120313A40A88
:101BD0000319A50A0319A60A0319A70AA90A0319D2
:101BE000AA0A2708031D002E01302602031DFE2D20
:101BF00000302502031DFE2D00302402031C032E9D
:101C00000830AF00042EAF01B2270A128A152C2724
:101C10000A128A15E8270A128A1526270A128A1537
:101C20002508A000A10126270A128A152408A00071
:101C3000A10126270A128A1562270A128A15831221
:101C40003008A000A10126270A128A153B2EDC27A6
:101C50000A128A15A00AA10137270A128A1520083C
:101C60008000A90A0319AA0AA40A0319A50A0319DC
:101C7000A60A0319A70AAD0AB72DA001A1013727AB
:101C80000A128A1534270A128A15B93083120313EF
:101C9000AB004A2E4B2EAB0B492E4E2E0800831262
:101CA0000313AC002508031D080002302402031DA5
:101CB0005F2E00302302031D5F2E00302202031826
:101CC00008002508031D702E01302402031D6E2E0E
:101CD00000302302031D6E2E00302202031C732EDF
:101CE0000830AD00742EAD01C6270A128A152C27C4
:101CF0000A128A1583122E08A000A10126270A12B3
:101D00008A152308A000A10126270A128A15220895
:101D1000A000A10126270A128A15AB012608FF3E62
:101D2000A900FF3003180030AA00803A803C031D50
:101D30009B2E29082B020318112F83120313250849
:101D4000031D080002302402031DAC2E00302302C4
:101D5000031DAC2E00302202031808002208013EA9
:101D60007F39031DFF2EA9270A128A1526270A127A
:101D70008A1534270A128A150D3083120313AA001C
:101D8000FB30A900A90BC22EAA0BC22E831203138B
:101D9000A20A0319A30A0319A40A0319A50AA70A88
:101DA0000319A80A2508031DE12E01302402031D92
:101DB000DF2E00302302031DDF2E00302202031C21
:101DC000E42E0830AD00E52EAD01C6270A128A15B3
:101DD0002C270A128A1583122E08A000A10126279B
:101DE0000A128A152308A000A10126270A128A15C3
:101DF0002208A000A10126270A128A150F2FA92761
:101E00000A128A1526270A128A15A70A0319A80A90
:101E1000A20A0319A30A0319A40A0319A50AAB0A03
:101E20008E2E83120313A9270A128A1526270A1257
:101E30008A1534270A128A15B93083120313A900B0
:101E4000212F222FA90B202F252F0800F617592705
:101E50008312200893000800143083160317B00083
:101E6000B101592711140800592711150800F61758
:101E700059270A128A15911559270A128A158312B1
:101E80001308A200A30159270A128A1583122008F9
:101E90002104031D4F2F831603139116522F83160F
:101EA00003139112111683122308A1002208A00027
:101EB0000800831603131419592F11081F39031929
:101EC0000800592F592791140800B400B01F732F30
:101ED000340884002D3083138000B40AAF09B009A0
:101EE000AF0A0319B00A3008A8002F08A70032086B
:101EF000AA003108A90034080A168A15192EA8303C
:101F0000AA002A0A840083130008DD230A128A1516
:101F10002A08840083130008DD2B83120313A40016
:101F2000A30023088400831700080319992FA30A2C
:101F3000912F24082302A000A101A01BA1030800E7
:101F4000343083120313A1008030A2000A168A15D0
:101F5000D92C270884008317281C83130008A000AD
:101F6000A10108002E08B000A0300310B00DB0048D
:101F700030142F08B00408002C08AE00A030031065
:101F8000AE0DAE042E142D08AE0408002C08AE00D1
:101F9000A0300310AE0DAE042D08AE04080083126D
:101FA0000313AF000A30B001B100080037308312CC
:101FB000A0008030A100BE342908840083172A1CA9
:101FC0008313A00108003930A0008030A100BE3486
:101FD00083123008FE39A000A1010800BE30831230
:101FE000A1000130A200080083122E08FE39A000D3
:101FF000A1010800260884000008A000A101080033
:102024000313D400CF00CF0DCF0D83121F088316E6
:102034004F06C3394F0683129F000A30A000A10146
:10204400A201A301D4270A168A118316D501D60149
:10205400D701D801D901D90A37230A168A113C08B5
:10206400D3003B08D2003A08D1003908D000530805
:102074008312BC00831652088312BB0083165108D6
:102084008312BA00831650088312B90083165808C5
:102094008312C000831657088312BF0083165608A4
:1020A4008312BE00831655088312BD00C8210A1688
:1020B4008A113C088316D80083123B088316D70084
:1020C40083123A088316D600831239088316D50082
:1020D4005F270A168A11013A03199528761F8E285C
:1020E4007508031D802883160317620B80282803B4
:1020F4002904031D8028F0200A168A117408031D80
:102104008E2883160317610B8E2826032704031DCC
:102114008E2807210A168A11831603130F30D90A51
:102124005902031C2E280A3083165902031C080086
:102134000F305906031DAD285908FF3E8312AB002A
:10214400FF3003180030AC00AD01AC1BAD032D080B
:10215400AE000130B428590883120A128A118C2463
:102164000A168A11A9240A168A1175270A168A11D1
:102174005808A7005708A6005608A5005508A4004B
:1021840017250A168A112308D8002208D700210827
:10219400D6002008D5005408031DE028580803176A
:1021A40097000313570803179600031356080317E1
:1021B40095000313550803179400080058080317E3
:1021C40093000313570803179200031356080317C9
:1021D4009100031355080317900008007508031DA8
:1021E4000800831203130718FF28831603173A08FD
:1021F400F500831203130714080083160317390824
:10220400F50083120313071008007408031D080067
:102214008312031387181629831603173708F4004B
:102224008312031387140800831603173608F40077
:1022340083120313871008002508A7000130031038
:10224400A70DFF3E0310031D2229270D2407840038
:102254000A168A150A200A168A11A8000A168A156F
:102264000A200A168A11A9000A168A150A200A16D3
:102274008A11AA000A168A150A200A168A11AB00C6
:102284002B08AF002A08AE002908AD002808AC00CE
:10229400250826040319BF29FF30A507031CA6033C
:1022A4002508A70001300310A70DFF3E0310031DEE
:1022B4005629270D240784000A168A150A200A16AF
:1022C4008A11A8000A168A150A200A168A11A9007A
:1022D4000A168A150A200A168A11AA000A168A15ED
:1022E4000A200A168A11AB002B088312BC0083163D
:1022F4002A088312BB00831629088312BA008316A6
:1023040028088312B90083162F088312D800831675
:102314002E088312D70083162D088312D600831645
:102324002C088312D500831623088312DC0083163D
:1023340022088312DB00831621088312DA00831635
:1023440020088312D9000A128A118A200A168A11D7
:10235400A1270A168A11C8210A168A113C08831675
:10236400AF0083123B088316AE0083123A0883162B
:10237400AD0083123908831649292F08A3002E08BB
:10238400A2002D08A1002C08A00008003C08C900E8
:102394008030C90503103C0DCB00BB1B4B144B080C
:1023A4000319DC294B0FDA29B901BA01BB01BC01BD
:1023B400BB17DF29B901BA01BB01BC014008CA003F
:1023C4008030CA054A084906031D49170310400D09
:1023D400CA00BF1B4A144A080319F8294A0FF629F0
:1023E400BD01BE01BF01C001BF17FB29BD01BE0174
:1023F400BF01C0014B084A020318222A491F042ABC
:102404008030C9064B08CC004A08CB004C08CA00EF
:102414003908CC003D08B9004C08BD003A08CC008E
:102424003E08BA004C08BE003B08CC003F08BB0085
:102434004C08BF003C08CC004008BC004C08C0005D
:10244400CC014A08C100C2014208C4004B08410241
:10245400C300031CC4034408803AFF0080307F0299
:10246400031D362A1A304302031C572A831203130E
:102474003C083B043A0439040319422A0130432A34
:102484000030CC00B901BA01BB01BC014A08CB0041
:102494005D2A4C1C522A03104C0C0138CC00542ADF
:1024A4000310CC0CB3270A168A11831203134A08AB
:1024B4004B02031C4B2A491B862A4B08031D632A23
:1024C400C92F3D08B9073E0803110318013E031D37
:1024D400BA073F0803110318013E031DBB07400858
:1024E40003110318013E031DBC073C1C022B4C1CAA
:1024F400802A03104C0C0138CC00822A0310CC0C27
:10250400B3270A168A11022B3C08803AFF004008C0
:10251400803A7F02031D982A3F083B02031D982A34
:102524003E083A02031D982A3D0839020318D82AA6
:10253400FF30C100C200C300C4003D08C5003E080E
:10254400C6003F08C7004008C8003908C5023A0859
:10255400031C3A0FC6023B08031C3B0FC7023C088E
:10256400031C3C0FC8024508C10746080318460F60
:10257400C20747080318470FC30748080318480A47
:10258400C4074408BC004308BB004208BA00410821
:10259400B9008030C906CC09CC0FE62AB90A031960
:1025A400BA0A0319BB0A0319BC0AE62A3D08B90290
:1025B4003E08031C3E0FBA023F08031C3F0FBB0238
:1025C4004008031C400FBC023C083B043A04390495
:1025D400031D002B4C08031D002BC92F0310B90D3C
:1025E400BA0DBB0DBC0DCC1B39144C1CFB2A0314B7
:1025F400FC2A0310CC0D4B08031DCB03BB1FF02A90
:10260400CA01CC1F0D2B4C087F39031939180B2B29
:102614000D2BCA01CA0A4A080319202BB90A031947
:10262400BA0A0319BB0A0319BC0A3C1C202B3C0D33
:10263400BC0CBB0CBA0CB90C4B0FCB0A4B0A031DD8
:102644004B08031D2C2BB901BA01BB01BC014B087B
:102654000319C9014B1C302BBB17312BBB130310BF
:102664004B0CBC00C91BBC1708008730C2000F30DC
:10267400C300C901CA01C801C80A7E260A168A1104
:1026840020088316C9070318CA0A8312210883166F
:10269400CA073330C80A4802031C3F2B4808831278
:1026A400A000FF30A101A0070318A10AA107831607
:1026B4004A088312A300831649088312A2005426F1
:1026C4000A168A1121088316CA0083122008831669
:1026D400C90085270A168A11A9240A168A118F2788
:1026E4000A168A114430D4007F30D300C030D2009F
:1026F400D10138260A168A1150088316C70083129E
:102704004F088316C60083124E088316C500831231
:102714004D088316C40046308312D4001C30D30005
:102724004030D200D1018316490885270A168A1140
:10273400A9240A168A118F270A168A1138265008E6
:10274400D8004F08D7004E08D6004D08D500831690
:1027540047088312DC00831646088312DB008316C5
:1027640045088312DA00831644088312D9000A123A
:102774008A118A200A168A1158088316C700831200
:1027840057088316C600831256088316C5008312A1
:1027940055088316C4004708A3004608A20045084C
:1027A400A1004408A00046308312D8001C30D70092
:1027B4004030D600D5018316490885270A168A11A8
:1027C400A9240A168A11AA270A128A118A200A162B
:1027D4008A1158088316A700831257088316A60087
:1027E400831256088316A500831255088316A40085
:1027F40017250A168A1198270A168A114E08C1004D
:102804004D08C0004C08BF004B08BE004108B3008F
:102814004008B2003F08B1003E08B0008C260A16FA
:102824008A113308CE003208CD003108CC003008BC
:10283400CB0042088312AB00831643088312BC27E3
:102844000A168A11A9240A168A1175270A168A11EA
:102854004E08A7004D08A6004C08A5004B08A4008C
:1028640017250A168A1198270A168A113B308312F3
:10287400BC005B30BB00CF30BA000F30B900831608
:102884004E088312C00083164D088312BF008316BE
:102894004C088312BE0083164B088312BD00C82166
:1028A4000A168A113C088316CE0083123B0883164D
:1028B400CD0083123A088316CC008312390883169C
:1028C400CB004E08A3004D08A2004C08A1004B0801
:1028D400A0003F30A7008030A600A501A401172561
:1028E4000A168A1198270A168A1143308312D000D7
:1028F4008830CF009330CE003330CD0083164E089D
:102904008312D40083164D088312D30083164C0817
:102914008312D20083164B088312D1003826500844
:102924008316CE0083124F088316CD0083124E08FF
:102934008316CC0083124D088316CB004E08BC00CE
:102944004D08BB004C08BA004B08B9000800B3009E
:102954003308031DAE1FBE2C2B09B5002C09B6008D
:102964002D09B7002E09B800B50A0319B60A0319D0
:10297400B70A0319B80AC62C2E08B8002D08B700E8
:102984002C08B6002B08B5002E082D042C042B04AB
:10299400031DD12CAB01AC01AD01AE010800963092
:1029A400B400FE3038050319E72CB40ACE270A1602
:1029B4008A11D32CB40AB50A0319B60A0319B70A43
:1029C4000319B80ACE270A168A11FF3038050319ED
:1029D400F62CDC2C02303402031CF82CB403031054
:1029E400B50DB60DB70DB80DB71FEC2C341CB713CD
:1029F4000310B40C3408B200B101B001AF012F08C8
:102A0400B5043008B6043108B7043208B8043308F2
:102A1400031DAE1F0E2DB8173808AE003708AD00E1
:102A24003608AC003508AB0008002708B000803039
:102A3400B0050310270DB700A61B37143708031978
:102A44002C2D370F292DA401A501A601A701A61736
:102A5400A701302DA401A501A601A70123088039EF
:102A6400B0060310230DB800A21B3814380803194C
:102A7400442D380F412DA001A101A201A301A217E9
:102A8400A301482DA001A101A201A301230822044E
:102A940021042004031D612D8030A401A501A60199
:102AA400A701A6047F30A7043008A7042708A300C1
:102AB4002608A2002508A1002408A0000800370861
:102AC400031D692DA001A101A201A301080037087B
:102AD400B100B2013808B102031CB2037F30B10760
:102AE4000318B20A2708AF002608AE002508AD0077
:102AF4002408AC00A401A501A601A701B301B401F7
:102B0400B501B601B8011A3038020318BE2D3808D1
:102B140003199D2D0310AC0DAD0DAE0DAF0D0310BB
:102B2400A40DA50DA60DA70DB61B24140310B30DFB
:102B3400B40DB50DB60D23082F02031DAB2D2208CD
:102B44002E02031DAB2D21082D02031DAB2D2008E1
:102B54002C02031CBC2D36172008AC022108031CD0
:102B6400210FAD022208031C220FAE022308031C0E
:102B7400230FAF02B80A852D2F082E042D042C0430
:102B8400031D3314A61BD72D0310A40DA50DA60DEC
:102B9400A70DB61B2414FF300310B30DB40DB50DEF
:102BA400B60DB107031CB203C42DB801B61FED2D39
:102BB4003308A8003408A9003508AA007F30360578
:102BC400AB002B082A042904280403192418EB2D2C
:102BD400ED2DB801B80A38080319012EA40A031907
:102BE400A50A0319A60A0319A70A271C012E270DF3
:102BF400A70CA60CA50CA40CB10A0319B20A32083E
:102C0400803AFF0080307F02031D0A2EFF3031021C
:102C1400031C152EFF3083160313B100B201A40167
:102C2400A501A601A701831603133208803AFF0009
:102C340080307F02031D202E0130310203182B2E19
:102C440083160313B101B201A401A501A601A701D2
:102C5400B001831603133108B700371C332EA617AF
:102C6400342EA6130310370CA700562D8030D0063F
:102C74005408BC005308BB005208BA005108B900FC
:102C84005008C0004F08BF004E08BE004D08BD00EC
:102C9400C8213C08D0003B08CF003A08CE003908D0
:102CA400CD000800A501A601200821040319792EEE
:102CB400A401A40AA11B622E0310A00DA10D5B2E7A
:102CC4000310A50DA60D21082302031D6B2E200859
:102CD4002202031C752E2008A2022108031CA30350
:102CE400A30225140310A10CA00CA40B622E260829
:102CF400A1002508A000080083129F149F18802EAD
:102D04001E08A100A00183161E088312A007031841
:102D1400A10A080033088312D800831632088312EC
:102D2400D700831631088312D60083163008831225
:102D3400D500D901DA01DB01DC010A128A11BB23B7
:102D44000A168A110318A72EC32F83163308831279
:102D5400A300831632088312A2008316310883125B
:102D6400A1008316300883120A168A15FA270A1658
:102D74008A110A168A15C4270A168A11031CC32E3F
:102D8400C32FBF30BC008030BB004030BA01B90152
:102D9400D8006E30D701D601D501B00083163308B0
:102DA4008312AF00831632088312AE0083163108F3
:102DB4008312AD00831630088312AC000A168A15FC
:102DC4007D270A168A112F08DC002E08DB002D0847
:102DD400DA002C08D9000A128A118A200A168A11EC
:102DE400A1270A168A11C8210A168A113C088316DB
:102DF400B30083123B088316B20083123A08831689
:102E0400B100831239088316B000FF308312EE0735
:102E1400031CEF0383163308A3003208A200310811
:102E2400A1003008A0000130A4000830A500A601CC
:102E34001E210A168A112308B3002208B2002108B1
:102E4400B1002008B00033088312BC008316320896
:102E54008312BB00831631088312BA00831630082C
:102E64008312B9003F30D8003130D7007230D60019
:102E74001830D5006E08AB006F08BC270A168A11FB
:102E8400A9240A168A11AA270A128A118A200A1664
:102E94008A11A1270A168A11C8213C088316B30097
:102EA40083123B088316B20083123A088316B100DA
:102EB400831239088316B0000800761C702F831221
:102EC400031753088316340603196B2F8312530F09
:102ED400702F83120313A001A00A732F831203130C
:102EE400A001200808002E088316A30083122D08D1
:102EF4008316A20083122C088316A10083122B08C8
:102F04008316A00008008312AB0083164A088312BC
:102F1400AC000030AD01AE0108002E08D0002D0831
:102F2400CF002C08CE002B08CD0008002308CE00CB
:102F34002208CD002108CC002008CB000800580846
:102F4400C0005708BF005608BE005508BD00080061
:102F54002E08DC002D08DB002C08DA002B08D90031
:102F640008003918CC173C0DBC0CBB0CBA0CB90CBE
:102F7400CB0A0800AC000030AC1BFF30AD00AE0043
:102F840001348316B001B101B201B3010800B901E3
:102F9400BA01BB01BC0108000310B80CB70CB60C95
:102FA400B50C0800A601A701A801A9012908803AC7
:102FB400FF002308803A7F02031DEA2F220828021B
:102FC400031DEA2F21082702031DEA2F20082602E9
:102FD40003180800033083120313A5009730A400DC
:102FE400A40BF22FA50BF22F83120313A60A0319C5
:102FF400A70A0319A80A0319A90AD82FFF1B0A282C
:1030040083137F1883170008840A0319FF0A080032
:1030140018308A000408840A82070034003400341B
:1030240000340034C434FF347F343F348034EF340C
:10303400FF34BE349034E134A9343E34EC34823469
:103044007634BE348234AD342B343E340E343C34C6
:10305400C334BD348734D13413343D3441347834EB
:10306400D334BB34003460347834453400344034D1
:103074001C344634763431342E3430342E343534E2
:1030840000344F344B340034303400343A34003498
:103894003408AC003308AB003508AD000130AE008D
:1038A40035080A128A158D272008013E8316AF00B9
:1038B4000A128A15102883120313B4003208A500D3
:1038C4003108A4003008A3002F08A200A601A60A0C
:1038D4003308A7000130A80034080A128A154F2EB5
:1038E400A200A300200884000A168A150A200A16DA
:1038F4008A15A1002308840021088317800000088A
:1039040003190800A30AA00A742C83120313B50038
:103914003408A7003308A6003208A5003108A40023
:10392400A801A80A3608A900AA0135080A128A15AE
:103934006F258312031336088400831300080800DC
:1039440083120313B5003408A7003308A600320815
:10395400A5003108A4000230A8003630A900AA014D
:1039640035080A128A156F25831203133608B2002C
:103974003708B1000800A7002730A501A6002508D4
:10398400A300A40122082402031DCA2C2108230237
:103994000318080026088400831300080A128A15F5
:1039A400DD230A168A158312A60AA50AC12C21084A
:1039B400A3002208A4002408FF00230884000A1698
:1039C4008A1500200A168A15003A0319FC2C2408CB
:1039D400FF00230884000A168A1500200A168A1597
:1039E4000A128A15DD230A168A158312A30A0319FB
:1039F400A40ADD2C2408FF00230884000A168A1573
:103A040000200A128A15DD2BA601A701A801A9012D
:103A14002908803AFF002308803A7F02031D1C2DE9
:103A240022082802031D1C2D21082702031D1C2D1A
:103A340020082602031808006400033083120313CD
:103A4400A5009730A400A40B252DA50B252D8312CA
:103A54000313A60A0319A70A0319A80A0319A90A32
:103A64000A2D4B302106200422042304031D442D77
:103A74009817181683161815181218130C30990075
:103A84000B175D2DC2302106031D5E2D2203200479
:103A94002304031D5E2D1030831699000317871528
:103AA4000313181583129817831618121813831208
:103AB40018160B1783168C1683160717871783128D
:103AC40018121816A4011A080F30A40A24020318A5
:103AD4000800652D83120313B200B3013308103EAE
:103AE40084002F08831780008030B30A3302031C3C
:103AF400702DB401B5013508B1003408B0000730A9
:103B0400FF000310B00DB10DFF0B832D3008A20090
:103B14003108A3008030A401A501A6001030A7003D
:103B24000130A80032080A128A154F260A168A158F
:103B340083120313B40A0319B50A043035020030A2
:103B440003193402031808007D2D0330B100300836
:103B5400B2002F08B3000330AB00B130D12D0A30CE
:103B64008312A000A101831630088312A3008316D8
:103B74002F088312A2000A168A1154260A168A15DF
:103B840021088316B000831220088316AF00023088
:103B9400B1002F08B2000230AB00B130D12DAD001E
:103BA400A530A8005A30A9000A128A157F270A16E0
:103BB4008A152B08013E0A128A15DD230A168A1576
:103BC40080300A128A15DD230A168A15AE012B08E5
:103BD4002E020318FA2D2E082D07AC00840083133F
:103BE40000080A128A15DD230A168A15AE0AE92D81
:103BF4008312A001A00AA101FF2DA401A50121089F
:103C04002502031D072E2008240203180800033090
:103C140083120313A3009730A200A20B0F2EA30B51
:103C24000F2E83120313A40A0319A50A012EAE0052
:103C34002808AC002708AB002A08A1002908A00026
:103C44002C08A3002B08A2000A168A1154260A166F
:103C54008A152108AC002008AB00AE0A2C04031D11
:103C64001E2E2E08840083138001AE032A08A100AF
:103C74002908A0002808A3002708A2006826200815
:103C8400AD002A08A1002908A0002808A3002708DD
:103C9400A2000A168A1154260A168A152108A800B9
:103CA4002008A7000A302D02031C5A2E0730AD0746
:103CB4003030AD072E0884002D0883138000AE0336
:103CC40027082804031D382EAE0A08002008210402
:103CD4000319872EA401A40AA11B742E0310A00D9E
:103CE400A10D6D2E21082302031D7A2E2008220225
:103CF400031C832E2008A2022108031CA303A30291
:103D04000310A10CA00CA40B742E2308A1002208FC
:103D1400A0000800283094008316910183122D0816
:103D2400B1002E08B2002F08B3003008B4000230EE
:103D34000310B10DB20DB30DB40DFF3E031D9A2E49
:103D44003408A3003308A2003208A1003108A000FF
:103D54007A30A701A6001230A500A401B9262008D4
:103D6400FF3E831693009401871507160800A801E7
:103D7400A901AA01AB012308220421042004031988
:103D8400F82EAC01AC0AA31BCD2E0310A00DA10D7F
:103D9400A20DA30DC42E0310A80DA90DAA0DAB0DE1
:103DA40023082702031DE02E22082602031DE02E0D
:103DB40021082502031DE02E20082402031CF22EF4
:103DC4002008A4022108031C210FA5022208031CB9
:103DD400220FA6022308031C230FA7022814031092
:103DE400A30CA20CA10CA00CAC0BCD2E2B08A30091
:103DF4002A08A2002908A1002808A00008008312AC
:103E0400A9002530AA00AB012A0884008313000806
:103E1400A00029083C270A168A15831203130230CE
:103E2400AA0AA90AAB0A2B02031C062F4E308312DE
:103E34000313A800EA30A700A70B1E2FA80B1E2F00
:103E44000000080083120313A600250884008317CA
:103E540000080319382F77270A168A153C270A16F3
:103E64008A1583120313A60AA50A272F77270A1691
:103E74008A153C2F83120313A300143083160317EF
:103E8400B000B1018C18442F8B1F4D2F83120313E4
:103E9400A401A40A502F83120313A40123080317B7
:103EA4008D000313200803178C0083168C130C1544
:103EB4008B1355308D00AA308D008C14831203139C
:103EC4002403031D672F8B17682F8B138316031787
:103ED4000C114E3083120313A200EA30A100A10B8F
:103EE400712FA20B712F0000080025088400000820
:103EF400A000260808002F08A3002E08A2002D0801
:103F0400A1002C08FA270A168A15C4270A168A154E
:103F1400031C972F3008840083138001840A8001D6
:103F2400AC01AD01AE01AF0108002F087F39B1002B
:103F3400B2010310B10DB20D3008840031088313AF
:103F44008000840A320880002E0D2E0D0139B10044
:103F5400B2013008840031088004840A32088004E5
:103F64003008840082308007840F00080318000A98
:103F7400FF00FF3E800084032F0880393F38AF00E4
:103F8400AE1308008030A801A9012205AA007F30E1
:103F94002305AB002A0429042804031DD52FA001FE
:103FA400A101A201A3018030A801A9012605AA004C
:103FB4007F302705AB002A0429042804031DE62FBB
:103FC400A401A501A601A70127082306031DF42FB8
:103FD40026082206031DF42F25082106031DF42FAD
:103FE400240820060319F82F0310080003140800FE
:0C3FF400A000A401A501A601A70108007F
:04400E008CEFFFFF35
:00000001FF
