:020000040000FA
:060000000A128A11122809
:10000800FE00030EF2000408F3000A08F40083124D
:1000180003137F08F5000A168A11BB2C0A128A11ED
:100028001528F801F901FA01FB01FC01FD01831211
:100038000313E801E901EA01EB01EC018313A030A5
:100048008400D8300A168A15BC240A128A1183172C
:1000580090308400CA300A168A15BC240A128A1104
:100068001030840044300A168A15BC2483010A160D
:100078008A11A62D90300A168A11A1220A128A1115
:1000880083160317170883120313DF005F0883160C
:10009800E6000317180883120313DF005F088316AE
:1000A800E5000317190883120313DF005F0883169E
:1000B800E40003171A0883120313DF005F0883168E
:1000C800E300882B4130DF005F08A000B7300A1634
:1000D8008A15EB250A128A110B300A168A1517277A
:1000E8000A128A11B7308312A1000030A2000A1642
:1000F8008A15CD270800831603171608031D8D28B7
:1001080003132708E1002608E0002508DF0024087B
:10011800952803132308E1002208E0002108DF00E6
:100128002008DE0041308312AC002030AB000030E4
:10013800AA000030A900831661088312B000831654
:1001480060088312AF0083165F088312AE0083161F
:100158005E088312AD000A128A11DB230A128A1183
:100168002C088316E10083122B088316E000831203
:100178002A088316DF00831229088316DE008B13F2
:1001880002300A168A1517270A128A116108831283
:10019800C600831660088312C50083165F088312A1
:1001A800C40083165E088312C3000A168A11AD23A1
:1001B8000A128A114408CF004308CE000A168A158D
:1001C8004C258B1708008316031716088312031390
:1001D800DF005F088316E60003171708831203136E
:1001E800DF005F088316E50003171808831203135E
:1001F800DF005F088316E40003171908831203134E
:10020800DF005F088316E30066088312DB008316AD
:1002180065088312DA00831664088312D9008316EE
:1002280063088312D8000A168A114B23F801F901D2
:100238008316B001B101080002300A168A15172783
:100248000A128A1102308312CE000030CF000A163B
:100258008A154C2508008316031717088312031301
:10026800DF005F08A0008316031716080A168A1114
:1002780067210A128A1103300A168A1517270A12EB
:100288008A110A168A15CD24080083160317160842
:100298000A168A1588260A128A110313DF005F08D6
:1002A8008316E20001300A168A1517270A128A11E6
:1002B80062080A168A15012508008316031716080E
:1002C80083120313DF005F088316DA000317180888
:1002D80083120313DF00E001831603171708831244
:1002E8000313E100E2016108E200E1015F08610433
:1002F8008316D8008312600862048316D90059084F
:100308008312A600831658088312A50083165A087C
:100318000A168A159B270A128A113F298316031782
:1003280016080A168A1540270A128A112408831605
:10033800DD00831223088316DC0002300A168A15B2
:1003480017270A128A115D088312CF0083165C08EA
:100358008312CE000A168A154C2508009730DF0054
:100368005F08A5008316031716080A168A1160206D
:100378000A128A113F29B730DF005F08A3008316ED
:10038800031716080A168A1547260A128A112130F9
:100398007128831666088312BA00831665088312CB
:1003A800B900831664088312B800831663088312A1
:1003B800B700831603171B0883120313DF005F08B7
:1003C800BB008316031716080A168A1536250A1263
:1003D8008A113F29831666088312BA0083166508B6
:1003E8008312B900831664088312B8008316630861
:1003F8008312B7008316031716080A168A15622592
:100408000A128A11DF005F088316E20001300A161B
:100418008A1517270A128A1162080A168A150125F1
:100428000800831666088312D100831665088312B4
:10043800D000831664088312CF00831663088312E2
:10044800CE00831603171C0883120313DF00E00194
:10045800831603171B0883120313E100E2016108E6
:10046800E200E1015F086104D20060086204D30081
:100478008316031716080A168A1527260A128A11E0
:100488003F29831666088312BA008316650883120B
:10049800B900831664088312B800831663088312B0
:1004A800B7008316031716080A168A15EF260A12CC
:1004B8008A1138088316DD00831237089F298316AE
:1004C80003171B0883120313DF005F088316DB0082
:1004D80066088312AD00831665088312AC00831684
:1004E80064088312AB00831663088312AA0083167C
:1004F8005B088312DF005F08AE00B730E0006008D9
:10050800AF008316031716080A128A15C0220A12AA
:100518008A1105300A168A1517270A128A115B08EC
:100528008312DF005F08A100B7300A168A15CE25AE
:100538000800831666088312AD00831665088312C7
:10054800AC00831664088312AB0083166308831219
:10055800AA00831603171B0883120313DF005F0822
:10056800AE009C30AF000130B000831603171608A8
:100578000A168A1196260A128A113F2983166608D6
:100588008312AD00831665088312AC0083166408D5
:100598008312AB00831663088312AA009B30DF0026
:1005A8005F08AE008316031716080A128A15612021
:1005B8000A128A113F29831666088312AC00831633
:1005C80065088312AB00831664088312AA00831699
:1005D80063088312A900B730DF005F08AD008316F7
:1005E800031716080A128A1554210A128A11B730FD
:1005F80083120313A0000030A1000A168A1595255E
:100608000A128A112008013E712883160317170859
:1006180083120313DF00E0015F08D8006008D900E7
:100628008316031716080A168A111B220A128A1142
:100638003F2983160317160883120313DF00E0010E
:100648005F08D6006008D7000A128A11EB270A1241
:100658008A113F2983160317160883120313DF0034
:10066800E0015F08E000DF01831603171708831213
:1006780003135F07D6000030031801306007D70066
:100688000A168A15AA260A128A113F298316031701
:10069800160883120313DF00E0015F08E000DF01A2
:1006A800831603171708831203135F07DA00003055
:1006B800031801306007DB009830E1006108DC00B6
:1006C8000A168A157B250A128A113F2983160317F1
:1006D8001608031D7A2B1708031D762B83120313A4
:1006E80007103F298312031307143F291603031D1C
:1006F8003F291708031D842B8312031387103F29F2
:100708008312031387143F29031714088312031352
:10071800DF00E0016008003A0319932BDA2B5F0829
:10072800023A0319E728013A031920290B3A031959
:100738002F29013A03194929033A03196129013A72
:1007480003199229073A0319B229013A0319BF2953
:100758001C3A0319CD29033A0319EE29013A031962
:10076800152A073A0319452A013A0319C22A033AF6
:100778000319DF2A013A03199D2A0F3A0319632A3C
:10078800013A0319092B033A03197F28383A031948
:100798004A2B063A03192E2B013A03191D2B153A39
:1007A80003196A2B713A03196628DA2B08002C08FA
:1007B8008039B1003108B6002C08B1003107B20009
:1007C8003208BC00AB1B3C143C080319F82B3C0A4C
:1007D800031DF62B0030AC000030AB000030AA003F
:1007E8000030A900AB17002C0030AC000030AB0083
:1007F8000030AA000030A90030088039B100310863
:10080800B6063008B1003107B2003208B700AF1B96
:100818003714370803191D2C370A031D1B2C003009
:10082800B0000030AF000030AE000030AD00AF17B0
:10083800252C0030B0000030AF000030AE00003092
:10084800AD003708031D3C08031D332C0030AC00F5
:100858000030AB000030AA000030A90008002908C9
:10086800B1003108A0002F080A168A15CC260A12F2
:100878008A112108C2002008C1004108B100B20154
:10088800B301B4013408BB003308BA003208B90018
:100898003108B8004208B100B201B301B40134080C
:1008A800C0003308BF003208BE003108BD002A0866
:1008B800B1003108A0002E080A168A15CC260A12A3
:1008C8008A112108C2002008C1004108B100B20104
:1008D800B301B4013108B807320803110318013E07
:1008E800031DB907330803110318013E031DBA0796
:1008F800340803110318013E031DBB074208B10069
:10090800B201B301B4013108BD073208031103185D
:10091800013E031DBE07330803110318013E031DE2
:10092800BF07340803110318013E031DC0072B0835
:10093800B1003108A0002D080A168A15CC260A1223
:100948008A112108C2002008C1004108B100B20183
:10095800B301B4013108B807320803110318013E86
:10096800031DB907330803110318013E031DBA0715
:10097800340803110318013E031DBB074208B100E8
:10098800B201B301B4013108BD07320803110318DD
:10099800013E031DBE07330803110318013E031D62
:1009A800BF07340803110318013E031DC0070830B0
:1009B800B1000310B80DB90DBA0DBB0DB10BDD2C8C
:1009C8002A08B1003108A0002D080A168A15CC267D
:1009D8000A128A112108C2002008C1004108B1008A
:1009E8004208B200B301B4013108B8073208031154
:1009F8000318013E031DB907330803110318013E0C
:100A0800031DBA07340803110318013E031DBB0771
:100A18002908B1003108A0002E080A168A15CC262C
:100A28000A128A112108C2002008C1004108B10039
:100A38004208B200B301B4013108B8073208031103
:100A48000318013E031DB907330803110318013EBB
:100A5800031DBA07340803110318013E031DBB0721
:100A68000830B1000310B80DB90DBA0DBB0DB10BAC
:100A7800362D2908B1003108A0002D080A168A155C
:100A8800CC260A128A112108C2002008C100410898
:100A9800B1004208B200B301B4013108B807320806
:100AA80003110318013E031DB90733080311031886
:100AB800013E031DBA07340803110318013E031D44
:100AC800BB072A08B1003108A0002F080A168A15AA
:100AD800CC260A128A112108C2002008C100410848
:100AE800B1004208B200B301B4013108BD073208B1
:100AF80003110318013E031DBE0733080311031831
:100B0800013E031DBF07340803110318013E031DEE
:100B1800C0072B08B1003108A0002E080A168A1554
:100B2800CC260A128A112108C2002008C1004108F7
:100B3800B1004208B200B301B4013108BD07320860
:100B480003110318013E031DBE07330803110318E0
:100B5800013E031DBF07340803110318013E031D9E
:100B6800C0072B08B1003108A0002F080A168A1503
:100B7800CC260A128A112108C2002008C1004108A7
:100B8800B1004208B200B301B40108300310B10D3E
:100B9800B20DB30DB40DFF3E031DCA2D3108BD07BC
:100BA800320803110318013E031DBE073308031161
:100BB8000318013E031DBF07340803110318013E43
:100BC800031DC0073B08B100B201B301B4013108ED
:100BD800BD07320803110318013E031DBE07330881
:100BE80003110318013E031DBF073408031103183E
:100BF800013E031DC0070830B1000310B80DB90D40
:100C0800BA0DBB0DB10B012E3C083707B100B2017C
:100C1800B20D3108823EC10032080318013EFF3E82
:100C2800C200BF1B322E0130B1000310BD0DBE0D36
:100C3800BF0DC00DB10B192EBB1B3D140130B10007
:100C48000310B80DB90DBA0DBB0DB10B242EFF3032
:100C5800C1070318C20AFF30C207152EB701BB1F10
:100C68004B2EFF303805B100FF303905B200FF3098
:100C78003A05B3007F303B05B4003408330432042E
:100C8800310403193D18492E4B2EB701B70A37080E
:100C980003197D2E0130BD07003003180130BE074F
:100CA800003003180130BF07003003180130C007B7
:100CB800401C7D2E3D08B1003E08B2003F08B3003D
:100CC8004008B4000130B500340DB40CB30CB20CBC
:100CD800B10CB50B682E3408C0003308BF003208C9
:100CE800BE003108BD000130C1070318C20A003038
:100CF800C2074208803AFF0080307F02031D862E1B
:100D0800FF304102031C932E7F3083120313C0006F
:100D18008030BF000030BE000030BD00C32E8312FB
:100D280003134208803AFF0080307F02031D9E2E85
:100D3800013041020318AC2E003083120313C000A7
:100D48000030BF000030BE000030BD00B601C32E29
:100D5800831203134108B1003108BC00FF30BD0500
:100D6800FF30BE057F30BF050030C0053C18BF17F7
:100D78003C08B1000310310CB2003208C00036083C
:100D8800B1003108C0044008AC003F08AB003E0881
:100D9800AA003D08A9000800DB005B08D300D30DBA
:100DA800D30D1F085306C33953069F000030A30014
:100DB8000030A2000030A1000130A0000A168A11FC
:100DC800C0200A128A110030E0000030DF00003035
:100DD800DE000030DD00DC01DC0A5B080A168A113F
:100DE800F6220A128A113108BA003008B9002F0811
:100DF800B8002E08B7006008BE005F08BD005E0896
:100E0800BC005D08BB000A128A15D3250A128A1194
:100E18003A08E0003908DF003808DE003708DD004E
:100E28000A168A1522250A128A11013A0319242F53
:100E38000130D3005308DC070F305C02031CF12E8D
:100E48000A305C02031C08000F305C06031D392FB2
:100E58005C08FF3EA000FF3003180030A100A2018B
:100E6800A11BA2032208A300462F5C08D300D401CB
:100E7800D501D6015608A3005508A2005408A100C0
:100E88005308A00001300A168A1118240A128A1180
:100E98002308B1002208B0002108AF002008AE00E6
:100EA8006008B5005F08B4005E08B3005D08B200D2
:100EB8000A128A1532240A128A113108E000300811
:100EC800DF002F08DE002E08DD003B30DA00A030FE
:100ED800D9002830D8000A30D7005A08AC00590881
:100EE800AB005808AA005708A9006008B0005F08BE
:100EF800AF005E08AE005D08AD000A128A11DB2360
:100F08000A128A112C08E0002B08DF002A08DE00EC
:100F18002908DD004230AC002030AB000030AA00C8
:100F28000030A9006008B0005F08AF005E08AE009E
:100F38005D08AD000A128A11DB230A128A112C08F7
:100F4800E0002B08DF002A08DE002908DD00423017
:100F5800CE00DC30CD000030CC000030CB00600883
:100F6800D2005F08D1005E08D0005D08CF000A16E5
:100F78008A1509260A128A114E08E0004D08DF007A
:100F88004C08DE004B08DD005B08031DDB2F600802
:100F98008316A70083125F088316A60083125E08D3
:100FA8008316A50083125D088316A4000800600854
:100FB8008316A30083125F088316A20083125E08BB
:100FC8008316A10083125D088316A0000800033071
:100FD800D8005808D9005708D8005808DA00560829
:100FE800D8005808DB000330D8005808D200593020
:080FF8000A168A112F210800DE
:101006000030AC000030AB000030AA000030A90070
:10101600230822042104200403195828AD01AD0A2F
:10102600A31B23280130A8000310A00DA10DA20DBB
:10103600A30DA80B17280130A8002808AD07132810
:101046000130A8000310A90DAA0DAB0DAC0DA80B1D
:10105600252823082702031D3A2822082602031DF5
:101066003A2821082502031D3A2820082402031CD9
:101076004B282008A4022108031C210FA5022208E0
:10108600031C220FA6022308031C230FA702291400
:1010960001300310A30CA20CA10CA00CFF3E031DF3
:1010A6004C280130AD02031D23282C08A3002B0871
:1010B600A2002A08A1002908A00008008312031331
:1010C600B1002D08031D080002302C02031D7328F1
:1010D60000302B02031D732800302A02031D7328DB
:1010E600031808002D08031D862801302C02031D55
:1010F600842800302B02031D842800302A02031D99
:101106008428031C8B280830AF002F08B2008C28D7
:10111600B2013108AF002F08B3000310B30DA030A1
:10112600AF002F08B3043208AF002F08B3040A1625
:101136008A1511250A128A1583123308AF00B001E9
:101146002F08A3003008A4000A168A15EB240A12F9
:101156008A152B08AF00B0012F08A3003008A400A1
:101166000A168A15EB240A128A152A08AF00B0015E
:101176002F08A3003008A4000A168A15EB240A12C9
:101186008A152E0884008317000803193A2964007B
:10119600831203132D08031D080002302C02031DC1
:1011A600DC2800302B02031DDC2800302A02031D38
:1011B600DC28031808002A08013E7F39031D182978
:1011C6002E08840083170008AF00B0012F08A30083
:1011D6003008A4000A168A15EB240A128A150A1684
:1011E6008A15C4240A128A1500308312A30000301F
:1011F600A2000030A1000530A0000A168A11F720CF
:101206000A128A150130AA07003003180130AB070D
:10121600003003180130AC07003003180130AD0769
:101226000130AF002F08AE0775282E0884008317FB
:101236000008AF00B0012F08A3003008A4000A166A
:101246008A15EB240A128A150130AF002F08AE0763
:101256000130AA07003003180130AB07003003182D
:101266000130AC07003003180130AD07C428003048
:10127600A300A4000A168A15EB240A128A150A1678
:101286008A15C4240A128A1500308312A30000307E
:10129600A2000030A1000530A0000A168A11F7202E
:1012A600080083120313B100B2012C08031D0800C5
:1012B60002302B02031D672900302A02031D67290D
:1012C60000302902031D6729031808002C08031D96
:1012D6007A2901302B02031D782900302A02031DCA
:1012E600782900302902031D7829031C7F2908303C
:1012F600AE002E08B2008029B2013108AE002E08D9
:10130600B3000310B30DA030AE002E08B30433149F
:101316003208AE002E08B3040A168A1511250A12E1
:101326008A1583123308FE39AE00AF012E08A300DA
:101336002F08A4000A168A15EB240A128A152A0811
:10134600AE00AF012E08A3002F08A4000A168A15C6
:10135600EB240A128A152908AE00AF012E08A30055
:101366002F08A4000A168A15EB240A128A150A16F3
:101376008A15F6240A128A1583123308AE00AF01C5
:101386002E08A3002F08A4000A168A15EB240A12B9
:101396008A15B0012C08031DA92A02302B02031D51
:1013A600DC2900302A02031DDC2900302902031D36
:1013B600DC290318A92A2908013E7F39031D792A49
:1013C6000030A300A4000A168A118B200A128A157F
:1013D6002308AE002D0884002E08831380000A1609
:1013E6008A15C4240A128A150D3083120313AF001E
:1013F600FB30AE00AE0BFD29AF0BFD290130831289
:101406000313A907003003180130AA070030031898
:101416000130AB07003003180130AC070130AE00D5
:101426002E08AD072C08031D262A01302B02031DAA
:10143600242A00302A02031D242A00302902031D13
:10144600242A031C2B2A0830AE002E08B2002C2AB0
:10145600B2013108AE002E08B3000310B30DA03060
:10146600AE002E08B30433143208AE002E08B304BF
:101476000A168A1511250A128A1583123308FE39AF
:10148600AE00AF012E08A3002F08A4000A168A1585
:10149600EB240A128A152A08AE00AF012E08A30013
:1014A6002F08A4000A168A15EB240A128A152908A1
:1014B600AE00AF012E08A3002F08A4000A168A1555
:1014C600EB240A128A150A168A15F6240A128A15B8
:1014D60083123308AE00AF012E08A3002F08A40024
:1014E6000A168A15EB240A128A15A02A0130A300CF
:1014F6000030A4000A168A118B200A128A152308C6
:10150600AE002D0884002E08831380002D08840069
:1015160000080319A92A0130AE002E08AD070130D4
:10152600A907003003180130AA070030031801305C
:10153600AB07003003180130AC070130B007FF30AD
:101546003007AE0040302E02031CCD290030A30028
:10155600A4000A168A118B200A128A150A168A1501
:10156600C4240A128A15B93083120313AE00BB2AAB
:10157600BC2AAE0BBA2ABF2A080083120313B40092
:10158600B50114308316B4000030B50083122D085F
:10159600031D080002302C02031DD92A00302B023D
:1015A600031DD92A00302A02031DD92A0318080070
:1015B6002D08031DEC2A01302C02031DEA2A0030F7
:1015C6002B02031DEA2A00302A02031DEA2A031C05
:1015D600F12A0830B0003008B500F22AB501340807
:1015E600B0003008B6000310B60DA030B0003008C9
:1015F600B60436143508B0003008B6040A168A1543
:1016060011250A128A1583123608FE39B000B10177
:101616003008A3003108A4000A168A15EB240A1222
:101626008A152B08B000B1013008A3003108A400C8
:101636000A168A15EB240A128A152A08B000B10187
:101646003008A3003108A4000A168A15EB240A12F2
:101656008A150A168A15F6240A128A15831236087E
:10166600B000B1013008A3003108A4000A168A159B
:10167600EB240A128A15B3012E08330203181B2C19
:101686006400831203132D08031D1B2C02302C0249
:10169600031D552B00302B02031D552B00302A024B
:1016A600031D552B03181B2C2A08013E7F39031DE9
:1016B600F42B0030A300A4000A168A118B200A120C
:1016C6008A152308B0002F08840030088313800091
:1016D6000A168A15C4240A128A1500308312A3003A
:1016E6000030A2000030A1000530A0000A168A11C1
:1016F600F7200A128A150130AA07003003180130B4
:10170600AB07003003180130AC0700300318013076
:10171600AD070130B0003008AF072D08031DA12B1F
:1017260001302C02031D9F2B00302B02031D9F2B23
:1017360000302A02031D9F2B031CA62B0830B00085
:101746003008B500A72BB5013408B0003008B60044
:101756000310B60DA030B0003008B60436143508B4
:10176600B0003008B6040A168A1511250A128A1521
:1017760083123608FE39B000B1013008A3003108E3
:10178600A4000A168A15EB240A128A152B08B00043
:10179600B1013008A3003108A4000A168A15EB240B
:1017A6000A128A152A08B000B1013008A3003108D0
:1017B600A4000A168A15EB240A128A150A168A1537
:1017C600F6240A128A1583123608B000B1013008D1
:1017D600A3003108A4000A168A15EB240A128A15FA
:1017E600162C0130A3000030A4000A168A118B20A3
:1017F6000A128A152308B0002F08840030088313C4
:1018060080000130B0003008AF070130AA07003071
:1018160003180130AB07003003180130AC07003065
:1018260003180130AD070130B0003008B3073F2B75
:101836000030A300A4000A168A118B200A128A150A
:101846000A168A15C4240A128A15B930831203139C
:10185600B0002D2C2E2CB00B2C2C312C080035086A
:101866008039B6003608BF003508B6003607B7001F
:101876003708C600B41B461446080319502C460AFE
:10188600031D4D2C0030B5000030B4000030B3000D
:101896000030B200B417B501582C0030B500003046
:1018A600B4000030B3000030B20031088039B60011
:1018B6003608BF063108B6003607B7003708C70036
:1018C600B01B471447080319762C470A031D732CCF
:1018D6000030B1000030B0000030AF000030AE0084
:1018E600B017B1017E2C0030B1000030B0000030DE
:1018F600AF000030AE00310830042F042E04031D63
:101906009D2C0030B5000030B4000030B30000302C
:10191600B2008030B4047F30B5043F08B600360804
:10192600B5043508B1003408B0003308AF003208FA
:10193600AE0008004608031DA92C0030B100003097
:10194600B0000030AF000030AE0008004608B60018
:10195600B7013708B90047083602B800031CB903B7
:1019660038087F3EC00039080318013E003EC1001A
:101976003508BE003408BD003308BC003208BB0081
:101986000030B5000030B4000030B3000030B200C3
:101996000030C5000030C4000030C3000030C20073
:1019A600C7011A30470203181C2D47080319F82CE3
:1019B6000130B6000310BB0DBC0DBD0DBE0DB60B40
:1019C600DD2C0130B6000310B20DB30DB40DB50D0C
:1019D600B60BE62CC51B32140130B6000310C20D3F
:1019E600C30DC40DC50DB60BF12C31083E02031D07
:1019F600062D30083D02031D062D2F083C02031D4F
:101A0600062D2E083B02031C172D45172E08BB0278
:101A16002F08031C2F0FBC023008031C300FBD0219
:101A26003108031C310FBE020130B6003608C70765
:101A3600D42C3E083D043C043B04031D4214B41B55
:101A46003F2D0130B6000310B20DB30DB40DB50D28
:101A5600B60B262DC51B32140130B6000310C20D7D
:101A6600C30DC40DC50DB60B312DFF30C0070318CD
:101A7600C10AFF30C107222DC701C51F582DFF30EF
:101A86004205B600FF304305B700FF304405B800F5
:101A96007F304505B9003908380437043604031980
:101AA6003218562D582DC701C70A470803198A2D23
:101AB6000130B207003003180130B30700300318B5
:101AC6000130B407003003180130B507351C8A2DE4
:101AD6003208B6003308B7003408B8003508B90034
:101AE6000130BA00390DB90CB80CB70CB60CBA0BEC
:101AF600752D3908B5003808B4003708B300360824
:101B0600B2000130C0070318C10A0030C1074108FE
:101B1600803AFF0080307F02031D932DFF30400284
:101B2600031CA32DFF3083120313C0000030C10035
:101B36000030B5000030B4000030B3000030B20011
:101B4600831203134108803AFF0080307F02031D91
:101B5600AE2D013040020318BD2D83120313C001C0
:101B6600C1010030B5000030B4000030B3000030D1
:101B7600B200BF01831203134008B6003608C60040
:101B8600461CC72DB417CB2D7F30B6003608B405DA
:101B96004608B6000310360CB7003708B500902C7F
:101BA6003A088039BF003F08C7003A08BF003F0720
:101BB600C0004008C900B91B491449080319F12D92
:101BC600490A031DEE2D0030BA000030B90000307E
:101BD600B8000030B700B917BA01F92D0030BA00C5
:101BE6000030B9000030B8000030B7003E08803938
:101BF600BF003F08C80048084706031D47173E08B0
:101C0600BF003F07C0004008C800BD1B4814480875
:101C160003191B2E480A031D182E0030BE00003083
:101C2600BD000030BC000030BB00BD17BE01232E36
:101C36000030BE000030BD000030BC000030BB00EC
:101C4600490848020318692E471F2D2E8030BF0011
:101C56003F08C7064908BF003F08CA004808BF003A
:101C66003F08C9004A08BF003F08C8003708BF0040
:101C76003F08CA003B08BF003F08B7004A08BF003C
:101C86003F08BB003808BF003F08CA003C08BF0039
:101C96003F08B8004A08BF003F08BC003908BF002B
:101CA6003F08CA003D08BF003F08B9004A08BF0008
:101CB6003F08BD003A08BF003F08CA003E08BF0003
:101CC6003F08BA004A08BF003F08BE00CA014808DC
:101CD600BF00C0014008C20049083F02C100031C02
:101CE600C2034208803AFF0080307F02031D7D2E2A
:101CF6001A304102031CB62E831203133A08390424
:101D0600380437040319892E01308A2E0030BF00AB
:101D16003F08CA000030BA000030B9000030B800F1
:101D26000030B7004808BF003F08C900BC2E4A1C57
:101D3600A52E4A08BF0003103F0C0138C00040081A
:101D4600CA00A72E0310CA0C3718CA170130BF00E5
:101D56003A0DBA0CB90CB80CB70CBF0BAB2E013050
:101D6600BF003F08C9078312031348084902031C32
:101D76009A2E471BFD2E4908031DCA2E0030BA00B5
:101D86000030B9000030B8000030B70008003B084A
:101D9600B7073C0803110318013E031DB8073D08A9
:101DA60003110318013E031DB9073E08031103186A
:101DB600013E031DBA073A1C9F2F4A1CEB2E4A0808
:101DC600BF0003103F0C0138C0004008CA00ED2ECA
:101DD6000310CA0C3718CA170130BF003A0DBA0CE7
:101DE600B90CB80CB70CBF0BF12E0130BF003F0881
:101DF600C9079F2F3A08803AFF003E08803A7F02C3
:101E0600031D0F2F3D083902031D0F2F3C08380212
:101E1600031D0F2F3B0837020318672FFF30BF0043
:101E2600FF30C000FF30C100FF30C2003B08C300D6
:101E36003C08C4003D08C5003E08C6003708C3027A
:101E46003808031C380F282F292FC4023908031C11
:101E5600390F2E2F2F2FC5023A08031C3A0F342FA5
:101E6600352FC6024308BF0744080318440F3C2F0A
:101E76003D2FC00745080318450F422F432FC107C2
:101E860046080318460AC2074208BA004108B900C4
:101E96004008B8003F08B7008030BF003F08C706BB
:101EA600CA09CA0A4A08031D752F0130B707003050
:101EB60003180130B807003003180130B9070030A5
:101EC60003180130BA07752F3B08B7023C08031CFC
:101ED6003C0FB8023D08031C3D0FB9023E08031C27
:101EE6003E0FBA023A08390438043704031D9D2F01
:101EF6004A08031D9D2F0030BA000030B90000309B
:101F0600B8000030B70008000130BF000310B70D5D
:101F1600B80DB90DBA0DBF0B892FCA1B37144A1C51
:101F2600962F0314972F0310CA0D490803199D2FE6
:101F36000130C902B91F872FC801CA1FAA2F4A0834
:101F46007F3903193718A82FAA2FC801C80A4808CD
:101F56000319DD2F0130B707003003180130B80729
:101F6600003003180130B907003003180130BA07F2
:101F76003A1CDD2F3708BF003808C0003908C100F9
:101F86003A08C2000130C300420DC20CC10CC00C9D
:101F9600BF0CC30BC72F4208BA004108B90040085E
:101FA600B8003F08B700490A0319DD2F0130BF000A
:101FB6003F08C907490A031D4908031DED2F0030D4
:101FC600BA000030B9000030B8000030B700490848
:101FD6000319C701491CF12FB917F52F7F30BF0030
:101FE6003F08B9054908BF0003103F0CC000400870
:101FF600BA00C71F0800BA170800FF1B0A28831378
:102006007F1883170008840A0319FF0A0800103096
:102016008A000408840A8207003466346634A634CB
:10202600BF341434AE342B34C134003440341C3441
:10203600463466348634963443340034C0347F34B0
:1020460044340034003400340034C434FF347F3464
:102056003F348034EF34FF34BE349034E134A93455
:102066003E34EC3482347634BE348234AD342B3490
:102076003E340E343C34C334BD348734D134133447
:102086003D3441347834D334BB340034603478344E
:102096004534003440341C344634763431342E34DE
:1020A60030342E343134363400344F344B3400342B
:1020C00083120313A700250884008317000803194F
:1020D0008028250884000008A6002608A0002708FC
:1020E0000A168A1167210A168A1101308312031316
:1020F000A6002608A7070130A6002608A507632822
:10210000250884000008A6002608A00027080A1653
:102110008A11672108000A168A1567260A168A118D
:10212000003A8316031D91150A168A1567260A16AA
:102130008A11003A0319A3281308A500A60125084F
:10214000A7002608A8000A168A1567260A168A110B
:10215000003A0319BD2823082404031DB32883165D
:1021600003139116B62883160313911211168312C6
:102170002808A4002708A3000800A301A401080060
:102180000030A9000030A8000030A7000030A600F1
:102190002908803AFF002308803A7F02031DDA28CD
:1021A00022082802031DDA2821082702031DDA2845
:1021B0002008260203180800033083120313A50029
:1021C0009730A400A40BE228A50BE228013083126B
:1021D0000313A607003003180130A70700300318C7
:1021E0000130A807003003180130A907C8280030C3
:1021F000A9000030A8000030A7000030A600290880
:10220000803AFF002308803A7F02031D112922082B
:102210002802031D112921082702031D1129200866
:102220002602031808006400033083120313A5007C
:102230009730A400A40B1A29A50B1A290130831288
:102240000313A607003003180130A7070030031856
:102250000130A807003003180130A907FF28D40077
:10226000A530CE005A30CF000A168A154C250A1622
:102270008A1183125208013E0A168A1501250A1690
:102280008A1180300A168A1501250A168A118312CE
:10229000D5015208550203185F2955085407D30089
:1022A00053088400831300080A168A1501250A16AC
:1022B0008A1101308312D3005308D5074929013010
:1022C000A0000030A1000A168A15B125080083126B
:1022D0000313A30014308316B4000030B5000317B5
:1022E0008C186F298B1F792983120313A401A40A68
:1022F0007C2983120313A401230803178D00031301
:10230000200803178C0083168C130C158B13553083
:102310008D00AA308D008C14831203132403031D37
:1023200093298B1794298B13831603170C114E30A6
:1023300083120313A200EA30A100A10B9D29A20B76
:102340009D2900000800A501A60120082104031909
:10235000DA29A701A70AA11BB92901300310A00D92
:10236000A10DFF3E031DAE290130A4002408A707DC
:10237000AB2901300310A50DA60DFF3E031DBA29A0
:1023800021082302031DC62920082202031CCF298D
:102390002008A2022108031CA303A3022514013074
:1023A0000310A10CA00CFF3E031DD0290130A70291
:1023B000031DB9292608A1002508A00008004B30FC
:1023C0002106200422042304031DF029981718165F
:1023D00083161815181218130C3099000B17092AB8
:1023E000C2302106031D0A2A220320042304031DF0
:1023F0000A2A10308316990003178715031318153E
:1024000083129817831618121813831218160B17B5
:1024100083168C168316071787178312181218163F
:10242000A6011A080130A4002408A6070F302602CE
:1024300003180800112A83120313DA000030DE00AB
:102440000030DD000030DC000030DB005E08D10031
:102450005D08D0005C08CF005B08CE005908D300AF
:102460005808D2005A080A168A1527260A168A1111
:102470006400023083120313DB07003003180130BD
:10248000DC07003003180130DD070030031801308D
:10249000DE075E08031D08005D08031D0800043008
:1024A0005C02031D572A00305B02031D572A0318E4
:1024B0000800262AA530CE005A30CF000A168A1509
:1024C0004C250A168A1183125608033E0A168A15ED
:1024D00001250A168A1182300A168A1501250A1664
:1024E0008A1183125308CF005208CE000A168A15AB
:1024F0004C250A168A118312D9015608590203186D
:10250000992A59085407D70055080318013ED800E6
:10251000570884008317581C831300080A168A156D
:1025200001250A168A1101308312D7005708D907EE
:102530007D2A0130A0000030A1000A168A15B125BD
:1025400008008312A40024088400031711088317CD
:102550008000840A1008800012080313A0002408D9
:10256000023E840020088000031713080313A00014
:102570002408033E84002008800003171408031376
:10258000A0002408043E84002008800003171508DA
:102590000313A0002408053E840020088000A20147
:1025A000A3012408053E84002308803AA00080305F
:1025B0002002031DDD2A00082202031808008312EE
:1025C00003132208163E840083170008A000220887
:1025D0002407A1002108063E840020088000013065
:1025E000A2070318A30A0030A307D12AB3003308B7
:1025F000B200B20DB20D1F083206C33932069F0079
:102600000030A3000030A2000030A1000130A00083
:102610000A168A11C0200A168A11B401B501B60142
:10262000B60A0A168A15D6240A168A112008B40793
:102630000318B50A2108B5070130B2003208B60701
:1026400033303602031C112B3608FF3EA000FF304A
:1026500003180030A1003508A3003408A2000A16B0
:102660008A11A3210A168A112108B5002008B40096
:102670003408A0003508A100A201A30100300A1609
:102680008A1118242308B1002208B0002108AF00E5
:102690002008AE0008005B08D1005A08D000590895
:1026A000CF005808CE00831627088312B000831687
:1026B00026088312AF00831625088312AE00831606
:1026C00024088312AD004130AC002030AB00003054
:1026D000AA000030A9000A128A11DB230A168A1107
:1026E0002C08C6002B08C5002A08C4002908C3000E
:1026F0000A168A11AD230A168A114408D30043082A
:10270000D20000300A168A1527260A168A115B089D
:10271000D1005A08D0005908CF005808CE008316BF
:1027200023088312C600831622088312C50083166D
:1027300021088312C400831620088312C3000A16DE
:102740008A11AD230A168A114408D3004308D20027
:1027500001300A168A15272608000310450D460D7C
:10276000C7004708CD004D08031DBF2B0030C60031
:102770000030C5000030C4000030C300080043082A
:10278000C7004408C8004508C9004608CA001F30F1
:102790000310CA0CC90CC80CC70CFF3E031DC82B84
:1027A0004708CB004B08CC00C517FF30C305FF30EE
:1027B000C405FF30C5050030C6059630CD02CD1FDB
:1027C000F62B4D08803A973E031CB62B01300310C0
:1027D000C60CC50CC40CC30CFF3E031DE72B013017
:1027E000C7004708CD070319092CE62B20304D02FE
:1027F0000318B62B4D080319092C0130C70003102C
:10280000C30DC40DC50DC60DC70BFF2B0130CD0286
:10281000FA2B4C0803190800C309C409C509C609E5
:10282000C30A0319C40A0319C50A0319C60A080012
:10283000A8002808031DA31F2D2C2009AA00210988
:10284000AB002209AC002309AD00AA0A0319AB0AA8
:102850000319AC0A0319AD0A352C2308AD00220870
:10286000AC002108AB002008AA00230822042104A0
:102870002004031D442C0030A3000030A2000030CF
:10288000A1000030A00008009630A4002408A90090
:10289000FE302D050319752C0130A4002408A9076A
:1028A00001300310AD0CAC0CAB0CAA0CFF3E031DA9
:1028B000512C482C0130A4002408A9070130AA0794
:1028C000003003180130AB07003003180130AC07AB
:1028D000003003180130AD0701300310AD0CAC0C13
:1028E000AB0CAA0CFF3E031D6D2CFF302D05031908
:1028F000892C5A2C02302902031C8B2C0130A9028E
:102900000130A4000310AA0DAB0DAC0DAD0DA40B4E
:10291000822CAC1F7A2C2918952CFF30AA05FF3089
:10292000AB057F30AC05FF30AD050310A90C2908BD
:10293000A400A501A601A70118300310A40DA50D40
:10294000A60DA70DFF3E031D9D2C2408AA042508F3
:10295000AB042608AC042708AD042808031DA31FF8
:10296000B22CAD172D08A3002C08A2002B08A10043
:102970002A08A00008008B188B100C1C352DB130D4
:102980008F00F3308E000C10EC1FC82CEC13640089
:102990000A30F8070318F90A0030F9070330790202
:1029A000E83003197802031CD72CF801F901013033
:1029B0007902F430031978020318E22C831203130E
:1029C0008617E52C8312031386138316320833040B
:1029D0000319F32C0A30B2020030031CB303B30214
:1029E00083120617F52C8312061383163408350458
:1029F0000319032D0A30B4020030031CB503B502DD
:102A000083128616052D831286120A308316AA07B2
:102A10000318AB0A0030AB070A30B0070318B10A3D
:102A20000030B107E8303006033003193106031DCA
:102A3000352DB001B1010130F0007008FD073C30C8
:102A40007D06031D352DFD010130F0007008FA07E9
:102A50003C307A06031D352DFA010130F000700874
:102A6000FC0718307C060319FC0183128C1E9B2D79
:102A70006C141E30F6000030F7008316AC01AD0177
:102A80001030F0007008B600760877040319772D2F
:102A9000831203138C1E702D1A08F000831636085B
:102AA00084007008831780002D08803AFF00803072
:102AB0007F02031D5D2D33302C0203186B2D013076
:102AC00083160313AC070318AD0A0030AD070130BD
:102AD000F0007008B6071E30F6000030F700442DF5
:102AE0000130F6020030031CF703F702442D831671
:102AF000031336088400831780018312981C9B2DD2
:102B0000181218161A08F000F1017008F600710882
:102B1000F7001A08F000F1017008F6007108F700DC
:102B20001A08F000F1017008F6007108F7000317A9
:102B300090010313EC147508FF0074088A007308F1
:102B40008400720E8300FE0E7E0E09000230831296
:102B50000313E5000430E400B930E300E30BAE2DCD
:102B6000E40BAE2DE50BAE2DB52D831603130F161A
:102B70008F160F1783128501860187018901EF30B7
:102B8000831685000F308600F0308700FF30890003
:102B90001130031788008901031381130F3095004A
:102BA00083128617061786160030A3000030A20095
:102BB0000330A100E830A0000A168A11F7200A1697
:102BC0008A118316811281150114811401158B124B
:102BD0000B128B170B17831210169016901083167A
:102BE0000C1401308312900064000A168A15E02448
:102BF0000A168A110030B1000130B0008630AF00F3
:102C0000A030AE000A168A156A270A168A1100300B
:102C10008312A3000130A200C230A1000030A00046
:102C20000A168A11DF210A168A1110300A168A152F
:102C300040270A168A112408E7002308E600660ADE
:102C4000031D2E2E670A031D2E2E0030A500A600A0
:102C500010300A168A159B270A168A110130831232
:102C60000313E6070318E70A0030E7076708A60022
:102C70006608A50010300A168A159B270A168A11C5
:102C8000F801F90183160313B201B301B401B501D0
:102C9000FD01FC018312071087100511851106093B
:102CA0000F39E3006308E900EA01EA0AEB10831236
:102CB000EC170130E3006308EA0702306A060319E3
:102CC000EA016A080A128A11D0260A168A118312AA
:102CD0006C1C572E0317100883160313AF008312C2
:102CE0000317110883160313AE00BB302E06AA305B
:102CF00003192F06031D572E8312031713080313FE
:102D0000E3006308E80068086906031D680A031DFC
:102D1000572E14308316B2000030B3000A128A1105
:102D20003E200A168A1183126C10572E8312031349
:102D3000B40014308316B4000030B50083122D089F
:102D4000031D080002302C02031DAE2E00302B02A2
:102D5000031DAE2E00302A02031DAE2E03180800FC
:102D60002D08031DC12E01302C02031DBF2E003083
:102D70002B02031DBF2E00302A02031DBF2E031C91
:102D8000C62E0830B1003108B500C72EB501340891
:102D9000B1003108B6000310B60DA030B100310803
:102DA000B6043508B1003108B6040A168A15112593
:102DB0000A168A1183123608B100B2013108A30045
:102DC0003208A4000A168A15EB240A168A112B0869
:102DD000B100B2013108A3003208A4000A168A1516
:102DE000EB240A168A112A08B100B2013108A300A7
:102DF0003208A4000A168A15EB240A168A11B301B8
:102E00002E08FF3EB100FF3003180030B200320838
:102E1000803A803C031D0E2F310833020318DB2F4C
:102E20006400831203132D08031D080002302C02D6
:102E3000031D222F00302B02031D222F00302A02F7
:102E4000031D222F031808002A08013E7F39031DA5
:102E5000B12F2F0884008317301C83130008B100A2
:102E6000B2013108A3003208A4000A168A15EB2427
:102E70000A168A110A168A15C4240A168A11003005
:102E80008312A3000030A2000030A1000530A00092
:102E90000A168A11F7200A168A110130AA07003093
:102EA00003180130AB07003003180130AC070030C5
:102EB00003180130AD070130AF070318B00A003026
:102EC000B0072D08031D722F01302C02031D702F37
:102ED00000302B02031D702F00302A02031D702FBB
:102EE000031C772F0830B1003108B500782FB501E9
:102EF0003408B1003108B6000310B60DA030B1009F
:102F00003108B6043508B1003108B6040A168A152E
:102F100011250A168A1183123608B100B201310850
:102F2000A3003208A4000A168A15EB240A168A1197
:102F30002B08B100B2013108A3003208A4000A1620
:102F40008A15EB240A168A112A08B100B201310849
:102F5000A3003208A4000A168A15EB240A168A1167
:102F6000D62F2F0884008317301C83130008B1006C
:102F7000B2013108A3003208A4000A168A15EB2416
:102F80000A168A110130AF070318B00A0030B007E3
:102F90000130AA07003003180130AB0700300318D6
:102FA0000130AC07003003180130AD070130B1002B
:102FB0003108B307002F831203132F0884008317EF
:102FC000301C83130008B100B2013108A30032089D
:102FD000A4000A168A15EB240A168A110A168A1505
:102FE000C4240A168A1100308312A3000030A20004
:102FF0000030A1000530A0000A168A11F720080051
:1039780064008001840A0406031900340406BD2C7F
:103988000A168A156726003A8316031D11158B1728
:10399800080049308312A1008030A2000A168A1557
:1039A800CD2708009F149F18D72C1E08A100831646
:1039B8001E088312A0000800C030831203139F045E
:1039C800803083169F009F1783121F1408000A1661
:1039D8008A1567260A168A15003A0319080023086B
:1039E800930008000A168A1567260A168A15003AEF
:1039F8000319080083169114080083120313A0000A
:103A080014308316B2000030B300981C092D8312BD
:103A1800200899008316981608008B131430831613
:103A2800B4000030B5000A168A1567260A168A15EA
:103A3800003A031908008316111408006C1C322D73
:103A4800031713080313690603192E2D0317130A06
:103A5800031D322D0313A001A00A342D0313A00166
:103A68002008080083120313BC003A08AD00390887
:103A7800AC003808AB003708AA00AE01AE0A3B30EC
:103A8800AF000030B0003C080A168A1196260800DC
:103A98004E30D0005008D100510A8400831300082A
:103AA8000A168A1501250A168A15831251088400F8
:103AB800831300080A168A150125080083120313C8
:103AC800BC003A08AD003908AC003808AB0037082C
:103AD800AA00AE01AE0A3D30BB003B08AF003C086F
:103AE8000A128A15C022831203133D0808005B08D6
:103AF800D3005A08D2005C08D4000130D5005C0815
:103B0800A0000130A1000A168A1595250A168A1503
:103B18002008013EDD005D08D6000A168A115A22E7
:103B280008002008A2002108A300220884008317A7
:103B3800231C831300080319A82D0130A2070318BA
:103B4800A30A0030A307992D20082202A00021080B
:103B5800031C210A2302A1000800A401A5012108D1
:103B68002502031DB92D200824020318080003307C
:103B780083120313A3009730A200A20BC12DA30B3D
:103B8800C12D013083120313A4070318A50A0030BE
:103B9800A507B32DA300A4012308A2002208A500AD
:103BA800210824020318080025088400831300084C
:103BB8000A168A1501250A168A1501308312A200F1
:103BC8002208A5070130A2002208A407D42DA200CC
:103BD8002208A1002108A300200884000A168A11DF
:103BE8000A200A168A15A1002308840021088313D5
:103BF80080000008031908000130A1002108A3076C
:103C08000130A1002108A007F02D8030CE0652080F
:103C1800BA005108B9005008B8004F08B7004E085C
:103C2800BE004D08BD004C08BC004B08BB000A1282
:103C38008A15D3253A08CE003908CD003808CC00BB
:103C48003708CB00080083120313D5005308D400AB
:103C58005408D6005208D4005408D7005108AD00C3
:103C68005008AC004F08AB004E08AA000230D40040
:103C78005408AE005630AF000030B00055080A16A0
:103C88008A119626080083120313A50025080A1630
:103C98008A1588260A168A150313A4002408A60084
:103CA8000130A4002408A5072608A40023088400DE
:103CB8002408831380000130A4002408A3072608E1
:103CC800031908004A2EC8308312A0002008A20059
:103CD800792E0130A202033083120313A10097301A
:103CE800A000A00B752EA10B752E831603131419B3
:103CF800812E11081F390319852E83122208031DEE
:103D08006D2E83122208080083120313A2001430B8
:103D18008316B4000030B50003178C18902E831258
:103D28000313220803178D0083168C130C144E30CE
:103D380083120313A100EA30A000A00BA12EA10B4F
:103D4800A12E0000831203170C0808000A30A000F7
:103D58000030A1005708A3005608A2000A168A11CD
:103D6800A3210A168A152108D7002008D600023098
:103D7800D8005808D9005608D8005808DA00023088
:103D8800D8005808D20059300A168A112F21080085
:103D9800A800A401A5012008A200A3012208A600EA
:103DA8002308A700281CDE2E2608A4070318A50A46
:103DB8002708A50701300310A60DA70DFF3E031D18
:103DC800DF2E0310A80C2808031DD62E2508A100F5
:103DD8002408A000080083120313BD003A08AD00B0
:103DE8003908AC003808AB003708AA000230BB001D
:103DF8003B08AE003E30BC003C08AF003D080A124C
:103E08008A15C022831203133E08BB00BC013B087D
:103E1800BC00BB013F083B07B70000300318013066
:103E28003C07B800080083120313A100AA300A1641
:103E38008A1501250A168A15BB300A168A15012526
:103E48000A168A15831269080A168A1501250A16A0
:103E58008A1500300A168A1501250A168A150317CD
:103E680014080A168A1501250A168A1583122108CC
:103E78000A168A150125080083120313A6002830A4
:103E8800A5002508A700AA0126080A168A1588266B
:103E98000A168A150313A50027088400250883132A
:103EA80080000130A5002508A6070130A5002508D7
:103EB800A7070130A5002508AA0702302A02031C1B
:103EC800482F2908A4002808A300080028309400D7
:103ED8008316910183122E08B2002F08B300300810
:103EE800B4003108B50002300310B20DB30DB40DA3
:103EF800B50DFF3E031D782F3508A3003408A20036
:103F08003308A1003208A0000030A7007A30A600CC
:103F18001230A5000030A4000A128A1503202008D8
:103F2800FF3E831693009401871507160800831235
:103F3800AB002530A7002708AA00AC012A08840096
:103F480083130008A7002708A0002B080A168A1167
:103F580067210A168A15013083120313A700270860
:103F6800AA070130A7002708AB070130A7002708D8
:103F7800AC0702302C02031CA22F4E30831203130D
:103F8800A800EA30A700A70BC72FA80BC72F00006F
:103F980008002108A3002208A4002408FF00230821
:103FA80084000A168A1100200A168A15003A031995
:103FB800F32F2408FF00230884000A168A11002022
:103FC8000A168A150A168A1501250A168A15013055
:103FD8008312A3070318A40A0030A407D12F2408CA
:103FE800FF00230884000A168A1100200A168A1581
:083FF8000A168A1501250800D4
:04400E008CEFFFFF35
:00000001FF
