:020000040000FA
:060000000A128A11122809
:10000800FE00030EF7000408F8000A08F90083123E
:1000180003137F08FA000A168A15242F0A128A1178
:100028001528831603170130DF00E000903083178E
:100038008400DC300A128A1502200A128A11103054
:1000480084005A300A128A1502200313EE01EF01C8
:10005800F001F101F201F301F401F501F601830168
:100068000A128A11362E0313B300B401B501B60182
:10007800B7013708AB003608AA003508A9003408CC
:10008800A8003208AD003108AC003308CC200A12B1
:100098008A116400023083160313B4070130031871
:1000A800B5070318B6070318B7073708031D080074
:1000B8003608031D080004303502031D652800308A
:1000C8003402031808003D2840230A128A11170831
:1000D80083120313DC008316031716088312031315
:1000E800DB0083160317150883120313DA0083163F
:1000F8000317140836230A128A11EB200A128A11F0
:1001080009230A128A115A220A128A11831621080F
:10011800AD002008AC000030CC200A128A118316EA
:10012800031340230A128A11130883120313DC00F5
:1001380083160317120883120313DB0083160317B1
:10014800110883120313DA008316031710083623E5
:100158000A128A11EB200A128A1109230A128A113B
:100168005A220A128A1183162108AD002008AC0011
:100178000130CC200A128A11D7220A128A110030C3
:10018800CC200A128A11D7220A128A110130CC28EF
:100198000313AE002D08AF002C08B0002B08831203
:1001A800A50083162A088312A4008316290883123F
:1001B800A300831628088312A2000230A600AF30DD
:1001C800A700A80183162E080A128A15532E58086C
:1001D800E1008030E1050310580DE300D71B6314DC
:1001E80063080319FF28630FFD28D501D601D7013D
:1001F800D801D7170329D501D601D701D8015C0842
:100208008039E10603105C0DE200DB1B6214620812
:1002180003191629620F1429D901DA01DB01DC015F
:10022800DB171A29D901DA01DB01DC016208031D99
:100238006308031D2429D501D601D701D801080078
:100248005508A0005B083F220A128A112108ED0018
:100258002008EC00E400E501E601E7016D08E8008C
:10026800E901EA01EB015608A0005A083F220A12E8
:100278008A1119230A128A110318E9070318EA07D1
:100288000318EB075708A00059083F220A128A11E1
:1002980019230A128A1128230A128A115608A00063
:1002A80059083F220A128A11B4220A128A11031825
:1002B800013E031DE7075508A0005A083F220A120D
:1002C8008A11B4220A128A110318013E031DE70796
:1002D8006608E7006508E6006408E500E4015508DB
:1002E800A00059083F220A128A11B4220A128A1160
:1002F8000318013E031DE7075608A0005B083F22CC
:100308000A128A112108CE220A128A11F8220A1228
:100318008A114A230A128A115A083F220A128A119C
:100328002108CE220A128A11F8220A128A114A23B7
:100338000A128A115B083F220A128A112108CE226A
:100348000A128A115F08E0005E08DF005D08DE001F
:10035800DD01F8220A128A110318013E031DEB077A
:100368006708E807013028230A128A116308EC009D
:10037800ED016208EC070318ED0A8230EC07031C54
:10038800ED03EA1BD5290310E80DE90DEA0DEB0D85
:10039800E71B6814FF300310E40DE50DE60DE70DCB
:1003A800C229E201E71FEA296408DD006508DE00CA
:1003B8006608DF007F306705E0005F045E045D04C7
:1003C80003196818E829EA29E201E20A6208031910
:1003D800FE29E80A0319E90A0319EA0A0319EB0ACC
:1003E8006B1CFE296B0DEB0CEA0CE90CE80CEC0A13
:1003F8000319ED0A6D08803AFF0080307F02031D63
:10040800072AFF306C02031C122A7F308312031361
:10041800EB008030EA00E901E801342A8312031373
:100428006D08803AFF0080307F02031D1D2A0130CD
:100438006C020318272A83120313E801E901EA0171
:10044800EB01E101342A831203136C08E3007F30C7
:10045800EA050030EB016318EA170310630CEB00A0
:100468006108EB046B08D8006A08D7006908D60051
:100478006808D5000800A700A301A4012008A5006A
:10048800A601271C4D2A2508A3070318A40A260835
:10049800A4070310A50DA60D0310A70C2708031D1C
:1004A800452A2408A1002308A00008000310220DF3
:1004B800230D8312EF006F08031D682A8316A0011D
:1004C800A101A201A301080083162008A4002108A5
:1004D800A5002208A6002308A7001F300310A70CB8
:1004E800A60CA50CA40CFF3E031D722A2408831237
:1004F800EE0083169630A217A3018312EF02EF1FB6
:10050800942A6F08803A973E031C622A03108316C8
:10051800A30CA20CA10CA00C8312EF0F8A2AA42A08
:1005280020306F020318622A6F080319A42A0310E7
:100538008316A00DA10DA20DA30D8312EF03982A17
:100548006E08031908008316A009A109A209A309C6
:10055800A00A0319A10A0319A20A0319A30A080089
:100568002108ED002008EC00DD006D08DE00DF0149
:10057800E0015D08E4075E0803110318013E031D4E
:10058800E5075F0803110318013E031DE60760082D
:1005980003110800ED002008EC00DD006D08DE0006
:1005A800DF01E0010800023083160313B500B6012D
:1005B800B701B8013108B50732080318320FB6077A
:1005C80033080318330FB70734080318340AB80779
:1005D8003808AB003708AA003608A9003508A80073
:1005E800FF30AC00AD0008005D08E8075E080311A5
:1005F8000318013E031DE9075F0803110318013EB4
:10060800031DEA0760080311080058088316A300B1
:10061800831257088316A200831256088316A10076
:10062800831255088316A00008002108ED00200851
:10063800EC00E40701300318E5070318E607031880
:10064800E7076D08E80701340318E9070318EA0704
:100658000318EB076608E7006508E6006408E5008C
:10066800E401080083120313D9004130D800203078
:10067800D700D601D50108003408AB003308AA001A
:100688003208A9003108A800031708000318013E22
:10069800031DEB075708A0000800031728082904C2
:1006A800031D572B8C2C1F0883120313D0008316AD
:1006B80003171E0883120313CF00831603171D08A0
:1006C80083120313CE00831603171C088312031327
:1006D800CD007308D4007208D3007108D2007008E6
:1006E800D1000A168A1138260A128A11E7240A123A
:1006F8008A11C5240A128A111E240A128A11031C9F
:10070800912B83160317E001E00A8E2B831603173B
:10071800600B562B0A168A11EF28DF240A128A1159
:10072800C5240A128A111E240A128A1103188A2B58
:10073800DF240A128A11C5240A128A111E240A12F9
:100748008A110318080083160317E001562B831635
:10075800031726082704031DB22B902C3808831290
:100768000313EF240A168A11A9240A128A110A16F9
:100778008A1198270A128A11831603171B088312F5
:100788000313D400831603171A0883120313D30024
:1007980083160317190883120313D200831603174D
:1007A800180883120313D1000A168A1138260A1270
:1007B8008A11E7240A128A11D50083160317130831
:1007C80083120313DC008316031712088312031322
:1007D800DB0083160317110883120313DA0083164C
:1007E8000317100883120313D9001E240A128A1152
:1007F800031C0A2C83160317DF01DF0A072C831654
:1008080003175F0BB12B0A168A11062994240A12C2
:100818008A111E240A128A110318032C94240A121E
:100828008A111E240A128A11031808008316031756
:10083800DF01B12B8030DD01DE015705DF007F309D
:100848005805E0005F045E045D04031D2F2CD501EC
:10085800D601D701D8018030DD01DE015B05DF005C
:100868007F305C05E0005F045E045D04031D402CDE
:10087800D901DA01DB01DC01D81F5D2C8030DD01F4
:10088800DE01DF01E0005508DD025608031C560FA3
:10089800DE025708031C570FDF025808031C580FC5
:1008A800E0026008D8005F08D7005E08D6005D083F
:1008B800D500DC1F7A2C8030DD01DE01DF01E0008D
:1008C8005908DD025A08031C5A0FDE025B08031C94
:1008D8005B0FDF025C08031C5C0FE0026008DC00B1
:1008E8005F08DB005E08DA005D08D9008030D806B2
:1008F800DC065C085802031D08005B085702031D4C
:1009080008005A085602031D080059085502080035
:1009180083120313071008008312031387100800BB
:10092800831603171B0883120313D80083160317B3
:100938001A0883120313D7008316031719088312A2
:100948000313D60083160317180883120313D50060
:1009580083160317130883120313DC008316031787
:10096800120883120313DB0083160317110883127E
:100978000313DA0083160317100883120313D90030
:100988000800D50083160317170883120313DC0029
:1009980083160317160883120313DB008316031745
:1009A800150883120313DA00831603171408831239
:1009B8000313D90008007308D8007208D70071081B
:1009C800D600700808005008D8004F08D7004E0815
:1009D800D6004D080800AB000130AC01AD01AE01F6
:1009E800080083120313A4002408E1250A128A11BF
:1009F8000313A500A40A2308840025088317800090
:100A0800A30A250803190800F82C003002260A1248
:100A18008A111D260A168A11A9240A128A112E087B
:100A2800F3002D08F2002C08F1002B08F0004130EB
:100A38008316A3002030A200A101A0017308A7001B
:100A48007208A6007108A5007008A4000A168A1189
:100A580017250A128A112308F3002208F200210838
:100A6800F1002008F0000230E1250A128A118316ED
:100A7800BA000330E1250A128A118316B90004303E
:100A8800E1250313AB000030AC01AD01AE010A163D
:100A98008A11A9240A128A112E08831603179F00A7
:100AA800831203132D08831603179E008312031362
:100AB8002C08831603179D00831203132B08831633
:100AC80003179C00053002260A128A11240883168F
:100AD8000317A90083120313230883160317A8001A
:100AE800073002260A128A111D260A168A11A9241D
:100AF8000A128A112E08831603179B008312031308
:100B08002D08831603179A00831203132C088316E3
:100B180003179900831203132B08831603179800F1
:100B280041300313A3002030A200A101A001031744
:100B38001B080313A70003171A080313A6000317BB
:100B480019080313A500031718080313A4000A16AD
:100B58008A1117250A128A11230803179B00031309
:100B6800220803179A000313210803179900031397
:100B78002008031798000930E1250A128A11831604
:100B8800B7000A30E1250A128A118316B6000B3025
:100B9800E1250A128A118316B8000C3002260A12BF
:100BA8008A11240883160317A70083120313230846
:100BB80083160317A6000E30E12D83120313A2003B
:100BC800143083160317B000B1018C18E92D831275
:100BD8000313220803178D0083168C130C144E3050
:100BE80083120313A100EA30A000A00BF92DA10B7A
:100BF800F92D0000831203170C0808008312031351
:100C0800A6002830A700AA01270884002608E125A5
:100C18000A128A118313800003130230A60AA70A56
:100C2800AA0A2A02031C082E2908A4002808A300DF
:100C3800080023088316B900831224088316BA0013
:100C4800BB01BC013C088312AE0083163B0883122B
:100C5800AD0083163A088312AC0083163908831254
:100C6800AB000034023083160317DE000430DD00C9
:100C7800B930DC00DC0B3E2EDD0B3E2EDE0B3E2EAB
:100C8800452E831603130F168F160F17831285012F
:100C9800860187018901EF30831685000F308600B1
:100CA800F0308700FF308900113003178800890170
:100CB800031381130F3095008312861706178616C3
:100CC8000330A301A201A100E830A0000A168A158A
:100CD800B4240A128A118316811281150114811411
:100CE80001158B120B128B170B1783121016901607
:100CF800901083160C1401308312900064000A16B9
:100D08008A1105200A128A110130B001AF0086301D
:100D1800AE00A030AD000A168A1533260A128A11D1
:100D280083120130A301A200C230A100A0010A165B
:100D38008A1515250A128A1110300A128A110226FC
:100D48000A128A1124088316ED00831223088316D9
:100D5800EC006C0FBB2E6D0A031DBB2E83121030E6
:100D6800A501A6010A168A15A8260A128A11831651
:100D78000313EC0A0319ED0A6D088312A600831603
:100D88006C088312A50010300A168A15A8260A12C4
:100D98008A1183160317AE01AF01AC01AD01B00192
:100DA800B101F501F401831203130710871005112F
:100DB8008511060983160317B4000F30B405B50171
:100DC800B50A0A128A1109250A128A117613F6172A
:100DD800831603170230B50A35060319B50135081D
:100DE8000A168A1110200A128A11761F062F0A1273
:100DF8008A1151230A128A110A128A11AB230A1284
:100E08008A110A2F8312031307108710761CEB2E02
:100E18008312031710088316A5008312110883167E
:100E2800A400BB3AAA3003192506031DEB2E831232
:100E380013088316B30034060319242F330FEB2E3F
:100E48001430AC00AD010A128A153F200A128A112B
:100E58007610EB2E2F08A3002E08A2002D08A10063
:100E68002C08AB270A128A1175270A128A11031C4B
:100E7800482F3008840083138001840A8001AC0164
:100E8800AD01AE01AF0108002F087F39B100B201F2
:100E98000310B10DB20D30088400310883138000AF
:100EA800840A320880002E0D2E0D0139B100B201DE
:100EB8003008840031088004840A3208800430082D
:100EC800840082308007840F00080318000AFF009E
:100ED800FF3E800084032F0880393F38AF00AE13EF
:100EE80008008030A801A9012205AA007F30230547
:100EF800AB002A0429042804031D862FA001A101A0
:100F0800A201A3018030A801A9012605AA007F300B
:100F18002705AB002A0429042804031D972FA401E0
:100F2800A501A601A70127082306031DA52F26084A
:100F38002206031DA52F25082106031DA52F240819
:100F480020060319A92F0310080003140800A000A5
:100F5800A401A501A601A701080083120313A40098
:100F680084000317110883178000840A1008800082
:100F780003132408023E8400031712088000031399
:100F88002408033E84000317130880000313240871
:100F9800043E840003171408800003132408053E48
:100FA80084000317150880000313A201A301240875
:100FB800053E84002308803AA00080302002031DEB
:100FC800E72F0008220203180800831203132208DF
:100FD800163E840083170008A00022082407A100F9
:100FE800063E840020088000A20A0319A30ADB2F0A
:1010040064008001840A04060319003404060328DA
:10101400A530A8005A30A90087270A128A152F087C
:10102400033EDD230A128A158230DD230A128A1553
:101034002C08A9002B08A80087270A128A15B201D8
:101044002F0832020318382832082D07B0002E0862
:101054000318013EB100300884008317311C831348
:101064000008DD230A128A15B20A22288312A0017D
:10107400A00AA1010A168A15A62DCC300A128A11DB
:10108400B1270A128A158316031753080313EB00BA
:10109400031754080313EA00031755080313E90060
:1010A400031756080313E800432B0B30A1232D30FC
:1010B4008312A1008030A2000A168A15E82C0317B7
:1010C4005208031D732817080313E50003171608B5
:1010D4000313E400031715080313E30003171408AC
:1010E400802813080313E500031712080313E40010
:1010F400031711080313E300031710080313E20096
:1011040041308312D8002030D700D601D501831690
:1011140065088312DC00831664088312DB008316DF
:1011240063088312DA00831662088312D9000A1254
:101134008A11EB200A128A1558088316E5008312D7
:1011440057088316E400831256088316E3008312BB
:1011540055088316E2008B130230A1236508A3000F
:101164006408A2006308A1006208A0000A128A11A0
:101174005A220A128A1583162108A9002008A800F9
:1011840087278B170800031752080313EB00031774
:1011940053080313EA00031754080313E900031761
:1011A40055080313E8006B08B4006A08B300690823
:1011B400B2006808B1000A128A1168208316031766
:1011C400AE01AF01AA01AB01080003175208031DC9
:1011D400ED2876130800761708000230A1230A12BE
:1011E4008A150330A800A901872F0330A1230A160A
:1011F4008A15E1240A128A150A128A11092D031785
:10120400530883120313A0008316031752080A1607
:101214008A15E3260A128A150330A1230A168A15B1
:10122400E12C031752080A128A11E1250A128A15C1
:1012340083160313E6000130A1230A128A156608F7
:10124400DD2B031752080313DF000317530803139E
:10125400DE00031754080313DD005E088312A600A2
:1012640083165D088312A50083165F080A168A1583
:10127400A8260A128A150E29031752080A128A117F
:1012840002260A128A1524088316E1008312230811
:101294008316E0000230A1230A128A156108A9000E
:1012A4006008A800872FD3308312A5008316031784
:1012B40052080A168A15CB260A128A150E29BC3042
:1012C4008312A3008316031752080A128A11F52405
:1012D4000A128A151030A1230A128A15F4270A1655
:1012E4008A15E82C6B088312B20083166A088312ED
:1012F400B100831669088312B0008316680883124C
:10130400AF0083160317570883120313B300831621
:10131400031752080A168A153C240A128A150E2944
:101324006B088312B40083166A088312B300831611
:1013340069088312B200831668088312B100831609
:10134400031752080A168A1565240A128A15831689
:10135400E6000130A1230A128A156608DD2B6B080A
:10136400AB006A08AA006908A9006808A800031766
:1013740057080313AD00031758080313AC000317F1
:1013840052080A128A11CC200A128A150E296B08F7
:101394008312B40083166A088312B30083166908A3
:1013A4008312B200831668088312B10083160317F0
:1013B40052080A168A157D240A128A1532088316E1
:1013C400E100831231084A29031757080313E70081
:1013D4006B088312A70083166A088312A60083167B
:1013E40069088312A500831668088312A400831673
:1013F40067088312A8003A30A9000130AA008316B6
:101404000317520870250A128A15831603136708F6
:10141400A12367088312A1003A30A2010A168A1593
:10142400982C6B088312A50083166A088312A40003
:10143400831669088312A300831668088312A20026
:1014440083160317570883120313A600D830A70086
:101454000130A80083160317520853260A128A156E
:101464000E296B088312A50083166A088312A40050
:10147400831669088312A300831668088312A200E6
:10148400D730A600831603175208EE230A128A15D2
:101494000E296B088312A70083166A088312A6001C
:1014A400831669088312A500831668088312A400B2
:1014B400BC30A8008316031752088B240A128A151D
:1014C400BC3095270A128A1520086D290317530882
:1014D4000313B100B201031752080A128A1137200C
:1014E4000A128A150E2974088312AF000A30B0015B
:1014F400B100BF30B2016D270A128A158316031793
:101504003B0883120313AF000A30B001B100C930A5
:10151400B2016D270A128A157508AF000A30B001AE
:10152400B100D330B2016D273830A000BC300A16A8
:101534008A1550240A128A1583164008031DAA2A04
:10154400CE270A128A15BD230A128A158316C101F1
:10155400BF308312A000BC30A101BD230A128A153A
:10156400E9270A128A15BD230A128A1583164A0826
:10157400031DC42ACE270A128A15BD230A128A150E
:101584008316CB01C9308312A000BC30A101BD2356
:101594000A128A15E9270A128A15BD230A128A1526
:1015A40083165408031DDE2ACE270A128A15BD238A
:1015B4000A128A158316D501D3308312A000BC30D9
:1015C400A101BD230A128A15BC3095270A128A1577
:1015D4002008A1230A128A15F4270A168A15E8247A
:1015E4000A128A150030DD2B03175208F400530841
:1015F400BB005408F5000E29031752080313AF006B
:10160400B0010A168A154E250A128A150E290317E7
:1016140052080313B000031753080313AF000A164C
:101624008A1558250A128A150E290317520803131E
:10163400B400031753080313B300D430B5000A16DB
:101644008A1529240A128A150E2903175208031D24
:10165400362B5308031D322B8312031307100E2954
:101664008312031307140E29520B0E295308031D6A
:101674003F2B8312031387100E298312031387143D
:101684000E29031750080313BD00BE013E08003A9B
:1016940003194D2BA02B3D08013A0319F728033AEF
:1016A4000319C528013A0319EF280B3A0319012934
:1016B400013A03191329033A03192329013A031997
:1016C4003E29073A03195529013A031961291C3A9D
:1016D40003197429033A03199229013A0319B12908
:1016E400073A0319C929013A0319332A033A03199A
:1016F4004B2A013A0319132A0F3A0319E629013A2E
:101704000319682A033A03196128043A0319F62ACB
:10171400013A0319752A3F3A0319FE2A013A0319BB
:10172400092B053A0319172B023A0319272B0C3AF4
:101734000319E728013A03195728A02B080083123C
:101744000313A100AA30DD230A128A15BB30DD235E
:101754000A128A1503173408DD230A128A15003089
:10176400DD230A128A1503175008DD230A128A158D
:1017740083122108DD2BA400A300230884000008A1
:101784000319CA2BA30ABF2BA30AA00A0319A10A8F
:101794002108FF00200884000A168A1500200A1276
:1017A4008A15A200230884002208831780000008F9
:1017B40003190800C62B83120313A00014308316E8
:1017C4000317AC00AD010313981CE52B831220080A
:1017D400990083169816080083120313A90025089C
:1017E400031D080002302402031DFE2B00302302D7
:1017F400031DFE2B00302202031808002508031DD8
:101804000F2C01302402031D0D2C00302302031D74
:101814000D2C00302202031C122C0830AA00132CB9
:10182400AA012908AB00A0300310AB0DAB042A08B1
:10183400AB0434270A128A1583122B08A000A101D5
:101844002E270A128A152308A000A1012E270A12A6
:101854008A152208A000A1012E270A128A1526083B
:101864008400831700080319782C2508031D080039
:1018740002302402031D442C00302302031D442C97
:1018840000302202031808002208013E7F39031D9C
:10189400692CE3270A128A152E270A128A153C2777
:1018A4000A128A150D3083120313A800FB30A70017
:1018B400A70B5A2CA80B5A2C83120313A20A031940
:1018C400A30A0319A40A0319A50AA60A002CE327EC
:1018D4000A128A152E270A128A15A60AA20A0319C1
:1018E400A30A0319A40A0319A50A312CA001A10112
:1018F4002E270A128A153C270A128A150D308312E4
:101904000313A800FB30A700A70B862CA80B862C7A
:10191400080083120313AC00AD012708031D08005F
:1019240002302602031D9C2C00302502031D9C2C32
:1019340000302402031808002708031DAD2C0130D1
:101944002602031DAB2C00302502031DAB2C0030F6
:101954002402031CB02C0830AD00B12CAD01B1271A
:101964000A128A1534270A128A15FA270A128A15C6
:101974002E270A128A152508A000A1012E270A1273
:101984008A152408A000A1012E270A128A156A27A5
:101994000A128A1583122E08A000A1012E270A120A
:1019A4008A15AB012708031D5E2D02302602031D94
:1019B400E12C00302502031DE12C00302402031821
:1019C4005E2D2408013E7F39031D3F2D2808840025
:1019D400A001A1013F270A128A152008831780005D
:1019E4003C270A128A150D3083120313AA00FB3018
:1019F400A900A90BFB2CAA0BFB2C83120313A40A2A
:101A04000319A50A0319A60A0319A70AA80A27088D
:101A1400031D182D01302602031D162D003025024A
:101A2400031D162D00302402031C1B2D0830AD00AD
:101A34001C2DAD01B1270A128A1534270A128A1502
:101A4400FA270A128A152E270A128A152508A000D9
:101A5400A1012E270A128A152408A000A1012E270D
:101A64000A128A156A270A128A1583122E08A00000
:101A7400A1012E270A128A15572D28088400A001D7
:101A8400A00AA1013F270A128A15200883178000A3
:101A940028088400000803195E2DA80AA40A031963
:101AA400A50A0319A60A0319A70A2B08AB0AA90059
:101AB40040302902031CD42CA001A1013F270A12A3
:101AC4008A153C270A128A15B93083120313A90018
:101AD4006B2D6C2DA90B6A2D6F2D08008312031337
:101AE400AE00D4270A128A152708031D0800023005
:101AF4002602031D832D00302502031D832D003093
:101B04002402031808002708031D942D013026021F
:101B1400031D922D00302502031D922D0030240256
:101B2400031C972D0830AF00982DAF01BB270A1274
:101B34008A1534270A128A15EE270A128A152E27C7
:101B44000A128A152508A000A1012E270A128A1557
:101B54002408A000A1012E270A128A156A270A1256
:101B64008A1583123008A000A1012E270A128A15B3
:101B7400AD0128082D020318412E2708031D412E0C
:101B840002302602031DCC2D00302502031DCC2D6E
:101B9400003024020318412E2408013E7F39031D1E
:101BA4002B2EDC270A128A15A1013F270A128A1557
:101BB400200880003C270A128A150D308312031373
:101BC400AC00FB30AB00AB0BE52DAC0BE52D831269
:101BD4000313A40A0319A50A0319A60A0319A70AD9
:101BE400A90A0319AA0A2708031D042E0130260294
:101BF400031D022E00302502031D022E0030240294
:101C0400031C072E0830AF00082EAF01BB270A12B1
:101C14008A1534270A128A15EE270A128A152E27E6
:101C24000A128A152508A000A1012E270A128A1576
:101C34002408A000A1012E270A128A156A270A1275
:101C44008A1583123008A000A1012E270A128A15D2
:101C54003F2EDC270A128A15A00AA1013F270A1287
:101C64008A1520088000A90A0319AA0AA40A0319DC
:101C7400A50A0319A60A0319A70AAD0ABB2DA001D8
:101C8400A1013F270A128A153C270A128A15B93086
:101C940083120313AB004E2E4F2EAB0B4D2E522E40
:101CA400080083120313AC00D4270A128A152508EE
:101CB400031D080002302402031D662E0030230297
:101CC400031D662E00302202031808002508031D98
:101CD400772E01302402031D752E00302302031DCC
:101CE400752E00302202031C7A2E0830AD007B2EA4
:101CF400AD01C5270A128A1534270A128A158312E0
:101D04002E08A000A1012E270A128A152308A0007C
:101D1400A1012E270A128A152208A000A1012E274C
:101D24000A128A15AB012608FF3EA900FF300318EA
:101D34000030AA00803A803C031DA22E29082B0201
:101D44000318182F831203132508031D08000230FB
:101D54002402031DB32E00302302031DB32E0030D2
:101D64002202031808002208013E7F39031D062FB2
:101D7400A8270A128A152E270A128A153C270A1246
:101D84008A150D3083120313AA00FB30A900A90B96
:101D9400C92EAA0BC92E83120313A20A0319A30A7C
:101DA4000319A40A0319A50AA70A0319A80A2508EE
:101DB400031DE82E01302402031DE62E0030230209
:101DC400031DE62E00302202031CEB2E0830AD006A
:101DD400EC2EAD01C5270A128A1534270A128A157A
:101DE40083122E08A000A1012E270A128A152308A7
:101DF400A000A1012E270A128A152208A000A10121
:101E04002E270A128A15162FA8270A128A152E279A
:101E14000A128A15A70A0319A80AA20A0319A30A0F
:101E24000319A40A0319A50AAB0A952E83120313F6
:101E3400A8270A128A152E270A128A153C270A1285
:101E44008A150D3083120313AA00FB30A900A90BD5
:101E5400292FAA0B292F0800F617612783122008BF
:101E640093000800143083160317B000B1016127F2
:101E740011140800612711150800F61761270A12CA
:101E84008A15911561270A128A1583121308A20074
:101E9400A30161270A128A15831220082104031D55
:101EA400572F8316031391165A2F83160313911277
:101EB400111683122308A1002208A000080083162B
:101EC40003131419612F11081F3903190800612F16
:101ED400612791140800B400B01F7B2F34088400DC
:101EE4002D3083138000B40AAF09B009AF0A031977
:101EF400B00A3008A8002F08A7003208AA00310849
:101F0400A90034080A168A15C02DA830AA002A0A86
:101F1400840083130008DD230A128A152A0884002A
:101F240083130008DD2B83120313A400A3002308EA
:101F34008400831700080319A12FA30A992F2408EA
:101F44002302A000A101A01BA1030800270884000C
:101F54008317281C83130008A000A10108002C0883
:101F6400AE00A0300310AE0DAE042E142D08AE0446
:101F740008002E08B000A0300310B00DB0043014D7
:101F84002F08B00408002C08AE00A0300310AE0DDA
:101F9400AE042D08AE04080037308312A000803050
:101FA400A100BC34143083160317B000B1018312AE
:101FB400031308002908840083172A1C8313A00133
:101FC4000800260884000008A000A1010800393098
:101FD400A0008030A100BC3483123008FE39A00078
:101FE400A1010800BC308312A1000130A200080046
:0C1FF40083122E08FE39A000A101080095
:10200A00C030831203139F04803083169F009F17EA
:10201A0083121F1408000313D400CF00CF0DCF0D75
:10202A0083121F0883164F06C3394F0683129F0077
:10203A00A001A00AA101A201A301D4270A168A11AC
:10204A008316D501D601D701D801D901D90A372378
:10205A000A168A113C08D3003B08D2003A08D1007C
:10206A003908D00053088312BC0083165208831221
:10207A00BB00831651088312BA00831650088312D4
:10208A00B900831658088312C000831657088312B2
:10209A00BF00831656088312BE00831655088312A2
:1020AA00BD00C8210A168A113C088316D80083127B
:1020BA003B088316D70083123A088316D600831288
:1020CA0039088316D5005F270A168A11013A0319BF
:1020DA009428761F8D2883166F08031D7E28031700
:1020EA00600B7E2828032904031D7E28EF200A1688
:1020FA008A11831603136E08031D8D2803175F0BBD
:10210A008D2826032704031D8D2806210A168A1105
:10211A00831603130F30D90A5902031C2C280A30DC
:10212A0083165902031C08000F305906031DAC28F8
:10213A005908FF3E8312AB00FF3003180030AC0091
:10214A00AD01AC1BAD032D08AE000130B328590810
:10215A0083120A128A11EF240A168A11A9240A166E
:10216A008A1175270A168A115808A7005708A60067
:10217A005608A5005508A40017250A168A1123082F
:10218A00D8002208D7002108D6002008D500540814
:10219A00031DDF285808031797000313570803176E
:1021AA0096000313560803179500031355080317DF
:1021BA0094000800580803179300031357080317DD
:1021CA0092000313560803179100031355080317C7
:1021DA009000080003136F08031D080083120718F4
:1021EA00FE28831603173A080313EF008312071415
:1021FA0008008316031739080313EF008312071028
:10220A000800831603136E08031D0800831287183B
:10221A0016298316031737080313EE00831287144F
:10222A0008008316031736080313EE00831287107B
:10223A0008002508A70001300310A70DFF3E031070
:10224A00031D2229270D240784000A168A150A204D
:10225A000A168A11A8000A168A150A200A168A116D
:10226A00A9000A168A150A200A168A11AA000A164D
:10227A008A150A200A168A11AB002B08AF002A0811
:10228A00AE002908AD002808AC0025082604031969
:10229A00BF29FF30A507031CA6032508A7000130A4
:1022AA000310A70DFF3E0310031D5629270D24070F
:1022BA0084000A168A150A200A168A11A8000A1624
:1022CA008A150A200A168A11A9000A168A150A20EE
:1022DA000A168A11AA000A168A150A200A168A11EB
:1022EA00AB002B088312BC0083162A088312BB009A
:1022FA00831629088312BA00831628088312B900A4
:10230A0083162F088312D80083162E088312D7004B
:10231A0083162D088312D60083162C088312D50043
:10232A00831623088312DC00831622088312DB003B
:10233A00831621088312DA00831620088312D90033
:10234A000A128A11EB200A168A118F270A168A1195
:10235A00C8210A168A113C088316AF0083123B086B
:10236A008316AE0083123A088316AD008312390829
:10237A00831649292F08A3002E08A2002D08A100C0
:10238A002C08A00008003C08C9008030C9050310C9
:10239A003C0DCB00BB1B4B144B080319DC294B0F1C
:1023AA00DA29B901BA01BB01BC01BB17DF29B9019E
:1023BA00BA01BB01BC014008CA008030CA054A08FC
:1023CA004906031D49170310400DCA00BF1B4A14D2
:1023DA004A080319F8294A0FF629BD01BE01BF01AF
:1023EA00C001BF17FB29BD01BE01BF01C0014B08D7
:1023FA004A020318222A491F042A8030C9064B08B8
:10240A00CC004A08CB004C08CA003908CC003D0869
:10241A00B9004C08BD003A08CC003E08BA004C0886
:10242A00BE003B08CC003F08BB004C08BF003C087C
:10243A00CC004008BC004C08C000CC014A08C100CE
:10244A00C2014208C4004B084102C300031CC40372
:10245A004408803AFF0080307F02031D362A1A3072
:10246A004302031C572A831203133C083B043A0411
:10247A0039040319422A0130432A0030CC00B90139
:10248A00BA01BB01BC014A08CB005D2A4C1C522A86
:10249A0003104C0C0138CC00542A0310CC0CB3277F
:1024AA000A168A11831203134A084B02031C4B2A89
:1024BA00491B862A4B08031D632ACF2F3D08B907FB
:1024CA003E0803110318013E031DBA073F08031112
:1024DA000318013E031DBB07400803110318013E00
:1024EA00031DBC073C1C022B4C1C802A03104C0CFD
:1024FA000138CC00822A0310CC0CB3270A168A11A1
:10250A00022B3C08803AFF004008803A7F02031DF4
:10251A00982A3F083B02031D982A3E083A02031DE7
:10252A00982A3D0839020318D82AFF30C100C20090
:10253A00C300C4003D08C5003E08C6003F08C700E6
:10254A004008C8003908C5023A08031C3A0FC602F7
:10255A003B08031C3B0FC7023C08031C3C0FC80284
:10256A004508C10746080318460FC207470803185B
:10257A00470FC30748080318480AC4074408BC00A1
:10258A004308BB004208BA004108B9008030C906B6
:10259A00CC09CC0FE62AB90A0319BA0A0319BB0AED
:1025AA000319BC0AE62A3D08B9023E08031C3E0F7D
:1025BA00BA023F08031C3F0FBB024008031C400F2E
:1025CA00BC023C083B043A043904031D002B4C08A6
:1025DA00031D002BCF2F0310B90DBA0DBB0DBC0D77
:1025EA00CC1B39144C1CFB2A0314FC2A0310CC0DF7
:1025FA004B08031DCB03BB1FF02ACA01CC1F0D2BAE
:10260A004C087F39031939180B2B0D2BCA01CA0A3A
:10261A004A080319202BB90A0319BA0A0319BB0A73
:10262A000319BC0A3C1C202B3C0DBC0CBB0CBA0C7D
:10263A00B90C4B0FCB0A4B0A031D4B08031D2C2B5D
:10264A00B901BA01BB01BC014B080319C9014B1CF2
:10265A00302BBB17312BBB1303104B0CBC00C91B0F
:10266A00BC1708008730C2000F30C300C901CA0175
:10267A00C801C80A7E260A168A1120088316C907C5
:10268A000318CA0A831221088316CA073330C80AF4
:10269A004802031C3F2B48088312A000FF30A10107
:1026AA00A0070318A10AA10783164A088312A300E8
:1026BA00831649088312A20054260A168A11210891
:1026CA008316CA00831220088316C90085270A16B2
:1026DA008A11A9240A168A1198270A168A114430DF
:1026EA00D4007F30D300C030D200D10138260A1678
:1026FA008A1150088316C70083124F088316C60032
:10270A0083124E088316C50083124D088316C4002F
:10271A0046308312D4001C30D3004030D200D1019D
:10272A008316490885270A168A11A9240A168A11C6
:10273A0098270A168A1138265008D8004F08D70059
:10274A004E08D6004D08D500831647088312DC00D0
:10275A00831646088312DB00831645088312DA00C3
:10276A00831644088312D9000A128A11EB200A162A
:10277A008A1158088316C700831257088316C600A1
:10278A00831256088316C500831255088316C4009F
:10279A004708A3004608A2004508A1004408A00073
:1027AA0046308312D8001C30D7004030D600D501FD
:1027BA008316490885270A168A11A9240A168A1136
:1027CA00AA270A128A11EB200A168A1158088316B8
:1027DA00A700831257088316A60083125608831689
:1027EA00A500831255088316A40017250A168A1114
:1027FA00A1270A168A114E08C1004D08C0004C08CC
:10280A00BF004B08BE004108B3004008B2003F08B1
:10281A00B1003E08B0008C260A168A113308CE0091
:10282A003208CD003108CC003008CB0042088312B0
:10283A00AB00831643088312BC270A168A11A924FF
:10284A000A168A1175270A168A114E08A7004D081A
:10285A00A6004C08A5004B08A40017250A168A11E1
:10286A00A1270A168A113B308312BC005B30BB00D9
:10287A00CF30BA000F30B90083164E088312C00059
:10288A0083164D088312BF0083164C088312BE00BC
:10289A0083164B088312BD00C8210A168A113C0808
:1028AA008316CE0083123B088316CD0083123A08A2
:1028BA008316CC00831239088316CB004E08A30076
:1028CA004D08A2004C08A1004B08A0003F30A70009
:1028DA008030A600A501A40117250A168A11A1278E
:1028EA000A168A1143308312D0008830CF00933001
:1028FA00CE003330CD0083164E088312D4008316DF
:10290A004D088312D30083164C088312D200831613
:10291A004B088312D100382650088316CE00831242
:10292A004F088316CD0083124E088316CC008312FB
:10293A004D088316CB004E08BC004D08BB004C085E
:10294A00BA004B08B9000800B3003308031DAE1FD4
:10295A00BE2C2B09B5002C09B6002D09B7002E098B
:10296A00B800B50A0319B60A0319B70A0319B80A4F
:10297A00C62C2E08B8002D08B7002C08B6002B0864
:10298A00B5002E082D042C042B04031DD12CAB01F9
:10299A00AC01AD01AE0108009630B400FE30380536
:1029AA000319E72CB40AC9270A168A11D32CB40AC8
:1029BA00B50A0319B60A0319B70A0319B80AC927C7
:1029CA000A168A11FF3038050319F62CDC2C02305E
:1029DA003402031CF82CB4030310B50DB60DB70D61
:1029EA00B80DB71FEC2C341CB7130310B40C340801
:1029FA00B200B101B001AF012F08B5043008B60426
:102A0A003108B7043208B8043308031DAE1F0E2D6F
:102A1A00B8173808AE003708AD003608AC003508DC
:102A2A00AB0008002708B0008030B0050310270D5E
:102A3A00B700A61B3714370803192C2D370F292D79
:102A4A00A401A501A601A701A617A701302DA4017B
:102A5A00A501A601A70123088039B0060310230D9A
:102A6A00B800A21B381438080319442D380F412D19
:102A7A00A001A101A201A301A217A301482DA0014F
:102A8A00A101A201A3012308220421042004031D99
:102A9A00612D8030A401A501A601A701A6047F30FB
:102AAA00A7043008A7042708A3002608A2002508BF
:102ABA00A1002408A00008003708031D692DA00101
:102ACA00A101A201A30108003708B100B201380828
:102ADA00B102031CB2037F30B1070318B20A2708F8
:102AEA00AF002608AE002508AD002408AC00A401FA
:102AFA00A501A601A701B301B401B501B601B80148
:102B0A001A3038020318BE2D380803199D2D0310F8
:102B1A00AC0DAD0DAE0DAF0D0310A40DA50DA60D98
:102B2A00A70DB61B24140310B30DB40DB50DB60DC5
:102B3A0023082F02031DAB2D22082E02031DAB2DE5
:102B4A0021082D02031DAB2D20082C02031CBC2DCD
:102B5A0036172008AC022108031C210FAD022208F7
:102B6A00031C220FAE022308031C230FAF02B80A6C
:102B7A00852D2F082E042D042C04031D3314A61BA7
:102B8A00D72D0310A40DA50DA60DA70DB61B241451
:102B9A00FF300310B30DB40DB50DB60DB107031C0C
:102BAA00B203C42DB801B61FED2D3308A8003408AE
:102BBA00A9003508AA007F303605AB002B082A0485
:102BCA002904280403192418EB2DED2DB801B80A9D
:102BDA0038080319012EA40A0319A50A0319A60A1B
:102BEA000319A70A271C012E270DA70CA60CA50C52
:102BFA00A40CB10A0319B20A3208803AFF008030E5
:102C0A007F02031D0A2EFF303102031C152EFF30EE
:102C1A0083160313B100B201A401A501A601A701FD
:102C2A00831603133208803AFF0080307F02031DA7
:102C3A00202E0130310203182B2E83160313B10103
:102C4A00B201A401A501A601A701B00183160313CD
:102C5A003108B700371C332EA617342EA6130310DB
:102C6A00370CA700562D8030D0065408BC005308F4
:102C7A00BB005208BA005108B9005008C0004F08FA
:102C8A00BF004E08BE004D08BD00C8213C08D00058
:102C9A003B08CF003A08CE003908CD000800A5014C
:102CAA00A601200821040319792EA401A40AA11B54
:102CBA00622E0310A00DA10D5B2E0310A50DA60D0B
:102CCA0021082302031D6B2E20082202031C752EE5
:102CDA002008A2022108031CA303A302251403103F
:102CEA00A10CA00CA40B622E2608A1002508A000A6
:102CFA00080083129F149F18802E1E08A100A001AD
:102D0A0083161E088312A0070318A10A08003308B5
:102D1A008312D800831632088312D700831631082B
:102D2A008312D600831630088312D500D901DA013E
:102D3A00DB01DC010A128A111E240A168A11031801
:102D4A00A72EC32F831633088312A30083163208D3
:102D5A008312A200831631088312A1008316300859
:102D6A0083120A128A11AB270A168A110A128A11C9
:102D7A0075270A168A11031CC32EC32FBF30BC0045
:102D8A008030BB004030BA01B901D8006E30D7019B
:102D9A00D601D501B000831633088312AF0083161B
:102DAA0032088312AE00831631088312AD008316EF
:102DBA0030088312AC000A128A112E270A168A11C9
:102DCA002F08DC002E08DB002D08DA002C08D900B9
:102DDA000A128A11EB200A168A118F270A168A11FB
:102DEA00C8210A168A113C088316B30083123B08CD
:102DFA008316B20083123A088316B1008312390887
:102E0A008316B000FF308312EE07031CEF0383160C
:102E1A003308A3003208A2003108A1003008A0003C
:102E2A000130A4000830A500A6011E210A168A1145
:102E3A002308B3002208B2002108B1002008B0001C
:102E4A0033088312BC00831632088312BB00831630
:102E5A0031088312BA00831630088312B9003F3052
:102E6A00D8003130D7007230D6001830D5006E083D
:102E7A00AB006F08BC270A168A11A9240A168A1100
:102E8A00AA270A128A11EB200A168A118F270A1614
:102E9A008A11C8213C088316B30083123B088316A3
:102EAA00B20083123A088316B100831239088316D6
:102EBA00B0000800761C702F8312031713088316BC
:102ECA00340603196B2F8312130F702F8312031307
:102EDA00A001A00A732F83120313A001200808007F
:102EEA002E088316A30083122D088316A2008312CC
:102EFA002C088316A10083122B088316A000080051
:102F0A008312AB0083164A088312AC000030AD016D
:102F1A00AE0108005808C0005708BF005608BE0096
:102F2A005508BD0008002E08D0002D08CF002C0837
:102F3A00CE002B08CD0008002308CE002208CD00C1
:102F4A002108CC002008CB0008002E08DC002D0840
:102F5A00DB002C08DA002B08D90008003918CC1736
:102F6A003C0DBC0CBB0CBA0CB90CCB0A0800AC006B
:102F7A000030AC1BFF30AD00AE0001348316B00147
:102F8A00B101B201B30108000310B80CB70CB60CBA
:102F9A00B50C0800B901BA01BB01BC010800A601C1
:102FAA00A701A801A9012908803AFF002308803A4D
:102FBA007F02031DEA2F22082802031DEA2F210897
:102FCA002702031DEA2F20082602031808000330EF
:102FDA0083120313A5009730A400A40BF22FA50BAC
:102FEA00F22F83120313A60A0319A70A0319A80AC0
:102FFA000319A90AD82FFF1B0A2883137F188317DE
:10300A000008840A0319FF0A080018308A00040815
:10301A00840A820700340034003400340034C43493
:10302A00FF347F343F348034EF34FF34BE3490347D
:10303A00E134A9343E34EC3482347634BE348234FA
:10304A00AD342B343E340E343C34C334BD3487346F
:10305A00D13413343D3441347834D334BB3400345E
:10306A00603478344534003440341C344634763481
:10307A0031342E3430342E34373400344F344B3418
:0A308A000034303400343A340034CE
:103852003408AC003308AB003508AD000130AE00CF
:1038620035080A128A1595272008013E8316AF00F3
:103872000A128A150A2883120313B4003208A5001B
:103882003108A4003008A3002F08A2003330A6019B
:10389200A60AA700A80134080A128A15532EA2000C
:1038A200A300200884000A168A150A200A168A151F
:1038B200A10023088400210883178000000803194F
:1038C2000800A30AA00A522C83120313B50034087D
:1038D200A7003308A6003208A5003108A40036303C
:1038E200A801A80AA900AA0135080A128A1570259A
:1038F200831203133608080083120313B500340839
:10390200A7003308A6003208A5003108A40002303F
:10391200A8003630A900AA0135080A128A157025B6
:10392200831203133608B2003708B1000800A7005B
:103932002730A501A6002508A300A401220824021D
:10394200031DA52C21082302031808002608840061
:10395200831300080A128A15DD230A168A158312B8
:10396200A60AA50A9C2CA601A701A801A90129085B
:10397200803AFF002308803A7F02031DCA2C2208E6
:103982002802031DCA2C21082702031DCA2C200865
:103992002602031808006400033083120313A500F3
:1039A2009730A400A40BD32CA50BD32C83120313A2
:1039B200A60A0319A70A0319A80A0319A90AB82C07
:1039C200343083120313A1008030A200E82C2108B6
:1039D200A3002208A4002408FF00230884000A167A
:1039E2008A1500200A168A15003A03190B2D24089D
:1039F200FF00230884000A168A1500200A168A1579
:103A02000A128A15DD230A168A158312A30A0319DC
:103A1200A40AEC2C2408FF00230884000A168A1545
:103A220000200A128A15DD2B4B30210620042204C5
:103A32002304031D262D981718168316181518121D
:103A420018130C3099000B173F2DC2302106031DAD
:103A5200402D220320042304031D402D1030831621
:103A620099000317871503131815831298178316E5
:103A720018121813831218160B1783168C16831636
:103A820007178717831218121816A4011A080F3085
:103A9200A40A240203180800472D0330B10030089D
:103AA200B2002F08B3000330AB00B130782D0A30DA
:103AB2008312A000A101831630088312A30083168B
:103AC2002F088312A2000A168A1154260A168A1592
:103AD20021088316B000831220088316AF0002303B
:103AE200B1002F08B2000230AB00B130782DAD002A
:103AF200A530A8005A30A9000A128A1587270A168B
:103B02008A152B08013E0A128A15DD230A168A1528
:103B120080300A128A15DD230A168A15AE012B0897
:103B22002E020318A12D2E082D07AC00840083134A
:103B320000080A128A15DD230A168A15AE0A902D8C
:103B42008312A001A00AA101A62DA401A5012108AA
:103B52002502031DAE2D200824020318080003309D
:103B620083120313A3009730A200A20BB62DA30B5E
:103B7200B62D83120313A40A0319A50AA82DAE00B9
:103B82002808AC002708AB002A08A1002908A000D9
:103B92002C08A3002B08A2000A168A1154260A1622
:103BA2008A152108AC002008AB00AE0A2C04031DC4
:103BB200C52D2E08840083138001AE032A08A100BC
:103BC2002908A0002808A3002708A2000F26200821
:103BD200AD002A08A1002908A0002808A300270890
:103BE200A2000A168A1154260A168A152108A8006C
:103BF2002008A7000A302D02031C012E0730AD0752
:103C02003030AD072E0884002D0883138000AE03E8
:103C120027082804031DDF2DAE0A0800200821040E
:103C220003192E2EA401A40AA11B1B2E0310A00D02
:103C3200A10D142E21082302031D212E2008220289
:103C4200031C2A2E2008A2022108031CA303A3029C
:103C52000310A10CA00CA40B1B2E2308A100220808
:103C6200A0000800283094008316910183122D08C9
:103C7200B1002E08B2002F08B3003008B4000230A1
:103C82000310B10DB20DB30DB40DFF3E031D412E55
:103C92003408A3003308A2003208A1003108A000B2
:103CA2007A30A701A6001230A500A40160262008E0
:103CB200FF3E831693009401871507160800A8019A
:103CC200A901AA01AB01230822042104200403193B
:103CD2009F2EAC01AC0AA31B742E0310A00DA10DE4
:103CE200A20DA30D6B2E0310A80DA90DAA0DAB0DED
:103CF20023082702031D872E22082602031D872E72
:103D020021082502031D872E20082402031C992E58
:103D12002008A4022108031C210FA5022208031C6B
:103D2200220FA6022308031C230FA7022814031044
:103D3200A30CA20CA10CA00CAC0B742E2B08A3009C
:103D42002A08A2002908A1002808A000080083125E
:103D5200A9002530AA00AB012A08840083130008B9
:103D6200A0002908E3260A168A15831203130230DB
:103D7200AA0AA90AAB0A2B02031CAD2E4E308312EB
:103D82000313A800EA30A700A70BC52EA80BC52E67
:103D92000000080083120313A6002508840083177D
:103DA20000080319DF2E1E270A168A15E3260A16B3
:103DB2008A1583120313A60AA50ACE2E1E270A16F7
:103DC2008A15E32E83120313A300143083160317FC
:103DD200B000B1018C18EB2E8B1FF42E831203134B
:103DE200A401A40AF72E83120313A40123080317C4
:103DF2008D000313200803178C0083168C130C15F7
:103E02008B1355308D00AA308D008C14831203134E
:103E12002403031D0E2F8B170F2F8B1383160317EB
:103E22000C114E3083120313A200EA30A100A10B41
:103E3200182FA20B182F0000080025088400000884
:103E4200A000260808008B188B100C1C9F2FB13085
:103E52008F00F3308E000C10F61F312FF613640022
:103E62000A3083160317AE070318AF0A03302F0276
:103E7200E83003192E02031C402FAE01AF010130BE
:103E82002F02F43003192E0203184B2F831203134F
:103E920086174E2F831203138613831603172C08DB
:103EA2002D0403195E2F0A30AC020030031CAD034F
:103EB200AD02831203130617612F83120313061335
:103EC20083160317300831040319712F0A30B00228
:103ED2000030031CB103B102831203138616742F40
:103EE2008312031386120A3083160317A0070318DE
:103EF200A10AAA070318AB0AE8302A0603300319FD
:103F02002B06031D9F2FAA01AB01F50A03136F08AD
:103F1200031DEF036E08031DEE033C307506031DFF
:103F22009F2FF5010317BB0A3C303B06031D9F2F51
:103F3200BB01F40A183074060319F4018312031347
:103F42008C1EF42F1E307614FB00FC01831603171F
:103F5200A201A3011030B2007B087C040319DC2FFC
:103F6200831203138C1ED52F831603173208840085
:103F7200831203131A08831780008316031723087A
:103F8200803AFF0080307F02031DC92F29302202B0
:103F92000318D12F83160317A20A0319A30AB20A20
:103FA2001E30FB00FC01AD2F0130FB020030031C70
:103FB200FC03FC02AD2F831603173208840083171B
:103FC200800183120313981CF42F181218161A0872
:103FD200FB00FC011A08FB00FC011A08FB00FC01B3
:103FE20003179001F6147A080313FF0079088A0078
:0E3FF20078088400770E8300FE0E7E0E090014
:04400E008CEFFFFF35
:00000001FF
