:020000040000FA
:060000000A128A11122809
:10000800FE00030EF2000408F3000A08F40083124D
:1000180003137F08F5000A168A112D280A128A117F
:100028001528F801F901FA01FB01FC01FD01831310
:10003800C9308400E5300A168A156C200A128A1124
:10004800831790308400EB300A168A156C200A1248
:100058008A111030840044300A168A156C208301F6
:100068000A168A111B29A4002408031DEA2A1F1650
:100078009F1624088312E500E50DE50D1F086506A7
:10008800C33965069F000030A3000030A20000308D
:10009800A1000130A0000A168A1511240A128A113B
:1000A80000308316AA000030A9000030A8000030F4
:1000B800A7000130A5000030A60024080A168A15FA
:1000C800D1250A128A113108BA003008B9002F0860
:1000D800B8002E08B70083162A088312BE008316BC
:1000E80029088312BD00831628088312BC008316D2
:1000F80027088312BB000A128A15DE220A128A1107
:100108003A088316AA00831239088316A9008312B5
:1001180038088316A800831237088316A7000A1622
:100128008A154B210A128A11013A0319A9280130AC
:100138008316A5070318A60A0030A6070030260272
:100148000F3003192502031C61280030831626028C
:100158000A3003192502031C08000F30250626045F
:10016800031DC0282508FF3E8312A0008316260819
:100178000318013EFF3EC52825088312A0008316F8
:1001880026088312A100A201A30100300A128A11D5
:100198004B270A128A112308B1002208B00021084F
:1001A800AF002008AE0083162A088312B500831614
:1001B80029088312B400831628088312B300831613
:1001C80027088312B2000A128A153D210A128A11E1
:1001D80031088316AA00831230088316A9008312F7
:1001E8002F088316A80083122E088316A7002A0852
:1001F8008312A300831629088312A20083162808F5
:100208008312A100831627088312A0004430A70098
:100218001930A600C030A5000030A4000A168A15BF
:100228006D270A128A110318C929C330BA00E330AE
:10023800B9000030B8000030B70083162A088312CE
:10024800BE00831629088312BD008316280883126E
:10025800BC00831627088312BB000A128A15DE2207
:100268000A128A113A088316A300831239088316E2
:10027800A200831238088316A10083123708831658
:10028800A00023088312CE00831622088312CD0013
:10029800831621088312CC00831620088312CB0012
:1002A8004430D2007F30D100C030D0000030CF00C1
:1002B8000A168A159F210A128A114E088316D00041
:1002C80083124D088316CF0083124C088316CE0084
:1002D80083124B088316CD003F308312CE00FA30CC
:1002E800CD003E30CC009030CB00831650088312EE
:1002F800D20083164F088312D10083164E0883124A
:10030800D00083164D088312CF000A128A150B25D8
:100318000A128A114E088316D00083124D088316DC
:10032800CF0083124C088316CE0083124B08831625
:10033800CD002A088312BE00831629088312BD0047
:10034800831628088312BC00831627088312BB0073
:10035800C330BA00E330B9000030B8000030B7004D
:100368000A128A15DE220A128A113A08D2003908BE
:10037800D1003808D0003708CF004030CE00A63072
:10038800CD006630CC006630782AC430BA001A3006
:10039800B9000030B8000030B70083162A0883126D
:1003A800BE00831629088312BD008316280883120D
:1003B800BC00831627088312BB000A128A15DE22A6
:1003C8000A128A113A088316A30083123908831681
:1003D800A200831238088316A100831237088316F7
:1003E800A00023088312CE00831622088312CD00B2
:1003F800831621088312CC00831620088312CB00B1
:100408004430D2007F30D100C030D0000030CF005F
:100418000A168A159F210A128A114E088316D000DF
:1004280083124D088316CF0083124C088316CE0022
:1004380083124B088316CD003F308312CE00543010
:10044800CD003530CC000D30CB0083165008831218
:10045800D20083164F088312D10083164E088312E8
:10046800D00083164D088312CF000A128A150B2577
:100478000A128A114E088316D00083124D0883167B
:10048800CF0083124C088316CE0083124B088316C4
:10049800CD002A088312BE00831629088312BD00E6
:1004A800831628088312BC00831627088312BB0012
:1004B800C430BA001A30B9000030B8000030B700B4
:1004C8000A128A15DE220A128A113A08D20039085D
:1004D800D1003808D0003708CF004030CE001530A2
:1004E800CD00C230CC008F30CB000A128A150B2504
:1004F8000A128A114E088316A30083124D08831628
:10050800A20083124C088316A10083124B0883169D
:10051800A00023088312CE00831622088312CD0080
:10052800831621088312CC00831620088312CB007F
:10053800831650088312D20083164F088312D10005
:1005480083164E088312D00083164D088312CF00FD
:100558000A168A159F210A128A114E088316D0009E
:1005680083124D088316CF0083124C088316CE00E1
:1005780083124B088316CD0044308312A300FA304F
:10058800A2000030A1000030A0008316500883129A
:10059800A70083164F088312A60083164E088312FD
:1005A800A50083164D088312A4000A168A156D2724
:1005B8000A128A110318080044308316D000FA3052
:1005C800CF000030CE000030CD0008001F129F126F
:1005D80024088312E500E50DE50D1F086506C339FB
:1005E80065069F000030A3000030A2000030A10083
:1005F8000130A0000A168A1511240A128A11003047
:100608008316AA000030A9000030A8000030A70017
:100618000130A5000030A60024080A168A15D12545
:100628000A128A113108BA003008B9002F08B80038
:100638002E08B70083162A088312BE0083162908DD
:100648008312BD00831628088312BC00831627086E
:100658008312BB000A128A15DE220A128A113A088E
:100668008316AA00831239088316A9008312380852
:100678008316A800831237088316A7000A168A155E
:100688004B210A128A11013A0319582B013083169B
:10069800A5070318A60A0030A607003026020F3067
:1006A80003192502031C102B0030831626020A307A
:1006B80003192502031C08000F3025062604031D14
:1006C8006F2B2508FF3E8312A00083162608031807
:1006D800013EFF3E742B25088312A00083162608CE
:1006E8008312A100A201A30100300A128A114B272C
:1006F8000A128A112308B1002208B0002108AF00AD
:100708002008AE0083162A088312B500831629082C
:100718008312B400831628088312B30083162708AF
:100728008312B2000A128A153D210A128A11310871
:100738008316AA00831230088316A90083122F0893
:100748008316A80083122E088316A7003F30831251
:10075800CE000E30CD00EC30CC007D30CB008316BF
:100768002A088312D200831629088312D10083161F
:1007780028088312D000831627088312CF000A1294
:100788008A150B250A128A114E088316CC0083128B
:100798004D088316CB0083124C088316CA008312B7
:1007A8004B088316C9004C088312A30083164B0814
:1007B8008312A20083164A088312A10083164908EF
:1007C8008312A0004130A7007030A6000030A500B9
:1007D8000030A4000A168A156D270A128A11031818
:1007E800080000308316CC000030CB000030CA006F
:1007F8000030C900080090300A168A157C250A12B4
:100808008A118316031717080313B1003108C300B0
:10081800031718080313B1003108C2000317190899
:100828000313B1003108C10003171A080313B100FC
:100838003108C000F92E4130B10031088312A00000
:10084800CA300A168A1581210A128A110B300A1633
:100858008A156B220A128A11CA308312A10001304C
:10086800A2000A168A157323080003171608031D29
:10087800462C03134C08BE004B08BD004A08BC00B8
:1008880049084E2C03135008BE004F08BD004E08FF
:10089800BC004D08BB0041308312CE002030CD0093
:1008A8000030CC000030CB0083163E088312D20003
:1008B80083163D088312D10083163C088312D000AA
:1008C80083163B088312CF000A128A150B250A12D9
:1008D8008A114E088316BE0083124D088316BD0088
:1008E80083124C088316BC0083124B088316BB0086
:1008F8008B1302300A168A156B220A128A113E08D7
:100908008312E80083163D088312E70083163C082B
:100918008312E60083163B088312E5000A168A153F
:1009280085260A128A1166088316A10083126508B3
:100938008316A0000A168A15C1208B170800031712
:1009480016080313B1003108C3000317170803136F
:10095800B1003108C200031718080313B1003108A9
:10096800C100031719080313B1003108C000430878
:10097800AD004208AC004108AB004008AA000A16C6
:100988008A15F026F801F90183160313D901DA0153
:10099800080002300A168A156B220A128A110130E1
:1009A800A0000030A1000A168A15C120080003170C
:1009B80017080313B10031088312A0008316031728
:1009C80016080A168A1580240A128A1103300A1694
:1009D8008A156B220A128A110A168A157D200800C8
:1009E800031716080A168A15FE210A128A11831699
:1009F8000313B1003108BF0001300A168A156B22B3
:100A08000A128A113F080A168A15B120080003172E
:100A180016080313B1003108B700031718080313A9
:100A2800B100B201031717080313B300B401330868
:100A3800B400B30131083304B50032083404B600F9
:100A480036088312A600831635088312A50083167C
:100A580037080A168A1541230A128A11EA2C031745
:100A680016080A168A15BC220A128A112408831647
:100A7800BA00831223088316B90002300A168A15B1
:100A88006B220A128A113A08A1003908A0000A1636
:100A98008A15C12008009730B10031088312A500DB
:100AA8008316031716080A168A1102200A128A11D9
:100AB800EA2CCA30B10031088312A3008316031749
:100AC80016080A168A15BD210A128A1121302B2C04
:100AD80043088312BA00831642088312B9008316AA
:100AE80041088312B800831640088312B7008316A2
:100AF80003171B080313B10031088312BB008316C8
:100B0800031716080A168A15EB200A128A11EA2C0E
:100B180043088312B900831642088312B80083166B
:100B280041088312B700831640088312B600831663
:100B3800031716080A168A1519210A128A1183162C
:100B4800B1003108BF0001300A168A156B220A125B
:100B58008A113F080A168A15B12008004308A30025
:100B68004208A2004108A1004008A00003171C0881
:100B78000313B100B20103171B080313B300B40138
:100B88003308B400B30131083304A4003208340434
:100B9800A500031716080A168A1593220A128A1145
:100BA800EA2C43088312B900831642088312B8005E
:100BB800831641088312B700831640088312B600D3
:100BC8008316031716080A168A1543220A128A1171
:100BD80037088316BA00831236083F2D03171B08FF
:100BE8000313B1003108B80038080A168A156B22B9
:100BF8000A128A1143088312AC0083164208831232
:100C0800AB00831641088312AA008316400883129A
:100C1800A90083163808B10031088312AD00CA3024
:100C28008316B20032088312AE0083160317160823
:100C38000A168A110425080043088312AD0083169A
:100C480042088312AC00831641088312AB00831656
:100C580040088312AA00831603171B080313B10068
:100C680031088312AE009C30AF000130B00083160B
:100C7800031716080A168A1114220A128A11EA2C76
:100C880043088312AD00831642088312AC00831612
:100C980041088312AB00831640088312AA009B30D8
:100CA8008316B10031088312AE00831603171608A5
:100CB8000A128A1542200A128A11EA2C4308831262
:100CC800AC00831642088312AB00831641088312D6
:100CD800AA00831640088312A900CA308316B100FF
:100CE80031088312AD008316031716080A168A11F5
:100CF8008A230A128A11CA300A168A1532210A1260
:100D08008A112008013E2B2C031717080313B10082
:100D1800B2013108AA003208AB00031716080A16F8
:100D28008A15F8240A128A11EA2C031716080313E5
:100D3800B100B2013108A8003208A9000A168A15C4
:100D4800D6200A128A11EA2C031716080313B100D9
:100D5800B2013108B200B1010317170803133107B4
:100D6800A8000030031801303207A9000A168A15B6
:100D7800E6220A128A11EA2C031716080313B10097
:100D8800B2013108B200B101031717080313310784
:100D9800AC000030031801303207AD009830B300C2
:100DA8003308AE000A168A1501210A128A11EA2CA4
:100DB80003171608031DEB2E1708031DE72E8312D1
:100DC80003130710EA2C831203130714EA2C1603E3
:100DD800031DEA2C1708031DF52E83120313871031
:100DE800EA2C831203138714EA2C0317140803133D
:100DF800B100B2013208003A0319032F4A2F310813
:100E0800023A0319A32C013A0319CD2C0B3A031902
:100E1800DB2C013A0319F42C033A03190B2D013A80
:100E28000319332D073A03194F2D013A03195D2D84
:100E38001C3A03196C2D033A03198C2D013A031936
:100E4800B22D073A0319D52D013A0319442E033A56
:100E58000319622E013A0319202E0F3A0319F22DB5
:100E6800013A0319882E033A0319392C383A031921
:100E7800C02E063A0319A82E013A0319992E153ADD
:100E88000319DC2E713A03191F2C4A2F0800A800F9
:100E98002808031DA31F602F2009AA002109AB0001
:100EA8002209AC002309AD00AA0A0319AB0A0319E9
:100EB800AC0A0319AD0A682F2308AD002208AC005C
:100EC8002108AB002008AA002308220421042004DA
:100ED800031D772F0030A3000030A2000030A100CE
:100EE8000030A00008009630A4002408A900FE30B5
:100EF8002D050319A82F0130A4002408A9070130E3
:100F08000310AD0CAC0CAB0CAA0CFF3E031D842FD8
:100F18007B2F0130A4002408A9070130AA0700305C
:100F280003180130AB07003003180130AC0700305C
:100F380003180130AD0701300310AD0CAC0CAB0C3D
:100F4800AA0CFF3E031DA02FFF302D050319BC2F4F
:100F58008D2F02302902031CBE2F0130A902013057
:100F6800A4000310AA0DAB0DAC0DAD0DA40BB52F4D
:100F7800AC1FAD2F2918C82FFF30AA05FF30AB05CD
:100F88007F30AC05FF30AD050310A90C2908A4007B
:100F9800A501A601A70118300310A40DA50DA60DE3
:100FA800A70DFF3E031DD02F2408AA042508AB0473
:100FB8002608AC042708AD042808031DA31FE52F45
:100FC800AD172D08A3002C08A2002B08A1002A08A1
:100FD800A00008008B1314308316DD000030DE00FB
:100FE8000A168A15DD210A128A11003A0319080027
:060FF8008316111408002D
:101000004B302106200422042304031D13288312DD
:1010100003139817181683161815181218130C3086
:1010200099000B172F28C230831203132106031DCA
:101030003028220320042304031D30281030831697
:1010400003139900031787150313181583129817B4
:10105000831618121813831218160B1783168C1682
:101060008316031307178717831218121816A50182
:101070001A080130A4002408A5070F302502031820
:101080000800382883120313B1002D08031D08003F
:1010900002302C02031D542800302B02031D54285B
:1010A00000302A02031D542803180800831203137A
:1010B0002D08031D692801302C02031D672800300C
:1010C0002B02031D672800302A02031D6728031C1A
:1010D0007028083083120313AF002F08B200732862
:1010E00083120313B2013108AF002F08B3000310BD
:1010F000B30DA030AF002F08B3043208AF002F08A3
:10110000B3040A128A11EE270A128A1583123308D1
:10111000AF00B0012F08A3003008A4000A168A15FA
:101120009B200A128A152B08AF00B0012F08A300DC
:101130003008A4000A168A159B200A128A152A086C
:10114000AF00B0012F08A3003008A4000A168A15CA
:101150009B200A128A152E088400831700080319A1
:1011600023296400831203132D08031D0800023095
:101170002C02031DC32800302B02031DC32800309E
:101180002A02031DC32803180800831203132A0828
:10119000013E7F39031D01292E08840083170008B2
:1011A000AF00B0012F08A3003008A4000A168A156A
:1011B0009B200A128A150A168A1574200A128A15AB
:1011C00000308312A3000030A2000030A1000530DF
:1011D000A0000A168A1548240A128A150130AA07A7
:1011E000003003180130AB07003003180130AC07A2
:1011F000003003180130AD070130AF002F08AE07F3
:1012000058282E08840083170008AF00B0012F086B
:10121000A3003008A4000A168A159B200A128A151A
:101220000130AF002F08AE070130AA0700300318C5
:101230000130AB07003003180130AC070030031851
:101240000130AD07AB280030A300A4000A168A15B0
:101250009B200A128A150A168A1574200A128A150A
:1012600000308312A3000030A2000030A10005303E
:10127000A0000A168A154824080035088039B600EF
:101280003608BF003508B6003607B7003708C60075
:10129000B41B4614460803195B29460A031D582946
:1012A0000030B5000030B4000030B3000030B200B0
:1012B000B417B50163290030B5000030B400003028
:1012C000B3000030B20031088039B6003608BF06DE
:1012D0003108B6003607B7003708C700B01B4714FF
:1012E000470803198129470A031D7E290030B100F0
:1012F0000030B0000030AF000030AE00B017B101D8
:1013000089290030B1000030B0000030AF0000305B
:10131000AE00310830042F042E04031DA82900302C
:10132000B5000030B4000030B3000030B2008030AF
:10133000B4047F30B5043F08B6003608B50435085C
:10134000B1003408B0003308AF003208AE00080026
:101350004608031DB4290030B1000030B000003051
:10136000AF000030AE0008004608B600B7013708ED
:10137000B90047083602B800031CB90338087F3E9D
:10138000C00039080318013E003EC1003508BE0008
:101390003408BD003308BC003208BB000030B50083
:1013A0000030B4000030B3000030B2000030C5009F
:1013B0000030C4000030C3000030C200C7011A3042
:1013C00047020318272A47080319032A0130B600E9
:1013D0000310BB0DBC0DBD0DBE0DB60BE8290130D1
:1013E000B6000310B20DB30DB40DB50DB60BF12957
:1013F000C51B32140130B6000310C20DC30DC40D5D
:10140000C50DB60BFC2931083E02031D112A300818
:101410003D02031D112A2F083C02031D112A2E082C
:101420003B02031C222A45172E08BB022F08031C6F
:101430002F0FBC023008031C300FBD023108031C03
:10144000310FBE020130B6003608C707DF293E085B
:101450003D043C043B04031D4214B41B4A2A0130E2
:10146000B6000310B20DB30DB40DB50DB60B312A95
:10147000C51B32140130B6000310C20DC30DC40DDC
:10148000C50DB60B3C2AFF30C0070318C10AFF3058
:10149000C1072D2AC701C51F632AFF304205B600C8
:1014A000FF304305B700FF304405B8007F304505E5
:1014B000B900390838043704360403193218612A90
:1014C000632AC701C70A47080319952A0130B207E2
:1014D000003003180130B307003003180130B4079F
:1014E000003003180130B507351C952A3208B600C4
:1014F0003308B7003408B8003508B9000130BA0025
:10150000390DB90CB80CB70CB60CBA0B802A3908D7
:10151000B5003808B4003708B3003608B20001300F
:10152000C0070318C10A0030C1074108803AFF0014
:1015300080307F02031D9E2AFF304002031CAE2A2A
:10154000FF3083120313C0000030C1000030B5002B
:101550000030B4000030B3000030B2008312031337
:101560004108803AFF0080307F02031DB92A013014
:1015700040020318C82A83120313C001C1010030BE
:10158000B5000030B4000030B3000030B200BF013D
:10159000831203134008B6003608C600461CD22A40
:1015A000B417D62A7F30B6003608B4054608B60010
:1015B0000310360CB7003708B5009B293A0880396C
:1015C000BF003F08C7003A08BF003F07C0004008FF
:1015D000C900B91B491449080319FC2A490A031D0B
:1015E000F92A0030BA000030B9000030B8000030ED
:1015F000B700B917BA01042B0030BA000030B900A7
:101600000030B8000030B7003E088039BF003F0806
:10161000C80048084706031D47173E08BF003F079C
:10162000C0004008C800BD1B481448080319262BF9
:10163000480A031D232B0030BE000030BD000030DF
:10164000BC000030BB00BD17BE012E2B0030BE0019
:101650000030BD000030BC000030BB00490848022B
:101660000318742B471F382B8030BF003F08C70674
:101670004908BF003F08CA004808BF003F08C9002A
:101680004A08BF003F08C8003708BF003F08CA002B
:101690003B08BF003F08B7004A08BF003F08BB0037
:1016A0003808BF003F08CA003C08BF003F08B80028
:1016B0004A08BF003F08BC003908BF003F08CA0005
:1016C0003D08BF003F08B9004A08BF003F08BD0001
:1016D0003A08BF003F08CA003E08BF003F08BA00F2
:1016E0004A08BF003F08BE00CA014808BF00C00149
:1016F0004008C20049083F02C100031CC20342085F
:10170000803AFF0080307F02031D882B1A3041028F
:10171000031CC12B831203133A083904380437041D
:101720000319942B0130952B0030BF003F08CA00ED
:101730000030BA000030B9000030B8000030B70007
:101740004808BF003F08C900C72B4A1CB02B4A08F5
:10175000BF0003103F0C0138C0004008CA00B22B84
:101760000310CA0C3718CA170130BF003A0DBA0C63
:10177000B90CB80CB70CBF0BB62B0130BF003F083B
:10178000C9078312031348084902031CA52B471BF2
:10179000082C4908031DD52B0030BA000030B900D1
:1017A0000030B8000030B70008003B08B7073C081D
:1017B00003110318013E031DB8073D080311031868
:1017C000013E031DB9073E0803110318013E031D26
:1017D000BA073A1CAA2C4A1CF62B4A08BF00031071
:1017E0003F0C0138C0004008CA00F82B0310CA0C97
:1017F0003718CA170130BF003A0DBA0CB90CB80C33
:10180000B70CBF0BFC2B0130BF003F08C907AA2C47
:101810003A08803AFF003E08803A7F02031D1A2CE6
:101820003D083902031D1A2C3C083802031D1A2CEE
:101830003B0837020318722CFF30BF00FF30C00096
:10184000FF30C100FF30C2003B08C3003C08C400A9
:101850003D08C5003E08C6003708C3023808031C0F
:10186000380F332C342CC4023908031C390F392C9F
:101870003A2CC5023A08031C3A0F3F2C402CC602F2
:101880004308BF0744080318440F472C482CC007DF
:1018900045080318450F4D2C4E2CC1074608031868
:1018A000460AC2074208BA004108B9004008B80019
:1018B0003F08B7008030BF003F08C706CA09CA0A00
:1018C0004A08031D802C0130B7070030031801308F
:1018D000B807003003180130B90700300318013091
:1018E000BA07802C3B08B7023C08031C3C0FB80227
:1018F0003D08031C3D0FB9023E08031C3E0FBA020F
:101900003A08390438043704031DA82C4A08031D7B
:10191000A82C0030BA000030B9000030B800003008
:10192000B70008000130BF000310B70DB80DB90DA6
:10193000BA0DBF0B942CCA1B37144A1CA12C0314DC
:10194000A22C0310CA0D49080319A82C0130C902A2
:10195000B91F922CC801CA1FB52C4A087F39031938
:101960003718B32CB52CC801C80A48080319E82C4D
:101970000130B707003003180130B80700300318F2
:101980000130B907003003180130BA073A1CE82CBF
:101990003708BF003808C0003908C1003A08C20043
:1019A0000130C300420DC20CC10CC00CBF0CC30BF4
:1019B000D22C4208BA004108B9004008B8003F08DC
:1019C000B700490A0319E82C0130BF003F08C907D6
:1019D000490A031D4908031DF82C0030BA000030E5
:1019E000B9000030B8000030B70049080319C7013A
:1019F000491CFC2CB917002D7F30BF003F08B905EA
:101A00004908BF0003103F0CC0004008BA00C71FC0
:101A10000800BA1708004E088039D3005308D800D0
:101A20004E08D3005307D4005408DE00CD1B5E14CB
:101A30005E080319282D5E0A031D262D0030CE00F6
:101A40000030CD000030CC000030CB00CD17302D61
:101A50000030CE000030CD000030CC000030CB0094
:101A600052088039D3005308D8065208D3005307D0
:101A7000D4005408D900D11B5914590803194D2D0D
:101A8000590A031D4B2D0030D2000030D100003028
:101A9000D0000030CF00D117552D0030D2000030DB
:101AA000D1000030D0000030CF005908031D5E087F
:101AB000031D632D0030CE000030CD000030CC007F
:101AC0000030CB0008004B08D3005308A000510899
:101AD0000A168A1520220A128A152108E400200815
:101AE000E3006308D300D401D501D6015608DD0018
:101AF0005508DC005408DB005308DA006408D30002
:101B0000D401D501D6015608E2005508E100540879
:101B1000E0005308DF004C08D3005308A000500831
:101B20000A168A1520220A128A152108E4002008C4
:101B3000E3006308D300D401D501D6015308DA07C6
:101B4000540803110318013E031DDB075508031158
:101B50000318013E031DDC07560803110318013E5C
:101B6000031DDD076408D300D401D501D601530855
:101B7000DF07540803110318013E031DE007550851
:101B800003110318013E031DE10756080311031852
:101B9000013E031DE2074D08D3005308A0004F0883
:101BA0000A168A1520220A128A152108E400200844
:101BB000E3006308D300D401D501D6015308DA0746
:101BC000540803110318013E031DDB0755080311D8
:101BD0000318013E031DDC07560803110318013EDC
:101BE000031DDD076408D300D401D501D6015308D5
:101BF000DF07540803110318013E031DE0075508D1
:101C000003110318013E031DE107560803110318D1
:101C1000013E031DE2070830D3000310DA0DDB0D8F
:101C2000DC0DDD0DD30B0D2E4C08D3005308A000A6
:101C30004F080A168A1520220A128A152108E40084
:101C40002008E3006308D3006408D400D501D6015E
:101C50005308DA07540803110318013E031DDB077C
:101C6000550803110318013E031DDC075608031134
:101C70000318013E031DDD074B08D3005308A000E5
:101C800050080A168A1520220A128A152108E40033
:101C90002008E3006308D3006408D400D501D6010E
:101CA0005308DA07540803110318013E031DDB072C
:101CB000550803110318013E031DDC0756080311E4
:101CC0000318013E031DDD070830D3000310DA0DB1
:101CD000DB0DDC0DDD0DD30B662E4B08D300530856
:101CE000A0004F080A168A1520220A128A15210818
:101CF000E4002008E3006308D3006408D400D501A1
:101D0000D6015308DA07540803110318013E031DD6
:101D1000DB07550803110318013E031DDC075608B5
:101D200003110318013E031DDD074C08D3005308BF
:101D3000A00051080A168A1520220A128A152108C5
:101D4000E4002008E3006308D3006408D400D50150
:101D5000D6015308DF07540803110318013E031D81
:101D6000E007550803110318013E031DE10756085B
:101D700003110318013E031DE2074D08D300530869
:101D8000A00050080A168A1520220A128A15210876
:101D9000E4002008E3006308D3006408D400D50100
:101DA000D6015308DF07540803110318013E031D31
:101DB000E007550803110318013E031DE10756080B
:101DC00003110318013E031DE2074D08D300530819
:101DD000A00051080A168A1520220A128A15210825
:101DE000E4002008E3006308D3006408D400D501B0
:101DF000D60108300310D30DD40DD50DD60DFF3EFE
:101E0000031DFA2E5308DF07540803110318013E7F
:101E1000031DE007550803110318013E031DE107E8
:101E2000560803110318013E031DE2075D08D300A5
:101E3000D401D501D6015308DF0754080311031854
:101E4000013E031DE007550803110318013E031D61
:101E5000E107560803110318013E031DE20708308D
:101E6000D3000310DA0DDB0DDC0DDD0DD30B312FAC
:101E70005E085907D300D401D40D5308823EE30015
:101E800054080318013EFF3EE400E11B622F0130BD
:101E9000D3000310DF0DE00DE10DE20DD30B492F50
:101EA000DD1B5F140130D3000310DA0DDB0DDC0DF8
:101EB000DD0DD30B542FFF30E3070318E40AFF3086
:101EC000E407452FD901DD1F7B2FFF305A05D300D2
:101ED000FF305B05D400FF305C05D5007F305D0529
:101EE000D600560855045404530403195F18792F7B
:101EF0007B2FD901D90A59080319AD2F0130DF070B
:101F0000003003180130E007003003180130E1070A
:101F1000003003180130E207621CAD2F5F08D300C8
:101F20006008D4006108D5006208D6000130D700EF
:101F3000560DD60CD50CD40CD30CD70B982F5608B5
:101F4000E2005508E1005408E0005308DF000130CA
:101F5000E3070318E40A0030E4076408803AFF004E
:101F600080307F02031DB62FFF306302031CC32F96
:101F70007F3083120313E2008030E1000030E00084
:101F80000030DF00F32F831203136408803AFF0050
:101F900080307F02031DCE2F013063020318DC2F37
:101FA000003083120313E2000030E1000030E00053
:101FB0000030DF00D801F32F831203136308D3002E
:101FC0005308DE00FF30DF05FF30E0057F30E1051C
:101FD0000030E2055E18E1175E08D3000310530CD1
:101FE000D4005408E2005808D3005308E204620801
:101FF000CE006108CD006008CC005F08CB0008006F
:1020040083120313A700250884008317000803190B
:102014002228250884000008A6002608A000270816
:102024000A168A1580240A168A11013083120313B2
:10203400A6002608A7070130A6002608A50705283C
:10204400250884000008A6002608A00027080A1610
:102054008A15802408008B188B100C1CA828B1301A
:102064008F00F3308E000C108316E41F3B28E4131A
:1020740064000A30F8070318F90A0030F90703303E
:102084007902E83003197802031C4A28F801F9019F
:1020940001307902F43003197802031855288312A9
:1020A40003138617582883120313861383165B08B9
:1020B4005C04031966280A30DB020030031CDC03CD
:1020C400DC028312061768288312061383165D0840
:1020D4005E04031976280A30DD020030031CDE0397
:1020E400DE02831286167828831286120A3083163B
:1020F400D3070318D40A0030D4070A30D9070318C9
:10210400DA0A0030DA07E8305906033003195A06B0
:10211400031DA828D901DA010130F0007008FD0779
:102124003C307D06031DA828FD010130F000700835
:10213400FA073C307A06031DA828FA010130F000A2
:102144007008FC0718307C060319FC0183128C1EEE
:102154000F29831664141E30F6000030F700D501F1
:10216400D6011030F0007008DF00760877040319F8
:10217400EA28831203138C1EE3281A08F00083163E
:102184005F0884007008831780005608803AFF00B7
:1021940080307F02031DD028333055020318DE2817
:1021A400013083160313D5070318D60A0030D60767
:1021B4000130F0007008DF071E30F6000030F70031
:1021C400B7280130F6020030031CF703F702B728E2
:1021D400831603135F088400831780018312981CFD
:1021E4000F29181218161A08F000F1017008F600E9
:1021F4007108F7001A08F000F1017008F600710880
:10220400F7001A08F000F1017008F6007108F700F1
:102214000317900183160313E41475088312FF0057
:1022240074088A0073088400720E8300FE0E7E0E0A
:102234000900023083160313C6000430C500B93008
:10224400C400C40B2329C50B2329C60B23292A291F
:10225400831603130F168F160F1783128501860139
:1022640087018901EF30831685000F308600F03036
:102274008700FF3089001130031788008901031398
:1022840081130F30950083128617061786160030C7
:10229400A3000030A2000330A100E830A0000A1619
:1022A4008A1548240A168A1183168112811501148D
:1022B400811401158B120B128B170B178312101636
:1022C4009016901083160C14013083129000640051
:1022D4000A168A1590200A168A110030B1000130BE
:1022E400B0008630AF00A030AE000A168A15102365
:1022F4000A168A1100308312A3000130A200C230F2
:10230400A1000030A0000A128A1500200A168A11C2
:1023140010300A168A15BC220A168A11240883165C
:10232400C800831223088316C700470A031DA72980
:10233400480A031DA72900308312A500A600103007
:102344000A168A1541230A168A11013083160313CB
:10235400C7070318C80A0030C80748088312A60034
:10236400831647088312A50010300A168A154123E4
:102374000A168A11F801F90183160313DB01DC0143
:10238400DD01DE01FD01FC01831207108710051138
:10239400851106090F398316C4004408E100E201DF
:1023A400E20A6311E4170130C4004408E207023072
:1023B40062060319E20162080A128A1137200A161A
:1023C4008A118316641CD4298312031710088316F8
:1023D4000313D80083120317110883160313D700BD
:1023E400BB305706AA3003195806031DD42983129B
:1023F4000317130883160313C4004408E00060089D
:102404006106031D600A031DD4291430DB0000306B
:10241400DC000A128A11FF230A168A118316031399
:102424006410D42983120313B40014308316DD001E
:102434000030DE0083122D08031D080002302C0238
:10244400031D2C2A00302B02031D2C2A00302A02E3
:10245400031D2C2A03180800831203132D08031DDF
:10246400412A01302C02031D3F2A00302B02031D98
:102474003F2A00302A02031D3F2A031C482A083041
:1024840083120313B1003108B5004B2A83120313DE
:10249400B5013408B1003108B6000310B60DA03000
:1024A400B1003108B6043508B1003108B6040A1287
:1024B4008A11EE270A168A1183123608B100B20176
:1024C4003108A3003208A4000A168A159B200A16B4
:1024D4008A112B08B100B2013108A3003208A4000C
:1024E4000A168A159B200A168A112A08B100B2011D
:1024F4003108A3003208A4000A168A159B200A1684
:102504008A11B3012E08FF3EB100FF3003180030DA
:10251400B2003208803A803C031D922A310833020B
:102524000318652B6400831203132D08031D080090
:1025340002302C02031DA62A00302B02031DA62AFA
:1025440000302A02031DA62A03180800831203136D
:102554002A08013E7F39031D3B2B2F088400831773
:10256400301C83130008B100B2013108A300320803
:10257400A4000A168A159B200A168A110A168A15BF
:1025840074200A168A1100308312A3000030A200BE
:102594000030A1000530A0000A168A1548240A1646
:1025A4008A110130AA07003003180130AB0700304C
:1025B40003180130AC07003003180130AD070130B7
:1025C400AF070318B00A0030B0072D08031DF82A1E
:1025D40001302C02031DF62A00302B02031DF62ABB
:1025E40000302A02031DF62A031CFF2A0830831236
:1025F4000313B1003108B500022B83120313B50194
:102604003408B1003108B6000310B60DA030B10093
:102614003108B6043508B1003108B6040A128A112B
:10262400EE270A168A1183123608B100B201310866
:10263400A3003208A4000A168A159B200A168A11E0
:102644002B08B100B2013108A3003208A4000A1615
:102654008A159B200A168A112A08B100B201310892
:10266400A3003208A4000A168A159B200A168A11B0
:10267400602B2F0884008317301C83130008B100DB
:10268400B2013108A3003208A4000A168A159B205F
:102694000A168A110130AF070318B00A0030B007D8
:1026A4000130AA07003003180130AB0700300318CB
:1026B4000130AC07003003180130AD070130B10020
:1026C4003108B307842A831203132F088400831765
:1026D400301C83130008B100B2013108A300320892
:1026E400A4000A168A159B200A168A110A168A154E
:1026F40074200A168A1100308312A3000030A2004D
:102704000030A1000530A0000A168A1548240800EC
:1027140083120313B100B2012C08031D0800023018
:102724002B02031D9D2B00302A02031D9D2B00301C
:102734002902031D9D2B03180800831203132C0880
:10274400031DB22B01302B02031DB02B00302A02D3
:10275400031DB02B00302902031DB02B031CB92B21
:10276400083083120313AE002E08B200BC2B831270
:102774000313B2013108AE002E08B3000310B30DE9
:10278400A030AE002E08B30433143208AE002E0875
:10279400B3040A128A11EE270A168A118312330827
:1027A400FE39AE00AF012E08A3002F08A4000A16BC
:1027B4008A159B200A168A112A08AE00AF012E083A
:1027C400A3002F08A4000A168A159B200A168A1152
:1027D4002908AE00AF012E08A3002F08A4000A1692
:1027E4008A159B200A168A110A168A15A6200A162B
:1027F4008A1183123308AE00AF012E08A3002F08FC
:10280400A4000A168A159B200A168A11B0012C0806
:10281400031DEB2C02302B02031D182C00302A025E
:10282400031D182C00302902031D182C0318EB2C4F
:10283400831203132908013E7F39031DBB2C00308A
:10284400A300A4000A168A15A6230A168A112308CF
:10285400AE002D0884002E08831780000A168A15FE
:1028640074200A168A110D3083120313AF00FB3053
:10287400AE00AE0B3B2CAF0B3B2C01308312031389
:10288400A907003003180130AA07003003180130EB
:10289400AB07003003180130AC070130AE002E083E
:1028A400AD072C08031D642C01302B02031D622C80
:1028B40000302A02031D622C00302902031D622C01
:1028C400031C6B2C083083120313AE002E08B200D5
:1028D4006E2C83120313B2013108AE002E08B3002C
:1028E4000310B30DA030AE002E08B3043314320825
:1028F400AE002E08B3040A128A11EE270A168A11B2
:1029040083123308FE39AE00AF012E08A3002F084E
:10291400A4000A168A159B200A168A112A08AE00FA
:10292400AF012E08A3002F08A4000A168A159B20C5
:102934000A168A112908AE00AF012E08A3002F0839
:10294400A4000A168A159B200A168A110A168A15EB
:10295400A6200A168A1183123308AE00AF012E088E
:10296400A3002F08A4000A168A159B200A168A11B0
:10297400E22C0130A3000030A4000A168A15A62315
:102984000A168A112308AE002D0884002E08831726
:1029940080002D08840000080319EB2C0130AE00E0
:1029A4002E08AD070130A907003003180130AA072B
:1029B400003003180130AB07003003180130AC07B6
:1029C4000130B007FF303007AE0040302E02031C48
:1029D400092C003083120313A300A4000A168A15DD
:1029E400A6230A168A110A168A1574200A168A1151
:1029F400B93083120313AE00FF2C002DAE0BFE2C56
:102A0400032D080083120313B200B301143083169C
:102A1400DD000030DE0083122C08031D08000230A4
:102A24002B02031D1D2D00302A02031D1D2D003015
:102A34002902031D1D2D03180800831203132C08FB
:102A4400031D322D01302B02031D302D00302A02CC
:102A5400031D302D00302902031D302D031C392D98
:102A6400083083120313AF002F08B3003C2D8312E8
:102A74000313B3013208AF002F08B4000310B40DE0
:102A8400A030AF002F08B40434143308AF002F086B
:102A9400B4040A128A11EE270A168A118312340822
:102AA400FE39AF00B0012F08A3003008A4000A16B5
:102AB4008A159B200A168A112A08AF00B0012F0834
:102AC400A3003008A4000A168A159B200A168A114E
:102AD4002908AF00B0012F08A3003008A4000A168B
:102AE4008A159B200A168A110A168A15A6200A1628
:102AF4008A1183123408AF00B0012F08A3003008F4
:102B0400A4000A168A159B200A168A11B1012D0801
:102B140031020318692E6400831203132C08031D69
:102B2400692E02302B02031D9F2D00302A02031D43
:102B34009F2D00302902031D9F2D0318692E831237
:102B440003132908013E7F39031D3D2E0030A300E5
:102B5400A4000A168A15A6230A168A112308AF00B0
:102B64002E0884002F08831780000A168A15742003
:102B74000A168A1183122E088400831700080A1685
:102B84008A15B1200A168A1101308312A907003070
:102B940003180130AA07003003180130AB070030D6
:102BA40003180130AC072C08031DE62D01302B025D
:102BB400031DE42D00302A02031DE42D00302902F8
:102BC400031DE42D031CED2D083083120313AF0005
:102BD4002F08B300F02D83120313B3013208AF00A2
:102BE4002F08B4000310B40DA030AF002F08B404B4
:102BF40034143308AF002F08B4040A128A11EE27E4
:102C04000A168A1183123408FE39AF00B0012F0866
:102C1400A3003008A4000A168A159B200A168A11FC
:102C24002A08AF00B0012F08A3003008A4000A1638
:102C34008A159B200A168A112908AF00B0012F08B3
:102C4400A3003008A4000A168A159B200A168A11CC
:102C54000A168A15A6200A168A1183123408AF00B0
:102C6400B0012F08A3003008A4000A168A159B207F
:102C74000A168A11642E0130A3000030A4000A163B
:102C84008A15A6230A168A112308AF002E08840089
:102C94002F08831780002E08840000080A168A155E
:102CA400B1200A168A1101308312A90700300318D3
:102CB4000130AA07003003180130AB0700300318B5
:102CC4000130AC070130AF002F08B107892D003067
:102CD40083120313A300A4000A168A15A6230A1656
:102CE4008A110A168A1574200A168A11B9308312B9
:102CF4000313AF007D2E7E2EAF0B7C2E812E080099
:102D0400B300B40114308316DD000030DE008312FA
:102D14002D08031D080002302C02031D992E0030DB
:102D24002B02031D992E00302A02031D992E03182D
:102D34000800831203132D08031DAE2E01302C024C
:102D4400031DAC2E00302B02031DAC2E00302A02D2
:102D5400031DAC2E031CB52E083083120313B000E0
:102D64003008B400B82E83120313B4013308B00042
:102D74003008B5000310B50DA030B0003008B5041C
:102D840035143408B0003008B5040A128A11EE274D
:102D94000A168A1183123508FE39B000B1013008D1
:102DA400A3003108A4000A168A159B200A168A116A
:102DB4002B08B000B1013008A3003108A4000A16A2
:102DC4008A159B200A168A112A08B000B10130081E
:102DD400A3003108A4000A168A159B200A168A113A
:102DE4000A168A15A6200A168A1183123508B0001D
:102DF400B1013008A3003108A4000A168A159B20EB
:102E04000A168A11B2012E0832020318E72F640051
:102E1400831203132D08031DE72F02302C02031D18
:102E24001B2F00302B02031D1B2F00302A02031D11
:102E34001B2F0318E72F831203132A08013E7F393F
:102E4400031DC02F0030A300A4000A168A15A62370
:102E54000A168A112308B0002F088400300883134F
:102E640080000A168A1574200A168A11003083120B
:102E7400A3000030A2000030A1000530A0000A1613
:102E84008A1548240A168A110130AA07003003184B
:102E94000130AB07003003180130AC0700300318D1
:102EA4000130AD070130B0003008AF072D08031D15
:102EB400692F01302C02031D672F00302B02031DE4
:102EC400672F00302A02031D672F031C702F083060
:102ED40083120313B0003008B400732F831203135A
:102EE400B4013308B0003008B5000310B50DA030AC
:102EF400B0003008B50435143408B0003008B50407
:102F04000A128A11EE270A168A1183123508FE392D
:102F1400B000B1013008A3003108A4000A168A15D4
:102F24009B200A168A112B08B000B1013008A300B7
:102F34003108A4000A168A159B200A168A112A0849
:102F4400B000B1013008A3003108A4000A168A15A4
:102F54009B200A168A110A168A15A6200A168A11B7
:102F640083123508B000B1013008A3003108A40071
:102F74000A168A159B200A168A11E22F0130A30033
:102F84000030A4000A168A15A6230A168A112308FB
:102F9400B0002F0884003008831380000130B00093
:102FA4003008AF070130AA07003003180130AB071F
:102FB400003003180130AC07003003180130AD07AE
:102FC4000130B0003008B207052F0030831203131C
:102FD400A300A4000A168A15A6230A168A110A1643
:102FE4008A1574200A168A11B93083120313B000AB
:102FF400FB2FFC2FB00BFA2FFF2F0800FF1B0A2812
:1030040083137F1883170008840A0319FF0A080032
:1030140018308A000408840A82070034663466344F
:10302400A634BF341434AE342B34C13400344034A9
:103034001C34463466348634963443340034C03405
:103044007F3444340034003400340034C434FF3456
:103054007F343F348034EF34FF34BE349034E13471
:10306400A9343E34EC3482347634BE348234AD3404
:103074002B343E340E343C34C334BD348734D13421
:1030840013343D3441347834D334BB3400346034A5
:1030940078344534003440341C3446347634313486
:1030A4002E3430342E343234313400344F344B34F3
:0230B4000034E6
:1030D80064008001840A04060319003404066D287C
:1030E8000A168A15DD21003A8316031D11158B1760
:1030F800080049308312A1008030A2000A168A1500
:10310800732308009F149F1887281E08A1008316A0
:103118001E088312A0000800C030831203139F0406
:10312800803083169F009F1783121F1408000A1609
:103138008A15DD210A168A15003A031908002308A2
:10314800930008000A168A15DD210A168A15003A26
:103158000319080083169114080083120313A000B2
:1031680014308316DB000030DC00981CB928831269
:1031780020089900831698160800A030A20022089B
:10318800A300230A8400831300080A168A15B120B5
:103198000A168A1523088400831300080A168A155C
:1031A800B12008000330AA002A08AB002908AA00A9
:1031B8002A08AC002808AA002A08AD000330AA0093
:1031C8002A08A400AB300A168A15DB2308008312EC
:1031D8000313BC003A08AD003908AC003808AB004E
:1031E8003708AA00AE01AE0A3B30AF000030B0008D
:1031F8003C080A168A11142208002D08A5002C087C
:10320800A4002E08A6000130A7002E080A168A1569
:1032180032210A168A152008013E8316AF002F08AE
:10322800A8000A168A153825080083120313BB0064
:103238003908AD003808AC003708AB003608AA00DA
:10324800AE01AE0A3C30BA003A08AF003B080A1695
:103258008A118226831203133C0808008312031381
:10326800A4002408A2002208A300230884008317CE
:103278000008031944290130A2002208A3073929AC
:1032880024082302A000A101A01BA1030800641CBC
:103298005F298312031713088316031361060319A2
:1032A8005A2983120317130A031D5F298312031374
:1032B800A001A00A622983120313A00120080800B4
:1032C800A401A50121082502031D6C292008240258
:1032D80003180800033083120313A3009730A200D9
:1032E800A20B7429A30B7429013083120313A407BA
:1032F8000318A50A0030A5076629A2002208A10024
:103308002108A300200884000A168A150A200A1634
:103318008A15A1002308840021088317800000086B
:10332800031908000130A1002108A3070130A100FA
:103338002108A00786298030CE065208BA00510815
:10334800B9005008B8004F08B7004E08BE004D0835
:10335800BD004C08BC004B08BB000A128A15DE22CF
:103368003A08CE003908CD003808CC003708CB0021
:10337800080083120313A50025080A168A15FE21E2
:103388000A168A150313A4002408A6000130A40015
:103398002408A5072608A400230884002408831706
:1033A80080000130A4002408A30726080319080098
:1033B800C029C8308312A0002008A200EF290130DC
:1033C800A202033083120313A1009730A000A00BC0
:1033D800EB29A10BEB29831603131419F7291108FC
:1033E8001F390319FB2983122208031DE3298312BD
:1033F8002208080083120313A20014308316DD008C
:103408000030DE0003178C18062A831203132208E3
:1034180003178D0083168C130C144E30831203137C
:10342800A100EA30A000A00B172AA10B172A000060
:10343800831203170C080800A800A401A50120089E
:10344800A200A3012208A6002308A700281C322AEC
:103458002608A4070318A50A2708A50701300310A2
:10346800A60DA70DFF3E031D332A0310A80C28083C
:10347800031D2A2A2508A1002408A0000800831299
:103488000313BC003908AD003808AC003708AB009E
:103498003608AA000230BA003A08AE003D30BB0038
:1034A8003B08AF003C080A168A11822683120313D0
:1034B8003D08BA00BB013A08BB00BA013E083A070A
:1034C800B6000030031801303B07B700080083122C
:1034D8000313A100AA300A168A15B1200A168A1504
:1034E800BB300A168A15B1200A168A1561080A1611
:1034F8008A15B1200A168A1500300A168A15B120D5
:103508000A168A15031714080A168A15B1200A160E
:103518008A15831221080A168A15B1200800031398
:10352800A7002508A6002608A8002408A600260843
:10353800A90023088312AD00831622088312AC0069
:10354800831621088312AB00831620088312AA0071
:1035580002308316A60026088312AE00A830AF00FA
:103568000030B000831627080A168A1114220800B2
:1035780083120313A6002830A5002508A700AA0176
:1035880026080A168A15FE210A168A150313A500AD
:10359800270884002508831380000130A50025082A
:1035A800A6070130A5002508A7070130A5002508B2
:1035B800AA0702302A02031CC42A2908A4002808E2
:1035C800A30008000A308312A0000030A10083166F
:1035D80029088312A300831628088312A2000A165A
:1035E8008A15BC240A168A1521088316A900831295
:1035F80020088316A8000230AA002A08AB00280871
:10360800AA002A08AC000230AA002A08A400AB309D
:103618000A168A15DB2308002830940083169101C6
:1036280083122E08B2002F08B3003008B400310806
:10363800B50002300310B20DB30DB40DB50DFF3E49
:10364800031D1E2B3508A3003408A2003308A1006F
:103658003208A0000030A7007A30A6001230A5007A
:103668000030A4000A168A1527262008FF3E831674
:10367800930094018715071608008312AA002530C5
:10368800A7002708A900AB012908840083130008B4
:10369800A7002708A0002A080A168A1580240A16F7
:1036A8008A15013083120313A7002708A9070130E0
:1036B800A7002708AA070130A7002708AB07023090
:1036C8002B02031C482B4E3083120313A800EA3048
:1036D800A700A70B6D2BA80B6D2B00000800210875
:1036E800A3002208A4002408FF00230884000A1667
:1036F8008A1500200A168A15003A0319992B2408FE
:10370800FF00230884000A168A1500200A168A1565
:103718000A168A15B1200A168A1501308312A307E2
:103728000318A40A0030A407772B2408FF002308F5
:1037380084000A168A1500200A168A150A168A15A0
:10374800B12008000A168A15DD210A168A15003AE2
:103758008316031D91150A168A15DD210A168A1586
:10376800003A0319BE2B1308A500A6012508A700D7
:103778002608A8000A168A15DD210A168A15003AB5
:103788000319D82B23082404031DCE2B83160313F7
:103798009116D12B83160313911211168312280840
:1037A800A4002708A3000800A301A4010800A6009C
:1037B800A530A0005A30A1000A168A15C1200A16A1
:1037C8008A152408013E0A168A15B1200A168A1598
:1037D80080300A168A15B1200A168A15A70124080E
:1037E80027020318082C27082607A50025088400A7
:1037F800831300080A168A15B1200A168A150130A3
:10380800A5002508A707F32B01308312A00000307C
:10381800A1000A168A15642108000030A9000030AA
:10382800A8000030A7000030A6002908803AFF0051
:103838002308803A7F02031D2B2C22082802031D2F
:103848002B2C21082702031D2B2C200826020318E5
:103858000800033083120313A5009730A400A40BBB
:10386800332CA50B332C013083120313A607003029
:1038780003180130A707003003180130A8070030EB
:1038880003180130A907192C0030A9000030A8003E
:103898000030A7000030A6002908803AFF0023085E
:1038A800803A7F02031D622C22082802031D622C25
:1038B80021082702031D622C20082602031808008D
:1038C8006400033083120313A5009730A400A40BEF
:1038D8006B2CA50B6B2C013083120313A607003049
:1038E80003180130A707003003180130A80700307B
:1038F80003180130A907502C83120313A3001430B6
:103908008316DD000030DE0003178C18882C8B1F0F
:10391800922C83120313A401A40A952C8312031377
:10392800A401230803178D000313200803178C0034
:1039380083168C130C158B1355308D00AA308D000F
:103948008C14831203132403031DAC2C8B17AD2C8A
:103958008B13831603170C114E3083120313A20026
:10396800EA30A100A10BB62CA20BB62C000008006F
:10397800A501A601200821040319F32CA701A70A11
:10398800A11BD22C01300310A00DA10DFF3E031D79
:10399800C72C0130A4002408A707C42C0130031049
:1039A800A50DA60DFF3E031DD32C21082302031DE0
:1039B800DF2C20082202031CE82C2008A202210880
:1039C800031CA303A302251401300310A10CA00CAF
:1039D800FF3E031DE92C0130A702031DD22C260847
:1039E800A1002508A00008000313AC000030B000B7
:1039F8000030AF000030AE000030AD008316031376
:103A08003008A3002F08A2002E08A1002D08A0004E
:103A18002B08A5002A08A4002C080A168A15932248
:103A28000A168A156400023083160313AD070030A6
:103A380003180130AE07003003180130AF0700301B
:103A480003180130B0073008031D08002F08031DB4
:103A5800080004302E02031D352D00302D02031DF1
:103A6800352D03180800022DA530A0005A30A100FA
:103A78000A168A15C1200A168A152808033E0A164E
:103A88008A15B1200A168A1582300A168A15B120BD
:103A98000A168A152508A1002408A0000A168A1506
:103AA800C1200A168A15AB0128082B020318732DAA
:103AB8002B082607A90027080318013EAA00290891
:103AC800840083172A1C831300080A168A15B1205C
:103AD8000A168A150130A9002908AB07582D0130AC
:103AE8008312A0000030A1000A168A15642108007C
:103AF8008312A40024088400031711088317800088
:103B0800840A1008800012080313A0002408023E4B
:103B1800840020088000031713080313A00024085A
:103B2800033E840020088000031714080313A00034
:103B38002408043E84002008800003171508031396
:103B4800A0002408053E840020088000A201A301EB
:103B58002408053E84002308803AA0008030200213
:103B6800031DB82D0008220203180800831203134E
:103B78002208163E840083170008A00022082407A4
:103B8800A1002108063E8400200880000130A20719
:103B98000318A30A0030A307AC2D8312B30033081F
:103BA800B200B20DB20D1F083206C33932069F00AB
:103BB8000030A3000030A2000030A1000130A000B6
:103BC8000A168A1511240A168A15B401B501B60118
:103BD800B60A0A168A1586200A168A152008B40716
:103BE8000318B50A2108B5070130B2003208B60734
:103BF80033303602031CED2D3608FF3EA000FF309F
:103C080003180030A1003508A3003408A2000A16E2
:103C18008A15BC240A168A152108B5002008B400A4
:103C28003408A0003508A100A201A30100300A123F
:103C38008A114B272308B1002208B0002108AF00E1
:103C48002008AE0008000030AC000030AB000030A7
:103C5800AA000030A9002308220421042004031923
:103C68007C2EAD01AD0AA31B472E0130A80003101E
:103C7800A00DA10DA20DA30DA80B3B2E0130A8008D
:103C88002808AD07372E0130A8000310A90DAA0D8A
:103C9800AB0DAC0DA80B492E23082702031D5E2E81
:103CA80022082602031D5E2E21082502031D5E2E12
:103CB80020082402031C6F2E2008A4022108031CDC
:103CC800210FA5022208031C220FA6022308031CA9
:103CD800230FA702291401300310A30CA20CA10C76
:103CE800A00CFF3E031D702E0130AD02031D472EB0
:103CF8002C08A3002B08A2002A08A1002908A0006C
:103D080008000310670D680DE9006908EF006F08E7
:103D1800031D972E0030E8000030E7000030E60071
:103D28000030E50008006508E9006608EA00670851
:103D3800EB006808EC001F300310EC0CEB0CEA0CED
:103D4800E90CFF3E031DA02E6908ED006D08EE008A
:103D5800E717FF30E505FF30E605FF30E7050030DF
:103D6800E8059630EF02EF1FCE2E6F08803A973E97
:103D7800031C8E2E01300310E80CE70CE60CE50C52
:103D8800FF3E031DBF2E0130E9006908EF07031944
:103D9800E12EBE2E20306F0203188E2E6F080319F5
:103DA800E12E0130E9000310E50DE60DE70DE80D01
:103DB800E90BD72E0130EF02D22E6E080319080046
:103DC800E509E609E709E809E50A0319E60A031916
:103DD800E70A0319E80A08002D08A3002C08A20026
:103DE8002B08A1002A08A0004C088312D2008316D1
:103DF8004B088312D10083164A088312D000831619
:103E080049088312CF004130CE002030CD00003069
:103E1800CC000030CB000A128A150B250A168A1529
:103E28004E08E8004D08E7004C08E6004B08E5009E
:103E38000A168A1585260A168A1566088316A500A5
:103E4800831265088316A40000300A168A15932287
:103E58000A168A15831603132D08A3002C08A2003E
:103E68002B08A1002A08A00050088312D20083164C
:103E78004F088312D10083164E088312D000831690
:103E88004D088312CF004130CE002030CD000030E5
:103E9800CC000030CB000A128A150B250A168A15A9
:103EA8004E08E8004D08E7004C08E6004B08E5001E
:103EB8000A168A1585260A168A1566088316A50025
:103EC800831265088316A40001300A168A15932206
:103ED800080000302005A80000302105A900803026
:103EE8002205AA007F302305AB002B082A042904E9
:103EF8002804031D872F0030A3000030A2000030E3
:103F0800A1000030A00000302405A80000302505DD
:103F1800A90080302605AA007F302705AB002B08B2
:103F28002A0429042804031DA12F0030A70000300B
:103F3800A6000030A5000030A400A31FC72F003042
:103F4800A8000030A9000030AA008030AB0020088B
:103F5800A8022108031C210FB22FB32FA90222089F
:103F6800031C220FB82FB92FAA022308031C230F02
:103F7800BE2FBF2FAB022B08A3002A08A2002908D6
:103F8800A1002808A000A71FED2F0030A8000030CE
:103F9800A9000030AA008030AB002408A802250838
:103FA800031C250FD82FD92FA9022608031C260F7A
:103FB800DE2FDF2FAA022708031C270FE42FE52F87
:103FC800AB022B08A7002A08A6002908A500280884
:103FD800A4008030A3068030A70627082302031D0B
:103FE800080026082202031D080025082102031DD7
:083FF800080024082002080063
:04400E008C2FFF3FB5
:00000001FF
