:060000000A128A11122809
:10000800FE00030EF6000408F7000A08F800831241
:1000180003137F08F9000A168A11C8280A128A11E0
:10002800152883160130ED00FC00903083178400FA
:10003800EA300A128A1500200A128A111030840048
:1000480065300A128A1500200A128A11DD308313DE
:100058008400ED300A128A150020F001F101F20146
:10006800F301F401F50183010A128A151D28A53050
:10007800A8005A30A900A2230A128A112E08033EAA
:1000880091230A128A11823091230A128A112B08AD
:10009800A9002A08A800A2230A128A11B1012E0871
:1000A80031020318692831082C07AF002D080318FE
:1000B800013EB0002F0884008317301C831300080A
:1000C80091230A128A11B10A53288312A001A00AA7
:1000D800A1016E28A401A50121082502031D762887
:1000E8002008240203180800033083120313A30016
:1000F8009730A200A20B7E28A30B7E28831203133D
:10010800A40A0319A50A7028AC00A530A8005A3023
:10011800A900A2230A128A112A08013E91230A1271
:100128008A11803091230A128A11AD012A082D0202
:100138000318A9282D082C07AB0084008313000896
:1001480091230A128A11AD0A9A288312A001A00AE3
:10015800A1016E28B0300A128A11A4270A128A1146
:100168008316031737080313CD0003173808031342
:10017800CC00031739080313CB0003173A080313FD
:10018800CA001B2B2D308312A00044300A128A1596
:1001980008200A128A110B3076230A128A11443079
:1001A8008312A1000130A200042F03173608031D93
:1001B800EB2817080313C800031716080313C70012
:1001C800031715080313C60003171408F8281308A3
:1001D8000313C800031712080313C70003171108F5
:1001E8000313C600031710080313C5004130831218
:1001F800D7002030D600D501D401831648088312D1
:10020800DB00831647088312DA0083164608831238
:10021800D900831645088312D800C3230A128A110D
:1002280057088316C800831256088316C70083121E
:1002380055088316C600831254088316C5008B130D
:10024800023076234808A3004708A2004608A10008
:100258004508A0000A168A158E240A128A118316E8
:100268002108A9002008A800A2238B17080003175B
:1002780036080313CD00031737080313CC00031700
:1002880038080313CB00031739080313CA004D08B5
:10029800B4004C08B3004B08B2004A08B1000A1673
:1002A8008A15382483160317AA01AB01A601A701F2
:1002B800080003173608031D642903136C1308008C
:1002C80003136C170800023076230A128A110330D0
:1002D800A800A901A22B033076230A128A11B2239F
:1002E8000A168A11A6290317370883120313A000D8
:1002F800831603173608DF250A128A11033076237E
:100308000A128A11B22B031736080A168A116622B6
:100318000A128A1183160313C900013076230A12C0
:100328008A114908912B031736080313C1000317D4
:1003380037080313C000031738080313BF00400829
:100348008312A60083163F088312A500831641086E
:100358001A260A128A118229031736080A168A11E0
:1003680087220A128A1124088316C40083122308DC
:100378008316C300023076230A128A114408A900A2
:100388004308A800A22BB7308312A50083160317D1
:100398003608B5260A128A11822944308312A3002E
:1003A800831603173608C9250A128A112130D02866
:1003B8004D088312BA0083164C088312B9008316BD
:1003C8004B088312B80083164A088312B7008316B5
:1003D80003173B0883120313BB0083160317360861
:1003E800B5250A128A1182294D088312B80083168E
:1003F8004C088312B70083164B088312B600831685
:100408004A088312B50083160317360884250A1292
:100418008A118316C900013076230A128A11490805
:10042800912B4D08AB004C08AA004B08A9004A08BC
:10043800A80003173B080313AD0003173C08031378
:10044800AC000317360832250A128A1182294D0892
:100458008312B80083164C088312B70083164B0822
:100468008312B60083164A088312B5008316031751
:1004780036089B250A128A1136088316C40083128F
:100488003508BC2903173B080313C20076234D081F
:100498008312AA0083164C088312A90083164B08FE
:1004A8008312A80083164A088312A70083164208FD
:1004B8008312AB004430AC008316031736080A16C3
:1004C8008A11932D4D088312AD0083164C088312B0
:1004D800AC0083164B088312AB0083164A088312BC
:1004E800AA00831603173B0883120313AE00BC301F
:1004F800AF000130B0008316031736080A168A11B8
:1005080087260A128A1182294D088312AD008316A4
:100518004C088312AC0083164B088312AB00831679
:100528004A088312AA00BB30AE00831603173608A8
:100538000A168A11C2220A128A1182294D088312C8
:10054800AA0083164C088312A90083164B0883124D
:10055800A80083164A088312A7004430AB0083160C
:10056800031736080A168A115D230A128A114430C5
:100578003D260A128A112008013ED02803173708A1
:100588000313B100B2010317360851250A128A1164
:100598008229031736080313AE00AF01B9230A12E4
:1005A8008A118229031736080313AF000317370887
:1005B8000313AE00D3260A128A11822903173608BC
:1005C8000313B300031737080313B200B830B4009D
:1005D800F3260A128A11822903173608031DFF2AF7
:1005E8003708031DFB2A831203130710822983127D
:1005F800031307148229360B8229AF01AF0A370883
:10060800031D0A2B831203138710822983120313F5
:100618008714822903173608C230031D172BA12619
:10062800E801E7000800A126E800E7010800031731
:1006380034080313BD00BE013E08003A0319252BF8
:10064800752B3D08013A03196F29033A03193B2911
:10065800013A031967290B3A03197729013A031953
:100668008729033A03199729013A0319B029073A48
:100678000319C729013A0319D1291C3A0319DC299E
:10068800033A0319F829013A0319152A073A0319F5
:100698002B2A013A0319882A033A0319A22A013A94
:1006A8000319662A0F3A0319462A013A0319C22A7E
:1006B800033A0319D928383A0319E22A063A0319E2
:1006C800D62A013A0319CD2A153A0319F02A703AA5
:1006D80003195D29013A0319C628113A03190E2B8B
:1006E800752B080083120313A100AA3091230A1264
:1006F8008A11BB3091230A128A11650891230A12C4
:100708008A11003091230A128A11031734089123A1
:100718000A128A1183122108912B83120313A00055
:10072800143083160317A800A9010313981C992BEA
:10073800831220089900831698160800A83083129F
:10074800EF006F0A84008313000891230A128A11AC
:1007580083126F08840083130008912B35308312AD
:100768000313A1008030A200042F0330B0002F082B
:10077800B1002E08B2000330AA00B030882857080C
:10078800E0008030E0050310570DE200D61B62142C
:1007980062080319D72B620FD52BD401D501D601D6
:1007A800D701D617DB2BD401D501D601D7015B08B9
:1007B8008039E00603105B0DE100DA1B6114610863
:1007C8000319EE2B610FEC2BD801D901DA01DB01FB
:1007D800DA17F22BD801D901DA01DB016108031D10
:1007E8006208031DFC2BD401D501D601D7010800EE
:1007F8005408A0005A0817250A128A112108EC008B
:100808002008EB00E300E401E501E6016C08E700DD
:10081800E801E901EA015508A000590817250A125C
:100828008A1184260A128A110318E8070318E907AF
:100838000318EA075608A000580817250A128A1153
:1008480084260A128A1193260A128A115508A000D2
:10085800580817250A128A1150260A128A110318F5
:10086800013E031DE6075408A000590817250A127F
:100878008A1150260A128A110318013E031DE60741
:100888006508E6006408E5006308E400E30154082D
:10089800A000580817250A128A1150260A128A1130
:1008A8000318013E031DE6075508A0005A0817253E
:1008B8000A128A1121086A260A128A1173260A1254
:1008C8008A11AE260A128A11590817250A128A11A6
:1008D80021086A260A128A1173260A128A11AE267C
:1008E8000A128A115A0817250A128A1121086A263B
:1008F8000A128A115E08DF005D08DE005C08DD0070
:10090800DC0173260A128A110318013E031DEA0747
:100918006608E707013093260A128A116208EB007D
:10092800EC016108EB070318EC0A8230EB07031CA3
:10093800EC03E91BAD2C0310E70DE80DE90DEA0DFA
:10094800E61B6714FF300310E30DE40DE50DE60D1B
:100958009A2CE101E61FC22C6308DC006408DD0064
:100968006508DE007F306605DF005E045D045C0418
:1009780003196718C02CC22CE101E10A61080319A8
:10098800D62CE70A0319E80A0319E90A0319EA0A3F
:100998006A1CD62C6A0DEA0CE90CE80CE70CEB0A89
:1009A8000319EC0A6C08803AFF0080307F02031DAF
:1009B800DF2CFF306B02031CEA2C7F3083120313F9
:1009C800EA008030E900E801E7010C2D83120313E7
:1009D8006C08803AFF0080307F02031DF52C01303F
:1009E8006B020318FF2C83120313E701E801E901E6
:1009F800EA01E0010C2D831203136B08E2007F303B
:100A0800E9050030EA016218E9170310620CEA00F0
:100A18006008EA046A08D7006908D6006808D500A3
:100A28006708D4000800A600A201A3012008A400BA
:100A3800A501261C252D2408A2070318A30A2508AA
:100A4800A3070310A40DA50D0310A60C2608031D6B
:100A58001D2D2308A1002208A00008000313AE00E2
:100A68002D08AF002C08B0002B088312AD008316A8
:100A78002A088312AC00831629088312AB00831658
:100A880028088312AA000230AE00AF30AF00B001D0
:100A980083162E080A168A11872E0313B300B40191
:100AA800B501B601B701831603133708AB00360842
:100AB800AA003508A9003408A8003208AD0031089A
:100AC800AC00330832250A128A11640002308316FA
:100AD8000313B40701300318B5070318B607031842
:100AE800B7073708031D08003608031D080004303F
:100AF8003502031D812D0030340203180800572DDC
:100B080083120313B9003808AD003708AC00360863
:100B1800AB003508AA003A30AE01AE0AAF0039087A
:100B28000A168A11A924831203133A0808008312AB
:100B38000313B9003808AD003708AC003608AB001D
:100B48003508AA000230AE003A30AF0039080A165C
:100B58008A11A924831203133A08B6003B08B5008A
:100B6800080083120313BC003A08AD003908AC0032
:100B78003808AB003708AA003B30AE01AE0AAF0018
:100B8800B0013C080A168A11872E83120313A400A9
:100B980024080A168A1166220A128A110313A5006C
:100BA800A40A23088400250883178000A30A2508BF
:100BB80003190800CC2D83120313A30014308316E5
:100BC8000317AC00AD018C18E72D8B1FF02D831295
:100BD8000313A401A40AF32D83120313A401230809
:100BE80003178D000313200803178C0083168C133A
:100BF8000C158B1355308D00AA308D008C14831280
:100C080003132403031D0A2E8B170B2E8B13831635
:100C180003170C114E3083120313A200EA30A1000F
:100C2800A10B142EA20B142E000008008312A90099
:100C38002530AA00AB012A08840083130008A0000D
:100C48002908DF250A128A11831203130230AA0A1F
:100C5800A90AAB0A2B02031C1F2E4E308312031362
:100C6800A800EA30A700A70B372EA80B372E0000E4
:100C7800080083120313A200A3002308840083172B
:100C880000080319492EA30A412E22082302A000B6
:100C9800A101A01BA10308002108EC002008EB001B
:100CA800DC006C08DD00DE01DF015C08E3075D089D
:100CB80003110318013E031DE4075E08031103181E
:100CC800013E031DE5075F0803110800EC0020083A
:100CD800EB00DC006C08DD00DE01DF0108005C08C9
:100CE800E7075D0803110318013E031DE8075E08C6
:100CF80003110318013E031DE9075F0803110800EB
:100D08002108EC002008EB00E30701300318E40792
:100D18000318E5070318E6076C08E707013403180A
:100D2800E8070318E9070318EA076508E6006408F6
:100D3800E5006308E400E3010800A201A20AA30198
:100D48000313E000C830DF00DE01DD010A30F301E3
:100D5800F30A08000318013E031DEA075608A0001D
:100D6800080083120313A6002508840083170008CF
:100D78000319C92ECD260A128A11DF250A128A11F3
:100D880083120313A60AA50AB82ECD260A128A11C1
:100D9800DF2D250884000008A000260808000A3076
:100DA8008312A000A10183162F088312A3008316C3
:100DB8002E088312A2000A128A1560270A128A11C5
:100DC80021088316AF00831220088316AE00023074
:100DD800B0002E08B1000230AA00B03088283308CD
:100DE800AB003208AA003408AC000130AD0034086A
:100DF8003D260A128A112008013E8316AE003B28C0
:100E08002108A3002208A4002408FF002308840066
:100E18000A168A1100200A128A11003A0319252F8E
:100E28002408FF00230884000A168A1100200A12E9
:100E38008A1191230A128A118312A30A0319A40A98
:100E4800082F2408FF00230884000A168A110020AE
:100E58000A128A11912B283094008316910183126B
:100E68002D08B1002E08B2002F08B3003008B400D6
:100E780002300310B10DB20DB30DB40DFF3E031DCA
:100E88003D2F3408A3003308A2003208A10031081E
:100E9800A0007A30A701A6001230A500A4015C27A3
:100EA8002008FF3E83169300940187150716080053
:100EB800A801A901AA01AB012308220421042004E6
:100EC80003199B2FAC01AC0AA31B702F0310A00DB4
:100ED800A10DA20DA30D672F0310A80DA90DAA0D32
:100EE800AB0D23082702031D832F22082602031DAA
:100EF800832F21082502031D832F20082402031CA9
:100F0800952F2008A4022108031C210FA5022208FE
:100F1800031C220FA6022308031C230FA702281470
:100F28000310A30CA20CA10CA00CAC0B702F2B0867
:100F3800A3002A08A2002908A1002808A000080088
:100F480083120313A4008400031711088317800079
:100F5800840A1008800003132408023E8400031743
:100F68001208800003132408033E840003171308A3
:100F7800800003132408043E84000317140880002B
:100F880003132408053E8400031715088000031383
:100F9800A201A3012408053E84002308803AA0008A
:100FA80080302002031DDA2F0008220203180800EF
:100FB800831203132208163E840083170008A0003A
:100FC80022082407A100063E840020088000A20A07
:100FD8000319A30ACE2FC030831203139F04803055
:0C0FE80083169F009F1783121F1408003F
:1010000064008001840A04060319003404060128E0
:10101000A200A300200884000A168A110A200A12DE
:101020008A15A10023088400210883178000000886
:1010300003190800A30AA00A0A2802308316031322
:10104000DA000430D900B930D800D80B2528D90BE4
:101050002528DA0B25282C28831603130F168F1644
:101060000F1783128501860187018901EF308316EE
:1010700085000F308600F0308700FF308900113086
:10108000031788008901031381130F309500831221
:101090008617061786160330A301A201A100E830C7
:1010A000A0000A168A117B270A128A15831681125C
:1010B00081150114811401158B120B128B170B175C
:1010C000831210169016901083160C1401308312A0
:1010D000900064000A128A11EF270A128A15013063
:1010E000B001AF008630AE00A030AD000A128A1108
:1010F0002F270A128A1583120130A301A200C230E1
:10110000A100A0010A168A1189200A128A1510303E
:101110000A168A1187220A128A1524088316DC000F
:10112000831223088316DB005B0FA2285C0A031DD1
:10113000A22883121030A501A6010A128A111A26CC
:101140000A128A1583160313DB0A0319DC0A5C08EA
:101150008312A60083165B088312A50010300A12C2
:101160008A111A260A128A1583160317AA01AB01DF
:10117000A801A901AC01AD01F501F401831203132B
:10118000071087100511851106098316E5000F3039
:10119000E505F201F20A0A168A11A6210A128A1539
:1011A000831603136C1303130230EC17F20A720652
:1011B0000319F20172080A128A151B210A128A15F4
:1011C00003136C1FEE280A168A1564250A128A1565
:1011D0000A168A150C250A128A15F128831207109F
:1011E0008710831603136C1CD3288312031710086F
:1011F0008316A100831211088316A000BB3AAA30FF
:1012000003192106031DD32883121308F100831646
:101210000313650603190E29710FD3281430031721
:10122000A800A9010A128A11AE200A128A15831693
:1012300003136C10D328D2008312EF00EF0DEF0DD3
:101240001F086F06C3396F069F00A001A00AA10105
:10125000A201A3010A168A115D200A128A158316BB
:10126000D301D401D501D601D701D70A43240A12EC
:101270008A153C08D1003B08D0003A08CF00390855
:10128000CE0051088312BB00831650088312BA00A7
:1012900083164F088312B90083164E088312B800D4
:1012A000831656088312BF00831655088312BE00AA
:1012B000831654088312BD00831653088312BC00A2
:1012C000D4220A128A153B088316D60083123A08E4
:1012D0008316D500831239088316D4008312380888
:1012E0008316D300E8270A128A15013A03199E29AA
:1012F00083166C1F97296908031D88296D0B88299F
:10130000031724032504031D8829F9210A128A15CD
:10131000831603136608031D97297C0B972903176F
:1013200022032304031D972910220A128A1583160B
:1013300003130F30D70A5702031C36290A308316CD
:101340005702031C08000F305706031DB629570823
:10135000FF3E8312AA00FF3003180030AB00AC013F
:10136000AB1BAC032C08AD000130BD29570883121C
:101370000A168A15FA270A128A15B5250A128A153D
:1013800098270A128A155608A7005508A60054087F
:10139000A5005308A40023260A128A152308D600A4
:1013A0002208D5002108D4002008D3005208031DCC
:1013B000E9295608031797000313550803179600E9
:1013C00003135408031795000313530803179400DD
:1013D00008005608031793000313550803179200DB
:1013E00003135408031791000313530803179000C5
:1013F000080003136908031D080083120718082A50
:1014000083166B0803190800E9008312071408000B
:1014100083166A0803190800E90083120710080000
:10142000831603136608031D080083128718202AF9
:101430008316680803190800E60083128714080061
:101440008316670803190800E60083128710080056
:101450002508A70001300310A70DFF3E0310031D50
:101460002C2A270D240784000A168A110A200A1242
:101470008A15A8000A168A110A200A128A15A900DC
:101480000A168A110A200A128A15AA000A168A1157
:101490000A200A128A15AB002B08AF002A08AE00FA
:1014A0002908AD002808AC00250826040319CB2A1A
:1014B000FF30A507031CA6032508A7000130031071
:1014C000A70DFF3E0310031D602A270D240784008B
:1014D0000A168A110A200A128A15A8000A168A1109
:1014E0000A200A128A15A9000A168A110A200A126D
:1014F0008A15AA000A168A110A200A128A15AB0058
:101500002B088312BB0083162A088312BA008316A5
:1015100029088312B900831628088312B80083169D
:101520002F088312D70083162E088312D600831645
:101530002D088312D50083162C088312D40083163D
:1015400023088312DB00831622088312DA00831635
:1015500021088312D900831620088312D8000A12AA
:101560008A11C3230A128A150A168A15DD270A1260
:101570008A15D4220A128A153B088316AF008312FB
:101580003A088316AE00831239088316AD00831221
:1015900038088316532A2F08A3002E08A2002D080E
:1015A000A1002C08A00008003B08C8008030C80536
:1015B00003103B0DCA00BA1B4A144A080319E82A53
:1015C0004A0FE62AB801B901BA01BB01BA17EB2AE2
:1015D000B801B901BA01BB013F08C9008030C90593
:1015E00049084806031D481703103F0DC900BE1BDC
:1015F000491449080319042B490F022BBC01BD01F2
:10160000BE01BF01BE17072BBC01BD01BE01BF015A
:101610004A08490203182E2B481F102B8030C80699
:101620004A08CB004908CA004B08C9003808CB005B
:101630003C08B8004B08BC003908CB003D08B90095
:101640004B08BD003A08CB003E08BA004B08BE006C
:101650003B08CB003F08BB004B08BF00CB0149084B
:10166000C000C1014108C3004A084002C200031C77
:10167000C3034308803AFF0080307F02031D422BE2
:101680001A304202031C632B831203133B083A04F3
:101690003904380403194E2B01304F2B0030CB0096
:1016A000B801B901BA01BB014908CA00692B4B1C3A
:1016B0005E2B03104B0C0138CB00602B0310CB0CBE
:1016C000CD270A128A158312031349084A02031C04
:1016D000572B481B922B4A08031D6F2BE32F3C0806
:1016E000B8073D0803110318013E031DB9073E0862
:1016F00003110318013E031DBA073F080311031825
:10170000013E031DBB073B1C0E2C4B1C8C2B0310F6
:101710004B0C0138CB008E2B0310CB0CCD270A12BB
:101720008A150E2C3B08803AFF003F08803A7F0262
:10173000031DA42B3E083A02031DA42B3D083902C9
:10174000031DA42B3C0838020318E42BFF30C00013
:10175000C100C200C3003C08C4003D08C5003E08EB
:10176000C6003F08C7003808C4023908031C390FF7
:10177000C5023A08031C3A0FC6023B08031C3B0F84
:10178000C7024408C00745080318450FC1074608AB
:101790000318460FC20747080318470AC307430840
:1017A000BB004208BA004108B9004008B8008030C8
:1017B000C806CB09CB0FF22BB80A0319B90A0319D3
:1017C000BA0A0319BB0AF22B3C08B8023D08031CF5
:1017D0003D0FB9023E08031C3E0FBA023F08031C2E
:1017E0003F0FBB023B083A0439043804031D0C2C9C
:1017F0004B08031D0C2CE32F0310B80DB90DBA0DC7
:10180000BB0DCB1B38144B1C072C0314082C0310E6
:10181000CB0D4A08031DCA03BA1FFC2BC901CB1FFD
:10182000192C4B087F3903193818172C192CC901AA
:10183000C90A490803192C2CB80A0319B90A031953
:10184000BA0A0319BB0A3B1C2C2C3B0DBB0CBA0C6F
:10185000B90CB80C4A0FCA0A4A0A031D4A08031DEC
:10186000382CB801B901BA01BB014A080319C801F3
:101870004A1C3C2CBA173D2CBA1303104A0CBB006F
:10188000C81BBB1708008730C1000F30C200C80159
:10189000C901C701C70A8A270A128A1520088316B8
:1018A000C8070318C90A831221088316C9073330F1
:1018B000C70A4702031C4B2C47088312A000FF30C5
:1018C000A101A0070318A10AA107831649088312E2
:1018D000A300831648088312A20060270A128A1503
:1018E00021088316C900831220088316C800A82780
:1018F0000A128A15B5250A128A15B2270A128A1504
:101900004430D3007F30D200C030D100D001442712
:101910000A128A154F088316C60083124E088316D2
:10192000C50083124D088316C40083124C08831629
:10193000C30046308312D3001C30D2004030D100A7
:10194000D00183164808A8270A128A15B5250A125D
:101950008A15B2270A128A1544274F08D7004E0865
:10196000D6004D08D5004C08D400831646088312D3
:10197000DB00831645088312DA00831644088312BD
:10198000D900831643088312D8000A128A11C32390
:101990000A128A1557088316C60083125608831642
:1019A000C500831255088316C40083125408831699
:1019B000C3004608A3004508A2004408A10043084C
:1019C000A00046308312D7001C30D6004030D5002E
:1019D000D40183164808A8270A128A15B5250A12C9
:1019E0008A15C4270A128A11C3230A128A155708B6
:1019F0008316A700831256088316A6008312550883
:101A00008316A500831254088316A40023260A1205
:101A10008A15BB274D08C0004C08BF004B08BE000C
:101A20004A08BD004008B3003F08B2003E08B100BC
:101A30003D08B0000A168A15C3250A128A15330814
:101A4000CD003208CC003108CB003008CA00410874
:101A50008312AA00831642088312D6270A128A1517
:101A6000B5250A128A1598270A128A154D08A7006B
:101A70004C08A6004B08A5004A08A40023260A1219
:101A80008A15BB270A128A153B308312BB005B30D4
:101A9000BA00CF30B9000F30B80083164D0883125A
:101AA000BF0083164C088312BE0083164B088312B6
:101AB000BD0083164A088312BC00D4220A128A157C
:101AC0003B088316CD0083123A088316CC0083129C
:101AD00039088316CB00831238088316CA004D08D4
:101AE000A3004C08A2004B08A1004A08A0003F3008
:101AF000A7008030A600A501A40123260A128A159A
:101B0000BB270A128A1543308312CF008830CE00DB
:101B10009330CD003330CC0083164D088312D300B0
:101B200083164C088312D20083164B088312D1000F
:101B300083164A088312D00044274F088316CD002D
:101B400083124E088316CC0083124D088316CB00F7
:101B500083124C088316CA004D08BC004C08BB0019
:101B60004B08BA004A08B9000800B2003208031D49
:101B7000AD1FCA2D2A09B4002B09B5002C09B600E7
:101B80002D09B700B40A0319B50A0319B60A0319D7
:101B9000B70AD22D2D08B7002C08B6002B08B500C7
:101BA0002A08B4002D082C042B042A04031DDD2D63
:101BB000AA01AB01AC01AD0108009630B300FE30C4
:101BC00037050319F32DB30ADD270A128A15DF2D15
:101BD000B30AB40A0319B50A0319B60A0319B70AF6
:101BE000DD270A128A15FF3037050319022EE82D6A
:101BF00002303302031C042EB3030310B40DB50DE1
:101C0000B60DB70DB61FF82D331CB6130310B30C69
:101C10003308B100B001AF01AE012E08B4042F08A3
:101C2000B5043008B6043108B7043208031DAD1FEF
:101C30001A2EB7173708AD003608AC003508AB00D0
:101C40003408AA0008002708B0008030B00503104F
:101C5000270DB700A61B371437080319382E370F86
:101C6000352EA401A501A601A701A617A7013C2EA8
:101C7000A401A501A601A70123088039B00603101D
:101C8000230DB800A21B381438080319502E380F42
:101C90004D2EA001A101A201A301A217A301542E60
:101CA000A001A101A201A301230822042104200410
:101CB000031D6D2E8030A401A501A601A701A60475
:101CC0007F30A7043008A7042708A3002608A20035
:101CD0002508A1002408A00008003708031D752E60
:101CE000A001A101A201A30108003708B100B201BF
:101CF0003808B102031CB2037F30B1070318B20ADF
:101D00002708AF002608AE002508AD002408AC0067
:101D1000A401A501A601A701B301B401B501B60153
:101D2000B8011A3038020318CA2E38080319A92E30
:101D30000310AC0DAD0DAE0DAF0D0310A40DA50D30
:101D4000A60DA70DB61B24140310B30DB40DB50DCD
:101D5000B60D23082F02031DB72E22082E02031DE5
:101D6000B72E21082D02031DB72E20082C02031CBC
:101D7000C82E36172008AC022108031C210FAD0223
:101D80002208031C220FAE022308031C230FAF02FC
:101D9000B80A912E2F082E042D042C04031D331491
:101DA000A61BE32E0310A40DA50DA60DA70DB61BB3
:101DB0002414FF300310B30DB40DB50DB60DB107EB
:101DC000031CB203D02EB801B61FF92E3308A800A9
:101DD0003408A9003508AA007F303605AB002B086F
:101DE0002A042904280403192418F72EF92EB8010F
:101DF000B80A380803190D2FA40A0319A50A0319F4
:101E0000A60A0319A70A271C0D2F270DA70CA60C3D
:101E1000A50CA40CB10A0319B20A3208803AFF00DB
:101E200080307F02031D162FFF303102031C212F4B
:101E3000FF3083160313B100B201A401A501A6016E
:101E4000A701831603133208803AFF0080307F0217
:101E5000031D2C2F013031020318372F8316031373
:101E6000B101B201A401A501A601A701B001831629
:101E700003133108B700371C3F2FA617402FA613B6
:101E80000310370CA700622E8030CF065308BB002A
:101E90005208BA005108B9005008B8004F08BF00F6
:101EA0004E08BE004D08BD004C08BC00D4223B08C3
:101EB000CF003A08CE003908CD003808CC00080021
:101EC000A501A601200821040319852FA401A40A55
:101ED000A11B6E2F0310A00DA10D672F0310A50DE0
:101EE000A60D21082302031D772F20082202031CC0
:101EF000812F2008A2022108031CA303A30225149A
:101F00000310A10CA00CA40B6E2F2608A10025081D
:101F1000A000080083129F149F188C2F1E08A10098
:101F2000A00183161E088312A0070318A10A080047
:101F30002D088316A30083122C088316A200831297
:101F40002B088316A10083122A088316A00008001C
:101F50008312AA00831649088312AB000030AC013B
:101F6000AD0108002D08CF002C08CE002B08CD00B5
:101F70002A08CC0008002308CD002208CC00210844
:101F8000CB002008CA0008002D08DB002C08DA006E
:101F90002B08D9002A08D80008003818CB173B0DA9
:101FA000BB0CBA0CB90CB80CCA0A0800AB00003064
:101FB000AB1BFF30AC00AD0001340310B70CB60C06
:101FC000B50CB40C0800B801B901BA01BB01080096
:101FD0006C1CFB2F8312031713088316031365066B
:101FE0000319F62F83120317130FFB2F831203130A
:101FF000A001A00AFE2F83120313A00120080800ED
:10200000FF1B0A2883137F1883170008840A03190B
:10201000FF0A080010308A000408840A820700348E
:102020000034003400340034C434FF347F343F348F
:102030008034EF34FF34BE349034E134A9343E347C
:10204000EC3482347634BE348234AD342B343E34B6
:102050000E343C34C334BD348734D13413343D346E
:1020600041347834D334BB3400346034783445346C
:10207000003440341C344634763431342E34303419
:0E2080002E343234343400344F344B340034B8
:1020BA00A601A701A801A9012908803AFF0023085F
:1020CA00803A7F02031D732822082802031D732801
:1020DA0021082702031D7328200826020318080076
:1020EA00033083120313A5009730A400A40B7B28A6
:1020FA00A50B7B2883120313A60A0319A70A03193F
:10210A00A80A0319A90A61284B30210620042204CF
:10211A002304031D9C288312031398171816831689
:10212A001815181218130C3099000B17B828C2305A
:10213A00831203132106031DB92822032004230452
:10214A00031DB92810308316031399000317871546
:10215A00031318158312981783161812181383126B
:10216A0018160B1783168C1683160313071787176F
:10217A00831218121816A4011A080F30A40A24028E
:10218A0003180800C1288B188B100C1C4329B13086
:10219A008F00F3308E000C108316EC1FD628EC1338
:1021AA0064000A3083160317AA070318AB0A033020
:1021BA002B02E83003192A02031CE528AA01AB0105
:1021CA0001302B02F43003192A020318F028831273
:1021DA0003138617F3288312031386138316031730
:1021EA0028082904031903290A30A8020030031C0D
:1021FA00A903A902831203130617062983120313DC
:10220A000613831603172C082D04031916290A30FE
:10221A00AC020030031CAD03AD0283120313861611
:10222A0019298312031386120A30831603179C078F
:10223A0003189D0AA6070318A70AE83026060330E2
:10224A0003192706031D4329A601A701F50A03134B
:10225A006908031DE9036608031DE6033C30750699
:10226A00031D4329F501F00A3C307006031D43297A
:10227A00F001F40A183074060319F40183120313E7
:10228A008C1E9A2983161E306C14FA00FB01031760
:10229A009E019F011030AE007A087B040319802941
:1022AA00831203138C1E7929831603172E088400C0
:1022BA00831203131A0883178000831603171F0853
:1022CA00803AFF0080307F02031D6D2933301E02E1
:1022DA0003187529831603179E0A03199F0AAE0A63
:1022EA001E30FA00FB0151290130FA020030031CAA
:1022FA00FB03FB025129831603172E088400831758
:10230A00800183120313981C9A29181218161A08A6
:10231A00FA00FB011A08FA00FB011A08FA00FB018D
:10232A000317900183160313EC1479088312FF0034
:10233A0078088A0077088400760E8300FE0E7E0EE7
:10234A000900003087220A168A11A2220A128A1567
:10235A00B5250A168A112D088316E40083122C0863
:10236A008316E30083122B088316E20083122A08DD
:10237A008316E100BB226408A7006308A60062086E
:10238A00A5006108A4000A128A1523260A168A11D2
:10239A002308E4002208E3002108E2002008E10003
:1023AA00023066220A168A1183160313EB000330E1
:1023BA0066220A168A1183160313EA00043066227B
:1023CA000313AA000030AB01AC01AD010A128A1551
:1023DA00B5250A168A112D08831603179B00831246
:1023EA0003132C08831603179A00831203132B086E
:1023FA00831603179900831203132A0883160317F7
:10240A009800053087220A168A11240883160317B2
:10241A00A50083120313230883160317A4000730A9
:10242A0087220A168A11A2220A128A15B5250A16C5
:10243A008A112D088316E00083122C088316DF0008
:10244A0083122B088316DE0083122A088316DD0006
:10245A00BB226008A7005F08A6005E08A5005D0809
:10246A00A4000A128A1523260A168A112308E000F4
:10247A002208DF002108DE002008DD00093066227C
:10248A000A168A1183160313E8000A3066220A160E
:10249A008A1183160313E7000B3066220A168A1183
:1024AA00F3000C3087220A168A11240883160317B0
:1024BA00A30083120313230883160317A2000E3006
:1024CA00662A83120313A200143083160317AC0082
:1024DA00AD018C186E2A83120313220803178D008C
:1024EA0083168C130C144E3083120313A100EA30A6
:1024FA00A000A00B7E2AA10B7E2A000083120317DC
:10250A000C08080083120313A5002730A600A901AE
:10251A0026088400250866220A168A118313800079
:10252A0003130230A50AA60AA90A2902031C8D2A46
:10253A002808A4002708A300080023088316B90066
:10254A00831224088316BA00BB01BC013C0883121B
:10255A00AD0083163B088312AC0083163A08831237
:10256A00AB00831639088312AA0000344130A30055
:10257A002030A200A101A001080083120313AF00BA
:10258A002D08031D080002302C02031DD22A003038
:10259A002B02031DD22A00302A02031808008312D4
:1025AA0003132D08031DE52A01302C02031DE32A1B
:1025BA0000302B02031DE32A00302A02031CEA2AF8
:1025CA00083083120313B000ED2A83120313B001FB
:1025DA002F08B100A0300310B10DB1043008B104C6
:1025EA009A240A168A1183123108A300A4016227C9
:1025FA000A168A112B08A300A40162270A168A1157
:10260A002A08A300A40162270A168A112E08840048
:10261A00831700080319512B6400831203132D0832
:10262A00031D080002302C02031D212B00302B024F
:10263A00031D212B00302A020318080083120313FA
:10264A002A08013E7F39031D422BE7270A168A1101
:10265A0062270A168A116B270A168A11B1270A16E7
:10266A008A117B270A168A11AA0A0319AB0A0319C7
:10267A00AC0A0319AD0AAE0AD62AE7270A168A1146
:10268A0062270A168A11AE0AAA0A0319AB0A0319A3
:10269A00AC0A0319AD0A0B2BA301A40162270A167F
:1026AA008A116B270A168A11B1270A168A117B2FFB
:1026BA0083120313AF00B0012A08031D0800023079
:1026CA002902031D6E2B00302802031D6E2B0030D9
:1026DA00270203180800831203132A08031D812BFB
:1026EA0001302902031D7F2B00302802031D7F2B96
:1026FA0000302702031C862B083083120313B00014
:10270A00892B83120313B001C0270A168A119A244F
:10271A000A168A11FA270A168A1162270A168A11D4
:10272A002808A300A40162270A168A112708A30011
:10273A00A40162270A168A1172270A168A118312BD
:10274A003108A300A40162270A168A11AE012A08D9
:10275A00031D3C2C02302902031DB92B003028022C
:10276A00031DB92B0030270203183C2C83120313D4
:10277A002708013E7F39031D1D2C2B088400A30165
:10278A00A40150240A168A112308831780006B2794
:10279A000A168A110D3083120313AD00FB30AC0008
:1027AA00AC0BD52BAD0BD52B83120313A70A031938
:1027BA00A80A0319A90A0319AA0AAB0A2A08031DB7
:1027CA00F22B01302902031DF02B00302802031DD1
:1027DA00F02B00302702031CF72B08308312031357
:1027EA00B000FA2B83120313B001C0270A168A110C
:1027FA009A240A168A11FA270A168A1162270A16D1
:10280A008A112808A300A40162270A168A11270838
:10281A00A300A40162270A168A1172270A168A11CE
:10282A0083123108A300A40162270A168A11352CE3
:10283A002B088400A301A30AA40150240A168A11B2
:10284A002308831780002B088400000803193C2CF6
:10285A00AB0AA70A0319A80A0319A90A0319AA0A9B
:10286A002E08AE0AAC0040302C02031CAC2B83129B
:10287A000313A301A40150240A168A116B270A160E
:10288A008A11B93083120313AC004B2C4C2CAC0BBD
:10289A004A2C4F2C08007B240A168A11003A831608
:1028AA00031D91157B240A168A11003A0319602C1C
:1028BA001308A500A6017B240A168A11003A0319F7
:1028CA00782C23082404031D6E2C831603139116F7
:1028DA00712C831603139112111683122608A40071
:1028EA002508A3000800A301A4010800C830831228
:1028FA000313A2008B2C0330A20383120313A1003B
:10290A009730A000A00B872CA10B872C83160313EA
:10291A001419932C11081F390319972C83122208B2
:10292A00031D802C8312220808008B13143083168F
:10293A000317AC00AD017B240A168A11003A031969
:10294A000800831611140800B200B8270A168A1163
:10295A002D08031D080002302C02031DBA2C00307A
:10296A002B02031DBA2C00302A0203180800831216
:10297A0003132D08031DCD2C01302C02031DCB2C73
:10298A0000302B02031DCB2C00302A02031CD22C50
:10299A00083083120313B300D52C83120313B30137
:1029AA00CA270A168A119A240A168A11F4270A16BD
:1029BA008A1162270A168A112B08A300A40162272A
:1029CA000A168A112A08A300A40162270A168A1184
:1029DA0072270A168A1183123408A300A4016227F7
:1029EA000A168A11B1012E08310203187F2D6400DC
:1029FA00831203132D08031D7F2D02302C02031DA1
:102A0A000C2D00302B02031D0C2D00302A02031856
:102A1A007F2D831203132A08013E7F39031D6A2D75
:102A2A002F088400A301A40150240A168A1123083E
:102A3A00831380006B270A168A11B1270A168A1196
:102A4A007B270A168A11AA0A0319AB0A0319AC0AC8
:102A5A000319AD0AAF0A2D08031D3F2D01302C02C0
:102A6A00031D3D2D00302B02031D3D2D00302A028F
:102A7A00031C442D083083120313B300472D83121D
:102A8A000313B301CA270A168A119A240A168A114D
:102A9A00F4270A168A1162270A168A112B08A3003C
:102AAA00A40162270A168A112A08A300A401622730
:102ABA000A168A1172270A168A1183123408A30089
:102ACA00A40162270A168A117D2D2F088400A3010A
:102ADA00A30AA40150240A168A112308831380002A
:102AEA00AF0AAA0A0319AB0A0319AC0A0319AD0AF9
:102AFA00B10AF82C83120313A301A40150240A1665
:102B0A008A116B270A168A11B93083120313B0008F
:102B1A008E2D8F2DB00B8D2D922D0800831203134D
:102B2A00AF00B8270A168A112A08031D08000230C6
:102B3A002902031DA62D00302802031DA62D0030F0
:102B4A00270203180800831203132A08031DB92D4C
:102B5A0001302902031DB72D00302802031DB72DAD
:102B6A0000302702031CBE2D083083120313B00065
:102B7A00C12D83120313B001D4270A168A119A248D
:102B8A000A168A11EE270A168A1162270A168A116C
:102B9A002808A300A40162270A168A112708A3009D
:102BAA00A40162270A168A1172270A168A11831249
:102BBA003108A300A40162270A168A11AE012B0864
:102BCA002E020318732E6400831203132A08031DAE
:102BDA00732E02302902031DF82D00302802031D2E
:102BEA00F82D003027020318732E831203132708C7
:102BFA00013E7F39031D582E2C088400A301A4012D
:102C0A0050240A168A112308831780006B2783121F
:102C1A002C088400831700080A128A1191230A16C5
:102C2A008A118312A70A0319A80A0319A90A031900
:102C3A00AA0A2A08031D2D2E01302902031D2B2E54
:102C4A0000302802031D2B2E00302702031C322ECF
:102C5A00083083120313B000352E83120313B00118
:102C6A00D4270A168A119A240A168A11EE270A16F6
:102C7A008A1162270A168A112808A300A40162276A
:102C8A000A168A112708A300A40162270A168A11C4
:102C9A0072270A168A1183123108A300A401622737
:102CAA000A168A11712E2C088400A301A30AA40112
:102CBA0050242308831780002C08840000080A1275
:102CCA008A1191230A168A118312A70A0319A80ADC
:102CDA000319A90A0319AA0AAE0AE42D83120313D7
:102CEA00A301A40150240A168A116B270A168A1115
:102CFA00B93083120313AD00822E832EAD0B812EC1
:102D0A00862E080083120313B400B8270A168A1104
:102D1A002D08031D080002302C02031D9A2E0030D4
:102D2A002B02031D9A2E00302A0203180800831270
:102D3A0003132D08031DAD2E01302C02031DAB2EEB
:102D4A0000302B02031DAB2E00302A02031CB22EC8
:102D5A00083083120313B500B52E83120313B5018D
:102D6A00DE270A168A119A240A168A11831236084D
:102D7A00A300A40162270A168A112B08A300A40142
:102D8A0062270A168A112A08A300A40162270A16D2
:102D9A008A11B3012E08FF3EB100FF30031800303C
:102DAA00B200803A803C031DDC2E3108330203183E
:102DBA00532F6400831203132D08031D08000230E9
:102DCA002C02031DEE2E00302B02031DEE2E0030C6
:102DDA002A0203180800831203132A08013E7F39C6
:102DEA00031D412FA8270A168A1162270A168A117B
:102DFA006B270A168A11B1270A168A117B270A1627
:102E0A008A11AA0A0319AB0A0319AC0A0319AD0AF3
:102E1A00AF0A0319B00A2D08031D1F2F01302C0217
:102E2A00031D1D2F00302B02031D1D2F00302A0207
:102E3A00031C242F083083120313B500272F831293
:102E4A000313B501DE270A168A119A240A168A1173
:102E5A0083123608A300A40162270A168A112B08D6
:102E6A00A300A40162270A168A112A08A300A40152
:102E7A0062270A168A11512FA8270A168A11622771
:102E8A000A168A11AF0A0319B00AAA0A0319AB0A69
:102E9A000319AC0A0319AD0AB30ACF2E831203131E
:102EAA00A8270A168A1162270A168A116B270A1698
:102EBA008A11B1270A168A117B2F7B240A168A11D6
:102ECA00003A031908002308930008007B24003AFB
:102EDA008316031D11158B1708007B240A168A1105
:102EEA00003A03190800831691140800A601A701E5
:102EFA00A801A9012908803AFF002308803A7F0225
:102F0A00031D912F22082802031D912F2108270251
:102F1A00031D912F200826020318080064000330BD
:102F2A0083120313A5009730A400A40B9A2FA50BB4
:102F3A009A2F83120313A60A0319A70A0319A80AC8
:102F4A000319A90A7F2F2F0884008317301C8313C3
:102F5A000008A300A401080005308312A000A10103
:102F6A00A201A3010800143083160317AC00AD01B7
:102F7A008312031308002F08B100A0300310B10D0B
:102F8A00B10431143008B10408003208B400A0308A
:102F9A000310B40DB40434143308B40408002F0821
:102FAA00B100A0300310B10DB10431143008B104DE
:102FBA0008003408B600A0300310B60DB604350870
:102FCA00B60408002E08840083170008A300A40191
:102FDA00080083123108FE39A300A40108008312F5
:102FEA003408FE39A300A401080083123108FE390F
:062FFA00A300A401080081
:1038700002250A168A15170883120313DB00831624
:103880000317160883120313DA00831603171508AB
:1038900083120313D900831603171408F8240A129D
:1038A0008A11C3230A168A15E8240A168A158E245B
:1038B00083162108AD002008AC0000300A128A11DE
:1038C00032250A168A158316031302250A168A154D
:1038D000130883120313DB008316031712088312E5
:1038E0000313DA0083160317110883120313D90098
:1038F000831603171008F8240A128A11C3230A1624
:103900008A15E8240A168A158E2483162108AD002C
:103910002008AC0001300A128A11322D0310220D4A
:10392000230D8312EE006E08031D9C2C8316A0014C
:10393000A101A201A301080083162008A400210808
:10394000A5002208A6002308A7001F300310A70C1B
:10395000A60CA50CA40CFF3E031DA62C2408831264
:10396000ED0083169630A217A3018312EE02EE1F1C
:10397000C82C6E08803A973E031C962C03108316C1
:10398000A30CA20CA10CA00C8312EE0FBE2CD82C01
:1039900020306E020318962C6E080319D82C0310E1
:1039A0008316A00DA10DA20DA30D8312EE03CC2C46
:1039B0006D08031908008316A009A109A209A3092B
:1039C000A00A0319A10A0319A20A0319A30A0800ED
:1039D00057088316A300831256088316A200831289
:1039E00055088316A100831254088316A00008000E
:1039F00083120313D8004130D7002030D600D50100
:103A0000D40108003408AB003308AA003208A9002A
:103A10003108A8000317080083160317220823049F
:103A2000031D162D2F08031D0800852F7308831210
:103A30000313FA270A128A15B5250A168A150A12DF
:103A40008A15B2270A168A15831660088312D300D6
:103A500083165F088312D20083165E088312D1009A
:103A600083165D088312D0000A128A1544270A16AD
:103A70008A15E6270A168A15A3270A168A15962696
:103A80000A168A15031C4C2DFC01FC0A492D7C0BDF
:103A9000152D0A128A15102ABD270A168A15A32782
:103AA0000A168A1596260A168A150318472DBD2769
:103AB0000A168A15A3270A168A1596260A168A1543
:103AC00003180800FC01152D031724082504031D05
:103AD0006A2D812F1B0883120313CF00831603174F
:103AE0001A0883120313CE008316031719088312D2
:103AF0000313CD0083160317180883120313CC0099
:103B0000831664088312D300831663088312D200DD
:103B1000831662088312D100831661088312D000D5
:103B20000A128A1544270A168A15E6270A168A15E4
:103B300089270A168A1596260A168A15031CAA2DA5
:103B40008316ED01ED0AA72D83166D0B692D0A1260
:103B50008A15F929CD270A168A1589270A168A1582
:103B600096260A168A150318A42DCD270A168A153B
:103B700089270A168A1596260A168A150318080038
:103B80008316ED01692D33088312D700831632089E
:103B90008312D600831631088312D50083163008AD
:103BA0008312D400D801D901DA01DB0196260A1666
:103BB0008A150318DC2DEE2F831633088312A30019
:103BC000831632088312A200831631088312A100E3
:103BD000831630088312F4270A168A1504270A165A
:103BE0008A15031CF42DEE2FBF30BB008030BA00C5
:103BF0004030B901B801D7006D30D601D501D401EC
:103C0000B000831633088312AF0083163208831284
:103C1000AE00831631088312AD008316300883127C
:103C2000AC003A272F08DB002E08DA002D08D90057
:103C30002C08D8000A128A11C3230A168A15DD2718
:103C40000A128A15D4220A168A153B088316B30075
:103C500083123A088316B200831239088316B10022
:103C6000831238088316B000FF308312ED07031C5F
:103C7000EE0383163308A3003208A2003108A10026
:103C80003008A0000130A4000830A500A6010A12E7
:103C90008A1528220A168A152308B3002208B200C2
:103CA0002108B1002008B00033088312BB0083163E
:103CB00032088312BA00831631088312B9008316C2
:103CC00030088312B8003F30D7003130D600723050
:103CD000D5001830D4006D08AA006E080A128A15A3
:103CE000D6270A168A150A128A15B5250A168A15C4
:103CF0000A128A15C4270A168A150A128A11C323C2
:103D00000A168A15DD270A128A15D4223B08831663
:103D1000B30083123A088316B2008312390883165F
:103D2000B100831238088316B00008008030DC012F
:103D3000DD015605DE007F305705DF005E045D04BF
:103D40005C04031DA72ED401D501D601D701803014
:103D5000DC01DD015A05DE007F305B05DF005E041B
:103D60005D045C04031DB82ED801D901DA01DB0122
:103D7000D71FD52E8030DC01DD01DE01DF005408C5
:103D8000DC025508031C550FDD025608031C560FB4
:103D9000DE025708031C570FDF025F08D7005E08DA
:103DA000D6005D08D5005C08D400DB1FF22E803001
:103DB000DC01DD01DE01DF005808DC025908031CCC
:103DC000590FDD025A08031C5A0FDE025B08031C60
:103DD0005B0FDF025F08DB005E08DA005D08D900D8
:103DE0005C08D8008030D706DB065B085702031D4D
:103DF00008005A085602031D080059085502031D01
:103E000008005808540208008030A801A9012205C2
:103E1000AA007F302305AB002A0429042804031DCF
:103E2000152FA001A101A201A3018030A801A901C1
:103E30002605AA007F302705AB002A0429042804A0
:103E4000031D262FA401A501A601A701270823060B
:103E5000031D342F26082206031D342F25082106B2
:103E6000031D342F240820060319382F03100800DF
:103E7000031408002F08A3002E08A2002D08A1009B
:103E80002C08F4270A168A1504270A168A15031C1B
:103E9000542F3008840083138001840A8001AC0110
:103EA000AD01AE01AF0108002F087F39B100B201AA
:103EB0000310B10DB20D3008840031088313800067
:103EC000840A320880002E0D2E0D0139B100B20196
:103ED0003008840031088004840A320880043008E5
:103EE000840082308007840F00080318000AFF0056
:103EF000FF3E800084032F0880393F38AF00AE13A7
:103F0000080083120313071008008312031387109D
:103F10000800D40083160317170883120313DB006D
:103F200083160317160883120313DA008316031788
:103F3000150883120313D90083160317140883127C
:103F40000313D8000800D400831603171308831244
:103F50000313DB0083160317120883120313DA001E
:103F600083160317110883120313D900831603174E
:103F7000100883120313D800080083166008831208
:103F8000D70083165F088312D60083165E0883125B
:103F9000D50083165D088312080083166408831217
:103FA000D700831663088312D60083166208831233
:103FB000D50083166108831208005708BF00560811
:103FC000BE005508BD005408BC0008004F08D700CB
:103FD0004E08D6004D08D5004C0808008316B001E5
:103FE000B101B201B3010800A000A401A501A6011E
:103FF000A7010800AA000130AB01AC01AD01080027
:04400E008C2FFF3FB5
:00000001FF
