:060000000A128A11122809
:10000800FE00030EF6000408F7000A08F800831241
:1000180003137F08F9000A168A11CC290A128A11DB
:10002800152883160130ED00FC00903083178400FA
:10003800E9300A128A150C200A128A11103084003D
:1000480065300A128A150C200A128A11DD308313D2
:100058008400ED300A128A150C20F001F101F2013A
:10006800F301F401F50183010A128A151428A53059
:10007800A8005A30A9005A230A128A112E08033EF2
:1000880049230A128A11823049230A128A112B083D
:10009800A9002A08A8005A230A128A11B1012E08B9
:1000A80031020318692831082C07AF002D080318FE
:1000B800013EB0002F0884008317301C831300080A
:1000C80049230A128A11B10A53288312A001A00AEF
:1000D800A1010A168A11DE28AF300A128A11A52753
:1000E8000A128A118316031736080313CD00031763
:1000F80037080313CC00031738080313CB00031782
:1001080039080313CA00D62A2D308312A0004430C0
:100118000A168A1548240A128A110B302E234430F5
:100128008312A1000130A2000A168A15AD2C03170C
:100138003508031DAD2817080313C8000317160850
:100148000313C700031715080313C6000317140881
:10015800BA2813080313C800031712080313C700AB
:10016800031711080313C600031710080313C5006B
:1001780041308312D7002030D600D501D401831630
:1001880048088312DB00831647088312DA008316B7
:1001980046088312D900831645088312D800922393
:1001A8000A128A1157088316C80083125608831644
:1001B800C700831255088316C60083125408831695
:1001C800C5008B1302302E234808A3004708A2005D
:1001D8004608A1004508A0000A168A114E210A12F5
:1001E8008A1183162108A9002008A8005A238B1712
:1001F8000800031735080313CD0003173608031347
:10020800CC00031737080313CB0003173808031370
:10021800CA004D08B4004C08B3004B08B2004A08A5
:10022800B1000A168A11F82083160317AA01AB0138
:10023800A601A701080003173508031D2629031383
:100248006C13080003136C17080002302E230A12DF
:100258008A110330A800A9015A2B03302E230A1251
:100268008A116A230A128A11012D0317360883128C
:100278000313A000831603173508DB260A128A1118
:1002880003302E230A128A116A2B03173508C12559
:100298000A128A1183160313C90001302E230A1289
:1002A8008A114908492B031735080313C10003179E
:1002B80036080313C000031737080313BF004008AC
:1002C8008312A60083163F088312A50083164108EF
:1002D800A0260A128A11442903173508E2250A12B2
:1002E8008A1124088316C400831223088316C300C6
:1002F80002302E230A128A114408A9004308A800D4
:100308005A2BB6308312A500831603173508C32667
:100318000A128A11442944308312A3008316031752
:1003280035081C270A128A11213092284D08831299
:10033800BA0083164C088312B90083164B0883123F
:10034800B80083164A088312B700831603173A08C1
:1003580083120313BB0083160317350814260A12E9
:100368008A1144294D088312B80083164C08831259
:10037800B70083164B088312B60083164A08831207
:10038800B500831603173508FD250A128A1183164E
:10039800C90001302E230A128A114908492B4D0839
:1003A800AB004C08AA004B08A9004A08A80003178C
:1003B8003A080313AD0003173B080313AC000317F7
:1003C800350873230A128A1144294D088312B8008C
:1003D80083164C088312B70083164B088312B600A5
:1003E80083164A088312B5008316031735080A16C0
:1003F8008A11AA220A128A1136088316C4008312A7
:1004080035087A2903173A080313C2002E234D082A
:100418008312AA0083164C088312A90083164B087E
:100428008312A80083164A088312A700831642087D
:100438008312AB004430AC008316031735080A1644
:100448008A11932D4D088312AD0083164C08831230
:10045800AC0083164B088312AB0083164A0883123C
:10046800AA00831603173A0883120313AE00BB30A1
:10047800AF000130B0008316031735080A168A1139
:1004880087260A128A1144294D088312AD00831663
:100498004C088312AC0083164B088312AB008316FA
:1004A8004A088312AA00BA30AE008316031735082B
:1004B8000A168A11C2220A128A1144294D08831287
:1004C800AA0083164C088312A90083164B088312CE
:1004D800A80083164A088312A7004430AB0083168D
:1004E800031735080A168A115D230A128A11443047
:1004F8000A168A156E240A128A112008013E9228CB
:10050800031736080313B100B201031735080A169A
:100518008A15DA240A128A114429031735080313A5
:10052800AE00AF010A168A1186200A128A114429E0
:10053800031735080313AF00031736080313AE007B
:100548000A168A1190200A128A11442903173508BD
:100558000313B300031736080313B200B730B4000F
:100568000A168A155D240A128A11442903173508C8
:10057800031DC92A3608031DC52A83120313071051
:1005880044298312031307144429350B44293608D8
:10059800031DD22A831203138710442983120313DD
:1005A80087144429031733080313BD00BE013E080E
:1005B800003A0319E02A2D2B3D08013A0319312985
:1005C800033A0319FD28013A031929290B3A03199B
:1005D8003929013A03194929033A03195729013AD4
:1005E80003197029073A03198529013A03198F2934
:1005F8001C3A03199A29033A0319B629013A03192F
:10060800D329073A0319E929013A0319482A033A71
:100618000319622A013A0319262A0F3A0319062AEE
:10062800013A0319842A033A03199B28383A031913
:10063800AA2A063A03199C2A013A0319912A153A5B
:100648000319BA2A703A03191F29013A031988288D
:100658002D2B080083120313A100AA3049230A1284
:100668008A11BB3049230A128A11650849230A12E4
:100678008A11003049230A128A11031733084923C3
:100688000A128A1183122108492B83120313A0002E
:10069800143083160317A800A9010313981C512BC3
:1006A800831220089900831698160800A830831230
:1006B800EF006F0A84008313000849230A128A1185
:1006C80083126F08840083130008492B3530831286
:1006D8000313A1008030A2000A168A15AD2C03135B
:1006E800AE002D08AF002C08B0002B088312AD0017
:1006F80083162A088312AC00831629088312AB00DC
:10070800831628088312AA000230AE00AF30AF006B
:10071800B00183162E080A168A11872E5708E000A2
:100728008030E0050310570DE200D61B6214620802
:100738000319A62B620FA42BD401D501D601D7012A
:10074800D617AA2BD401D501D601D7015B08803969
:10075800E00603105B0DE100DA1B61146108031960
:10076800BD2B610FBB2BD801D901DA01DB01DA17E8
:10077800C12BD801D901DA01DB016108031D620828
:10078800031DCB2BD401D501D601D701080054088D
:10079800A0005A08E6240A128A112108EC00200851
:1007A800EB00E300E401E501E6016C08E700E8017D
:1007B800E901EA015508A0005908E6240A128A113D
:1007C80075260A128A110318E8070318E90703189F
:1007D800EA075608A0005808E6240A128A11752666
:1007E8000A128A1184260A128A115508A00058088C
:1007F800E6240A128A1128260A128A110318013ED1
:10080800031DE6075408A0005908E6240A128A11B5
:1008180028260A128A110318013E031DE6076508F7
:10082800E6006408E5006308E400E3015408A0005A
:100838005808E6240A128A1128260A128A1103186F
:10084800013E031DE6075508A0005A08E6240A12CF
:100858008A11210842260A128A114B260A128A1185
:1008680099260A128A115908E6240A128A112108BF
:1008780042260A128A114B260A128A1199260A124E
:100888008A115A08E6240A128A11210842260A12F5
:100898008A115E08DF005D08DE005C08DD00DC010F
:1008A8004B260A128A110318013E031DEA0766083F
:1008B800E707013084260A128A116208EB00EC016E
:1008C8006108EB070318EC0A8230EB07031CEC0302
:1008D800E91B7C2C0310E70DE80DE90DEA0DE61B7A
:1008E8006714FF300310E30DE40DE50DE60D692CE8
:1008F800E101E61F912C6308DC006408DD0065084F
:10090800DE007F306605DF005E045D045C040319C9
:1009180067188F2C912CE101E10A61080319A52CB5
:10092800E70A0319E80A0319E90A0319EA0A6A1C1B
:10093800A52C6A0DEA0CE90CE80CE70CEB0A031984
:10094800EC0A6C08803AFF0080307F02031DAE2C51
:10095800FF306B02031CB92C7F3083120313EA00AB
:100968008030E900E801E701DB2C831203136C08EF
:10097800803AFF0080307F02031DC42C01306B02D7
:100988000318CE2C83120313E701E801E901EA01F9
:10099800E001DB2C831203136B08E2007F30E905CA
:1009A8000030EA016218E9170310620CEA006008D7
:1009B800EA046A08D7006908D6006808D5006708FD
:1009C800D4000800A600A201A3012008A400A501E4
:1009D800261CF42C2408A2070318A30A2508A30739
:1009E8000310A40DA50D0310A60C2608031DEC2C5E
:1009F8002308A1002208A00008000030E2250A12FE
:100A08008A115C260A128A15B5250A128A112D0840
:100A18008316E40083122C088316E30083122B0844
:100A28008316E20083122A088316E10092266408DE
:100A3800A7006308A6006208A5006108A4000A12BE
:100A48008A1523260A128A112308E4002208E300E3
:100A58002108E2002008E1000230C1250A128A11AB
:100A680083160313EB000330C1250A128A1183167B
:100A78000313EA000430C1250313AA000030AB01B8
:100A8800AC01AD010A128A15B5250A128A112D0882
:100A9800831603179B00831203132C08831603176E
:100AA8009A00831203132B088316031799008312E5
:100AB80003132A088316031798000530E2250A1243
:100AC8008A11240883160317A50083120313230829
:100AD80083160317A4000730E2250A128A115C2640
:100AE8000A128A15B5250A128A112D088316E00004
:100AF80083122C088316DF0083122B088316DE006E
:100B080083122A088316DD0092266008A7005F0872
:100B1800A6005E08A5005D08A4000A128A1523260F
:100B28000A128A112308E0002208DF002108DE00EB
:100B38002008DD000930C1250A128A118316031323
:100B4800E8000A30C1250A128A1183160313E70048
:100B58000B30C1250A128A11F3000C30E2250A1263
:100B68008A11240883160317A3008312031323088A
:100B780083160317A2000E30C12D83120313A2009F
:100B8800143083160317AC00AD018C18C92D8312DD
:100B98000313220803178D0083168C130C144E3090
:100BA80083120313A100EA30A000A00BD92DA10BDA
:100BB800D92D0000831203170C08080083120313B1
:100BC800A5002730A600A901260884002508C1250C
:100BD8000A128A118313800003130230A50AA60A99
:100BE800A90A2902031CE82D2808A4002708A30045
:100BF800080083120313B9003808AD003708AC00A9
:100C08003608AB003508AA003A30AE01AE0AAF008C
:100C180039080A168A11A924831203133A0808000E
:100C280083120313BC003A08AD003908AC00380839
:100C3800AB003708AA003B30AE01AE0AAF00B001E6
:100C48003C080A168A11872E2108EC002008EB00C0
:100C5800DC006C08DD00DE01DF015C08E3075D08ED
:100C680003110318013E031DE4075E08031103186E
:100C7800013E031DE5075F0803110800EC0020088A
:100C8800EB00DC006C08DD00DE01DF0108005C0819
:100C9800E7075D0803110318013E031DE8075E0816
:100CA80003110318013E031DE9075F08031108003B
:100CB80023088316B900831224088316BA00BB01DF
:100CC800BC013C088312AD0083163B088312AC00BC
:100CD80083163A088312AB00831639088312AA00D8
:100CE80000342108EC002008EB00E307013003186A
:100CF800E4070318E5070318E6076C08E70701345B
:100D08000318E8070318E9070318EA076508E60067
:100D18006408E5006308E400E30108004130A3002B
:100D28002030A200A101A00108000318013E031D04
:100D3800EA075608A00008008312A9002530AA0077
:100D4800AB012A08840083130008A0002908DB26C9
:100D58000A128A11831203130230AA0AA90AAB0ADB
:100D68002B02031CA52E4E3083120313A800EA3071
:100D7800A700A70BBD2EA80BBD2E000008008312EC
:100D88000313A60025088400831700080319D72E2B
:100D980016270A128A11DB260A128A1183120313F4
:100DA800A60AA50AC62E16270A128A11DB2E831256
:100DB8000313A300143083160317AC00AD018C187D
:100DC800E32E8B1FEC2E83120313A401A40AEF2E2B
:100DD80083120313A401230803178D0003132008AB
:100DE80003178C0083168C130C158B1355308D004C
:100DF800AA308D008C14831203132403031D062FBD
:100E08008B17072F8B13831603170C114E30831281
:100E18000313A200EA30A100A10B102FA20B102F80
:100E280000000800250884000008A0002608080023
:100E380083120313A4002408C1250A128A1103137C
:100E4800A500A40A23088400250883178000A30AA4
:100E58002508031908001F2F2830940083169101D4
:100E680083122D08B1002E08B2002F08B3003008F5
:100E7800B40002300310B10DB20DB30DB40DFF3E36
:100E8800031D3E2F3408A3003308A2003208A10036
:100E98003108A0007A30A701A6001230A500A401ED
:100EA8005D272008FF3E83169300940187150716D7
:100EB8000800A801A901AA01AB0123082204210402
:100EC800200403199C2FAC01AC0AA31B712F03103B
:100ED800A00DA10DA20DA30D682F0310A80DA90D3B
:100EE800AA0DAB0D23082702031D842F2208260212
:100EF800031D842F21082502031D842F20082402A6
:100F0800031C962F2008A4022108031C210FA50208
:100F18002208031C220FA6022308031C230FA70282
:100F280028140310A30CA20CA10CA00CAC0B712F5D
:100F38002B08A3002A08A2002908A1002808A0005D
:100F4800080083120313A4008400031711088317F1
:100F58008000840A1008800003132408023E8400DD
:100F680003171208800003132408033E84000317A4
:100F78001308800003132408043E84000317140890
:100F8800800003132408053E840003171508800019
:100F98000313A201A3012408053E84002308803A14
:100FA800A00080302002031DDB2F00082202031856
:100FB8000800831203132208163E840083170008D2
:100FC800A00022082407A100063E84002008800013
:100FD800A20A0319A30ACF2FC030831203139F0458
:0E0FE800803083169F009F1783121F1408008D
:1010180064008001840A04060319003404060D28BC
:10102800023083160313DA000430D900B930D8002F
:10103800D80B1C28D90B1C28DA0B1C28232883164C
:1010480003130F168F160F17831285018601870168
:101058008901EF30831685000F308600F030870055
:10106800FF308900113003178800890103138113A9
:101078000F30950083128617061786168316EC1014
:1010880083120330A301A201A100E830A0000A16D0
:101098008A117B270A128A15831681128115011479
:1010A800811401158B120B128B170B178312101654
:1010B8009016901083160C1401308312900064006F
:1010C8000A128A11F0270A128A150130B001AF00FE
:1010D8008630AE00A030AD000A128A1130270A12FD
:1010E8008A1583120130A301A200C230A100A00119
:1010F8000A168A1147200A128A1510300A128A1114
:10110800E2250A128A1524088316DC0083122308B4
:101118008316DB005B0F9C285C0A031D9C28831246
:101128001030A501A6010A128A11A0260A128A15F2
:1011380083160313DB0A0319DC0A5C088312A60072
:1011480083165B088312A50010300A128A11A026A4
:101158000A128A1583160317AA01AB01A801A9016F
:10116800AC01AD01F501F4018312031307108710D8
:101178000511851106098316E5000F30E505F20112
:10118800F20A0A128A1101250A128A158316031314
:101198006C1303130230EC17F20A72060319F201FA
:1011A80072080A128A151B210A128A150313EC1CED
:1011B800E128C8300317AC00AD0103136C1FEF28FA
:1011C8000A168A1564250A128A150A168A150F2521
:1011D8000A128A15F22883120710871083166C1CCE
:1011E800CD288312031710088316A1008312110853
:1011F8008316A000BB3AAA3003192106031DCD2887
:1012080083121308F10083160313650603190E29C8
:10121800710FCD2814300317A800A9010A128A11EA
:1012280070200A128A15831603136C10CD28D20079
:101238008312EF00EF0DEF0D1F086F06C3396F061D
:101248009F00A001A00AA101A201A3010A168A1504
:1012580081240A128A158316D301D401D501D60137
:10126800D701D70A43240A128A153C08D1003B0843
:10127800D0003A08CF003908CE0051088312BB00CD
:10128800831650088312BA0083164F088312B900D8
:1012980083164E088312B800831656088312BF00BF
:1012A800831655088312BE00831654088312BD00A6
:1012B800831653088312BC00D4220A128A153B08ED
:1012C8008316D60083123A088316D500831239088C
:1012D8008316D400831238088316D300E8270A122D
:1012E8008A15013A03199E2983166C1F97296908E4
:1012F800031D88296D0B8829031724032504031D62
:101308008829F9210A128A15831603136608031D12
:1013180097297C0B9729031722032304031D972978
:1013280010220A128A15831603130F30D70A5702A0
:10133800031C36290A3083165702031C08000F3095
:101348005706031DB6295708FF3E8312AA00FF302F
:1013580003180030AB00AC01AB1BAC032C08AD008C
:101368000130BD29570883120A168A15FA270A126E
:101378008A15B5250A128A158A270A128A15560867
:10138800A7005508A6005408A5005308A400232662
:101398000A128A152308D6002208D5002108D4008D
:1013A8002008D3005208031DE9295608031797009F
:1013B80003135508031796000313540803179500E1
:1013C80003135308031794000800560803179300E3
:1013D80003135508031792000313540803179100C9
:1013E8000313530803179000080003136908031D2B
:1013F800080083120718082A83166B0803190800C7
:10140800E90083120714080083166A080319080004
:10141800E900831207100800831603136608031DEA
:10142800080083128718202A831668080319080001
:10143800E60083128714080083166708031908005A
:10144800E6008312871008002508A7000130031062
:10145800A70DFF3E0310031D2C2A270D2407840027
:101468000A168A110A200A128A15A8000A168A1171
:101478000A200A128A15A9000A168A110A200A12D5
:101488008A15AA000A168A110A200A128A15AB00C0
:101498002B08AF002A08AE002908AD002808AC00C8
:1014A800250826040319CB2AFF30A507031CA60329
:1014B8002508A70001300310A70DFF3E0310031DE8
:1014C800602A270D240784000A168A110A200A12A6
:1014D8008A15A8000A168A110A200A128A15A90074
:1014E8000A168A110A200A128A15AA000A168A11EF
:1014F8000A200A128A15AB002B088312BB00831638
:101508002A088312BA00831629088312B9008316A1
:1015180028088312B80083162F088312D700831671
:101528002E088312D60083162D088312D500831641
:101538002C088312D400831623088312DB00831639
:1015480022088312DA00831621088312D900831631
:1015580020088312D8000A128A1192230A128A15C7
:101568000A168A15DD270A128A15D4220A128A1544
:101578003B088316AF0083123A088316AE00831225
:1015880039088316AD00831238088316532A2F08AA
:10159800A3002E08A2002D08A1002C08A000080016
:1015A8003B08C8008030C80503103B0DCA00BA1BB1
:1015B8004A144A080319E82A4A0FE62AB801B90169
:1015C800BA01BB01BA17EB2AB801B901BA01BB01CC
:1015D8003F08C9008030C90549084806031D481757
:1015E80003103F0DC900BE1B491449080319042BF9
:1015F800490F022BBC01BD01BE01BF01BE17072B5D
:10160800BC01BD01BE01BF014A08490203182E2BC7
:10161800481F102B8030C8064A08CB004908CA006A
:101628004B08C9003808CB003C08B8004B08BC0080
:101638003908CB003D08B9004B08BD003A08CB007B
:101648003E08BA004B08BE003B08CB003F08BB0071
:101658004B08BF00CB014908C000C1014108C300C5
:101668004A084002C200031CC3034308803AFF0033
:1016780080307F02031D422B1A304202031C632B69
:10168800831203133B083A043904380403194E2B18
:1016980001304F2B0030CB00B801B901BA01BB01B2
:1016A8004908CA00692B4B1C5E2B03104B0C0138F0
:1016B800CB00602B0310CB0CBF270A128A158312AC
:1016C800031349084A02031C572B481B922B4A084C
:1016D800031D6F2BD52F3C08B8073D0803110318CD
:1016E800013E031DB9073E0803110318013E031DFF
:1016F800BA073F0803110318013E031DBB073B1C33
:101708000E2C4B1C8C2B03104B0C0138CB008E2B52
:101718000310CB0CBF270A128A150E2C3B08803AFF
:10172800FF003F08803A7F02031DA42B3E083A02BF
:10173800031DA42B3D083902031DA42B3C083802C5
:101748000318E42BFF30C000C100C200C3003C08EE
:10175800C4003D08C5003E08C6003F08C700380859
:10176800C4023908031C390FC5023A08031C3A0F92
:10177800C6023B08031C3B0FC7024408C0074508C4
:101788000318450FC10746080318460FC207470844
:101798000318470AC3074308BB004208BA004108B8
:1017A800B9004008B8008030C806CB09CB0FF22B2F
:1017B800B80A0319B90A0319BA0A0319BB0AF22BA2
:1017C8003C08B8023D08031C3D0FB9023E08031C43
:1017D8003E0FBA023F08031C3F0FBB023B083A0406
:1017E80039043804031D0C2C4B08031D0C2CD52F71
:1017F8000310B80DB90DBA0DBB0DCB1B38144B1C1B
:10180800072C0314082C0310CB0D4A08031DCA0328
:10181800BA1FFC2BC901CB1F192C4B087F390319A0
:101828003818172C192CC901C90A490803192C2C76
:10183800B80A0319B90A0319BA0A0319BB0A3B1CE7
:101848002C2C3B0DBB0CBA0CB90CB80C4A0FCA0AAD
:101858004A0A031D4A08031D382CB801B901BA0108
:10186800BB014A080319C8014A1C3C2CBA173D2C75
:10187800BA1303104A0CBB00C81BBB1708008730FB
:10188800C1000F30C200C801C901C701C70ADA2761
:101898000A128A1520088316C8070318C90A831272
:1018A80021088316C9073330C70A4702031C4B2C8B
:1018B80047088312A000FF30A101A0070318A10A5E
:1018C800A107831649088312A300831648088312C8
:1018D800A20060270A128A1521088316C9008312FC
:1018E80020088316C8009A270A128A15B5250A12F5
:1018F8008A15A4270A128A154430D3007F30D200F3
:10190800C030D100D00144270A128A154F08831627
:10191800C60083124E088316C50083124D0883162D
:10192800C40083124C088316C30046308312D300C8
:101938001C30D2004030D100D001831648089A27C5
:101948000A128A15B5250A128A15A4270A128A15B9
:1019580044274F08D7004E08D6004D08D5004C083C
:10196800D400831646088312DB00831645088312C9
:10197800DA00831644088312D900831643088312B9
:10198800D8000A128A1192230A128A155708831658
:10199800C600831256088316C5008312550883169D
:1019A800C400831254088316C3004608A3004508E0
:1019B800A2004408A1004308A00046308312D700C3
:1019C8001C30D6004030D500D401831648089A2729
:1019D8000A128A15B5250A128A15B6270A128A111B
:1019E80092230A128A1557088316A70083125608ED
:1019F8008316A600831255088316A500831254087F
:101A08008316A40023260A128A15AD274D08C000A4
:101A18004C08BF004B08BE004A08BD004008B30090
:101A28003F08B2003E08B1003D08B0000A168A150A
:101A3800C3250A128A153308CD003208CC003108B4
:101A4800CB003008CA0041088312AA008316420856
:101A58008312C8270A128A15B5250A128A158A27F9
:101A68000A128A154D08A7004C08A6004B08A500C5
:101A78004A08A40023260A128A15AD270A128A15D5
:101A88003B308312BB005B30BA00CF30B9000F3057
:101A9800B80083164D088312BF0083164C088312C2
:101AA800BE0083164B088312BD0083164A088312B2
:101AB800BC00D4220A128A153B088316CD00831273
:101AC8003A088316CC00831239088316CB00831298
:101AD80038088316CA004D08A3004C08A2004B081A
:101AE800A1004A08A0003F30A7008030A600A50149
:101AF800A40123260A128A15AD270A128A15433033
:101B08008312CF008830CE009330CD003330CC0024
:101B180083164D088312D30083164C088312D20013
:101B280083164B088312D10083164A088312D0000B
:101B380044274F088316CD0083124E088316CC0025
:101B480083124D088316CB0083124C088316CA00F3
:101B58004D08BC004C08BB004B08BA004A08B90045
:101B68000800B2003208031DAD1FCA2D2A09B400AF
:101B78002B09B5002C09B6002D09B700B40A0319C2
:101B8800B50A0319B60A0319B70AD22D2D08B700EA
:101B98002C08B6002B08B5002A08B4002D082C0420
:101BA8002B042A04031DDD2DAA01AB01AC01AD01F4
:101BB80008009630B300FE3037050319F32DB30A39
:101BC800CF270A128A15DF2DB30AB40A0319B50AFA
:101BD8000319B60A0319B70ACF270A128A15FF3064
:101BE80037050319022EE82D02303302031C042E98
:101BF800B3030310B40DB50DB60DB70DB61FF82D10
:101C0800331CB6130310B30C3308B100B001AF0195
:101C1800AE012E08B4042F08B5043008B604310804
:101C2800B7043208031DAD1F1A2EB7173708AD00C9
:101C38003608AC003508AB003408AA0008002708AD
:101C4800B0008030B0050310270DB700A61B37146D
:101C580037080319382E370F352EA401A501A60120
:101C6800A701A617A7013C2EA401A501A601A7015B
:101C780023088039B0060310230DB800A21B3814BE
:101C880038080319502E380F4D2EA001A101A201CA
:101C9800A301A217A301542EA001A101A201A3012F
:101CA8002308220421042004031D6D2E8030A40182
:101CB800A501A601A701A6047F30A7043008A70440
:101CC8002708A3002608A2002508A1002408A000D0
:101CD80008003708031D752EA001A101A201A30168
:101CE80008003708B100B2013808B102031CB2037A
:101CF8007F30B1070318B20A2708AF002608AE00E4
:101D08002508AD002408AC00A401A501A601A7017F
:101D1800B301B401B501B601B8011A30380203188D
:101D2800CA2E38080319A92E0310AC0DAD0DAE0D3F
:101D3800AF0D0310A40DA50DA60DA70DB61B2414F9
:101D48000310B30DB40DB50DB60D23082F02031DF6
:101D5800B72E22082E02031DB72E21082D02031DBF
:101D6800B72E20082C02031CC82E36172008AC02F8
:101D78002108031C210FAD022208031C220FAE020A
:101D88002308031C230FAF02B80A912E2F082E0434
:101D98002D042C04031D3314A61BE32E0310A40DDD
:101DA800A50DA60DA70DB61B2414FF300310B30D07
:101DB800B40DB50DB60DB107031CB203D02EB80192
:101DC800B61FF92E3308A8003408A9003508AA0060
:101DD8007F303605AB002B082A0429042804031990
:101DE8002418F72EF92EB801B80A380803190D2F50
:101DF800A40A0319A50A0319A60A0319A70A271C86
:101E08000D2F270DA70CA60CA50CA40CB10A0319BD
:101E1800B20A3208803AFF0080307F02031D162F75
:101E2800FF303102031C212FFF3083160313B1004A
:101E3800B201A401A501A601A70183160313320864
:101E4800803AFF0080307F02031D2C2F01303102C1
:101E58000318372F83160313B101B201A401A5019A
:101E6800A601A701B001831603133108B700371C78
:101E78003F2FA617402FA6130310370CA700622E7A
:101E88008030CF065308BB005208BA005108B90089
:101E98005008B8004F08BF004E08BE004D08BD00EE
:101EA8004C08BC00D4223B08CF003A08CE003908C1
:101EB800CD003808CC000800A501A601200821049F
:101EC8000319852FA401A40AA11B6E2F0310A00DCE
:101ED800A10D672F0310A50DA60D21082302031DD0
:101EE800772F20082202031C812F2008A202210834
:101EF800031CA303A30225140310A10CA00CA40B1C
:101F08006E2F2608A1002508A00008002D088316BA
:101F1800A30083122C088316A20083122B088316B1
:101F2800A10083122A088316A00008008312AA00C1
:101F3800831649088312AB000030AC01AD010800DC
:101F48002D08CF002C08CE002B08CD002A08CC0085
:101F580008002308CD002208CC002108CB00200867
:101F6800CA0008002D08DB002C08DA002B08D9006D
:101F78002A08D80008003818CB173B0DBB0CBA0C40
:101F8800B90CB80CCA0A0800AB000030AB1BFF3014
:101F9800AC00AD0001340310B70CB60CB50CB40C92
:101FA8000800B801B901BA01BB01080083129F14E7
:101FB8009F18DC2F1E08A100A00183161E0883129B
:101FC800A0070318A10A08006C1CFB2F8312031733
:101FD80013088316031365060319F62F83120317D4
:101FE800130FFB2F83120313A001A00AFE2F8312E5
:101FF8000313A00120080800FF1B0A2883137F1879
:1020080083170008840A0319FF0A080010308A00A1
:102018000408840A82070034003400340034003491
:10202800C434FF347F343F348034EF34FF34BE345B
:102038009034E134A9343E34EC3482347634BE34FE
:102048008234AD342B343E340E343C34C334BD3486
:102058008734D13413343D3441347834D334BB34E9
:102068000034603478344534003440341C34463409
:10207800763431342E3430342E343234363400341D
:102088004F344B3400344B302106200422042304FF
:10209800031D5A2883120313981718168316181548
:1020A800181218130C3099000B177628C2308312B7
:1020B80003132106031D7728220320042304031D8C
:1020C8007728103083160313990003178715031315
:1020D80018158312981783161812181383121816D6
:1020E8000B1783168C16831603130717871783128B
:1020F80018121816A4011A080F30A40A240203188B
:1021080008007F280330B0002F08B1002E08B20065
:102118000330AA00B030B0280A308312A000A10111
:1021280083162F088312A30083162E088312A20099
:102138000A128A1560270A168A1121088316AF0029
:10214800831220088316AE000230B0002E08B100BA
:102158000230AA00B030B028AC00A530A8005A3030
:10216800A9000A128A115A230A168A112A08013E5E
:102178000A128A1149230A168A1180300A128A1112
:1021880049230A168A11AD012A082D020318D928F5
:102198002D082C07AB008400831300080A128A114B
:1021A80049230A168A11AD0AC8288312A001A00A79
:1021B800A101DE28A401A50121082502031DE628A6
:1021C8002008240203180800033083120313A30015
:1021D8009730A200A20BEE28A30BEE28831203135C
:1021E800A40A0319A50AE028C2210A168A111708A9
:1021F80083120313DB0083160317160883120313D5
:10220800DA0083160317150883120313D9008316FF
:1022180003171408B8210A128A1192230A168A1180
:10222800A8210A168A114E2183162108AD0020081C
:10223800AC0000300A128A1173230A168A11831619
:102248000313C2210A168A11130883120313DB0031
:1022580083160317120883120313DA008316031771
:10226800110883120313D900831603171008B82125
:102278000A128A1192230A168A11A8210A168A11AB
:102288004E2183162108AD002008AC0001300A1247
:102298008A11732B0310220D230D8312EE006E0892
:1022A800031D5C298316A001A101A201A301080056
:1022B80083162008A4002108A5002208A6002308E8
:1022C800A7001F300310A70CA60CA50CA40CFF3EFA
:1022D800031D662924088312ED0083169630A21781
:1022E800A3018312EE02EE1F88296E08803A973EFA
:1022F800031C562903108316A30CA20CA10CA00CD6
:102308008312EE0F7E29982920306E020318562971
:102318006E080319982903108316A00DA10DA20DAC
:10232800A30D8312EE038C296D0803190800831688
:10233800A009A109A209A309A00A0319A10A03195E
:10234800A20A0319A30A080057088316A3008312D8
:1023580056088316A200831255088316A10083121B
:1023680054088316A000080083120313D8004130D4
:10237800D7002030D600D501D40108003408AB00BE
:102388003308AA003208A9003108A800031708007A
:102398008B188B100C1C472AB1308F00F3308E003D
:1023A8000C108316EC1FDA29EC1364000A3083162C
:1023B8000317AA070318AB0A03302B02E8300319E6
:1023C8002A02031CE929AA01AB0101302B02F430CF
:1023D80003192A020318F429831203138617F7290D
:1023E8008312031386138316031728082904031975
:1023F800072A0A30A8020030031CA903A902831285
:10240800031306170A2A83120313061383160317E6
:102418002C082D0403191A2A0A30AC020030031CB8
:10242800AD03AD028312031386161D2A831203130C
:1024380086120A30831603179C0703189D0AA607FD
:102448000318A70AE8302606033003192706031DD8
:10245800472AA601A701F50A03136908031DE90322
:102468006608031DE6033C307506031D472AF5017F
:10247800F00A3C307006031D472AF001F40A1830B0
:1024880074060319F401831203138C1E9E2A831603
:102498001E306C14FA00FB0103179E019F011030D7
:1024A800AE007A087B040319842A831203138C1E56
:1024B8007D2A831603172E088400831203131A0833
:1024C80083178000831603171F08803AFF008030A7
:1024D8007F02031D712A33301E020318792A8316DE
:1024E80003179E0A03199F0AAE0A1E30FA00FB0161
:1024F800552A0130FA020030031CFB03FB02552A5F
:10250800831603172E088400831780018312031390
:10251800981C9E2A181218161A08FA00FB011A08A5
:10252800FA00FB011A08FA00FB0103179001831651
:102538000313EC1479088312FF0078088A007708DF
:102548008400760E8300FE0E7E0E090083120313AC
:10255800B9003808AD003708AC003608AB003508BC
:10256800AA000230AE003A30AF003908A92483121D
:1025780003133A08B6003B08B5000800831203139A
:10258800AF002D08031D080002302C02031DD22ABB
:1025980000302B02031DD22A00302A02031808003B
:1025A800831203132D08031DE52A01302C02031D95
:1025B800E32A00302B02031DE32A00302A02031C01
:1025C800EA2A083083120313B000ED2A831203139A
:1025D800B0012F08B100A0300310B10DB1043008CC
:1025E800B1049A240A168A1183123108A300A4019F
:1025F80062270A168A112B08A300A40162270A166B
:102608008A112A08A300A40162270A168A112E0833
:102618008400831700080319512B640083120313E5
:102628002D08031D080002302C02031D212B003049
:102638002B02031D212B00302A02031808008312E5
:1026480003132A08013E7F39031D422BE7270A1688
:102658008A1162270A168A116B270A168A11B1276E
:102668000A168A117B270A168A11AA0A0319AB0AC5
:102678000319AC0A0319AD0AAE0AD62AE7270A16C7
:102688008A1162270A168A11AE0AAA0A0319AB0A26
:102698000319AC0A0319AD0A0B2BA301A401622785
:1026A8000A168A116B270A168A11B1270A168A1187
:1026B8007B2F83120313AF00B0012A08031D080003
:1026C80002302902031D6E2B00302802031D6E2BD9
:1026D8000030270203180800831203132A08031D79
:1026E800812B01302902031D7F2B00302802031D96
:1026F8007F2B00302702031C862B0830831203131C
:10270800B000892B83120313B001C0270A168A115F
:102718009A240A168A11FA270A168A1162270A16B3
:102728008A112808A300A40162270A168A1127081B
:10273800A300A40162270A168A1172270A168A11B1
:1027480083123108A300A40162270A168A11AE0178
:102758002A08031D3C2C02302902031DB92B003026
:102768002802031DB92B0030270203183C2C8312C2
:1027780003132708013E7F39031D1D2C2B088400F5
:10278800A301A40150240A168A1123088317800084
:102798006B270A168A110D3083120313AD00FB3024
:1027A800AC00AC0BD52BAD0BD52B83120313A70AAA
:1027B8000319A80A0319A90A0319AA0AAB0A2A08BD
:1027C800031DF22B01302902031DF02B00302802D3
:1027D800031DF02B00302702031CF72B083083124F
:1027E8000313B000FA2B83120313B001C0270A1693
:1027F8008A119A240A168A11FA270A168A11622758
:102808000A168A112808A300A40162270A168A1149
:102818002708A300A40162270A168A1172270A163C
:102828008A1183123108A300A40162270A168A11AB
:10283800352C2B088400A301A30AA40150240A16EE
:102848008A112308831780002B08840000080319C5
:102858003C2CAB0AA70A0319A80A0319A90A0319E9
:10286800AA0A2E08AE0AAC0040302C02031CAC2B7E
:1028780083120313A301A40150240A168A116B279B
:102888000A168A11B93083120313AC004B2C4C2C56
:10289800AC0B4A2C4F2C08007B240A168A11003AEC
:1028A8008316031D91157B240A168A11003A031911
:1028B800602C1308A500A6017B240A168A11003A89
:1028C8000319782C23082404031D6E2C8316031384
:1028D8009116712C83160313911211168312260870
:1028E800A4002508A3000800A301A4010800C8301B
:1028F80083120313A2008B2C0330A2038312031349
:10290800A1009730A000A00B872CA10B872C831661
:1029180003131419932C11081F390319972C8312C8
:102928002208031D802C8312220808008B13143000
:1029380083160317AC00AD017B240A168A11003AEE
:1029480003190800831611140800B200B8270A16E4
:102958008A112D08031D080002302C02031DBA2C11
:1029680000302B02031DBA2C00302A02031808007D
:10297800831203132D08031DCD2C01302C02031DD7
:10298800CB2C00302B02031DCB2C00302A02031C59
:10299800D22C083083120313B300D52C83120313EF
:1029A800B301CA270A168A119A240A168A11F4272B
:1029B8000A168A1162270A168A112B08A300A40195
:1029C80062270A168A112A08A300A40162270A1698
:1029D8008A1172270A168A1183123408A300A401E7
:1029E80062270A168A11B1012E08310203187F2DB9
:1029F8006400831203132D08031D7F2D02302C025F
:102A0800031D0C2D00302B02031D0C2D00302A0253
:102A180003187F2D831203132A08013E7F39031DF3
:102A28006A2D2F088400A301A40150240A168A11D4
:102A38002308831380006B270A168A11B1270A1608
:102A48008A117B270A168A11AA0A0319AB0A0319E5
:102A5800AC0A0319AD0AAF0A2D08031D3F2D01303A
:102A68002C02031D3D2D00302B02031D3D2D00308F
:102A78002A02031C442D083083120313B300472D88
:102A880083120313B301CA270A168A119A240A1655
:102A98008A11F4270A168A1162270A168A112B0846
:102AA800A300A40162270A168A112A08A300A40118
:102AB80062270A168A1172270A168A1183123408A5
:102AC800A300A40162270A168A117D2D2F0884000D
:102AD800A301A30AA40150240A168A112308831308
:102AE8008000AF0AAA0A0319AB0A0319AC0A031932
:102AF800AD0AB10AF82C83120313A301A4015024D0
:102B08000A168A116B270A168A11B9308312031321
:102B1800B0008E2D8F2DB00B8D2D922D08008312B5
:102B28000313AF00B8270A168A112A08031D0800E4
:102B380002302902031DA62D00302802031DA62DF0
:102B48000030270203180800831203132A08031D04
:102B5800B92D01302902031DB72D00302802031DAD
:102B6800B72D00302702031CBE2D08308312031333
:102B7800B000C12D83120313B001D4270A168A119D
:102B88009A240A168A11EE270A168A1162270A164B
:102B98008A112808A300A40162270A168A112708A7
:102BA800A300A40162270A168A1172270A168A113D
:102BB80083123108A300A40162270A168A11AE0104
:102BC8002B082E020318732E6400831203132A089D
:102BD800031D732E02302902031DF82D0030280230
:102BE800031DF82D003027020318732E83120313D8
:102BF8002708013E7F39031D582E2C088400A301A5
:102C0800A40150240A168A112308831780006B2711
:102C180083122C088400831700080A128A1149239A
:102C28000A168A118312A70A0319A80A0319A90AFE
:102C38000319AA0A2A08031D2D2E01302902031D93
:102C48002B2E00302802031D2B2E00302702031CD8
:102C5800322E083083120313B000352E831203136B
:102C6800B001D4270A168A119A240A168A11EE2767
:102C78000A168A1162270A168A112808A300A401D5
:102C880062270A168A112708A300A40162270A16D8
:102C98008A1172270A168A1183123108A300A40127
:102CA80062270A168A11712E2C088400A301A30A30
:102CB800A40150242308831780002C0884000008EE
:102CC8000A128A1149230A168A118312A70A0319BC
:102CD800A80A0319A90A0319AA0AAE0AE42D83123D
:102CE8000313A301A40150240A168A116B270A169C
:102CF8008A11B93083120313AD00822E832EAD0BD7
:102D0800812E862E080083120313B400B8270A16F2
:102D18008A112D08031D080002302C02031D9A2E6B
:102D280000302B02031D9A2E00302A0203180800D7
:102D3800831203132D08031DAD2E01302C02031D31
:102D4800AB2E00302B02031DAB2E00302A02031CD1
:102D5800B22E083083120313B500B52E8312031365
:102D6800B501DE270A168A119A240A168A118312D7
:102D78003608A300A40162270A168A112B08A300AB
:102D8800A40162270A168A112A08A300A40162274F
:102D98000A168A11B3012E08FF3EB100FF3003184E
:102DA8000030B200803A803C031DDC2E310833022B
:102DB8000318532F6400831203132D08031D080002
:102DC80002302C02031DEE2E00302B02031DEE2EC6
:102DD80000302A0203180800831203132A08013E50
:102DE8007F39031D412FA8270A168A1162270A1660
:102DF8008A116B270A168A11B1270A168A117B27AE
:102E08000A168A11AA0A0319AB0A0319AC0A03198C
:102E1800AD0AAF0A0319B00A2D08031D1F2F013090
:102E28002C02031D1D2F00302B02031D1D2F003007
:102E38002A02031C242F083083120313B500272FFE
:102E480083120313B501DE270A168A119A240A167B
:102E58008A1183123608A300A40162270A168A1170
:102E68002B08A300A40162270A168A112A08A300C6
:102E7800A40162270A168A11512FA8270A168A1157
:102E880062270A168A11AF0A0319B00AAA0A031997
:102E9800AB0A0319AC0A0319AD0AB30ACF2E831281
:102EA8000313A8270A168A1162270A168A116B27A4
:102EB8000A168A11B1270A168A117B2F7B240A1653
:102EC8008A11003A031908002308930008007B249C
:102ED800003A8316031D11158B1708007B240A1668
:102EE8008A11003A03190800831691140800A601F4
:102EF800A701A801A9012908803AFF002308803A00
:102F08007F02031D912F22082802031D912F2108FB
:102F18002702031D912F20082602031808006400C9
:102F2800033083120313A5009730A400A40B9A2F33
:102F3800A50B9A2F83120313A60A0319A70A0319CC
:102F4800A80A0319A90A7F2F2F0884008317301CA9
:102F580083130008A300A401080005308312A00011
:102F6800A101A201A3010800143083160317AC00C5
:102F7800AD018312031308002F08B100A03003101D
:102F8800B10DB10431143008B10408003208B4009E
:102F9800A0300310B40DB40434143308B40408008A
:102FA8002F08B100A0300310B10DB104311430085E
:102FB800B10408003408B600A0300310B60DB604FA
:102FC8003508B60408002E08840083170008A300FB
:102FD800A401080083123108FE39A300A4010800E7
:102FE80083123408FE39A300A401080083123108B3
:082FF800FE39A300A40108004A
:10389000A200A300200884000A168A110A200A1632
:1038A0008A15A100230884002108831780000008DE
:1038B00003190800A30AA00A4A2C3308AB003208F7
:1038C000AA003408AC000130AD0034086E24200892
:1038D000013E8316AE000A128A113B28831203139D
:1038E000A200A300230884008317000803197A2C80
:1038F000A30A722C22082302A000A101A01BA1038D
:103900000800A601A701A801A9012908803AFF0023
:103910002308803A7F02031D972C22082802031DEA
:10392000972C21082702031D972C20082602031834
:103930000800033083120313A5009730A400A40BE2
:103940009F2CA50B9F2C83120313A60A0319A70A09
:103950000319A80A0319A90A852C2108A300220823
:10396000A4002408FF00230884000A168A110020FE
:103970000A168A15003A0319D02C2408FF002308E0
:1039800084000A168A1100200A168A150A128A1162
:1039900049230A168A158312A30A0319A40AB12C13
:1039A0002408FF00230884000A168A1100200A1246
:1039B0008A11492B0313B300B401B501B601B70155
:1039C000831603133708AB003608AA003508A90090
:1039D0003408A8003208AD003108AC0033080A12E0
:1039E0008A1173230A168A156400023083160313A2
:1039F000B40701300318B5070318B6070318B70753
:103A00003708031D08003608031D0800043035027E
:103A1000031D0C2D0030340203180800E02C83161F
:103A2000031722082304031D162D852F7308831204
:103A30000313FA270A128A15B5250A168A150A12DF
:103A40008A15A4270A168A15831660088312D300E4
:103A500083165F088312D20083165E088312D1009A
:103A600083165D088312D0000A128A1544270A16AD
:103A70008A15E6270A168A1589270A168A159626B0
:103A80000A168A15031C4C2DFC01FC0A492D7C0BDF
:103A9000152D0A128A15102ACD270A168A1589278C
:103AA0000A168A1596260A168A150318472DCD2759
:103AB0000A168A1589270A168A1596260A168A155D
:103AC00003180800FC01152D031724082504031D05
:103AD0006A2D812F1B0883120313CF00831603174F
:103AE0001A0883120313CE008316031719088312D2
:103AF0000313CD0083160317180883120313CC0099
:103B0000831664088312D300831663088312D200DD
:103B1000831662088312D100831661088312D000D5
:103B20000A128A1544270A168A15E6270A168A15E4
:103B3000A3270A168A1596260A168A15031CAA2D8B
:103B40008316ED01ED0AA72D83166D0B692D0A1260
:103B50008A15F929BD270A168A15A3270A168A1578
:103B600096260A168A150318A42DBD270A168A154B
:103B7000A3270A168A1596260A168A15031808001E
:103B80008316ED01692D33088312D700831632089E
:103B90008312D600831631088312D50083163008AD
:103BA0008312D400D801D901DA01DB0196260A1666
:103BB0008A150318DC2DEE2F831633088312A30019
:103BC000831632088312A200831631088312A100E3
:103BD000831630088312F4270A168A1504270A165A
:103BE0008A15031CF42DEE2FBF30BB008030BA00C5
:103BF0004030B901B801D7006D30D601D501D401EC
:103C0000B000831633088312AF0083163208831284
:103C1000AE00831631088312AD008316300883127C
:103C2000AC003A272F08DB002E08DA002D08D90057
:103C30002C08D8000A128A1192230A168A15DD2749
:103C40000A128A15D4220A168A153B088316B30075
:103C500083123A088316B200831239088316B10022
:103C6000831238088316B000FF308312ED07031C5F
:103C7000EE0383163308A3003208A2003108A10026
:103C80003008A0000130A4000830A500A6010A12E7
:103C90008A1528220A168A152308B3002208B200C2
:103CA0002108B1002008B00033088312BB0083163E
:103CB00032088312BA00831631088312B9008316C2
:103CC00030088312B8003F30D7003130D600723050
:103CD000D5001830D4006D08AA006E080A128A15A3
:103CE000C8270A168A150A128A15B5250A168A15D2
:103CF0000A128A15B6270A168A150A128A11922301
:103D00000A168A15DD270A128A15D4223B08831663
:103D1000B30083123A088316B2008312390883165F
:103D2000B100831238088316B00008008030DC012F
:103D3000DD015605DE007F305705DF005E045D04BF
:103D40005C04031DA72ED401D501D601D701803014
:103D5000DC01DD015A05DE007F305B05DF005E041B
:103D60005D045C04031DB82ED801D901DA01DB0122
:103D7000D71FD52E8030DC01DD01DE01DF005408C5
:103D8000DC025508031C550FDD025608031C560FB4
:103D9000DE025708031C570FDF025F08D7005E08DA
:103DA000D6005D08D5005C08D400DB1FF22E803001
:103DB000DC01DD01DE01DF005808DC025908031CCC
:103DC000590FDD025A08031C5A0FDE025B08031C60
:103DD0005B0FDF025F08DB005E08DA005D08D900D8
:103DE0005C08D8008030D706DB065B085702031D4D
:103DF00008005A085602031D080059085502031D01
:103E000008005808540208008030A801A9012205C2
:103E1000AA007F302305AB002A0429042804031DCF
:103E2000152FA001A101A201A3018030A801A901C1
:103E30002605AA007F302705AB002A0429042804A0
:103E4000031D262FA401A501A601A701270823060B
:103E5000031D342F26082206031D342F25082106B2
:103E6000031D342F240820060319382F03100800DF
:103E7000031408002F08A3002E08A2002D08A1009B
:103E80002C08F4270A168A1504270A168A15031C1B
:103E9000542F3008840083138001840A8001AC0110
:103EA000AD01AE01AF0108002F087F39B100B201AA
:103EB0000310B10DB20D3008840031088313800067
:103EC000840A320880002E0D2E0D0139B100B20196
:103ED0003008840031088004840A320880043008E5
:103EE000840082308007840F00080318000AFF0056
:103EF000FF3E800084032F0880393F38AF00AE13A7
:103F0000080083120313071008008312031387109D
:103F10000800D40083160317130883120313DB0071
:103F200083160317120883120313DA00831603178C
:103F3000110883120313D900831603171008831284
:103F40000313D8000800D400831603171708831240
:103F50000313DB0083160317160883120313DA001A
:103F600083160317150883120313D900831603174A
:103F7000140883120313D800080083166408831200
:103F8000D700831663088312D60083166208831253
:103F9000D500831661088312080083166008831217
:103FA000D70083165F088312D60083165E0883123B
:103FB000D50083165D08831208005708BF00560815
:103FC000BE005508BD005408BC0008004F08D700CB
:103FD0004E08D6004D08D5004C0808008316B001E5
:103FE000B101B201B3010800A000A401A501A6011E
:103FF000A7010800AA000130AB01AC01AD01080027
:04400E008C2FFF3FB5
:00000001FF
