:020000040000FA
:060000000A128A11122809
:10000800FE00030EF6000408F7000A08F800831241
:1000180003137F08F9000A168A11682E0A128A113A
:1000280015286330F001F101F201F301F401F50143
:10003800831384006C300A128A1501200A128A116F
:10004800CD308400EC300A128A1501200A128A1178
:10005800903083178400EA300A128A150120830140
:100068000A168A11242FB300B200B20DB20D1F0870
:100078003206C3393206C9230A128A1133230A12F7
:100088008A11B401B501B601B60AD6230A128A113B
:100098002008B4070318B50A2108B5073330B60A93
:1000A8003602031C49283608A000FF30A101A0072A
:1000B8000318A10AA1073508A3003408A2000A16EC
:1000C8008A111A260A128A112108B5002008B400DC
:1000D800A0003508A1000030A201A301C522230811
:1000E800B1002208B0002108AF002008AE000800C7
:1000F800D800D300D30DD30D1F085306C3395306B8
:10010800C9230A128A1133230A128A11DA01DB0180
:10011800DC01DD01D901D90A580837203108BA00B5
:100128003008B9002F08B8002E08B7005D08BE00D7
:100138005C08BD005B08BC005A08BB000A128A11A3
:1001480017240A128A113A08DD003908DC00380839
:10015800DB003708DA00E3230A128A11013A03198F
:10016800BA280F30D90A5902031C90280A305902BC
:10017800031C08000F305906031DD0285908FF3EFC
:10018800A000FF3003180030A100A201A11BA203A8
:100198002208A3000130D6285908A0000130A10187
:1001A800A201A301C5222308B1002208B00021083A
:1001B800AF002008AE005D08B5005C08B4005B081D
:1001C800B3005A08B2000A128A1194250A128A1139
:1001D8003108DD003008DC002F08DB002E08DA00CB
:1001E8003B30D700A030D6002830D5000A30D400E4
:1001F8005708AB005608AA005508A9005408A800DB
:10020800B9230A128A1156210A128A11B0230A1236
:100218008A11AB002030AA00A901A801B9230A124B
:100228008A1156210A128A11B023CE00DC30CD0083
:10023800CC01CB015D08D2005C08D1005B08D0007E
:100248005A08CF000A128A11FB230A128A114E0893
:10025800DD004D08DC004C08DB004B08DA005808CC
:10026800031D46295D088316D40083125C08831693
:10027800D30083125B088316D20083125A088316B0
:10028800D10008005D088316D00083125C0883162D
:10029800CF0083125B088316CE0083125A08831698
:1002A800CD0008002B08B4008030B40503102B0DD6
:1002B800B600AA1B3614360803196A29360F6829AE
:1002C800A801A901AA01AB01AA176E29A801A901D1
:1002D800AA01AB012F088039B40603102F0DB50011
:1002E800AE1B3514350803198129350F7F29AC0158
:1002F800AD01AE01AF01AE178529AC01AD01AE016C
:10030800AF013508031D3608031D8F29A801A9016F
:10031800AA01AB0108002808A0002E08AA220A1288
:100328008A112108C0002008BF00B700B801B90130
:10033800BA014008BB00BC01BD01BE012908A000EC
:100348002D08AA220A128A1193230A128A11031865
:10035800BC070318BD070318BE072A08A0002C080D
:10036800AA220A128A1193230A128A11A2230A12B4
:100378008A112908A0002C08AA220A128A115F23D0
:100388000A128A110318013E031DBA072808A000A3
:100398002D08AA220A128A115F230A128A11031849
:1003A800013E031DBA073908BA003808B9003708F2
:1003B800B800B7012808A0002C08AA220A128A113E
:1003C8005F230A128A110318013E031DBA07290880
:1003D800A0002E08AA220A128A11210879230A12DB
:1003E8008A1182230A128A11C2230A128A112D083D
:1003F800AA220A128A11210879230A128A11822351
:100408000A128A11C2230A128A112E08AA220A1273
:100418008A11210879230A128A113208B300310897
:10042800B2003008B100B00182230A128A11031801
:10043800013E031DBE073A08BB070130A2230A127A
:100448008A113608BF00C0013508BF070318C00A63
:100458008230BF07031CC003BD1B402A0310BB0D1D
:10046800BC0DBD0DBE0DBA1B3B14FF300310B70DFC
:10047800B80DB90DBA0D2D2AB501BA1F552A37087E
:10048800B0003808B1003908B2007F303A05B3002F
:1004980032043104300403193B18532A552AB50194
:1004A800B50A35080319692ABB0A0319BC0A0319D6
:1004B800BD0A0319BE0A3E1C692A3E0DBE0CBD0CBE
:1004C800BC0CBB0CBF0A0319C00A4008803AFF00E5
:1004D80080307F02031D722AFF303F02031C7D2AF1
:1004E8007F3083120313BE008030BD00BC01BB0106
:1004F8009F2A831203134008803AFF0080307F024E
:10050800031D882A01303F020318922A831203131D
:10051800BB01BC01BD01BE01B4019F2A83120313B4
:100528003F08B6007F30BD050030BE013618BD1744
:100538000310360CBE003408BE043E08AB003D086C
:10054800AA003C08A9003B08A8000800A700A301CE
:10055800A4012008A500A601271CB82A2508A3077E
:100568000318A40A2608A4070310A50DA60D031056
:10057800A70C2708031DB02A2408A1002308A000FF
:100588000800A8002808031DA31FDA2A2009AA00CA
:100598002109AB002209AC002309AD00AA0A0319FE
:1005A800AB0A0319AC0A0319AD0AE22A2308AD0005
:1005B8002208AC002108AB002008AA002308220466
:1005C80021042004031DED2AA001A101A201A30119
:1005D80008009630A900FE302D050319032BA90A3F
:1005E800D0230A128A11EF2AA90AAA0A0319AB0A08
:1005F8000319AC0A0319AD0AD0230A128A11FF3075
:100608002D050319122BF82A02302902031C142B7A
:10061800A9030310AA0DAB0DAC0DAD0DAC1F082B33
:10062800291CAC130310A90C2908A700A601A501D1
:10063800A4012408AA042508AB042608AC0427084A
:10064800AD042808031DA31F2A2BAD172D08A300EE
:100658002C08A2002B08A1002A08A0000800A60167
:10066800A701A801A9012908803AFF002308803AB8
:100678007F02031D492B22082802031D492B21084C
:100688002702031D492B20082602031808000330FF
:1006980083120313A5009730A400A40B512BA50BBC
:1006A800512B83120313A60A0319A70A0319A80AD0
:1006B8000319A90A372B2108C0002008BF00B00081
:1006C8004008B100B201B3013008B707310803117F
:1006D8000318013E031DB807320803110318013E31
:1006E800031DB907330803110800C0002008BF0024
:1006F800B0004008B100B201B30108003008BB07E0
:10070800310803110318013E031DBC073208031109
:100718000318013E031DBD07330803110800210813
:10072800C0002008BF00B70701300318B807031836
:10073800B9070318BA074008BB0701340318BC07F8
:100748000318BD070318BE073908BA003808B900EE
:100758003708B800B70108002B08DD002A08DC00BC
:100768002908DB002808DA0042345D08AF005C087D
:10077800AE005B08AD005A08AC0008000318013E43
:10078800031DBE072A08A00008009F00A001A00AB8
:10079800A101A201A30108000310AD0CAC0CAB0C25
:1007A800AA0C08009F149F18D72B1E08A100A001AF
:1007B80083161E088312A0070318A10A08006B1CE1
:1007C800F62B8316031713088312031369060319FC
:1007D800F12B83160317130FF62B83120313A001B3
:1007E800A00AF92B83120313A00120080800803007
:1007F800CE065208BA005108B9005008B8004F0890
:10080800B7004E08BE004D08BD004C08BC004B08A0
:10081800BB0017243A08CE003908CD003808CC00B0
:100828003708CB0008003A08C7008030C705031016
:100838003A0DC900B91B4914490803192B2C490F53
:10084800292CB701B801B901BA01B9172E2CB70183
:10085800B801B901BA013E08C8008030C805480887
:100868004706031D471703103E0DC800BD1B48145B
:1008780048080319472C480F452CBB01BC01BD0192
:10088800BE01BD174A2CBB01BC01BD01BE01490810
:1008980048020318712C471F532C8030C70649089B
:1008A800CA004808C9004A08C8003708CA003B08F7
:1008B800B7004A08BB003808CA003C08B8004A0814
:1008C800BC003908CA003D08B9004A08BD003A080A
:1008D800CA003E08BA004A08BE00CA014808BF005C
:1008E800C0014008C20049083F02C100031CC203FE
:1008F8004208803AFF0080307F02031D852C1A30A1
:100908004102031CA62C831203133A083904380445
:1009180037040319912C0130922C0030CA00B7011A
:10092800B801B901BA014808C900AC2C4A1CA12C6D
:1009380003104A0C0138CA00A32C0310CA0C8625E0
:100948000A128A118312031348084902031C9A2CBD
:10095800471BD52C4908031DB22C8F2D3B08B70720
:100968003C0803110318013E031DB8073D08031195
:100978000318013E031DB9073E0803110318013E81
:10098800031DBA073A1C512D4A1CCF2C03104A0CE0
:100998000138CA00D12C0310CA0C86250A128A1104
:1009A800512D3A08803AFF003E08803A7F02031D25
:1009B800E72C3D083902031DE72C3C083802031DCB
:1009C800E72C3B0837020318272DFF30BF00C00073
:1009D800C100C2003B08C3003C08C4003D08C50074
:1009E8003E08C6003708C3023808031C380FC40283
:1009F8003908031C390FC5023A08031C3A0FC6020E
:100A08004308BF0744080318440FC00745080318E4
:100A1800450FC10746080318460AC2074208BA002C
:100A28004108B9004008B8003F08B7008030C70641
:100A3800CA09CA0F352DB70A0319B80A0319B90A22
:100A48000319BA0A352D3B08B7023C08031C3C0FB2
:100A5800B8023D08031C3D0FB9023E08031C3E0FB7
:100A6800BA023A08390438043704031D4F2D4A08DE
:100A7800031D4F2D8F2D0310B70DB80DB90DBA0DED
:100A8800CA1B37144A1C4A2D03144B2D0310CA0DD8
:100A98004908031DC903B91F3F2DC801CA1F5C2D92
:100AA8004A087F39031937185A2D5C2DC801C80A1E
:100AB800480803196F2DB70A0319B80A0319B90AA8
:100AC8000319BA0A3A1C6F2D3A0DBA0CB90CB80CB6
:100AD800B70C490FC90A490A031D4908031D7B2D94
:100AE800B701B801B901BA0149080319C701491C7E
:100AF8007F2DB917802DB9130310490CBA00C71BF5
:100B0800BA1708003718CA173A0DBA0CB90CB80C3E
:100B1800B70CC90A0800B701B801B901BA01080041
:100B28003508BE008030BE050310350DC500B41B66
:100B3800451445080319A82D450FA62DB201B30188
:100B4800B401B501B417AB2DB201B301B401B501BD
:100B580031088039BE060310310DC600B01B46149B
:100B680046080319BF2D460FBD2DAE01AF01B001D8
:100B7800B101B017C22DAE01AF01B001B10131080A
:100B880030042F042E04031DDC2D8030B201B30184
:100B9800B401B501B4047F30B5043E08B504350886
:100BA800B1003408B0003308AF003208AE000800C6
:100BB8004508031DE42DAE01AF01B001B1010800E5
:100BC8004508BF00C0014608BF02031CC0037F30B0
:100BD800BF070318C00A3508BD003408BC00330835
:100BE800BB003208BA00B201B301B401B501C101BA
:100BF800C201C301C401C6011A3046020318392EC6
:100C080046080319182E0310BA0DBB0DBC0DBD0DF7
:100C18000310B20DB30DB40DB50DC41B321403107F
:100C2800C10DC20DC30DC40D31083D02031D262E92
:100C380030083C02031D262E2F083B02031D262EDA
:100C48002E083A02031C372E44172E08BA022F0822
:100C5800031C2F0FBB023008031C300FBC023108E5
:100C6800031C310FBD02C60A002E3D083C043B049C
:100C78003A04031D4114B41B522E0310B20DB30DD8
:100C8800B40DB50DC41B3214FF300310C10DC20DD5
:100C9800C30DC40DBF07031CC0033F2EC601C41FEC
:100CA800672E4108B6004208B7004308B8007F30F5
:100CB8004405B90038043704360403193218652E80
:100CC800672EC601C60A460803197B2EB20A031905
:100CD800B30A0319B40A0319B50A351C7B2E350D5E
:100CE800B50CB40CB30CB20CBF0A0319C00A400807
:100CF800803AFF0080307F02031D842EFF303F02C0
:100D0800031C8F2EFF3083120313BF00C001B201F2
:100D1800B301B401B501831203134008803AFF0000
:100D280080307F02031D9A2E01303F020318A52E42
:100D380083120313BF01C001B201B301B401B501AD
:100D4800BE01831203133F08C500451CAD2EB4171E
:100D5800AE2EB4130310450CB500D12D8312C1007B
:100D6800C201C301C401C5014508B9004408B8005F
:100D78004308B7004208B6004008BB003F08BA0065
:100D8800410825270A128A116400023083120313CE
:100D9800C20701300318C3070318C4070318C5079F
:100DA8004508031D08004408031D080004304302D9
:100DB800031DE02E0030420203180800B82EA327B6
:100DC8000A128A1154088312A30083165308831247
:100DD800A200831652088312A100831651088312B9
:100DE800A0003B270A128A112108AB002008AA009C
:100DF8000A30AC00AD018A270A128A112B08BB0001
:100E08002A08BA00003025270A128A11A3270A12D5
:100E18008A1150088312A30083164F088312A20078
:100E280083164E088312A10083164D088312A00072
:100E38003B270A128A112108BB002008BA0001309A
:100E4800252F8312BC003B08BD003A08BE003908B4
:100E5800AD003808AC003708AB003608AA000230ED
:100E6800AE003D30AF003C080A128A15352E03103B
:100E7800220D230DA9002908031D472FA001A10158
:100E8800A201A30108002008A4002108A500220847
:100E9800A6002308A7001F300310A70CA60CA50C5A
:100EA800A40CFF3E031D502F2408A8009630A2175B
:100EB800A301A902A91F6D2F2908803A973E031C98
:100EC800422F0310A30CA20CA10CA00CA90F652F94
:100ED8007B2F203029020318422F290803197B2F62
:100EE8000310A00DA10DA20DA30DA903712F2808B1
:100EF80003190800A009A109A209A309A00A031956
:100F0800A10A0319A20A0319A30A0800AE01AF0136
:100F18002A1C942F2C08AE070318AF0A2D08AF0718
:100F28000310AC0DAD0D0310AB0CAA0C2A082B0452
:100F3800031D8C2F2F08AB002E08AA0008004208BA
:100F4800B9004108B8004008B7003F08B60083164A
:100F580008008312A4002408DA270A128A1103134E
:100F6800A500A40A23088400250883178000A30A83
:100F7800250803190800AF2F8312A6002830A70000
:100F8800AA01270884002608DA270A128A1183137F
:100F9800800003130230A60AA70AAA0A2A02031C21
:100FA800C52F2908A4002808A30008008312A2005E
:100FB8001430F400F501831603178C18DF2F831201
:100FC8000313220803178D0083168C130C144E305C
:100FD80083120313A100EA30A000A00BF12FA10B8C
:0C0FE800F12F0000831203170C08080012
:1010020064008001840A04060319003404060228DD
:10101200AF00A530AA005A30AB0082270A128A1507
:1010220083122D08013ED3230A128A158030D3235E
:101032000A128A158312B0012D08300203182D28D6
:1010420030082F07AE00840083130008D3230A124E
:101052008A158312B00A1D28A001A00AA1010A164E
:101062008A11A92BA530AA005A30AB0082270A1296
:101072008A1583123008033ED3230A128A1582305E
:10108200D3230A128A1583122E08AB002D08AA0058
:1010920082270A128A158312B2013008320203181B
:1010A2005E2832082F07B100840083130008D3237F
:1010B2000A128A158312B20A4E28A001A00AA101BF
:1010C2000A168A11A92BDC300A168A1174240A1214
:1010D2008A15831603136308CC006408CB006508E5
:1010E200CA006608C900412B0B3098232D308312A9
:1010F200A1008030A2000A168A110E2C8316620803
:10110200031D8B285408C6005308C5005208C400AA
:10111200510892285008C6004F08C5004E08C40066
:101122004D08C30041308312AB002030AA00A90150
:10113200A801831646088312AF008316450883125E
:10114200AE00831644088312AD008316430883124F
:10115200AC000A128A1156210A128A152B0883162C
:10116200C60083122A088316C50083122908831633
:10117200C400831228088316C3008B1302309823FD
:1011820046088312A300831645088312A200831621
:1011920044088312A100831643088312A0000A1296
:1011A2008A113B270A128A152108AB002008AA00DF
:1011B20082278B17080083166208CC006308CB00D5
:1011C2006408CA006508C9004C088312C20083166D
:1011D2004B088312C10083164A088312C00083168B
:1011E20049088312BF000A128A11E326F201F301B1
:1011F2008316D701D8010800023098230A128A15F3
:1012020002308312AA00AB01822F83166308831275
:10121200A000831662080A168A1177250A128A1517
:10122200033098230A168A11082C831662080A12C0
:101232008A11DA270A128A1583160313C7000130AE
:1012420098230A128A154708D32B83166208C00016
:101252006308BF006408BE003F088312A60083161D
:101262003E088312A500831640080A168A113D25FE
:101272000A128A151129831662080A128A11C027D6
:101282000A128A1524088316C200831223088316C1
:10129200C100023098230A128A1542088312AB0059
:1012A200831641088312AA00822FE330A500831619
:1012B20062080A168A1160250A128A151129DA3083
:1012C200A300831662080A128A11AD270A128A1530
:1012D200103098230A128A15EA270A168A110E2C50
:1012E20083164C088312B90083164B088312B80088
:1012F20083164A088312B700831649088312B60080
:10130200831667088312BA008316620891270A12AD
:101312008A15112983164C088312B90083164B08CB
:101322008312B80083164A088312B700831649084D
:101332008312B600831662080A168A1178230A12EB
:101342008A158316C700013098230A128A154708A6
:10135200D32B83164C088312B90083164B088312D1
:10136200B80083164A088312B7008316490883120D
:10137200B600831667088312BB00831668088312BF
:10138200BA00831662080A128A1125270A128A15E0
:10139200112983164C088312B90083164B08831255
:1013A200B80083164A088312B700831649088312CD
:1013B200B600831662080A168A118F230A128A154A
:1013C20037088316C2008312360848298316670835
:1013D200C8004C088312AD0083164B088312AC0080
:1013E20083164A088312AB00831649088312AA00A7
:1013F200831648088312AE00BA30AF000130B00045
:101402008316620856250A128A15831603134808A2
:10141200982348088312A100BA30A2010A168A1141
:10142200C32B83164C088312AD0083164B0883121C
:10143200AC0083164A088312AB0083164908831254
:10144200AA00831667088312AE00E830AF00831645
:10145200620835260A128A15112983164C0883124E
:10146200AD0083164B088312AC0083164A08831220
:10147200AB00831649088312AA00E730AE00831638
:101482006208E1230A128A15112983164C08831275
:10149200AD0083164B088312AC0083164A088312F0
:1014A200AB00831649088312AA00DA30AE00831615
:1014B20062087524DA3083120313A0000130A10000
:1014C2000A168A11EF230A128A1520086A2983163E
:1014D20063088312BF00C001831662080A128A11D0
:1014E200B2260A128A15112983165A088312AF00EE
:1014F2000A30B001B100A030B20168270A128A1581
:10150200831659088312AF000A30B001B100AA3025
:10151200B20168270A128A1583165B088312AF008C
:101522000A30B001B100B430B20168273430A000F3
:10153200DA300A168A1163230A128A1583162108E1
:10154200031DAB2AC5270A128A15B3230A128A156C
:101552008316A201A0308312A000DA30A101B323C6
:101562000A128A15DF270A128A15B3230A128A156C
:1015720083162B08031DC52AC5270A128A15B32311
:101582000A128A158316AC01AA308312A000DA303F
:10159200A101B3230A128A15DF270A128A15B3237F
:1015A2000A128A1583163508031DDF2AC5270A1277
:1015B2008A15B3230A128A158316B601B430831230
:1015C200A000DA30A101B323DA30A0000130A1007B
:1015D2000A168A11EF230A128A15200898230A1282
:1015E2008A15EA270A168A110E240A128A15003071
:1015F200D32B83166208DA006308D9006408DB0083
:101602001129831662088312B100B201F6270A1269
:101612008A151129831662088312B20083166308A1
:101622008312B1000A168A11B7250A128A151129E6
:10163200831662088312B400831663088312B30010
:10164200E430B5000A168A11DF230A128A1511291D
:1016520083166208031D362B6308031D332B831286
:1016620007101129831207141129620B112963082B
:10167200031D3E2B8312871011298312871411290F
:1016820060088312C600C7014708003A03194A2BB3
:10169200972B4608023A0319DC28013A0319FD2860
:1016A2000B3A03190629013A03191629033A0319B9
:1016B2002629013A03193C29073A03195629013A06
:1016C200031960291C3A03197129033A03198B295A
:1016D200013A0319AA29073A0319CA29013A031937
:1016E2002E2A033A0319462A013A0319122A0F3AFB
:1016F2000319E729013A0319682A033A03197F28D3
:10170200043A0319FA2A013A0319752A3F3A0319CE
:10171200022B013A03190B2B053A0319192B023A32
:101722000319292B0D3A03197528972B08008312E8
:101732000313A100AA30D3230A128A15BB30D32384
:101742000A128A1583126908D3230A128A150030F5
:10175200D3230A128A156008D3230A128A15831228
:101762002108D32BA400A300230884000008031936
:10177200C02BA30AB52BA30AA00A0319A10A2108A8
:10178200FF00200884000A168A1100200A128A1516
:10179200A20023088400220883178000000803198E
:1017A2000800BC2B8312A0001430F000F101831654
:1017B200981CD82B831220089900831698160800CB
:1017C2008312AF002D08031D080002302C02031DF6
:1017D200F02B00302B02031DF02B00302A020318DD
:1017E20008002D08031D012C01302C02031DFF2BC4
:1017F20000302B02031DFF2B00302A02031C042C95
:101802000830B000052CB0012F08B100A030031041
:10181200B10DB1043008B10405270A128A158312EA
:101822003108A000A101FF260A128A152B08A00088
:10183200A101FF260A128A152A08A000A101FF268B
:101842000A128A152E088400831300080319692CD2
:101852006400831203132D08031D080002302C02BA
:10186200031D392C00302B02031D392C00302A02B3
:10187200031808002A08013E7F39031D592C2E083F
:10188200D2270A128A15FF260A128A150B270A1274
:101892008A15A1270A128A1530270A128A15AA0A5E
:1018A2000319AB0A0319AC0A0319AD0AAE0AF22BEB
:1018B2002E08D2270A128A15FF260A128A15AE0AA4
:1018C200AA0A0319AB0A0319AC0A0319AD0A232C9D
:1018D200A001A101FF260A128A150B270A128A15F6
:1018E200A1270A128A15302F8312B100B2012D08E6
:1018F200031D080002302C02031D852C00302B0230
:10190200031D852C00302A02031808002D08031D30
:10191200962C01302C02031D942C00302B02031D47
:10192200942C00302A02031C992C0830B2009A2C05
:10193200B201A8270A128A1505270A128A15F0276A
:101942000A128A15FF260A128A152B08A000A10185
:10195200FF260A128A152A08A000A101FF260A12F0
:101962008A1565270A128A1583123308A000A1017D
:10197200FF260A128A15B0016400831203132D0890
:10198200031D442D02302C02031DCD2C00302B02EE
:10199200031DCD2C00302A020318442D2A08013ED3
:1019A2007F39031D252D2E088400A001A1010E27D9
:1019B2000A128A152008831780000B270A128A153B
:1019C200A1270A128A1530270A128A15AA0A0319B0
:1019D200AB0A0319AC0A0319AD0AAE0A2D08031D9E
:1019E200FE2C01302C02031DFC2C00302B02031DA7
:1019F200FC2C00302A02031C012D0830B200022DFB
:101A0200B201A8270A128A1505270A128A15F02799
:101A12000A128A15FF260A128A152B08A000A101B4
:101A2200FF260A128A152A08A000A101FF260A121F
:101A32008A1565270A128A1583123308A000A101AC
:101A4200FF260A128A153D2D2E088400A001A00A45
:101A5200A1010E270A128A152008831780002E087A
:101A6200840000080319442DAE0AAA0A0319AB0A1E
:101A72000319AC0A0319AD0A3008B00AAF004030AE
:101A82002F02031CBD2CA001A1010E270A128A15E8
:101A92000B270A128A15B93083120313AF00512D96
:101AA200522DAF0B502D552D08008312B300143068
:101AB200F400F5012D08031D080002302C02031D5D
:101AC200682D00302B02031D682D00302A020318F6
:101AD20008002D08031D792D01302C02031D772DDE
:101AE20000302B02031D772D00302A02031C7C2DAF
:101AF2000830B4007D2DB401B2270A128A150527D9
:101B02000A128A15E4270A128A15FF260A128A1572
:101B12002B08A000A101FF260A128A152A08A0009C
:101B2200A101FF260A128A1565270A128A15831255
:101B32003508A000A101FF260A128A15B2012E085B
:101B420032020318232E6400831203132D08031D8F
:101B5200232E02302C02031DB42D00302B02031D54
:101B6200B42D00302A020318232E2A08013E7F39A1
:101B7200031D0D2ED8270A128A15A1010E270A125B
:101B82008A15200880000B270A128A15A1270A123B
:101B92008A1530270A128A15AA0A0319AB0A0319F1
:101BA200AC0A0319AD0AAF0A0319B00A2D08031DC6
:101BB200E62D01302C02031DE42D00302B02031D03
:101BC200E42D00302A02031CE92D0830B400EA2D6E
:101BD200B401B2270A128A1505270A128A15E427C8
:101BE2000A128A15FF260A128A152B08A000A101E3
:101BF200FF260A128A152A08A000A101FF260A124E
:101C02008A1565270A128A1583123508A000A101D8
:101C1200FF260A128A15212ED8270A128A15A00A2F
:101C2200A1010E270A128A1520088000AF0A0319A3
:101C3200B00AAA0A0319AB0A0319AC0A0319AD0ABE
:101C4200B20AA02DA001A1010E270A128A150B27A4
:101C52000A128A15B93083120313B100302E312EC5
:101C6200B10B2F2E342E08008312B3001430F4006F
:101C7200F5012D08031D080002302C02031D472E1A
:101C820000302B02031D472E00302A0203180800E1
:101C92002D08031D582E01302C02031D562E003034
:101CA2002B02031D562E00302A02031C5B2E083025
:101CB200B4005C2EB401BC270A128A1505270A1249
:101CC2008A1583123508A000A101FF260A128A157F
:101CD2002B08A000A101FF260A128A152A08A000DB
:101CE200A101FF260A128A15B2012E08FF3EB0009A
:101CF200FF3003180030B100803A803C031D832E70
:101D0200300832020318F02E6400831203132D08E8
:101D1200031D080002302C02031D952E00302B02F9
:101D2200031D952E00302A02031808002A08013EDE
:101D32007F39031DE02ECB270A128A15FF260A12CD
:101D42008A150B270A128A15A1270A128A1530272B
:101D52000A128A15AA0A0319AB0A0319AC0A031953
:101D6200AD0AAF0A2D08031DC22E01302C02031D3D
:101D7200C02E00302B02031DC02E00302A02031C8D
:101D8200C52E0830B400C62EB401BC270A128A152B
:101D920005270A128A1583123508A000A101FF2621
:101DA2000A128A152B08A000A101FF260A128A1521
:101DB2002A08A000A101FF260A128A15EE2ECB27BF
:101DC2000A128A15FF260A128A15AF0AAA0A0319ED
:101DD200AB0A0319AC0A0319AD0AB20A762E8312B2
:101DE2000313CB270A128A15FF260A128A150B271C
:101DF2000A128A15A1270A128A15302FEB175D27BE
:101E020083122008930008001430F400F5015D27C6
:101E1200111408005D2711150800EB175D270A123F
:101E22008A1591155D270A128A1583121308A200DA
:101E3200A3015D270A128A15831220082104031DBB
:101E4200262F831603139116292F8316031391123B
:101E5200111683122308A1002208A0000800A6017F
:101E6200A701A801A9012908803AFF002308803AA6
:101E72007F02031D462F22082802031D462F210838
:101E82002702031D462F20082602031808006400BB
:101E9200033083120313A5009730A400A40B4F2F25
:101EA200A50B4F2F83120313A60A0319A70A0319BE
:101EB200A80A0319A90A342F831614195D2F1108D1
:101EC2001F39031908005D2F5D2791140800B40023
:101ED200B01F762F340884002D3083138000B40A9B
:101EE200AF09B009AF0A0319B00A3008A8002F08D9
:101EF200A7003208AA003108A90034080A168A117C
:101F0200CD2D2A30AC002C0A840083130008D32381
:101F12000A128A1583122C08840083130008D32B1B
:101F22008312BB003908AD003808AC003708AB009B
:101F32003608AA003A30AE01AE0AAF003B08352E91
:101F420005308312A000A101A201A30108003108FB
:101F5200B300A0300310B30DB30433143208B3043A
:101F620008003308B500A0300310B50DB5043514D0
:101F72003408B50408003308B500A0300310B50DCD
:101F8200B5043408B504080033308312A000803051
:101F9200A100DA342F08840083130008A000A101F5
:101FA2000800840083130008A000A10108002F0884
:101FB20084008317301C8313A00108003830A0006E
:101FC2008030A100DA3483123508FE39A000A10165
:101FD2000800DA308312A1000130A2000800831247
:101FE2003308FE39A000A10108000330B300320813
:101FF200B4003108B5000330AD0033300928FF1BAF
:102002000A2883137F1883170008840A0319FF0A1A
:10201200080010308A000408840A82070034003461
:10202200003400340034C434FF347F343F3480340D
:10203200EF34FF34BE349034E134A9343E34EC340E
:1020420082347634BE348234AD342B343E340E3492
:102052003C34C334BD348734D13413343D34413439
:102062007834D334BB3400346034783445340034AB
:1020720040341C344634763431342E3430342E34E9
:102082003134303400344F344B3400343A34003479
:1026B000C030831203139F04803083169F009F173E
:1026C00083121F140800A200A300200884000A1629
:1026D0008A110A200A168A11A10023088400210801
:1026E00083178000000803190800A30AA00A652BBD
:1026F0008312BA003908AD003808AC003708AB00C7
:102700003608AA003B30AE01AE0AAF00B0013A086D
:102710000A128A155625831203133B0808008312F8
:10272000BA003908AD003808AC003708AB003608ED
:10273000AA000230AE003B30AF00B0013A080A12E6
:102740008A155625831203133B08B7003C08B600D0
:102750000800A401A50121082502031DB12B2008B2
:10276000240203180800033083120313A3009730D8
:10277000A200A20BB92BA30BB92B83120313A40A3B
:102780000319A50AAB2BA7002730A501A600250831
:10279000A300A40122082402031DD02B2108230238
:1027A0000318080026088400831300080A128A15FB
:1027B000D3230A168A118312A60AA50AC72B340846
:1027C000AE003308AD003508AF003508A000A10108
:1027D000EF232008013EB0000A128A153328200892
:1027E000A2002108A300220884008317231C83135E
:1027F00000080319FF2BA20A0319A30AF32B2008D0
:102800002202A0002108031C210A2302A1000800C3
:1028100035308312A1008030A2000E2C2108A300C5
:102820002208A4002408FF00230884000A168A1145
:1028300000200A168A11003A0319312C2408FF00DF
:10284000230884000A168A1100200A168A110A1227
:102850008A15D3230A168A118312A30A0319A40A1C
:10286000122C2408FF00230884000A168A11002075
:102870000A128A15D32B4B3021062004220423048C
:10288000031D4C2C981718168316181518121813B8
:102890000C3099000B17652CC2302106031D662CE5
:1028A000220320042304031D662C10308316990094
:1028B0000317871503131815831298178316181218
:1028C0001813831218160B1783168C168316071706
:1028D0008717831218121816A4011A080F30A40AB9
:1028E0002402031808006D2CA4008400831603172B
:1028F000110883138000840A1008800083120313D8
:102900002408023E840083160317120880008312F5
:1029100003132408033E8400831603171308800062
:10292000831203132408043E84008316031714083B
:102930008000831203132408053E840083160317C6
:102940001508800083120313A201A3012408053E89
:1029500084002308803AA00080302002031DB22C9E
:102960000008220203180800831203132208963E6F
:10297000840083170008A00022082407A100063E57
:102980008400200883138000A20A0319A30AA62C3E
:10299000283094008316910183122D08B1002E086F
:1029A000B2002F08B3003008B40002300310B10D9C
:1029B000B20DB30DB40DFF3E031DD62C3408A30099
:1029C0003308A2003208A1003108A0007A30A70124
:1029D000A6001230A500A401F5242008FF3E8316AE
:1029E00093009401871507160800A801A901AA0100
:1029F000AB0123082204210420040319342DAC0167
:102A0000AC0AA31B092D0310A00DA10DA20DA30D4F
:102A1000002D0310A80DA90DAA0DAB0D2308270248
:102A2000031D1C2D22082602031D1C2D2108250232
:102A3000031D1C2D20082402031C2E2D2008A40297
:102A40002108031C210FA5022208031C220FA60245
:102A50002308031C230FA70228140310A30CA20CA5
:102A6000A10CA00CAC0B092D2B08A3002A08A20076
:102A70002908A1002808A00008008312A900253019
:102A8000AA00AB012A08840083130008A0002908CB
:102A900077250A168A11831203130230AA0AA90A9B
:102AA000AB0A2B02031C422D4E3083120313A800E5
:102AB000EA30A700A70B5A2DA80B5A2D00000800DA
:102AC0008312A60025088400831300080319732DC0
:102AD000B1250A168A1177250A168A118312031363
:102AE000A60AA50A622DB1250A168A11772D83122E
:102AF000A3001430F400F501831603178C187C2D05
:102B00008B1F872D83120313A401A40A8A2D83121D
:102B10000313A401230803178D00031320080317D0
:102B20008C0083168C130C158B1355308D00AA3036
:102B30008D008C14831203132403031DA12D8B1706
:102B4000A22D8B13831603170C114E30831203131F
:102B5000A200EA30A100A10BAB2DA20BAB2D00000F
:102B60000800250884000008A000260808000A3094
:102B7000A000A1013208A3003108A2001A262108F2
:102B8000B2002008B1000230B3003108B4000230B6
:102B9000AD0033300A128A150928AE002808AC00AF
:102BA0002708AB002A08A1002908A0002C08A300D0
:102BB0002B08A2001A260A168A112108AC00200848
:102BC000AB00AE0A2C04031DD22D2E088400831303
:102BD0008001AE032A08A1002908A0002808A3004C
:102BE0002708A20044260A168A112008AD002A08E8
:102BF000A1002908A0002808A3002708A2001A267F
:102C00000A168A112108A8002008A7000A302D0200
:102C1000031C0C2E0730AD073030AD072E088400A2
:102C20002D0883138000AE0327082804031DEA2D16
:102C3000AE0A0800A501A6012008210403193F2EB1
:102C4000A401A40AA11B282E0310A00DA10D212E62
:102C50000310A50DA60D21082302031D312E200807
:102C60002202031C3B2E2008A2022108031CA303FE
:102C7000A30225140310A10CA00CA40B282E2608D7
:102C8000A1002508A0000800200821040319632ED4
:102C9000A401A40AA11B502E0310A00DA10D492EC2
:102CA00021082302031D562E20082202031C5F2E3A
:102CB0002008A2022108031CA303A3020310A10CF5
:102CC000A00CA40B502E2308A1002208A00008008D
:102CD0008B188B100C1CCC2EB1308F00F3308E0073
:102CE0000C10EB1F752EEB1364000A30F20703186B
:102CF000F30A03307302E83003197202031C822EB8
:102D0000F201F30101307302F43003197202031867
:102D10008D2E831203138617902E831203138613AE
:102D20007008710403199C2E0A30F0020030031C55
:102D3000F103F10206179D2E06137408750403199A
:102D4000A92E0A30F4020030031CF503F5028616A2
:102D5000AA2E86120A308316D5070318D60AD7077B
:102D60000318D80AE8305706033003195806031D24
:102D7000CC2ED701D801DB0A3C305B06031DCC2EDC
:102D8000DB01D90A3C305906031DCC2ED901DA0AE1
:102D900018305A060319DA0183128C1E192F1E30BF
:102DA0006B14FA00FB01E301E4019030E7007A08BC
:102DB0007B040319002F831203138C1EF92E67085E
:102DC00084001A08831780006408803AFF0080306E
:102DD0007F02031DED2E293063020318F52E8312A6
:102DE0000313E30A0319E40AE70A1E30FA00FB01A1
:102DF000D72E0130FA020030031CFB03FB02D72E52
:102E0000831203136708840083178001981C192F0D
:102E1000181218161A08FA00FB011A08FA00FB012A
:102E20001A08FA00FB01831603179001831203139B
:102E3000EB147908FF0078088A0077088400760E82
:102E40008300FE0E7E0E0900023083120313E000A1
:102E50000430DF00B930DE00DE0B2C2FDF0B2C2F0F
:102E6000E00B2C2F332F831603130F168F160F171B
:102E700083128501860187018901EF308316850061
:102E80000F308600F0308700FF30890011300317C3
:102E900088008901031381130F3095008312861770
:102EA000061786160330A301A201A100E830A00096
:102EB0000A128A1530270A168A1183168112811583
:102EC0000114811401158B120B128B170B1783122F
:102ED00010169016901083160C1401308312900077
:102EE00064000A168A1158230A168A110130B001AB
:102EF000AF008630AE00A030AD000A168A11C8249B
:102F00000A168A1183120130A301A200C230A10067
:102F1000A0010A168A113B240A168A1110300A12DF
:102F20008A11C0270A168A112408E2002308E1004A
:102F3000610FA52F620A031DA52F1030A501A60160
:102F40000A168A113D250A168A1183120313E10A13
:102F50000319E20A6208A6006108A50010300A16EB
:102F60008A113D250A168A11F201F301F001F101DF
:102F7000F401F50183160313DB01DA018312071054
:102F80008710051185110609E9000F30E905EA01EE
:102F9000EA0A0230EB17EA0A6A060319EA016A082C
:102FA0000A128A117C200A168A1183126B1CC92FFF
:102FB00083160317100883120313E6008316031702
:102FC000110883120313E500BB3AAA300319660601
:102FD000031DC92F83160317130883120313E80078
:102FE00069060319F52F680FC92F1430F000F1019D
:102FF0000A128A1564200A168A1183126B10C92FCF
:04400E008CEFFFFF35
:00000001FF
