:020000040000FA
:060000000A128A11122809
:10000800FE00030EF2000408F3000A08F40083124D
:1000180003137F08F5000A168A11BB290A128A11F0
:100028001528F801F901FA01FB01FC01FD01831211
:100038000313EF018313A0308400BB300A168A151E
:1000480081220A128A11831790308400EB300A1635
:100058008A1581220A128A111030840044300A1647
:100068008A15812283010A168A11A62A90300A1657
:100078008A1555270A128A1183160317170883123F
:100088000313DF005F088316C900031718088312DB
:100098000313DF005F088316C800031719088312CB
:1000A8000313DF005F088316C70003171A088312BB
:1000B8000313DF005F088316C600752B4130DF008D
:1000C8005F08A000CA300A168A115B200A128A113A
:1000D8000B300A168A1596240A128A11CA3083121E
:1000E800A1000130A2000A168A154B2508008316C4
:1000F80003171608031D892803132708C4002608B8
:10010800C3002508C2002408912803132308C4004B
:100118002208C3002108C2002008C1004130831210
:10012800AC002030AB000030AA000030A9008316D4
:1001380044088312B000831643088312AF00831665
:1001480042088312AE00831641088312AD000A12DA
:100158008A11C8230A128A112C088316C400831234
:100168002B088316C30083122A088316C200831241
:1001780029088316C1008B1302300A168A159624A3
:100188000A128A1144088312C60083164308831290
:10019800C500831642088312C400831641088312DF
:1001A800C3000A168A11D7200A128A114408CF0000
:1001B8004308CE000A168A1512238B1708008316E7
:1001C8000317160883120313DF005F088316C9009C
:1001D8000317170883120313DF005F088316C8008C
:1001E8000317180883120313DF005F088316C7007C
:1001F8000317190883120313DF005F088316C6006C
:1002080049088312DB00831648088312DA00831634
:1002180047088312D900831646088312D8000A16A5
:100228008A114221F801F90183160313B001B101C3
:10023800080002300A168A1596240A128A1102301A
:100248008312CE000030CF000A168A151223080048
:1002580083160317170883120313DF005F08A00033
:100268008316031716080A168A155A260A128A11BF
:1002780003300A168A1596240A128A110A168A1554
:10028800922208008316031716080A168A150724EF
:100298000A128A110313DF005F088316C5000130B4
:1002A8000A168A1596240A128A1145080A168A150A
:1002B800C622080083160317160883120313DF00EB
:1002C8005F088316BD000317180883120313DF00A5
:1002D800E00183160317170883120313E100E201F4
:1002E8006108E200E1015F0861048316BB00831224
:1002F800600862048316BC003C088312A6008316BB
:100308003B088312A50083163D080A168A1519258D
:100318000A128A113C298316031716080A168A1529
:10032800BE240A128A1124088316C00083122308E7
:100338008316BF0002300A168A1596240A128A11FB
:1003480040088312CF0083163F088312CE000A1696
:100358008A15122308009730DF005F08A50083166E
:10036800031716080A128A1504200A128A113C2952
:10037800CA30DF005F08A3008316031716080A16A1
:100388008A15C6230A128A1121306D288316490856
:100398008312BA00831648088312B90083164708E7
:1003A8008312B800831646088312B7008316031712
:1003B8001B0883120313DF005F08BB0083160317B3
:1003C80016080A168A15FC220A128A113C29831675
:1003D80049088312B900831648088312B8008316A7
:1003E80047088312B700831646088312B60083169F
:1003F800031716080A168A1557230A128A11DF00EE
:100408005F088316C50001300A168A1596240A1259
:100418008A1145080A168A15C62208008316490853
:100428008312D100831648088312D0008316470828
:100438008312CF00831646088312CE008316031753
:100448001C0883120313DF00E001831603171B083F
:1004580083120313E100E2016108E200E1015F0891
:100468006104D20060086204D300831603171608DB
:100478000A168A15A6230A128A113C2983164908E6
:100488008312B900831648088312B80083164708F8
:100498008312B700831646088312B6008316031723
:1004A80016080A168A156E240A128A113708831646
:1004B800C000831236089C29831603171B08831271
:1004C8000313DF005F088316BE003E080A168A156C
:1004D80096240A128A1149088312AC008316480828
:1004E8008312AB00831647088312AA0083164608B6
:1004F8008312A90083163E088312DF005F08AD004F
:10050800CA30E0006008AE008316031716080A1206
:100518008A15D2200800831649088312AD00831675
:1005280048088312AC00831647088312AB00831671
:1005380046088312AA00831603171B0883120313A5
:10054800DF005F08AE009C30AF000130B0008316BA
:10055800031716080A168A1199230A128A113C29C8
:10056800831649088312AD00831648088312AC002D
:10057800831647088312AB00831646088312AA0025
:100588009B30DF005F08AE008316031716080A12B7
:100598008A11BD260A128A113C298316490883123A
:1005A800AC00831648088312AB00831647088312F1
:1005B800AA00831646088312A900CA30DF005F0824
:1005C800AD008316031716080A168A1186260A1222
:1005D8008A11CA300A168A1570230A128A1120084D
:1005E800013E6D2883160317170883120313DF00D3
:1005F800E0015F08D8006008D900831603171608C1
:100608000A168A15D2260A128A113C29831603175C
:10061800160883120313DF00E0015F08D6006008A4
:10062800D7000A168A15E7220A128A113C2983166E
:100638000317160883120313DF00E0015F08E000C8
:10064800DF01831603171708831203135F07D60009
:100658000030031801306007D7000A168A152924CC
:100668000A128A113C2983160317160883120313EA
:10067800DF00E0015F08E000DF01831603171708B9
:10068800831203135F07DA00003003180130600794
:10069800DB009830E1006108DC000A168A1528237F
:1006A8000A128A113C29831603171608031D672BA3
:1006B8001708031D632B8312031307103C298312A9
:1006C800031307143C291603031D3C291708031DAF
:1006D800712B8312031387103C2983120313871489
:1006E8003C290317140883120313DF00E001600894
:1006F800003A0319802BC72B5F08023A0319E32835
:10070800013A03191D290B3A03192C29013A031937
:100718004629033A03195E29013A03198F29073A32
:100728000319AF29013A0319BC291C3A0319CA292C
:10073800033A0319EB29013A0319122A073A031954
:10074800422A013A0319B42A033A0319D12A013A71
:1007580003198F2A0F3A0319602A013A0319F62A56
:10076800033A03197B28383A0319372B063A031939
:100778001B2B013A03190A2B153A0319572B713A07
:1007880003196228C72B08002C088039B1003108EA
:10079800B6002C08B1003107B2003208BC00AB1B10
:1007A8003C143C080319E52B3C0A031DE32B0030DD
:1007B800AC000030AB000030AA000030A900AB1735
:1007C800ED2B0030AC000030AB000030AA00003048
:1007D800A90030088039B1003108B6063008B100E8
:1007E8003107B2003208B700AF1B371437080319B6
:1007F8000A2C370A031D082C0030B0000030AF0067
:100808000030AE000030AD00AF17122C0030B00041
:100818000030AF000030AE000030AD003708031DD7
:100828003C08031D202C0030AC000030AB00003029
:10083800AA000030A90008002908B1003108A0006A
:100848002F080A168A154B240A128A112108C20099
:100858002008C1004108B100B201B301B401340855
:10086800BB003308BA003208B9003108B8004208A2
:10087800B100B201B301B4013408C0003308BF00AD
:100888003208BE003108BD002A08B1003108A000B6
:100898002E080A168A154B240A128A112108C2004A
:1008A8002008C1004108B100B201B301B401310808
:1008B800B807320803110318013E031DB9073308AE
:1008C80003110318013E031DBA0734080311031866
:1008D800013E031DBB074208B100B201B301B401D8
:1008E8003108BD07320803110318013E031DBE0776
:1008F800330803110318013E031DBF073408031111
:100908000318013E031DC0072B08B1003108A000E1
:100918002D080A168A154B240A128A112108C200CA
:100928002008C1004108B100B201B301B401310887
:10093800B807320803110318013E031DB90733082D
:1009480003110318013E031DBA07340803110318E5
:10095800013E031DBB074208B100B201B301B40157
:100968003108BD07320803110318013E031DBE07F5
:10097800330803110318013E031DBF073408031190
:100988000318013E031DC0070830B1000310B80D5D
:10099800B90DBA0DBB0DB10BCA2C2A08B10031082C
:1009A800A0002D080A168A154B240A128A1121085C
:1009B800C2002008C1004108B1004208B200B301DA
:1009C800B4013108B807320803110318013E031DAA
:1009D800B907330803110318013E031DBA07340889
:1009E80003110318013E031DBB072908B100310894
:1009F800A0002E080A168A154B240A128A1121080B
:100A0800C2002008C1004108B1004208B200B30189
:100A1800B4013108B807320803110318013E031D59
:100A2800B907330803110318013E031DBA07340838
:100A380003110318013E031DBB070830B100031062
:100A4800B80DB90DBA0DBB0DB10B232D2908B10096
:100A58003108A0002D080A168A154B240A128A119B
:100A68002108C2002008C1004108B1004208B200B4
:100A7800B301B4013108B807320803110318013E65
:100A8800031DB907330803110318013E031DBA07F4
:100A9800340803110318013E031DBB072A08B100DF
:100AA8003108A0002F080A168A154B240A128A1149
:100AB8002108C2002008C1004108B1004208B20064
:100AC800B301B4013108BD07320803110318013E10
:100AD800031DBE07330803110318013E031DBF079A
:100AE800340803110318013E031DC0072B08B10089
:100AF8003108A0002E080A168A154B240A128A11FA
:100B08002108C2002008C1004108B1004208B20013
:100B1800B301B4013108BD07320803110318013EBF
:100B2800031DBE07330803110318013E031DBF0749
:100B3800340803110318013E031DC0072B08B10038
:100B48003108A0002F080A168A154B240A128A11A8
:100B58002108C2002008C1004108B1004208B200C3
:100B6800B301B40108300310B10DB20DB30DB40DCB
:100B7800FF3E031DB72D3108BD07320803110318C6
:100B8800013E031DBE07330803110318013E031D70
:100B9800BF07340803110318013E031DC0073B08B3
:100BA800B100B201B301B4013108BD073208031125
:100BB8000318013E031DBE07330803110318013E45
:100BC800031DBF07340803110318013E031DC007A6
:100BD8000830B1000310B80DB90DBA0DBB0DB10B3B
:100BE800EE2D3C083707B100B201B20D3108823E44
:100BF800C10032080318013EFF3EC200BF1B1F2E72
:100C08000130B1000310BD0DBE0DBF0DC00DB10BFD
:100C1800062EBB1B3D140130B1000310B80DB90DF1
:100C2800BA0DBB0DB10B112EFF30C1070318C20A54
:100C3800FF30C207022EB701BB1F382EFF30380520
:100C4800B100FF303905B200FF303A05B3007F30FC
:100C58003B05B400340833043204310403193D1849
:100C6800362E382EB701B70A370803196A2E013015
:100C7800BD07003003180130BE07003003180130EB
:100C8800BF07003003180130C007401C6A2E3D081A
:100C9800B1003E08B2003F08B3004008B40001307C
:100CA800B500340DB40CB30CB20CB10CB50B552E09
:100CB8003408C0003308BF003208BE003108BD0048
:100CC8000130C1070318C20A0030C2074208803A3F
:100CD800FF0080307F02031D732EFF304102031C8A
:100CE800802E7F3083120313C0008030BF00003095
:100CF800BE000030BD00B02E831203134208803AB4
:100D0800FF0080307F02031D8B2E01304102031843
:100D1800992E003083120313C0000030BF0000304A
:100D2800BE000030BD00B601B02E83120313410887
:100D3800B1003108BC00FF30BD05FF30BE057F3073
:100D4800BF050030C0053C18BF173C08B1000310B0
:100D5800310CB2003208C0003608B1003108C004B6
:100D68004008AC003F08AB003E08AA003D08A900B7
:100D7800080083120313B1002D08031D0800023078
:100D88002C02031DCF2E00302B02031DCF2E003066
:100D98002A02031DCF2E03180800831203132D08FF
:100DA800031DE42E01302C02031DE22E00302B021D
:100DB800031DE22E00302A02031DE22E031CEB2E37
:100DC800083083120313AF002F08B200EE2E8312EF
:100DD8000313B2013108AF002F08B3000310B30D9D
:100DE800A030AF002F08B3043208AF002F08B304B7
:100DF8000A168A15D6220A128A1183123308AF00FE
:100E0800B0012F08A3003008A4000A168A15B022E2
:100E18000A128A112B08AF00B0012F08A30030086E
:100E2800A4000A168A15B0220A128A112A08AF00ED
:100E3800B0012F08A3003008A4000A168A15B022B2
:100E48000A128A112E0884008317000803199E2F9E
:100E58006400831203132D08031D080002302C02BE
:100E6800031D3E2F00302B02031D3E2F00302A02A7
:100E7800031D3E2F03180800831203132A08013E9E
:100E88007F39031D7C2F2E08840083170008AF00CC
:100E9800B0012F08A3003008A4000A168A15B02252
:100EA8000A128A110A168A1589220A128A11003032
:100EB8008312A3000030A2000030A1000530A0007A
:100EC8000A168A15EA250A128A110130AA07003083
:100ED80003180130AB07003003180130AC070030AD
:100EE80003180130AD070130AF002F08AE07D32E2D
:100EF8002E08840083170008AF00B0012F08A30054
:100F08003008A4000A168A15B0220A128A11013084
:100F1800AF002F08AE070130AA07003003180130D0
:100F2800AB07003003180130AC070030031801305C
:100F3800AD07262F0030A300A4000A168A15B02298
:100F48000A128A110A168A1589220A128A11003091
:100F58008312A3000030A2000030A1000530A000D9
:100F68000A168A15EA250800A530CE005A30CF00A7
:100F78000A168A1512230A128A1183125608033E8A
:100F88000A168A15C6220A128A1182300A168A158A
:100F9800C6220A128A1183125308CF005208CE00C3
:100FA8000A168A1512230A128A118312D9015608C1
:100FB80059020318F72F59085407D7005508031882
:100FC800013ED800570884008317581C8313000873
:100FD8000A168A15C6220A128A1101308312D7000E
:100FE8005708D907DB2F0130A0000030A1000A16EE
:060FF8008A1589230800A0
:1010080083120313A7002508840083170008031917
:101018002428250884000008A6002608A000270820
:101028000A168A155A260A128A15013083120313E2
:10103800A6002608A7070130A6002608A507072846
:10104800250884000008A6002608A00027080A161C
:101058008A155A260800A8002808031DA31F44283B
:101068002009AA002109AB002209AC002309AD0020
:10107800AA0A0319AB0A0319AC0A0319AD0A4C28CA
:101088002308AD002208AC002108AB002008AA0004
:101098002308220421042004031D5B280030A30038
:1010A8000030A2000030A1000030A00008009630F7
:1010B800A4002408A900FE302D0503198C2801304E
:1010C800A4002408A90701300310AD0CAC0CAB0C2C
:1010D800AA0CFF3E031D68285F280130A4002408DD
:1010E800A9070130AA07003003180130AB07003008
:1010F80003180130AC07003003180130AD07013088
:101108000310AD0CAC0CAB0CAA0CFF3E031D8428DD
:10111800FF302D050319A028712802302902031C6D
:10112800A2280130A9020130A4000310AA0DAB0DBA
:10113800AC0DAD0DA40B9928AC1F91282918AC282B
:10114800FF30AA05FF30AB057F30AC05FF30AD0599
:101158000310A90C2908A400A501A601A7011830AD
:101168000310A40DA50DA60DA70DFF3E031DB42861
:101178002408AA042508AB042608AC042708AD04F3
:101188002808031DA31FC928AD172D08A3002C0884
:10119800A2002B08A1002A08A0000800831203134C
:1011A800B200B30114308316B4000030B5008312C6
:1011B8002C08031D080002302B02031DEB28003009
:1011C8002A02031DEB2800302902031DEB2803180F
:1011D8000800831203132C08031D002901302B0279
:1011E800031DFE2800302A02031DFE2800302902B4
:1011F800031DFE28031C0729083083120313AF00C0
:101208002F08B3000A2983120313B3013208AF0071
:101218002F08B4000310B40DA030AF002F08B40499
:1012280034143308AF002F08B4040A168A15D622DE
:101238000A128A1583123408FE39AF00B0012F084C
:10124800A3003008A4000A168A15B0220A128A15CB
:101258002A08AF00B0012F08A3003008A4000A161E
:101268008A15B0220A128A152908AF00B0012F0882
:10127800A3003008A4000A168A15B0220A128A159B
:101288000A168A15BB220A128A1583123408AF007F
:10129800B0012F08A3003008A4000A168A15B0224E
:1012A8000A128A15B1012D0831020318372A640081
:1012B800831203132C08031D372A02302B02031D47
:1012C8006D2900302A02031D6D2900302902031DF3
:1012D8006D290318372A831203132908013E7F3921
:1012E800031D0B2A0030A300A4000A168A157E25C8
:1012F8000A128A152308AF002E0884002F088317C6
:1013080080000A168A1589220A128A1583122E0865
:101318008400831700080A168A15C6220A128A153D
:1013280001308312A907003003180130AA070030E2
:1013380003180130AB07003003180130AC072C0844
:10134800031DB42901302B02031DB22900302A02E3
:10135800031DB22900302902031DB229031CBB2931
:10136800083083120313AF002F08B300BE2983127D
:101378000313B3013208AF002F08B4000310B40DF3
:10138800A030AF002F08B40434143308AF002F087E
:10139800B4040A168A15D6220A128A15831234084A
:1013A800FE39AF00B0012F08A3003008A4000A16C8
:1013B8008A15B0220A128A152A08AF00B0012F0830
:1013C800A3003008A4000A168A15B0220A128A154A
:1013D8002908AF00B0012F08A3003008A4000A169E
:1013E8008A15B0220A128A150A168A15BB220A1211
:1013F8008A1583123408AF00B0012F08A300300803
:10140800A4000A168A15B0220A128A15322A013057
:10141800A3000030A4000A168A157E250A128A1530
:101428002308AF002E0884002F08831780002E0899
:10143800840000080A168A15C6220A128A15013085
:101448008312A907003003180130AA0700300318D7
:101458000130AB07003003180130AC070130AF0092
:101468002F08B1075729003083120313A300A400E3
:101478000A168A157E250A128A150A168A158922DD
:101488000A128A15B93083120313AF004B2A4C2A6B
:10149800AF0B4A2A4F2A0800B300B4011430831650
:1014A800B4000030B50083122D08031D0800023077
:1014B8002C02031D672A00302B02031D672A003007
:1014C8002A02031D672A03180800831203132D0834
:1014D800031D7C2A01302C02031D7A2A00302B02BE
:1014E800031D7A2A00302A02031D7A2A031C832A44
:1014F800083083120313B0003008B400862A831220
:101508000313B4013308B0003008B5000310B50D5B
:10151800A030B0003008B50435143408B0003008E5
:10152800B5040A168A15D6220A128A1583123508B6
:10153800FE39B000B1013008A3003108A4000A1632
:101548008A15B0220A128A152B08B000B10130089A
:10155800A3003108A4000A168A15B0220A128A15B7
:101568002A08B000B1013008A3003108A4000A1607
:101578008A15B0220A128A150A168A15BB220A127F
:101588008A1583123508B000B1013008A30031086C
:10159800A4000A168A15B0220A128A15B2012E086A
:1015A80032020318B52B6400831203132D08031DA0
:1015B800B52B02302C02031DE92A00302B02031D33
:1015C800E92A00302A02031DE92A0318B52B8312E1
:1015D80003132A08013E7F39031D8E2B0030A30018
:1015E800A4000A168A157E250A128A152308B00057
:1015F8002F0884003008831380000A168A15892270
:101608000A128A1500308312A3000030A2000030AD
:10161800A1000530A0000A168A15EA250A128A15C3
:101628000130AA07003003180130AB070030031857
:101638000130AC07003003180130AD070130B000AD
:101648003008AF072D08031D372B01302C02031D6E
:10165800352B00302B02031D352B00302A02031DC9
:10166800352B031C3E2B083083120313B0003008BF
:10167800B400412B83120313B4013308B0003008BF
:10168800B5000310B50DA030B0003008B50435140E
:101698003408B0003008B5040A168A15D6220A1292
:1016A8008A1583123508FE39B000B1013008A3004D
:1016B8003108A4000A168A15B0220A128A152B08C6
:1016C800B000B1013008A3003108A4000A168A1539
:1016D800B0220A128A152A08B000B1013008A30006
:1016E8003108A4000A168A15B0220A128A150A16A9
:1016F8008A15BB220A128A1583123508B000B10177
:101708003008A3003108A4000A168A15B0220A126C
:101718008A15B02B0130A3000030A4000A168A15E0
:101728007E250A128A152308B0002F088400300885
:10173800831380000130B0003008AF070130AA07DA
:10174800003003180130AB07003003180130AC0734
:10175800003003180130AD070130B0003008B2077F
:10176800D32A003083120313A300A4000A168A1593
:101778007E250A128A150A168A1589220A128A15DE
:10178800B93083120313B000C92BCA2BB00BC82B76
:10179800CD2B08004A088039CB004B08D4004A08F2
:1017A800CB004B07CC004C08DB00C91B5B145B0863
:1017B8000319EC2B5B0A031DE92B0030CA0000302B
:1017C800C9000030C8000030C700C917CA01F42B8F
:1017D8000030CA000030C9000030C8000030C7001F
:1017E80046088039CB004B08D4064608CB004B0787
:1017F800CC004C08DC00C51B5C145C080319122CD7
:101808005C0A031D0F2C0030C6000030C5000030F4
:10181800C4000030C300C517C6011A2C0030C6002A
:101828000030C5000030C4000030C300460845043D
:1018380044044304031D392C0030CA000030C90099
:101848000030C8000030C7008030C9047F30CA04A7
:101858005408CB004B08CA044A08C6004908C5000A
:101868004808C4004708C30008005B08031D452C4E
:101878000030C6000030C5000030C4000030C3008E
:1018880008005B08CB00CC014C08CE005C084B027A
:10189800CD00031CCE034D087F3ED5004E0803182B
:1018A800013E003ED6004A08D3004908D200480845
:1018B800D1004708D0000030CA000030C90000300D
:1018C800C8000030C7000030DA000030D90000300E
:1018D800D8000030D700DC011A305C020318B82C9D
:1018E8005C080319942C0130CB000310D00DD10DE6
:1018F800D20DD30DCB0B792C0130CB000310C70DC3
:10190800C80DC90DCA0DCB0B822CDA1B4714013048
:10191800CB000310D70DD80DD90DDA0DCB0B8D2CBC
:1019280046085302031DA22C45085202031DA22C8F
:1019380044085102031DA22C43085002031CB32C77
:101948005A174308D0024408031C440FD102450823
:10195800031C450FD2024608031C460FD302013070
:10196800CB004B08DC07702C530852045104500478
:10197800031D5714C91BDB2C0130CB000310C70D06
:10198800C80DC90DCA0DCB0BC22CDA1B4714013088
:10199800CB000310D70DD80DD90DDA0DCB0BCD2CFC
:1019A800FF30D5070318D60AFF30D607BE2CDC0156
:1019B800DA1FF42CFF305705CB00FF305805CC0058
:1019C800FF305905CD007F305A05CE004E084D0432
:1019D8004C044B0403194718F22CF42CDC01DC0AE4
:1019E8005C080319262D0130C707003003180130A1
:1019F800C807003003180130C90700300318013048
:101A0800CA074A1C262D4708CB004808CC004908BD
:101A1800CD004A08CE000130CF004E0DCE0CCD0CC3
:101A2800CC0CCB0CCF0B112D4E08CA004D08C900A9
:101A38004C08C8004B08C7000130D5070318D60A60
:101A48000030D6075608803AFF0080307F02031D19
:101A58002F2DFF305502031C3F2DFF308312031337
:101A6800D5000030D6000030CA000030C900003070
:101A7800C8000030C700831203135608803AFF00DD
:101A880080307F02031D4A2D013055020318592D5D
:101A980083120313D501D6010030CA000030C900F3
:101AA8000030C8000030C700D40183120313550862
:101AB800CB004B08DB005B1C632DC917672D7F30FB
:101AC800CB004B08C9055B08CB0003104B0CCC00BE
:101AD8004C08CA002C2C60088039E500650883167C
:101AE800BB0083126008E5006507E60066088316F8
:101AF800BD008312DF1F822D83163D1483163D0817
:101B08000319962D3D0A031D922D00308312E00023
:101B18000030DF000030DE000030DD008312DF1708
:101B2800E0019F2D00308312E0000030DF0000301C
:101B3800DE000030DD0064088039E50065088316A2
:101B4800BC003C083B06031D3B1783126408E500F4
:101B58006507E60066088316BC008312E31FB62DEE
:101B680083163C1483163C080319CA2D3C0A031D2E
:101B7800C62D00308312E4000030E3000030E2009C
:101B88000030E1008312E317E401D32D0030831203
:101B9800E4000030E3000030E2000030E10083168A
:101BA8003D083C020318332E3B1FE02D8030831282
:101BB800E50065088316BB063D088312E500650845
:101BC8008316BE003C088312E50065088316BD0035
:101BD8003E088312E50065088316BC0083125D0881
:101BE800E50065088316BE0083126108E5006508F4
:101BF800DD0083163E088312E5006508E1005E08F3
:101C0800E50065088316BE0083126208E5006508D2
:101C1800DE0083163E088312E5006508E2005F08CF
:101C2800E50065088316BE0083126308E5006508B1
:101C3800DF0083163E088312E5006508E3006008AC
:101C4800E50065088316BE0083126408E500650890
:101C5800E00083163E088312E5006508E400831659
:101C6800BE013C088312E500E6016608E800831619
:101C78003D0883126502E700031CE8036808803A00
:101C8800FF0080307F02031D4B2E1A306702031CB1
:101C9800902E8312031360085F045E045D04031929
:101CA800572E0130582E0030E50065088316BE0017
:101CB80000308312E0000030DF000030DE0000302A
:101CC800DD0083163C088312E50065088316BD0015
:101CD800962E3E1C7A2E3E088312E5000310650CF2
:101CE8000138E60066088316BE007C2E0310BE0C81
:101CF80083125D1C812E8316BE1701308312E50006
:101D0800600DE00CDF0CDE0CDD0CE50B842E0130E1
:101D1800E50065088316BD07831603133C083D02DA
:101D2800031C6D2E3B1BE12E3D08031DA52E003024
:101D38008312E0000030DF000030DE000030DD00FC
:101D4800080083126108DD07620803110318013EC9
:101D5800031DDE07630803110318013E031DDF0797
:101D6800640803110318013E031DE007601C8E2F51
:101D780083163E1CCA2E3E088312E5000310650C2C
:101D88000138E60066088316BE00CC2E0310BE0C90
:101D980083125D1CD12E8316BE1701308312E50015
:101DA800600DE00CDF0CDE0CDD0CE50BD42E0130F1
:101DB800E50065088316BD078E2F83126008803AF8
:101DC800FF006408803A7F02031DF42E63085F0257
:101DD800031DF42E62085E02031DF42E61085D02E5
:101DE80003184E2FFF30E500FF30E600FF30E70014
:101DF800FF30E8006108E9006208EA006308EB00C8
:101E08006408EC005D08E9025E08031C5E0F0D2FF4
:101E18000E2FEA025F08031C5F0F132F142FEB022B
:101E28006008031C600F192F1A2FEC026908E507D8
:101E38006A0803186A0F212F222FE6076B08031878
:101E48006B0F272F282FE7076C0803186C0AE80781
:101E58006808E0006708DF006608DE006508DD0046
:101E68008030E50065088316BB06BE09BE0A3E0839
:101E7800031D5C2F01308312DD0700300318013089
:101E8800DE07003003180130DF0700300318013087
:101E9800E0075C2F6108DD026208031C620FDE02A6
:101EA8006308031C630FDF026408031C640FE0026D
:101EB800831260085F045E045D04031D8B2F831684
:101EC8003E08031D8B2F00308312E0000030DF0036
:101ED8000030DE000030DD0008000130E5000310AE
:101EE800DD0DDE0DDF0DE00DE50B732F8316BE1F34
:101EF8007F2F83125D1483163E1C842F0314852FB5
:101F08000310BE0D3D0803198B2F0130BD0283124B
:101F1800DF1F712F8316BC01BE1F9C2F3E087F391F
:101F2800031D992F83125D1C9C2F8316BC01BC0ACC
:101F380083163C080319D42F01308312DD070030C3
:101F480003180130DE07003003180130DF070030C6
:101F580003180130E007601CD42F5D08E5005E0817
:101F6800E6005F08E7006008E8000130E900680D56
:101F7800E80CE70CE60CE50CE90BBB2F6808E00061
:101F88006708DF006608DE006508DD0083163D0A85
:101F98000319D42F01308312E50065088316BD07A5
:101FA80083163D0A031D3D08031DE72F00308312E9
:101FB800E0000030DF000030DE000030DD00831676
:101FC8003D080319BB013D1CEC2F8312DF17F12FCD
:101FD8007F308312E5006508DF0583163D0883120C
:101FE800E5000310650CE6006608E0008316BB1FD9
:101FF80008008312E0170800FF1B0A2883137F18C4
:1020080083170008840A0319FF0A080010308A00A1
:102018000408840A8207003466346634A634BF3460
:102028001434AE342B34C134003440341C344634B8
:1020380066348634963443340034C0347F344434B0
:102048000034003400340034C434FF347F343F3467
:102058008034EF34FF34BE349034E134A9343E3454
:10206800EC3482347634BE348234AD342B343E348E
:102078000E343C34C334BD348734D13413343D3446
:1020880041347834D334BB34003460347834453444
:10209800003440341C344634763431342E343034F1
:1020A8002E343234323400344F344B340034A200EE
:1020B8002208A1002108A300200884000A168A111A
:1020C8000A200A168A11A100230884002108831710
:1020D80080000008031908000130A1002108A307A7
:1020E8000130A1002108A00760280030AC000030B2
:1020F800AB000030AA000030A90023082204210404
:1021080020040319CE28AD01AD0AA31B992801307C
:10211800A8000310A00DA10DA20DA30DA80B8D28DA
:102128000130A8002808AD0789280130A80003104D
:10213800A90DAA0DAB0DAC0DA80B9B2823082702EF
:10214800031DB02822082602031DB02821082502F5
:10215800031DB02820082402031CC1282008A4025B
:102168002108031C210FA5022208031C220FA60226
:102178002308031C230FA702291401300310A30C02
:10218800A20CA10CA00CFF3E031DC2280130AD0219
:10219800031D99282C08A3002B08A2002A08A100D7
:1021A8002908A00008000310450D460DC700470880
:1021B800CD004D08031DE9280030C6000030C500D9
:1021C8000030C4000030C30008004308C7004408BA
:1021D800C8004508C9004608CA001F300310CA0CC9
:1021E800C90CC80CC70CFF3E031DF2284708CB00DA
:1021F8004B08CC00C517FF30C305FF30C405FF30BE
:10220800C5050030C6059630CD02CD1F20294D08E2
:10221800803A973E031CE02801300310C60CC50C19
:10222800C40CC30CFF3E031D11290130C700470829
:10223800CD0703193329102920304D020318E0284F
:102248004D08031933290130C7000310C30DC40D0D
:10225800C50DC60DC70B29290130CD0224294C080C
:1022680003190800C309C409C509C609C30A031923
:10227800C40A0319C50A0319C60A08005B08D10075
:102288005A08D0005908CF005808CE0083162708EE
:102298008312B000831626088312AF008316250820
:1022A8008312AE00831624088312AD004130AC00BF
:1022B8002030AB000030AA000030A9000A128A11B1
:1022C800C8230A168A112C08C6002B08C5002A083C
:1022D800C4002908C3000A168A11D7200A168A11D1
:1022E8004408D3004308D20000300A168A15A623F2
:1022F8000A168A11831203135B08D1005A08D0000A
:102308005908CF005808CE00831623088312B0005E
:10231800831622088312AF00831621088312AE00A9
:10232800831620088312AD004130AC002030AB008A
:102338000030AA000030A9000A128A11C8230A1620
:102348008A112C08C6002B08C5002A08C4002908D1
:10235800C3000A168A11D7200A168A114408D30026
:102368004308D20000300A168A15A62308008B18E5
:102378008B100C1C352AB1308F00F3308E000C10F6
:10238800EF1FC829EF1364000A30F8070318F90A89
:102398000030F90703307902E83003197802031C8A
:1023A800D729F801F90101307902F43003197802CC
:1023B8000318E229831203138617E52983120313EE
:1023C80086138316320833040319F3290A30B2023C
:1023D8000030031CB303B30283120617F5298312D6
:1023E80006138316340835040319032A0A30B40285
:1023F8000030031CB503B50283128616052A831222
:1024080086120A308316AA070318AB0A0030AB07F6
:102418000A30B0070318B10A0030B107E8303006B7
:10242800033003193106031D352AB001B10101300B
:10243800F0007008FD073C307D06031D352AFD01BC
:102448000130F0007008FA073C307A06031D352A7F
:10245800FA010130F0007008FC0718307C060319F7
:10246800FC0183128C1E9B2A6F141E30F60000306C
:10247800F7008316AC01AD011030F0007008B6000B
:10248800760877040319772A831203138C1E702A9F
:102498001A08F00083163608840070088317800035
:1024A8002D08803AFF0080307F02031D5D2A3330FB
:1024B8002C0203186B2A013083160313AC07031888
:1024C800AD0A0030AD070130F0007008B6071E30C5
:1024D800F6000030F700442A0130F6020030031CF1
:1024E800F703F702442A8316031336088400831778
:1024F80080018312981C9B2A181218161A08F000DB
:10250800F1017008F6007108F7001A08F000F101EF
:102518007008F6007108F7001A08F000F101700859
:10252800F6007108F700031790010313EF147508FC
:10253800FF0074088A0073088400720E8300FE0E80
:102548007E0E0900023083160313CC000430CB0042
:10255800B930CA00CA0BAE2ACB0BAE2ACC0BAE2AB6
:10256800B52A831603130F168F160F1783128501CA
:10257800860187018901EF30831685000F308600B8
:10258800F0308700FF308900113003178800890177
:10259800031381130F3095008312861706178616CA
:1025A8000030A3000030A2000330A100E830A000F2
:1025B8000A168A15EA250A168A11831681128115C8
:1025C8000114811401158B120B128B170B17831230
:1025D80010169016901083160C1401308312900078
:1025E80064000A168A15A5220A168A110030B1005D
:1025F8000130B0008630AF00A030AE000A168A1550
:10260800E8240A168A1100308312A3000130A200C0
:10261800C230A1000030A0000A168A1513270A1636
:102628008A1110300A168A15BE240A168A1124083F
:10263800EE002308ED006D0A031D2E2B6E0A031D04
:102648002E2B0030A500A60010300A168A15192571
:102658000A168A11013083120313ED070318EE0AD4
:102668000030EE076E08A6006D08A50010300A16A7
:102678008A1519250A168A11F801F9018316031318
:10268800B201B301B401B501FD01FC0183120710C9
:1026980087100511851106090F398316CA004A08E3
:1026A800B800B901B90ABA108312EF1701308316BE
:1026B800CA004A08B907023039060319B9013908AE
:1026C8000A168A110F250A168A1183126F1C582BB5
:1026D8000317100883160313AF008312031711089A
:1026E80083160313AE00BB302E06AA3003192F063B
:1026F800031D582B83120317130883160313CA00EC
:102708004A08B70037083806031D370A031D582B37
:102718001430B2000030B3000A128A113A200A16A7
:102728008A11831203136F10582B83120313B400FA
:1027380014308316B4000030B50083122D08031D31
:10274800080002302C02031DB12B00302B02031DA0
:10275800B12B00302A02031DB12B03180800831285
:1027680003132D08031DC62B01302C02031DC42B97
:1027780000302B02031DC42B00302A02031DC42B7A
:10278800031CCD2B083083120313B1003108B500A8
:10279800D02B83120313B5013408B1003108B600F9
:1027A8000310B60DA030B1003108B6043508B100E9
:1027B8003108B6040A168A15D6220A168A11831217
:1027C8003608B100B2013108A3003208A4000A1685
:1027D8008A15B0220A168A112B08B100B2013108F5
:1027E800A3003208A4000A168A15B0220A168A1114
:1027F8002A08B100B2013108A3003208A4000A1661
:102808008A15B0220A168A11B3012E08FF3EB100BC
:10281800FF3003180030B2003208803A803C031DB4
:10282800172C310833020318EA2C640083120313AF
:102838002D08031D080002302C02031D2B2C00302C
:102848002B02031D2B2C00302A02031D2B2C0318EE
:102858000800831203132A08013E7F39031DC02C88
:102868002F0884008317301C83130008B100B201BD
:102878003108A3003208A4000A168A15B0220A16E5
:102888008A110A168A1589220A168A1100308312BB
:10289800A3000030A2000030A1000530A0000A16F5
:1028A8008A15EA250A168A110130AA07003003188A
:1028B8000130AB07003003180130AC0700300318B3
:1028C8000130AD070130AF070318B00A0030B00778
:1028D8002D08031D7D2C01302C02031D7B2C00309C
:1028E8002B02031D7B2C00302A02031D7B2C031CAA
:1028F800842C083083120313B1003108B500872CEB
:1029080083120313B5013408B1003108B60003106F
:10291800B60DA030B1003108B6043508B100310851
:10292800B6040A168A15D6220A168A1183123608A0
:10293800B100B2013108A3003208A4000A168A15B2
:10294800B0220A168A112B08B100B2013108A3007F
:102958003208A4000A168A15B0220A168A112A0813
:10296800B100B2013108A3003208A4000A168A1582
:10297800B0220A168A11E52C2F0884008317301C10
:1029880083130008B100B2013108A3003208A40083
:102998000A168A15B0220A168A110130AF070318E1
:1029A800B00A0030B0070130AA0700300318013020
:1029B800AB07003003180130AC07003003180130B2
:1029C800AD070130B1003108B307092C8312031396
:1029D8002F0884008317301C83130008B100B2014C
:1029E8003108A3003208A4000A168A15B0220A1674
:1029F8008A110A168A1589220A168A11003083124A
:102A0800A3000030A2000030A1000530A0000A1683
:102A18008A15EA250800C3004308BF00BF0DBF0D93
:102A280083121F0883163F06C3393F0683129F008F
:102A38000030A3000030A2000030A1000130A00047
:102A48000A168A15B3250A168A1100308316C7009C
:102A58000030C6000030C5000030C400C801C80AF4
:102A680043080A168A15AA270A168A113108E000AF
:102A78003008DF002F08DE002E08DD008316470827
:102A88008312E400831646088312E3008316450880
:102A98008312E200831644088312E1000A128A15A1
:102AA8006F250A168A11831260088316C7008312DD
:102AB8005F088316C60083125E088316C50083125A
:102AC8005D088316C4000A168A153F230A168A1160
:102AD800013A0319782D01308316BF003F08C80753
:102AE8000F304802031C342D0A3083164802031C99
:102AF80008000F304806031D8F2D4808FF3E83123B
:102B0800A000FF3003180030A100A201A11BA203FE
:102B18002208A300A32D4808BF00C001C101C201BB
:102B280042088312A300831641088312A200831669
:102B380040088312A10083163F088312A0000130C9
:102B48000A128A152F200A168A112308C60022089D
:102B5800C5002108C4002008C30083164708831253
:102B6800CA00831646088312C900831645088312D3
:102B7800C800831644088312C7000A128A15CE2398
:102B88000A168A1146088316C70083124508831659
:102B9800C600831244088316C500831243088316AF
:102BA800C4004308031D2F2EC2308312E000DC301E
:102BB800DF000030DE000030DD004430C6007F302A
:102BC800C500C030C4000030C3004330AC004830FA
:102BD800AB000030AA000030A90083164708831212
:102BE800B000831646088312AF0083164508831287
:102BF800AE00831644088312AD000A128A11C82356
:102C08000A168A112C08CA002B08C9002A08C8000D
:102C18002908C7000A128A15CE230A168A114608FF
:102C2800E4004508E3004408E2004308E1000A1212
:102C38008A156F25831260088316A70083125F0820
:102C48008316A60083125E088316A50083125D080A
:102C58008316A4000800C2308312E000DC30DF00D5
:102C68000030DE000030DD004430C6007F30C50093
:102C7800C030C4000030C3004330AC004830AB0063
:102C88000030AA000030A900831647088312B0005C
:102C9800831646088312AF00831645088312AE00D8
:102CA800831644088312AD000A128A11C8230A1633
:102CB8008A112C08CA002B08C9002A08C80029084C
:102CC800C7000A128A15CE230A168A114608E4009C
:102CD8004508E3004408E2004308E1000A128A15A7
:102CE8006F25831260088316A30083125F0883167A
:102CF800A20083125E088316A10083125D08831662
:102D0800A000080083120313B100B2012C08031DB0
:102D1800080002302B02031D992E00302A02031DE1
:102D2800992E00302902031D992E031808008312DA
:102D380003132C08031DAE2E01302B02031DAC2EED
:102D480000302A02031DAC2E00302902031DAC2ED0
:102D5800031CB52E083083120313AE002E08B200F0
:102D6800B82E83120313B2013108AE002E08B30047
:102D78000310B30DA030AE002E08B304331432088C
:102D8800AE002E08B3040A168A15D6220A168A112E
:102D980083123308FE39AE00AF012E08A3002F08B6
:102DA800A4000A168A15B0220A168A112A08AE004B
:102DB800AF012E08A3002F08A4000A168A15B02216
:102DC8000A168A112908AE00AF012E08A3002F08A1
:102DD800A4000A168A15B0220A168A110A168A153C
:102DE800BB220A168A1183123308AE00AF012E08DF
:102DF800A3002F08A4000A168A15B0220A168A1101
:102E0800B0012C08031DE72F02302B02031D142FDD
:102E180000302A02031D142F00302902031D142F2D
:102E28000318E72F831203132908013E7F39031D76
:102E3800B72F0030A300A4000A168A157E250A16AB
:102E48008A112308AE002D0884002E0883178000FD
:102E58000A168A1589220A168A110D30831203135D
:102E6800AF00FB30AE00AE0B372FAF0B372F013062
:102E780083120313A907003003180130AA07003092
:102E880003180130AB07003003180130AC070130DC
:102E9800AE002E08AD072C08031D602F01302B0251
:102EA800031D5E2F00302A02031D5E2F0030290209
:102EB800031D5E2F031C672F083083120313AE0017
:102EC8002E08B2006A2F83120313B2013108AE0034
:102ED8002E08B3000310B30DA030AE002E08B304C3
:102EE80033143208AE002E08B3040A168A15D62207
:102EF8000A168A1183123308FE39AE00AF012E0874
:102F0800A3002F08A4000A168A15B0220A168A11EF
:102F18002A08AE00AF012E08A3002F08A4000A1645
:102F28008A15B0220A168A112908AE00AF012E08A8
:102F3800A3002F08A4000A168A15B0220A168A11BF
:102F48000A168A15BB220A168A1183123308AE00A4
:102F5800AF012E08A3002F08A4000A168A15B02274
:102F68000A168A11DE2F0130A3000030A4000A16C9
:102F78008A157E250A168A112308AE002D088400BA
:102F88002E08831780002D08840000080319E72FF6
:102F98000130AE002E08AD070130A9070030031834
:102FA8000130AA07003003180130AB0700300318BE
:102FB8000130AC070130B007FF303007AE004030B9
:102FC8002E02031C052F003083120313A300A40054
:102FD8000A168A157E250A168A110A168A15892262
:102FE8000A168A11B93083120313AE00FB2FFC2F87
:082FF800AE0BFA2FFF2F0800B9
:1035020064008001840A0406031900340406822A36
:103512000A168A15E623003A8316031D11158B1726
:10352200080049308312A1008030A2000A168A15D1
:103532004B2508009F149F189C2A1E08A100831681
:103542001E088312A0000800C030831203139F04D8
:10355200803083169F009F1783121F1408000A16DB
:103562008A15E6230A168A15003A03190800230869
:10357200930008000A168A15E6230A168A15003AED
:103582000319080083169114080083120313A00084
:1035920014308316B2000030B300981CCE2A831276
:1035A200200899008316981608008B13143083168E
:1035B200B4000030B5000A168A15E6230A168A15E9
:1035C200003A031908008316111408000330D800CA
:1035D2005808D9005708D8005808DA005608D80009
:1035E2005808DB000330D8005808D20059300A16B8
:1035F2008A152226080083120313BC003A08AD0084
:103602003908AC003808AB003708AA00AE01AE0A90
:103612003B30AF000030B0003C080A168A119923F3
:1036220008004E30D0005008D100510A84008313A4
:1036320000080A168A15C6220A168A15831251082C
:103642008400831300080A168A15C62208005B0844
:10365200D3005A08D2005C08D4000130D5005C08BF
:103662000A168A1570230A168A152008013EDD0003
:103672005D08D6000A128A11B827080083126F1C4F
:10368200532B0317130883160313380603194E2B03
:1036920083120317130A031D532B83120313A00172
:1036A200A00A552B0313A00120080800831203135C
:1036B200BB003908AD003808AC003708AB0036084B
:1036C200AA00AE01AE0A3C30BA003A08AF003B088D
:1036D2000A128A155022831203133C08080083122F
:1036E2000313A4002408A2002208A30023088400D4
:1036F200831700080319822B0130A2002208A307B6
:10370200772B24082302A000A101A01BA10308001B
:10371200A401A50121082502031D912B20082402E2
:1037220003180800033083120313A3009730A2008A
:10373200A20B992BA30B992B013083120313A4071D
:103742000318A50A0030A5078B2B83120313D5009B
:103752005308D4005408D6005208D4005408D700A5
:103762005108AD005008AC004F08AB004E08AA004B
:103772000230D4005408AE005630AF000030B00022
:1037820055080A168A119923080083120313A5000B
:1037920025080A168A1507240A168A150313A40097
:1037A2002408A6000130A4002408A5072608A400C6
:1037B200230884002408831780000130A400240811
:1037C200A307260803190800C92BC8308312A000DA
:1037D2002008A200F82B0130A20203308312031347
:1037E200A1009730A000A00BF42BA10BF42B8316A1
:1037F20003131419002C11081F390319042C831206
:103802002208031DEC2B83122208080083120313E3
:10381200A20014308316B4000030B50003178C18D0
:103822000F2C83120313220803178D0083168C13A7
:103832000C144E3083120313A100EA30A000A00B37
:10384200202CA10B202C0000831203170C08080067
:103852000A30A0000030A1005708A3005608A200B9
:103862000A168A1596260A168A152108D7002008F4
:10387200D6000230D8005808D9005608D800580897
:10388200DA000230D8005808D20059300A168A15D8
:1038920022260800A800A401A5012008A200A30175
:1038A2002208A6002308A700281C5D2C2608A407CE
:1038B2000318A50A2708A50701300310A60DA70DB6
:1038C200FF3E031D5E2C0310A80C2808031D552C77
:1038D2002508A1002408A000080083120313BC00DD
:1038E2003908AD003808AC003708AB003608AA002A
:1038F2000230BA003A08AE003D30BB003B08AF00D0
:103902003C080A128A155022831203133D08BA009A
:10391200BB013A08BB00BA013E083A07B6000030C4
:10392200031801303B07B700080083120313A100FC
:10393200AA300A168A15C6220A168A15BB300A163A
:103942008A15C6220A168A1538080A168A15C62248
:103952000A168A1500300A168A15C6220A168A1510
:10396200031714080A168A15C6220A168A15831224
:1039720021080A168A15C622080083120313A6001C
:103982002830A5002508A700AA0126080A168A15CC
:1039920007240A168A150313A500270884002508A0
:1039A200831380000130A5002508A6070130A50079
:1039B2002508A7070130A5002508AA0702302A0218
:1039C200031CC62C2908A4002808A30008002830DC
:1039D20094008316910183122E08B2002F08B300BF
:1039E2003008B4003108B50002300310B20DB30D37
:1039F200B40DB50DFF3E031DF62C3508A3003408A7
:103A0200A2003308A1003208A0000030A7007A30DB
:103A1200A6001230A5000030A4000A168A117920EF
:103A22002008FF3E831693009401871507160800AD
:103A32008312AA002530A7002708A900AB01290894
:103A4200840083130008A7002708A0002A080A168A
:103A52008A155A260A168A15013083120313A70003
:103A62002708A9070130A7002708AA070130A700E5
:103A72002708AB0702302B02031C202D4E30831285
:103A82000313A800EA30A700A70B452DA80B452D6C
:103A9200000008002108A3002208A4002408FF0057
:103AA200230884000A168A1100200A168A15003A91
:103AB2000319712D2408FF00230884000A168A11B5
:103AC20000200A168A150A168A15C6220A168A15AF
:103AD20001308312A3070318A40A0030A4074F2D54
:103AE2002408FF00230884000A168A1100200A16FF
:103AF2008A150A168A15C62208000A168A15E623AE
:103B02000A168A15003A8316031D91150A168A159C
:103B1200E6230A168A15003A0319962D1308A50002
:103B2200A6012508A7002608A8000A168A15E6237A
:103B32000A168A15003A0319B02D23082404031D1E
:103B4200A62D831603139116A92D83160313911222
:103B5200111683122808A4002708A3000800A30155
:103B6200A40108000030A9000030A8000030A7001E
:103B72000030A6002908803AFF002308803A7F021D
:103B8200031DCD2D22082802031DCD2D2108270259
:103B9200031DCD2D200826020318080003308312CE
:103BA2000313A5009730A400A40BD52DA50BD52D8A
:103BB200013083120313A607003003180130A70750
:103BC200003003180130A807003003180130A9079C
:103BD200BB2D0030A9000030A8000030A700003043
:103BE200A6002908803AFF002308803A7F02031DBD
:103BF200042E22082802031D042E21082702031D79
:103C0200042E2008260203180800640003308312E1
:103C12000313A5009730A400A40B0D2EA50B0D2EA7
:103C2200013083120313A607003003180130A707DF
:103C3200003003180130A807003003180130A9072B
:103C4200F22DD400A530CE005A30CF000A168A15C4
:103C520012230A168A1583125208013E0A168A1581
:103C6200C6220A168A1580300A168A15C6220A1634
:103C72008A158312D501520855020318522E55088F
:103C82005407D30053088400831300080A168A15C8
:103C9200C6220A168A1501308312D3005308D507AB
:103CA2003C2E0130A0000030A1000A168A1589239B
:103CB200080083120313A30014308316B4000030EB
:103CC200B50003178C18622E8B1F6C2E8312031300
:103CD200A401A40A6F2E83120313A401230803175D
:103CE2008D000313200803178C0083168C130C1508
:103CF2008B1355308D00AA308D008C148312031360
:103D02002403031D862E8B17872E8B13831603170E
:103D12000C114E3083120313A200EA30A100A10B52
:103D2200902EA20B902E00000800A501A6012008EB
:103D320021040319CD2EA701A70AA11BAC2E013025
:103D42000310A00DA10DFF3E031DA12E0130A40002
:103D52002408A7079E2E01300310A50DA60DFF3ED5
:103D6200031DAD2E21082302031DB92E20082202B5
:103D7200031CC22E2008A2022108031CA303A302D3
:103D8200251401300310A10CA00CFF3E031DC32E0D
:103D92000130A702031DAC2E2608A1002508A000B1
:103DA200080083120313DA000030DE000030DD0069
:103DB2000030DC000030DB00831203135E08D10008
:103DC2005D08D0005C08CF005B08CE005908D30024
:103DD2005808D2005A080A168A15A6230A168A1506
:103DE2006400023083120313DB0700300318013032
:103DF200DC07003003180130DD0700300318013002
:103E0200DE075E08031D08005D08031D080004307C
:103E12005C02031D102F00305B02031D102F0318DC
:103E22000800DD2E4B302106200422042304031D4A
:103E3200262F8312031398171816831618151812B3
:103E420018130C3099000B17422FC2308312031340
:103E52002106031D432F220320042304031D432FA5
:103E620010308316031399000317871503131815CF
:103E720083129817831618121813831218160B1729
:103E820083168C16831603130717871783121812CB
:103E92001816A5011A080130A4002408A5070F303E
:103EA2002502031808004B2F8312A4002408840063
:103EB2000317110883178000840A10088000120873
:103EC2000313A0002408023E840020088000031788
:103ED20013080313A0002408033E84002008800076
:103EE200031714080313A0002408043E84002008CA
:103EF2008000031715080313A0002408053E840060
:103F020020088000A201A3012408053E84002308A2
:103F1200803AA00080302002031D912F0008220267
:103F220003180800831203132208163E8400831725
:103F32000008A00022082407A1002108063E8400F0
:103F4200200880000130A2070318A30A0030A3074B
:103F5200852F8312B3003308B200B20DB20D1F08D1
:103F62003206C33932069F000030A3000030A2009F
:103F72000030A1000130A0000A168A15B3250A16E6
:103F82008A15B401B501B601B60A0A168A159B2232
:103F92000A168A152008B4070318B50A2108B507BE
:103FA2000130B2003208B60733303602031CC62F86
:103FB2003608FF3EA000FF3003180030A10035088C
:103FC200A3003408A2000A168A1596260A168A1534
:103FD2002108B5002008B4003408A0003508A1006B
:103FE200A201A30100300A128A152F202308B10072
:0E3FF2002208B0002108AF002008AE00080031
:04400E008C2FFF3FB5
:00000001FF
