:020000040000FA
:060000000A128A11122809
:10000800FE00030EF2000408F3000A08F40083124D
:1000180003137F08F5000A168A11572B0A128A1152
:100028001528F801F901FA01FB01FC018313CD3011
:100038008400EA300A128A11F8270A128A118317F3
:1000480090308400DA300A128A11F8270A128A11CD
:100058001030840030300A128A11F82783010A16FA
:100068008A11422CCA300A168A15E1260A128A1108
:1000780083160317510883120313DF005F088316E2
:10008800CC000317520883120313DF005F0883169E
:10009800CB000317530883120313DF005F0883168E
:1000A800CA000317540883120313DF005F0883167E
:1000B800C900632C0B300A128A1500200A128A1113
:1000C80041308312A1008030A2000A168A15BF248D
:1000D8000800831603175008031D7B2803135008D4
:1000E800C6004F08C5004E08C4004D0883280313F6
:1000F8005408C6005308C5005208C4005108C3007C
:1001080041308312AC002030AB000030AA00003030
:10011800A900831646088312B00083164508831287
:10012800AF00831644088312AE0083164308831277
:10013800AD000A128A11BC240A128A112C088316EF
:10014800C60083122B088316C50083122A0883165B
:10015800C400831229088316C3008B1302300A12C5
:100168008A1500200A128A1146088312C6008316CF
:1001780045088312C500831644088312C4008316F9
:1001880043088312C3000A168A1153200A128A11DF
:100198004408CF004308CE000A168A159A218B1707
:1001A800080083160317500883120313DF005F0843
:1001B8008316CC000317510883120313DF005F086E
:1001C8008316CB000317520883120313DF005F085E
:1001D8008316CA000317530883120313DF005F084E
:1001E8008316C9004C088312DB0083164B08831260
:1001F800DA0083164A088312D90083164908831245
:10020800D8000A168A11BE20F801F90183160313D3
:10021800DD01DE01080002300A128A1500200A12E8
:100228008A1101308312CE000030CF000A168A15D9
:100238009A21080083160317510883120313DF005D
:100248005F08A0008316031750080A168A15992517
:100258000A128A1103300A128A1500200A128A111A
:100268000A168A15512108008316031750080A1622
:100278008A15C9220A128A110313DF005F08831640
:10028800C70001300A128A1500200A128A1147088D
:100298000A168A11042008008316031750088312CF
:1002A8000313DF005F088316C00003175208831288
:1002B8000313DF00E00183160317510883120313A9
:1002C800E100E2016108E200E1015F0861048316D0
:1002D800BE008312600862048316BF003F088312C1
:1002E800A60083163E088312A500831640080A1646
:1002F8008A155B240A128A112E29831603175008BF
:100308000A168A157C230A128A1124088316C20049
:10031800831223088316C10002300A128A150020AE
:100328000A128A1142088312CF00831641088312E9
:10033800CE000A168A159A210800D130DF005F081E
:10034800A5008316031750080A168A15A6230A1251
:100358008A112E29BA30DF005F08A300831603171D
:1003680050080A168A1589220A128A1110300A12B0
:100378008A1500200A128A11BA308312A1000130AE
:10038800A2000A168A15BF24080083164C08831297
:10039800B20083164B088312B10083164A088312F1
:1003A800B000831649088312AF0083160317550857
:1003B80083120313DF005F08B30083160317500886
:1003C8000A168A1584210A128A112E2983164C08C6
:1003D8008312B70083164B088312B60083164A08A7
:1003E8008312B500831649088312B40083160317D5
:1003F80050080A168A15DE210A128A11DF005F08E2
:100408008316C70001300A128A1500200A128A11C1
:1004180047080A168A110420080083164C0883121C
:10042800D10083164B088312D00083164A08831222
:10043800CF00831649088312CE0083160317560887
:1004480083120313DF00E001831603175508831294
:100458000313E100E2016108E200E1015F086104C1
:10046800D20060086204D3008316031750080A16E6
:100478008A1569220A128A112E2983164C088312BA
:10048800B70083164B088312B60083164A088312F6
:10049800B500831649088312B40083160317500861
:1004A8000A168A1554230A128A1135088316C200BF
:1004B800831234088E2983160317550883120313F1
:1004C800DF005F088316C8004C088312A900831652
:1004D8004B088312A80083164A088312A7008316C4
:1004E80049088312A600831648088312DF005F08B4
:1004F800AA001030AB000130AC0083160317500877
:100508000A128A1528200A128A118316031348082A
:100518000A128A1500200A128A1148088312DF007D
:10052800E0015F08A1006008A20010300A168A15D1
:100538003023080083164C088312A50083164B0845
:100548008312A40083164A088312A300831649085D
:100558008312A20083160317550883120313DF00C2
:100568005F08A600D630A7000130A800831603173D
:1005780050080A168A1131250A128A112E29831663
:100588004C088312A50083164B088312A400831617
:100598004A088312A300831649088312A200D530A3
:1005A800DF005F08A6008316031750080A168A1191
:1005B8006D220A128A112E2983164C088312A9006B
:1005C80083164B088312A80083164A088312A700D3
:1005D800831649088312A600BA30DF005F08AA0014
:1005E8008316031750080A168A1194260A128A11CC
:1005F800BA300A168A15F7210A128A112008BB296F
:1006080083160317510883120313DF00E0015F0804
:10061800D8006008D9008316031750080A168A11F3
:1006280014200A128A112E29831666088312DF0005
:10063800E0015F08B1006008B2000A30B300003082
:10064800B400A0300A168A15A9220A128A11831644
:1006580065088312DF00E0015F08B1006008B2009E
:100668000A30B3000030B400AA300A168A15A9224D
:100678000A128A11831667088312DF00E0015F08F7
:10068800B1006008B2000A30B3000030B400B430E2
:100698000A168A15A9220A128A114C30DF005F084F
:1006A800A000BA300A168A152D220A128A1183165A
:1006B8002108031D6C2B4B308312A0008030A10051
:1006C800BA300A168A15D1230A128A118316A20192
:1006D800A0308312A0000030A100BA300A168A1593
:1006E800D1230A128A114D30A0008030A100BA30FF
:1006F8000A168A15D1230A128A1183162B08031D9C
:10070800922B4B308312A0008030A100BA300A1619
:100718008A15D1230A128A118316AC01AA308312D2
:10072800A0000030A100BA300A168A15D1230A1297
:100738008A114D30A0008030A100BA300A168A15FF
:10074800D1230A128A1183163508031DB82B4B30A2
:100758008312A0008030A100BA300A168A15D1236E
:100768000A128A118316B601B4308312A000003031
:10077800A100BA300A168A15D1230A128A11BA3092
:100788000A168A15F7210A128A1120080A128A15F0
:1007980000200A128A11BA308312A1000130A20087
:1007A8000A168A15BF240A128A1100300A168A11FD
:1007B8000420080083160317500883120313DF0070
:1007C8005F088316E6000317510883120313DF003E
:1007D8005F088316E5000317520883120313DF002E
:1007E8005F088316E7002E29831603175008831223
:1007F8000313DF00E0015F08D6006008D7000A167F
:100808008A156F210A128A112E2983160317500898
:1008180083120313DF00E0015F08E000DF018316A5
:1008280003175108831203135F07D600003003181B
:1008380001306007D7000A168A15EB220A128A11BE
:100848002E2983160317500883120313DF00E001D3
:100858005F08E000DF0183160317510883120313B2
:100868005F07DA000030031801306007DB00D23080
:10087800E1006108DC000A168A15B0210A128A1103
:100888002E29831603175008031D552C5108031DE4
:10089800512C8312031307102E29831203130714F4
:1008A8002E295003031D2E295108031D5F2C831286
:1008B800031387102E298312031387142E29031775
:1008C8004E0883120313DF00E0016008003A0319A1
:1008D8006E2CBB2C5F08023A0319D528013A03197C
:1008E8000F290B3A03191E29013A03193829033A2B
:1008F80003195029013A03198129073A0319A12933
:10090800013A0319AE291C3A0319C929033A0319F4
:10091800EA29013A0319112A073A0319412A013A27
:100928000319C32A033A0319E02A013A03199E2A34
:100938000F3A03195F2A013A0319042B033A0319E2
:100948006D28043A0319DE2B013A0319182B3F3A94
:100958000319F82B013A0319092C053A0319252C18
:10096800023A0319452C0D3A03195E28BB2C0800DE
:100978002C088039B1003108B6002C08B1003107C5
:10098800B2003208B800AB1B381438080319D92C48
:10099800380A031DD72C0030AC000030AB00003003
:1009A800AA000030A900AB17E12C0030AC000030E1
:1009B800AB000030AA000030A90030088039B1002F
:1009C8003108B6063008B1003107B2003208B70066
:1009D800AF1B371437080319FE2C370A031DFC2CEC
:1009E8000030B0000030AF000030AE000030AD0085
:1009F800AF17062D0030B0000030AF000030AE0059
:100A08000030AD003708031D3808031D142D0030D1
:100A1800AC000030AB000030AA000030A90008008C
:100A28002908B1003108A0002F080A168A150D23DD
:100A38000A128A112108C2002008C1004108B10029
:100A4800B201B301B4013408BC003308BB0032085A
:100A5800BA003108B9004208B100B201B301B401CB
:100A68003408C0003308BF003208BE003108BD009A
:100A78002A08B1003108A0002E080A168A150D238D
:100A88000A128A112108C2002008C1004108B100D9
:100A9800B201B301B4013108B907320803110318D0
:100AA800013E031DBA07330803110318013E031D55
:100AB800BB07340803110318013E031DBC07420895
:100AC800B100B201B301B4013108BD073208031106
:100AD8000318013E031DBE07330803110318013E26
:100AE800031DBF07340803110318013E031DC00787
:100AF8002B08B1003108A0002D080A168A150D230D
:100B08000A128A112108C2002008C1004108B10058
:100B1800B201B301B4013108B9073208031103184F
:100B2800013E031DBA07330803110318013E031DD4
:100B3800BB07340803110318013E031DBC07420814
:100B4800B100B201B301B4013108BD073208031185
:100B58000318013E031DBE07330803110318013EA5
:100B6800031DBF07340803110318013E031DC00706
:100B78000830B1000310B90DBA0DBB0DBC0DB10B97
:100B8800BE2D2A08B1003108A0002D080A168A15C2
:100B98000D230A128A112108C2002008C100410849
:100BA800B1004208B200B301B4013108B9073208F4
:100BB80003110318013E031DBA0733080311031874
:100BC800013E031DBB07340803110318013E031D32
:100BD800BC072908B1003108A0002E080A168A159A
:100BE8000D230A128A112108C2002008C1004108F9
:100BF800B1004208B200B301B4013108B9073208A4
:100C080003110318013E031DBA0733080311031823
:100C1800013E031DBB07340803110318013E031DE1
:100C2800BC070830B1000310B90DBA0DBB0DBC0DDF
:100C3800B10B172E2908B1003108A0002D080A169B
:100C48008A150D230A128A112108C2002008C10042
:100C58004108B1004208B200B301B4013108B90734
:100C6800320803110318013E031DBA0733080311A4
:100C78000318013E031DBB07340803110318013E86
:100C8800031DBC072A08B1003108A0002F080A1666
:100C98008A150D230A128A112108C2002008C100F2
:100CA8004108B1004208B200B301B4013108BD07E0
:100CB800320803110318013E031DBE073308031150
:100CC8000318013E031DBF07340803110318013E32
:100CD800031DC0072B08B1003108A0002E080A1612
:100CE8008A150D230A128A112108C2002008C100A2
:100CF8004108B1004208B200B301B4013108BD0790
:100D0800320803110318013E031DBE0733080311FF
:100D18000318013E031DBF07340803110318013EE1
:100D2800031DC0072B08B1003108A0002F080A16C0
:100D38008A150D230A128A112108C2002008C10051
:100D48004108B1004208B200B301B40108300310F1
:100D5800B10DB20DB30DB40DFF3E031DAB2E31081E
:100D6800BD07320803110318013E031DBE073308EF
:100D780003110318013E031DBF07340803110318AC
:100D8800013E031DC0073C08B100B201B301B40124
:100D98003108BD07320803110318013E031DBE07C1
:100DA800330803110318013E031DBF07340803115C
:100DB8000318013E031DC0070830B1000310B90D28
:100DC800BA0DBB0DBC0DB10BE22E38083707B100C8
:100DD800B201B20D3108823EC10032080318013E4B
:100DE800FF3EC200BF1B132F0130B1000310BD0D21
:100DF800BE0DBF0DC00DB10BFA2EBC1B3D1401304A
:100E0800B1000310B90DBA0DBB0DBC0DB10B052F08
:100E1800FF30C1070318C20AFF30C207F62EB70118
:100E2800BC1F2C2FFF303905B100FF303A05B20046
:100E3800FF303B05B3007F303C05B4003408330471
:100E48003204310403193D182A2F2C2FB701B70A91
:100E5800370803195E2F0130BD0700300318013031
:100E6800BE07003003180130BF07003003180130F7
:100E7800C007401C5E2F3D08B1003E08B2003F0885
:100E8800B3004008B4000130B500340DB40CB30C05
:100E9800B20CB10CB50B492F3408C0003308BF00A1
:100EA8003208BE003108BD000130C1070318C20A6C
:100EB8000030C2074208803AFF0080307F02031DDD
:100EC800672FFF304102031C742F7F3083120313F6
:100ED800C0008030BF000030BE000030BD00A42F2D
:100EE800831203134208803AFF0080307F02031DFB
:100EF8007F2F0130410203188D2F00308312031316
:100F0800C0000030BF000030BE000030BD00B60198
:100F1800A42F831203134108B1003108B800FF3031
:100F2800BD05FF30BE057F30BF050030C00538184D
:100F3800BF173808B1000310310CB2003208C000E6
:100F48003608B1003108C0044008AC003F08AB00C7
:100F58003E08AA003D08A9000800A530CE005A3076
:100F6800CF000A168A159A210A128A118312560886
:100F7800033E0A168A1104200A128A1182300A16C0
:100F88008A1104200A128A1183125308CF005208CA
:100F9800CE000A168A159A210A128A118312D901DB
:100FA800560859020318F02F59085407D700550856
:100FB8000318013ED800570884008317581C831370
:100FC80000080A168A1104200A128A1101308312B5
:100FD800D7005708D907D42F0130A0000030A1004E
:100FE8000A168A151022080064008001840A040683
:100FF800031900340406F92F83120313A100AA3041
:101008000A168A1104200A128A15BB300A168A1198
:1010180004200A128A1563080A168A1104200A1283
:101028008A1500300A168A1104200A128A15031735
:101038004E080A168A1104200A128A1583122108FA
:101048000A168A110420080083120313B100B201A2
:101058001430FA000030FB002908031D0800023094
:101068002802031D3F2800302702031D3F280030B7
:101078002602031D3F28031808002908031D5228CB
:1010880001302802031D502800302702031D502874
:1010980000302602031D5028031C57280830AD00D5
:1010A8002D08B2005828B2013108AD002D08B30050
:1010B8000310B30DA030AD002D08B304331432086B
:1010C800AD002D08B3040A168A153F210A128A15A5
:1010D80083123308FE39AD00AE012D08A0002E089A
:1010E800A1000A168A1548210A128A152708AD0098
:1010F800AE012D08A0002E08A1000A168A15482165
:101108000A128A152608AD00AE012D08A0002E0887
:10111800A1000A168A1548210A128A150A168A1584
:1011280032210A128A1583123308AD00AE012D0848
:10113800A0002E08A1000A168A1548210A128A154D
:10114800B0012A083002031884292908031D8429BC
:1011580002302802031DB82800302702031DB828D2
:1011680000302602031DB828031884292608013EEA
:101178007F39031D59290030A000A1000A168A15DD
:10118800FD230A128A152008AD002B088400831756
:101198002C1C83132D0880000A168A152D210A128B
:1011A8008A150D3083120313AE00FB30AD00AD0B72
:1011B800DB28AE0BDB28013083120313A6070030AF
:1011C80003180130A707003003180130A8070030C2
:1011D80003180130A9070130AB070318AC0A003027
:1011E800AC072908031D062901302802031D04291C
:1011F80000302702031D042900302602031D04299C
:10120800031C0B290830AD002D08B2000C29B201CF
:101218003108AD002D08B3000310B30DA030AD00A8
:101228002D08B30433143208AD002D08B3040A1690
:101238008A153F210A128A1583123308FE39AD0038
:10124800AE012D08A0002E08A1000A168A15482113
:101258000A128A152708AD00AE012D08A0002E0835
:10126800A1000A168A1548210A128A152608AD0017
:10127800AE012D08A0002E08A1000A168A154821E3
:101288000A128A150A168A1532210A128A15831239
:101298003308AD00AE012D08A0002E08A1000A16E3
:1012A8008A1548210A128A157F290130A0000030CA
:1012B800A1000A168A15FD230A128A152008AD0016
:1012C8002B08840083172C1C83132D088000013001
:1012D800AB070318AC0A0030AC070130A607003092
:1012E80003180130A707003003180130A8070030A1
:1012F80003180130A9070130AD002D08B007A52853
:101308000030A000A1000A168A15FD230A128A15CA
:101318000A168A152D210A128A15B9308312031369
:10132800AD0096299729AD0B95299A2908004808F8
:101338008039C9004908D2004808C9004907CA00CD
:101348004A08D900C71B591459080319B929590A59
:10135800031DB6290030C8000030C7000030C600A1
:101368000030C500C717C801C1290030C8000030C7
:10137800C7000030C6000030C50044088039C900E5
:101388004908D2064408C9004907CA004A08DA00D1
:10139800C31B5A145A080319DF295A0A031DDC29EA
:1013A8000030C4000030C3000030C2000030C1006B
:1013B800C317C401E7290030C4000030C30000305F
:1013C800C2000030C1004408430442044104031D24
:1013D800062A0030C8000030C7000030C6000030C0
:1013E800C5008030C7047F30C8045208C9004908C6
:1013F800C8044808C4004708C3004608C200450896
:10140800C10008005908031D122A0030C40000302A
:10141800C3000030C2000030C10008005908C900EC
:10142800CA014A08CC005A084902CB00031CCC0365
:101438004B087F3ED3004C080318013E003ED40001
:101448004808D1004708D0004608CF004508CE001C
:101458000030C8000030C7000030C6000030C500AA
:101468000030D8000030D7000030D6000030D5005A
:10147800DA011A305A020318852A5A080319612A10
:101488000130C9000310CE0DCF0DD00DD10DC90B01
:10149800462A0130C9000310C50DC60DC70DC80D79
:1014A800C90B4F2AD81B45140130C9000310D50DAC
:1014B800D60DD70DD80DC90B5A2A44085102031D61
:1014C8006F2A43085002031D6F2A42084F02031D6A
:1014D8006F2A41084E02031C802A58174108CE0281
:1014E8004208031C420FCF024308031C430FD002DB
:1014F8004408031C440FD1020130C9004908DA0727
:101508003D2A510850044F044E04031D5514C71BAF
:10151800A82A0130C9000310C50DC60DC70DC80D96
:10152800C90B8F2AD81B45140130C9000310D50DEB
:10153800D60DD70DD80DC90B9A2AFF30D30703183B
:10154800D40AFF30D4078B2ADA01D81FC12AFF300A
:101558005505C900FF305605CA00FF305705CB00B6
:101568007F305805CC004C084B044A044904031941
:101578004518BF2AC12ADA01DA0A5A080319F32AD8
:101588000130C507003003180130C60700300318C2
:101598000130C707003003180130C807481CF32A78
:1015A8004508C9004608CA004708CB004808CC00CF
:1015B8000130CD004C0DCC0CCB0CCA0CC90CCD0B9A
:1015C800DE2A4C08C8004B08C7004A08C60049086C
:1015D800C5000130D3070318D40A0030D4075408D3
:1015E800803AFF0080307F02031DFC2AFF3053023F
:1015F800031C0C2BFF3083120313D3000030D400DC
:101608000030C8000030C7000030C6000030C500F8
:10161800831203135408803AFF0080307F02031DB1
:10162800172B013053020318262B83120313D301FF
:10163800D4010030C8000030C7000030C6000030B8
:10164800C500D201831203135308C9004908D90001
:10165800591C302BC717342B7F30C9004908C705E0
:101668005908C9000310490CCA004A08C800F929DA
:101678004D088039D2005208DA004D08D2005207CE
:10168800D3005308DC00CC1B5C145C0803195A2BEC
:101698005C0A031D572B0030CD000030CC00003011
:1016A800CB000030CA00CC17CD01622B0030CD0032
:1016B8000030CC000030CB000030CA00510880391F
:1016C800D2005208DB005B085A06031D5A1751085E
:1016D800D2005207D3005308DB00D01B5B145B0811
:1016E8000319842B5B0A031D812B0030D1000030C5
:1016F800D0000030CF000030CE00D017D1018C2BA5
:101708000030D1000030D0000030CF000030CE00D3
:101718005C085B020318D22B5A1F962B8030D2002C
:101728005208DA065C08D2005208DD005B08D200D5
:101738005208DC005D08D2005208DB004A08D200DB
:101748005208DD004E08D2005208CA005D08D200D7
:101758005208CE004B08D2005208DD004F08D200D4
:101768005208CB005D08D2005208CF004C08D200C6
:101778005208DD005008D2005208CC005D08D200A3
:101788005208D0004D08D2005208DD005108D2009E
:101798005208CD005D08D2005208D100DD015B0877
:1017A800D200D3015308D5005C085202D400031CB0
:1017B800D5035508803AFF0080307F02031DE62BD1
:1017C8001A305402031C1F2C831203134D084C04B7
:1017D8004B044A040319F22B0130F32B0030D200DA
:1017E8005208DD000030CD000030CC000030CB00C6
:1017F8000030CA005B08D2005208DC00252C5D1CB2
:101808000E2C5D08D2000310520C0138D300530887
:10181800DD00102C0310DD0C4A18DD170130D20052
:101828004D0DCD0CCC0CCB0CCA0CD20B142C0130AA
:10183800D2005208DC07831203135B085C02031C06
:10184800032C5A1B662C5C08031D332C0030CD007A
:101858000030CC000030CB000030CA0008004E0831
:10186800CA074F0803110318013E031DCB07500890
:1018780003110318013E031DCC0751080311031877
:10188800013E031DCD074D1C082D5D1C542C5D0821
:10189800D2000310520C0138D3005308DD00562C37
:1018A8000310DD0C4A18DD170130D2004D0DCD0CA8
:1018B800CC0CCB0CCA0CD20B5A2C0130D2005208DB
:1018C800DC07082D4D08803AFF005108803A7F0256
:1018D800031D782C50084C02031D782C4F084B022E
:1018E800031D782C4E084A020318D02CFF30D20072
:1018F800FF30D300FF30D400FF30D5004E08D600AB
:101908004F08D7005008D8005108D9004A08D60215
:101918004B08031C4B0F912C922CD7024C08031C2C
:101928004C0F972C982CD8024D08031C4D0F9D2C5A
:101938009E2CD9025608D20757080318570FA52C12
:10194800A62CD30758080318580FAB2CAC2CD40777
:1019580059080318590AD5075508CD005408CC0072
:101968005308CB005208CA008030D2005208DA0669
:10197800DD09DD0A5D08031DDE2C0130CA070030D1
:1019880003180130CB07003003180130CC070030B2
:1019980003180130CD07DE2C4E08CA024F08031C7D
:1019A8004F0FCB025008031C500FCC025108031CE8
:1019B800510FCD024D084C044B044A04031D062D5B
:1019C8005D08031D062D0030CD000030CC0000302E
:1019D800CB000030CA0008000130D2000310CA0D45
:1019E800CB0DCC0DCD0DD20BF22CDD1B4A145D1C9A
:1019F800FF2C0314002D0310DD0D5C080319062DC0
:101A08000130DC02CC1FF02CDB01DD1F132D5D083B
:101A18007F3903194A18112D132DDB01DB0A5B08E6
:101A28000319462D0130CA07003003180130CB07CF
:101A3800003003180130CC07003003180130CD07FF
:101A48004D1C462D4A08D2004B08D3004C08D40040
:101A58004D08D5000130D600550DD50CD40CD30C4B
:101A6800D20CD60B302D5508CD005408CC005308A5
:101A7800CB005208CA005C0A0319462D0130D20077
:101A88005208DC075C0A031D5C08031D562D003054
:101A9800CD000030CC000030CB000030CA005C081C
:101AA8000319DA015C1C5A2DCC175E2D7F30D20049
:101AB8005208CC055C08D2000310520CD30053081E
:101AC800CD00DA1F0800CD170800A4002408031D64
:101AD8000F2F1F169F1624088312E600E60DE60D49
:101AE8001F086606C33966069F000030A300003051
:101AF800A2000030A1000130A0000A168A15F224C5
:101B08000A128A1500308316A8000030A70000309A
:101B1800A6000030A5000130A9000030AA00240862
:101B28000A168A158B260A128A154408CD0043081E
:101B3800CC004208CB004108CA008316280883124B
:101B4800D100831627088312D00083162608831233
:101B5800CF00831625088312CE000A128A153C236B
:101B68000A128A154D088316A80083124C0883169A
:101B7800A70083124B088316A60083124A0883160F
:101B8800A5000A168A15C7210A128A15013A0319EF
:101B9800DB2D01308316A9070318AA0A0030AA070B
:101BA80000302A020F3003192902031C932D00303C
:101BB80083162A020A3003192902031C08000F3071
:101BC80029062A04031DF22D2908FF3E8312B300BB
:101BD80083162A080318013EFF3EF72D29088312B1
:101BE800B30083162A088312B400B501B601003089
:101BF8000A168A11CA210A128A153608C40035083D
:101C0800C3003408C2003308C100831628088312B1
:101C1800C800831627088312C70083162608831274
:101C2800C600831625088312C5000A128A159B214F
:101C38000A128A1544088316A800831243088316DB
:101C4800A700831242088316A60083124108831650
:101C5800A50028088312E100831627088312E000F4
:101C6800831626088312DF00831625088312DE00F8
:101C78004430E5007F30E400C030E3000030E2008B
:101C88000A168A154B220A128A1561088316D4008F
:101C9800831260088316D30083125F088316D2006C
:101CA80083125E088316D10054088312AC00831691
:101CB80053088312AB00831652088312AA008316B6
:101CC80051088312A900831654088312B0008316A2
:101CD80053088312AF00831652088312AE0083168E
:101CE80051088312AD000A128A11BC240A128A15FF
:101CF8002C088316D40083122B088316D300831272
:101D08002A088316D200831229088316D1003B3093
:101D18008312AC001130AB007D30AA006B30A900F3
:101D2800831654088312B000831653088312AF0039
:101D3800831652088312AE00831651088312AD0031
:101D48000A128A11BC240A128A152C088316D40098
:101D580083122B088316D30083122A088316D20015
:101D6800831229088316D10043308312CD00163020
:101D7800CC000030CB000030CA0083165408831210
:101D8800D100831653088312D00083165208831299
:101D9800CF00831651088312CE000A128A153C23FD
:101DA8000A128A154D088316D40083124C0883162C
:101DB800D30083124B088316D20083124A08831675
:101DC800D10044308312A300FA30A2000030A100F1
:101DD8000030A000831654088312A7008316530806
:101DE8008312A600831652088312A5008316510891
:101DF8008312A4000A168A1137210A128A150318B9
:101E0800080044308316D400FA30D3000030D200E2
:101E18000030D10008001F129F1224088312E60028
:101E2800E60DE60D1F086606C33966069F000030FA
:101E3800A3000030A2000030A1000130A0000A1663
:101E48008A15F2240A128A1500308316A800003079
:101E5800A7000030A6000030A5000130A90000301E
:101E6800AA0024080A168A154D260A128A152A0875
:101E7800E6002B08E700E801E9016908B6006808F0
:101E8800B5006708B4006608B30000300A168A1166
:101E9800CA210A128A1536088316A3008312350848
:101EA8008316A200831234088316A1008312330814
:101EB8008316A00028088312A3008316270883121C
:101EC800A200831626088312A10083162508831210
:101ED800A000831623088312A70083162208831202
:101EE800A600831621088312A500831620088312F2
:101EF800A4000A168A1137210A128A1503188D2F91
:101F080083162308A8002208A7002108A600200895
:101F1800A5000A168A15C7210A128A15013A03195B
:101F2800A32F01308316A9070318AA0A0030AA07AD
:101F380000302A020F3003192902031C352F003004
:101F480083162A020A3003192902031C08003E30AE
:101F58008312AC00A230AB00F730AA00B130A90060
:101F6800831628088312B000831627088312AF004F
:101F7800831626088312AE00831625088312AD0047
:101F88000A128A11BC240A128A152C088316D0005A
:101F980083122B088316CF0083122A088316CE00DB
:101FA800831229088316CD0050088312A3008316D4
:101FB8004F088312A20083164E088312A1008316CD
:101FC8004D088312A0004130A7007030A6000030F1
:101FD800A5000030A4000A168A1137210A128A15B2
:101FE8000318080000308316D0000030CF000030FE
:081FF800CE000030CD0008000E
:1020080083120313A00014308316DF000030E000B1
:10201800981C0C288312200899008316981608002B
:1020280083120313DA000030DE000030DD000030D8
:10203800DC000030DB005E08D1005D08D0005C08E1
:10204800CF005B08CE005908D3005808D2005A08C0
:102058000A168A1569220A168A1164000230831248
:102068000313DB07003003180130DC0700300318C6
:102078000130DD07003003180130DE075E08031D5C
:1020880008005D08031D080004305C02031D502889
:1020980000305B02031D5028031808001F28031096
:1020A800450D460DC7004708CD004D08031D65289E
:1020B8000030C6000030C5000030C4000030C30046
:1020C80008004308C7004408C8004508C900460876
:1020D800CA001F300310CA0CC90CC80CC70CFF3E3D
:1020E800031D6E284708CB004B08CC00C517FF30EE
:1020F800C305FF30C405FF30C5050030C60596305E
:10210800CD02CD1F9C284D08803A973E031C5C28C1
:1021180001300310C60CC50CC40CC30CFF3E031DD4
:102128008D280130C7004708CD070319AF288C2830
:1021380020304D0203185C284D080319AF280130E0
:10214800C7000310C30DC40DC50DC60DC70BA528C8
:102158000130CD02A0284C0803190800C309C4099E
:10216800C509C609C30A0319C40A0319C50A03190C
:10217800C60A08005B08D1005A08D0005908CF00E9
:102188005808CE00831650088312B00083164F08F3
:102198008312AF0083164E088312AE0083164D08D3
:1021A8008312AD004130AC002030AB000030AA00F3
:1021B8000030A9000A128A11BC240A168A112C08B8
:1021C800C6002B08C5002A08C4002908C3000A163F
:1021D8008A1153200A168A114408D3004308D200F2
:1021E80000300A168A1569220A168A118312031307
:1021F8005B08D1005A08D0005908CF005808CE0013
:10220800831654088312B000831653088312AF0054
:10221800831652088312AE00831651088312AD004C
:102228004130AC002030AB000030AA000030A900DB
:102238000A128A11BC240A168A112C08C6002B0817
:10224800C5002A08C4002908C3000A168A115320A9
:102258000A168A114408D3004308D20001300A162E
:102268008A156922080000302005A80000302105E1
:10227800A90080302205AA007F302305AB002B0877
:102288002A0429042804031D51290030A300003022
:10229800A2000030A1000030A00000302405A800F2
:1022A80000302505A90080302605AA007F302705C3
:1022B800AB002B082A0429042804031D6B290030CD
:1022C800A7000030A6000030A5000030A400A31F1E
:1022D80091290030A8000030A9000030AA00803001
:1022E800AB002008A8022108031C210F7C297D29A6
:1022F800A9022208031C220F82298329AA02230883
:10230800031C230F88298929AB022B08A3002A085C
:10231800A2002908A1002808A000A71FB72900309B
:10232800A8000030A9000030AA008030AB002408C3
:10233800A8022508031C250FA229A329A9022608FB
:10234800031C260FA829A929AA022708031C270F5E
:10235800AE29AF29AB022B08A7002A08A600290836
:10236800A5002808A4008030A3068030A706270807
:102378002302031D080026082202031D0800250861
:102388002102031D0800240820020800BB003B08A6
:10239800031DB61FDF293309BD003409BE00350906
:1023A800BF003609C000BD0A0319BE0A0319BF0AD7
:1023B8000319C00AE7293608C0003508BF003408E9
:1023C800BE003308BD003608350434043304031D49
:1023D800F6290030B6000030B5000030B4000030F7
:1023E800B30008009630B7003708BC00FE3040053F
:1023F8000319272A0130B7003708BC07013003103A
:10240800C00CBF0CBE0CBD0CFF3E031D032AFA29ED
:102418000130B7003708BC070130BD07003003188A
:102428000130BE07003003180130BF070030031821
:102438000130C00701300310C00CBF0CBE0CBD0C2E
:10244800FF3E031D1F2AFF30400503193B2A0C2AB3
:1024580002303C02031C3D2A0130BC020130B700A7
:102468000310BD0DBE0DBF0DC00DB70B342ABF1F25
:102478002C2A3C18472AFF30BD05FF30BE057F30A7
:10248800BF05FF30C0050310BC0C3C08B700B801FD
:10249800B901BA0118300310B70DB80DB90DBA0D4E
:1024A800FF3E031D4F2A3708BD043808BE0439080B
:1024B800BF043A08C0043B08031DB61F642AC017AE
:1024C8004008B6003F08B5003E08B4003D08B30018
:1024D800080083120313A9002508031D0800023011
:1024E8002402031D7F2A00302302031D7F2A0030A7
:1024F8002202031D7F2A031808002508031D922ABB
:1025080001302402031D902A00302302031D902A63
:1025180000302202031D902A031C972A0830A700C6
:102528002708AA00982AAA012908A7002708AB00AB
:102538000310AB0DA030A7002708AB042A08A7009A
:102548002708AB040A168A153F210A168A11831236
:102558002B08A700A8012708A0002808A1000A1630
:102568008A1548210A168A112308A700A8012708F6
:10257800A0002808A1000A168A1548210A168A11FF
:102588002208A700A8012708A0002808A1000A1609
:102598008A1548210A168A1126088400831700081C
:1025A80003193F2B2508031D080002302402031DD0
:1025B800E52A00302302031DE52A00302202031D0C
:1025C800E52A031808002208013E7F39031D1E2B47
:1025D800260884000008A700A8012708A0002808EA
:1025E800A1000A168A1548210A168A110A168A15A0
:1025F8002D210A168A110D3083120313A800FB300F
:10260800A700A70B052BA80B052B0130831203137A
:10261800A207003003180130A30700300318013067
:10262800A407003003180130A5070130A7002708C8
:10263800A607812A260884000008A700A801270801
:10264800A0002808A1000A168A1548210A168A112E
:102658000130A7002708A6070130A2070030031899
:102668000130A307003003180130A4070030031815
:102678000130A507D02A0030A000A1000A168A154B
:1026880048210A168A110A168A152D210A168A1156
:102698000D3083120313A800FB30A700A70B522BA1
:1026A800A80B522B08008B188B100C1CCF2BB130A9
:1026B8008F00F3308E000C108316E91F652BE91389
:1026C80064000A30F8070318F90A0030F9070330E4
:1026D8007902E83003197802031C742BF801F90118
:1026E80001307902F4300319780203187F2B831222
:1026F80003138617822B83120313861383165F082E
:1027080060040319902B0A30DF020030031CE00339
:10271800E00283120617922B831206137A087B04B1
:1027280003199E2B0A30FA020030031CFB03FB023C
:1027380086169F2B86120A308316D7070318D80AE5
:102748000030D8070A30DD070318DE0A0030DE073C
:10275800E8305D06033003195E06031DCF2BDD014B
:10276800DE010130F0007008E7073C306706031D02
:10277800CF2BE7010130F0007008E5073C30650613
:10278800031DCF2BE5010130F0007008E607183073
:1027980066060319E60183128C1E362C831669140B
:1027A8001E30F6000030F700D901DA019030F00051
:1027B8007008E100760877040319112C83120313BB
:1027C8008C1E0A2C1A08F000831661088400700811
:1027D800831780005A08803AFF0080307F02031D6B
:1027E800F72B293059020318052C013083160313DF
:1027F800D9070318DA0A0030DA070130F000700848
:10280800E1071E30F6000030F700DE2B0130F6023B
:102818000030031CF703F702DE2B8316031361084D
:102828008400831780018312981C362C18121816FE
:102838001A08F000F1017008F6007108F7001A088C
:10284800F000F1017008F6007108F7001A08F000AE
:10285800F1017008F6007108F7008316031790015C
:102868000313E91475088312FF0074088A007308BB
:102878008400720E8300FE0E7E0E09000230831261
:102888000313EC000430EB00B930EA00EA0B4A2CE1
:10289800EB0B4A2CEC0B4A2C512C831603130F1606
:1028A8008F160F1783128501860187018901EF3082
:1028B800831685000F308600F0308700FF308900CE
:1028C8001130031788008901031381130F30950015
:1028D80083128617061786160030A3000030A20060
:1028E8000330A100E830A0000A168A1561250A16EF
:1028F8008A118316811281150114811401158B1216
:102908000B128B170B178312101690169010831644
:102918000C1401308312900064000A168A15642191
:102928000A168A110030B1000130B0008630AF00BD
:10293800A030AE000A168A152A240A168A11003019
:102948008312A3000130A200C230A1000030A00011
:102958000A168A1511260A168A1110300A168A15BF
:102968007C230A168A112408EE002308ED006D0A5C
:10297800031DCA2C6E0A031DCA2C0030A500A60030
:1029880010300A168A155B240A168A110130831240
:102998000313ED070318EE0A0030EE076E08A600D1
:1029A8006D08A50010300A168A155B240A168A11CC
:1029B800F801F90183160313DF01E001FA01FB01B5
:1029C800E701E60183120710871005118511060932
:1029D8000F39EA006A088316E300E401E40A681183
:1029E800E91701308312EA006A088316E407023007
:1029F80064060319E40164080A128A1569250A168F
:102A08008A118316691CF42C031710080313DC00C1
:102A1800031711080313DB00BB305B06AA30031948
:102A28005C06031DF42C0317130883120313EA0032
:102A38006A088316E20062086306031D620A031D22
:102A4800F42C1430DF000030E0000A128A1136201E
:102A58000A168A1183166910F42C83120313AC002A
:102A68001430FA000030FB002508031D080002306E
:102A78002402031D472D00302302031D472D00307B
:102A88002202031D472D031808002508031D5A2D8F
:102A980001302402031D582D00302302031D582D38
:102AA80000302202031D582D031C5F2D0830A90099
:102AB8002908AD00602DAD012C08A9002908AE0039
:102AC8000310AE0DA030A9002908AE042D08A900F6
:102AD8002908AE040A168A153F210A168A1183129C
:102AE8002E08A900AA012908A0002A08A1000A1690
:102AF8008A1548210A168A112308A900AA0129085B
:102B0800A0002A08A1000A168A1548210A168A1167
:102B18002208A900AA012908A0002A08A1000A166B
:102B28008A1548210A168A11AB012608FF3EA9001A
:102B3800FF3003180030AA002A08803A803C031DA1
:102B4800A72D29082B020318712E831203132508B9
:102B5800031D080002302402031DBA2D0030230291
:102B6800031DBA2D00302202031DBA2D03180800D8
:102B78002208013E7F39031D472E2708840083174A
:102B8800281C83130008A900AA012908A0002A0804
:102B9800A1000A168A1548210A168A110A168A15EA
:102BA8002D210A168A110D3083120313AA00FB3057
:102BB800A900A90BDD2DAA0BDD2D0130831203130B
:102BC800A207003003180130A307003003180130B2
:102BD800A407003003180130A5070130A707031820
:102BE800A80A0030A8072508031D082E0130240272
:102BF800031D062E00302302031D062E003022027C
:102C0800031D062E031C0D2E0830A9002908AD004F
:102C18000E2EAD012C08A9002908AE000310AE0D38
:102C2800A030A9002908AE042D08A9002908AE047F
:102C38000A168A153F210A168A1183122E08A9003E
:102C4800AA012908A0002A08A1000A168A15482105
:102C58000A168A112308A900AA012908A0002A082F
:102C6800A1000A168A1548210A168A112208A90005
:102C7800AA012908A0002A08A1000A168A154821D5
:102C88000A168A116C2E270884008317281C8313C0
:102C98000008A900AA012908A0002A08A1000A160C
:102CA8008A1548210A168A110130A7070318A80AAD
:102CB8000030A8070130A207003003180130A3072D
:102CC800003003180130A407003003180130A507AD
:102CD8000130A9002908AB07992D8312031327088F
:102CE80084008317281C83130008A900AA01290857
:102CF800A0002A08A1000A168A1548210A168A1176
:102D08000A168A152D210A168A110D30831203130B
:102D1800AA00FB30A900A90B8F2EAA0B8F2E080042
:102D280083120313AE00AF012908031D0800023007
:102D38002802031DA72E00302702031DA72E0030EE
:102D48002602031DA72E031808002908031DBA2E02
:102D580001302802031DB82E00302702031DB82EAB
:102D680000302602031DB82E031CBF2E0830AB000E
:102D78002B08AF00C02EAF012E08AB002B08B00007
:102D88000310B00DA030AB002B08B00430142F088E
:102D9800AB002B08B0040A168A153F210A168A11BF
:102DA80083123008FE39AB00AC012B08A0002C08B8
:102DB800A1000A168A1548210A168A112708AB00AD
:102DC800AC012B08A0002C08A1000A168A1548217E
:102DD8000A168A112608AB00AC012B08A0002C08A3
:102DE800A1000A168A1548210A168A110A168A1598
:102DF80032210A168A1183123008AB00AC012B0865
:102E0800A0002C08A1000A168A1548210A168A1162
:102E1800AD012908031DE92F02302802031D1C2FCC
:102E280000302702031D1C2F00302602031D1C2F13
:102E38000318E92F2608013E7F39031DB92F0030FA
:102E4800A000A1000A168A15FD230A168A11200877
:102E5800AB002A0884002B08831780000A168A15FD
:102E68002D210A168A110D3083120313AC00FB3092
:102E7800AB00AB0B3D2FAC0B3D2F0130831203137E
:102E8800A607003003180130A707003003180130E7
:102E9800A807003003180130A9070130AB002B0840
:102EA800AA072908031D662F01302802031D642F75
:102EB80000302702031D642F00302602031D642FF3
:102EC800031C6B2F0830AB002B08AF006C2FAF0131
:102ED8002E08AB002B08B0000310B00DA030AB00DB
:102EE8002B08B00430142F08AB002B08B0040A16C6
:102EF8008A153F210A168A1183123008FE39AB0061
:102F0800AC012B08A0002C08A1000A168A1548213C
:102F18000A168A112708AB00AC012B08A0002C0860
:102F2800A1000A168A1548210A168A112608AB003C
:102F3800AC012B08A0002C08A1000A168A1548210C
:102F48000A168A110A168A1532210A168A1183125C
:102F58003008AB00AC012B08A0002C08A1000A1611
:102F68008A1548210A168A11E02F0130A000003086
:102F7800A1000A168A15FD230A168A112008AB003B
:102F88002A0884002B08831780002A088400000878
:102F98000319E92F0130AB002B08AA070130A60757
:102FA800003003180130A707003003180130A807C4
:102FB800003003180130A9070130AD07FF302D0795
:102FC800AB0040302B02031C0D2F0030A000A100E5
:102FD8000A168A15FD230A168A110A168A152D2142
:102FE8000A168A11B93083120313AB00FB2FFC2F8A
:102FF800AB0BFA2FFF2F0800FF1B0A2883137F183B
:1030080083170008840A0319FF0A080018308A0089
:103018000408840A8207003466346634A634BF3450
:103028001434AE342B34C134003440341C344634A8
:1030380066348634963443340034C0347F344434A0
:103048000034003400340034C434FF347F343F3457
:103058008034EF34FF34BE349034E134A9343E3444
:10306800EC3482347634BE348234AD342B343E347E
:103078000E343C34C334BD348734D13413343D3436
:1030880041347834D334BB34003460347834453434
:10309800003440341C344634763431342E343034E1
:1030A8002E34373400344F344B3400343034003449
:0430B8003A34003472
:10325A000A168A153721111508000A168A15372108
:10326A009114080083161419372911081F390319F4
:10327A00080037291430FA000030FB000A168A15B4
:10328A003721111408008316E9170A168A153721FF
:10329A00831220089300080048308312A10080306E
:1032AA00A2000A168A15BF2408009F149F185B29DA
:1032BA001E08A10083161E088312A0000800C03051
:1032CA00831203139F04803083169F009F17831273
:1032DA001F1408000330D8005808D9005708D8002E
:1032EA005808DA005608D8005808DB000330D8001E
:1032FA005808D20059300A168A152925080083125F
:10330A000313B4003208A5003108A4003008A30052
:10331A002F08A200A601A60A3330A7000030A80091
:10332A0034080A168A11312508004E30D000500898
:10333A00D100510A8400831300080A168A11042056
:10334A000A168A15831251088400831300080A1684
:10335A008A11042008005B08D3005A08D2005C08CE
:10336A00D4000130D5005C080A168A15F7210A161E
:10337A008A152008013EDD005D08D6000A128A116E
:10338A00B12708008316691CD929031713080313E8
:10339A0063060319D4290317130A031DD9298312B3
:1033AA000313A001A00ADC2983120313A001200839
:1033BA00080083120313B8003708A9003608A800CA
:1033CA003508A7003408A600AA01AA0A3930AB00BA
:1033DA000030AC0038080A128A1528208312031319
:1033EA003908080083120313A4002408A200220843
:1033FA00A30023088400831700080319092A01304F
:10340A00A2002208A307FE2924082302A000A10182
:10341A00A01BA1030800A401A50121082502031D80
:10342A00182A200824020318080003308312031301
:10343A00A3009730A200A20B202AA30B202A013056
:10344A0083120313A4070318A50A0030A507122A3A
:10345A00A2002208A1002108A300200884000A165D
:10346A008A150A200A168A15A10023088400210851
:10347A00831780000008031908000130A100210801
:10348A00A3070130A1002108A007322A8030E106F3
:10349A006508CD006408CC006308CB006208CA0046
:1034AA006108D1006008D0005F08CF005E08CE0036
:1034BA000A128A153C234D08E1004C08E0004B082B
:1034CA00DF004A08DE00080083120313D500530800
:1034DA00D4005408D6005208D4005408D700510822
:1034EA00A5005008A4004F08A3004E08A20002300D
:1034FA00D4005408A6005630A7000030A80055088A
:10350A000A168A113125080083120313A50025081B
:10351A000A168A15C9220A168A150313A400240852
:10352A00A6000130A4002408A5072608A400230841
:10353A0084002408831780000130A4002408A3070C
:10354A002608031908008C2AB700B21FBC2A2D309E
:10355A00B500370884003508831380000130B500B0
:10356A003508B707B109B209B10A0319B20A320814
:10357A00A9003108A8003408AB003308AA003708AC
:10358A000A168A159C27080083120313A200143016
:10359A00FA000030FB00831603178C18D02A831216
:1035AA000313220803178D0083168C130C144E3054
:1035BA0083120313A100EA30A000A00BE22AA10B98
:1035CA00E22A0000831203170C0808000A30A00040
:1035DA000030A1005708A3005608A2000A168A154F
:1035EA00D5250A168A152108D7002008D6000230E8
:1035FA00D8005808D9005608D8005808DA0002300E
:10360A00D8005808D20059300A168A152925080008
:10361A00A800A401A5012008A200A3012208A6006F
:10362A002308A700281C1F2B2608A4070318A50A8D
:10363A002708A50701300310A60DA70DFF3E031D9D
:10364A00202B0310A80C2808031D172B2508A100FE
:10365A002408A0000800A500A6012530A30023081D
:10366A00A7002608A300A40122082402031D3F2B59
:10367A00210823020318080027088400831300087E
:10368A000A168A1104200A168A1501308312A30029
:10369A002308A7070130A3002308A607362B8312A5
:1036AA000313BA003708A9003608A8003508A7008E
:1036BA003408A6000230B8003808AA003B30AB0034
:1036CA000030AC003A080A128A1528208312031324
:1036DA003B08B800B9013808B900B8013C083807F6
:1036EA00B4000030031801303907B500080083120E
:1036FA000313A6002830A5002508A700AA0126085A
:10370A000A168A15C9220A168A150313A50027085C
:10371A0084002508831380000130A5002508A60728
:10372A000130A5002508A7070130A5002508AA072A
:10373A0002302A02031C842B2908A4002808A300AB
:10374A00080083120313A7002508840083170008C2
:10375A000319C62B250884000008A6002608A00025
:10376A0027080A168A1599250A168A15013083121E
:10377A000313A6002608A7070130A6002608A507F6
:10378A00A92B250884000008A6002608A0002708FF
:10379A000A168A1599250800A4002408A2002208FE
:1037AA00A3002308840000080319EA2B0130A200B1
:1037BA002208A307D62B0130A2002208A307013052
:1037CA00A0070318A10A0030A1072108FF0020085A
:1037DA0084000A168A1500200A168A15A2002308F0
:1037EA008400220883178000000803190800E02BD0
:1037FA008316E9170A168A1537210A168A159115AA
:10380A000A168A1537210A168A1583121308A20086
:10381A00A3012208A4002308A5000A168A15372145
:10382A000A168A15831220082104031D202C8316E8
:10383A0003139116232C8316031391121116831264
:10384A002508A1002408A000080028309400831647
:10385A00910183122E08B2002F08B3003008B40079
:10386A003108B50002300310B20DB30DB40DB50D19
:10387A00FF3E031D382C3508A3003408A200330884
:10388A00A1003208A0000030A7007A30A60012304A
:10389A00A5000030A4000A168A153E272008FF3E1C
:1038AA008316930094018715071608008312AB004C
:1038BA002530A7002708AA00AC012A088400831330
:1038CA000008A7002708A0002B080A168A159925C0
:1038DA000A168A15013083120313A7002708AA07BC
:1038EA000130A7002708AB070130A7002708AC075B
:1038FA0002302C02031C622C4E3083120313A800E0
:10390A00EA30A700A70B872CA80B872C0000080019
:10391A00200821040319BA2CA501A50AA11BA12C70
:10392A0001300310A00DA10DFF3E031D962C01309E
:10393A00A4002408A507932C21082302031DA72C01
:10394A0020082202031CAF2C2008A2022108031C13
:10395A00A303A30201300310A10CA00CFF3E031D18
:10396A00B02C0130A502031DA12C2308A1002208B6
:10397A00A00008002108A3002208A4002408FF00D0
:10398A00230884000A168A1500200A168A15003AA6
:10399A000319E52C2408FF00230884000A168A1557
:1039AA0000200A168A150A168A1104200A168A1590
:1039BA0001308312A3070318A40A0030A407C32CFA
:1039CA002408FF00230884000A168A1500200A1614
:1039DA008A150A168A11042008000030A90000304E
:1039EA00A8000030A7000030A6002908803AFF008E
:1039FA002308803A7F02031D0C2D22082802031D8A
:103A0A000C2D21082702031D0C2D2008260203185D
:103A1A000800033083120313A5009730A400A40BF7
:103A2A00142DA50B142D013083120313A6070030A1
:103A3A0003180130A707003003180130A807003027
:103A4A0003180130A907FA2CD400A530CE005A3049
:103A5A00CF000A168A159A210A168A158312520865
:103A6A00013E0A168A1104200A168A1580300A169F
:103A7A008A1104200A168A158312D50152085502A2
:103A8A000318592D55085407D3005308840083138B
:103A9A0000080A168A1104200A168A1501308312B0
:103AAA00D3005308D507432D0130A0000030A100F0
:103ABA000A168A15102208000030A9000030A80052
:103ACA000030A7000030A6002908803AFF0023082A
:103ADA00803A7F02031D7B2D22082802031D7B2DBD
:103AEA0021082702031D7B2D20082602031808003F
:103AFA006400033083120313A5009730A400A40BBB
:103B0A00842DA50B842D013083120313A6070030E0
:103B1A0003180130A707003003180130A807003046
:103B2A0003180130A907692D83120313A300143067
:103B3A00FA000030FB00831603178C18A02D8B1F88
:103B4A00AB2D83120313A401A40AAE2D831203130F
:103B5A00A401230803178D000313200803178C0000
:103B6A0083168C130C158B1355308D00AA308D00DB
:103B7A008C14831203132403031DC52D8B17C62D22
:103B8A008B13831603170C114E3083120313A200F2
:103B9A00EA30A100A10BCF2DA20BCF2D0000080007
:103BAA00A601A7012008210403190C2EA501A50AC4
:103BBA00A11BEB2D01300310A00DA10DFF3E031D2B
:103BCA00E02D0130A4002408A507DD2D01300310E3
:103BDA00A60DA70DFF3E031DEC2D21082302031D90
:103BEA00F82D20082202031C012E2008A202210817
:103BFA00031CA303A302261401300310A10CA00C7A
:103C0A00FF3E031D022E0130A502031DEB2D2708DE
:103C1A00A1002608A00008004B3021062004220437
:103C2A002304031D222E9817181683161815181226
:103C3A0018130C3099000B173B2EC2302106031DB6
:103C4A003C2E220320042304031D3C2E103083162D
:103C5A0099000317871503131815831298178316EB
:103C6A0018121813831218160B1783168C1683163C
:103C7A0007178717831218121816A6011A08013097
:103C8A00A4002408A6070F30260203180800432EB2
:103C9A008312AD002D08AC00AC0DAC0D1F082C062C
:103CAA00C3392C069F000030A3000030A200003068
:103CBA00A1000130A0000A168A15F2240A168A15F4
:103CCA00B001B101B201B20A0A168A155A210A16BE
:103CDA008A152108AF002008AE002F083102031D03
:103CEA00782E2E08300203187E2E2F08B1002E08D7
:103CFA00B0000130AC002C08B20733303202031C8A
:103D0A00692E3108AB003008AA0008008312C600E9
:103D1A004608C500C50DC50D1F084506C339450629
:103D2A009F000030A3000030A2000030A100013043
:103D3A00A0000A168A15F2240A168A15C701C801B4
:103D4A00C901C90A0A168A155A210A168A152008AB
:103D5A00C7070318C80A2108C8070130C500450863
:103D6A00C90733304902031CA72E4908FF3EA000A9
:103D7A00FF3003180030A1004808A3004708A2003A
:103D8A000A168A15D5250A168A152108C800200898
:103D9A00C7004708B3004808B400B501B6010030AF
:103DAA000A168A11CA213608C4003508C300340825
:103DBA00C2003308C10008008312A400240884004A
:103DCA0083160317110883178000840A10088000DD
:103DDA00120883120313A0002408023E840020085C
:103DEA00800083160317130883120313A000240804
:103DFA00033E8400200880008316031714088312E8
:103E0A000313A0002408043E8400200880008316BF
:103E1A000317150883120313A0002408053E840023
:103E2A0020088000A201A3012408053E840023087B
:103E3A00803AA00080302002031D252F00082202AC
:103E4A0003180800831203132208963E840083177E
:103E5A000008A00022082407A1002108063E8400C9
:103E6A00200880000130A2070318A30A0030A30724
:103E7A00192F0030AC000030AB000030AA0000302F
:103E8A00A90023082204210420040319932FAD0159
:103E9A00AD0AA31B5E2F0130A8000310A00DA10DCF
:103EAA00A20DA30DA80B522F0130A8002808AD07B8
:103EBA004E2F0130A8000310A90DAA0DAB0DAC0DB1
:103ECA00A80B602F23082702031D752F220826023C
:103EDA00031D752F21082502031D752F20082402B2
:103EEA00031C862F2008A4022108031C210FA50207
:103EFA002208031C220FA6022308031C230FA70271
:103F0A00291401300310A30CA20CA10CA00CFF3E33
:103F1A00031D872F0130AD02031D5E2F2C08A3005D
:103F2A002B08A2002A08A1002908A0000800B00056
:103F3A002908AE002808AD002B08A1002A08A00015
:103F4A002E08A3002D08A2000A168A15D5250A16DE
:103F5A008A152108AE002008AD000130AC002C08FB
:103F6A00B0072D082E04031DA12F300884008313E7
:103F7A0080010130B0022B08A1002A08A0002908FC
:103F8A00A3002808A2000A168A158D240A168A1583
:103F9A002008AC002C08AF002B08A1002A08A000BA
:103FAA002908A3002808A2000A168A15D5250A1688
:103FBA008A152108A9002008A8000A302F02031C2C
:103FCA00EA2F0730AC002C08AF073030AC002C08C1
:103FDA00AF072F08AC00300884002C088313800038
:103FEA000130B00228082904031DC02F0130AC009B
:063FFA002C08B0070800CE
:04400E008CEFFFFF35
:00000001FF
